{
  "abi": [
    {
      "inputs": [
        {
          "internalType": "address",
          "name": "tokenAddress",
          "type": "address"
        }
      ],
      "stateMutability": "nonpayable",
      "type": "constructor"
    },
    {
      "anonymous": false,
      "inputs": [
        {
          "indexed": true,
          "internalType": "address",
          "name": "previousOwner",
          "type": "address"
        },
        {
          "indexed": true,
          "internalType": "address",
          "name": "newOwner",
          "type": "address"
        }
      ],
      "name": "OwnershipTransferred",
      "type": "event"
    },
    {
      "anonymous": false,
      "inputs": [
        {
          "indexed": true,
          "internalType": "enum IVesting.Sale",
          "name": "sale",
          "type": "uint8"
        },
        {
          "indexed": false,
          "internalType": "uint256",
          "name": "amountEmptied",
          "type": "uint256"
        }
      ],
      "name": "StageEmptied",
      "type": "event"
    },
    {
      "anonymous": false,
      "inputs": [
        {
          "indexed": true,
          "internalType": "enum IVesting.Sale",
          "name": "sale",
          "type": "uint8"
        },
        {
          "indexed": false,
          "internalType": "uint256",
          "name": "amountRefilled",
          "type": "uint256"
        }
      ],
      "name": "StageRefilled",
      "type": "event"
    },
    {
      "anonymous": false,
      "inputs": [
        {
          "indexed": false,
          "internalType": "enum IVesting.Sale",
          "name": "sale",
          "type": "uint8"
        },
        {
          "indexed": false,
          "internalType": "uint256",
          "name": "maxSupply",
          "type": "uint256"
        },
        {
          "indexed": false,
          "internalType": "uint256",
          "name": "releaseTGE",
          "type": "uint256"
        },
        {
          "indexed": false,
          "internalType": "uint256",
          "name": "cliff",
          "type": "uint256"
        },
        {
          "indexed": false,
          "internalType": "uint256",
          "name": "period",
          "type": "uint256"
        }
      ],
      "name": "StageSet",
      "type": "event"
    },
    {
      "anonymous": false,
      "inputs": [
        {
          "indexed": true,
          "internalType": "uint256",
          "name": "vestingIndex",
          "type": "uint256"
        },
        {
          "indexed": true,
          "internalType": "address",
          "name": "wallet",
          "type": "address"
        },
        {
          "indexed": false,
          "internalType": "uint256",
          "name": "amountVested",
          "type": "uint256"
        }
      ],
      "name": "VestingAdded",
      "type": "event"
    },
    {
      "anonymous": false,
      "inputs": [
        {
          "indexed": true,
          "internalType": "uint256",
          "name": "vestingIndex",
          "type": "uint256"
        },
        {
          "indexed": true,
          "internalType": "address",
          "name": "wallet",
          "type": "address"
        },
        {
          "indexed": false,
          "internalType": "uint256",
          "name": "amountUnvested",
          "type": "uint256"
        }
      ],
      "name": "VestingCanceled",
      "type": "event"
    },
    {
      "anonymous": false,
      "inputs": [
        {
          "indexed": true,
          "internalType": "uint256",
          "name": "vestingIndex",
          "type": "uint256"
        },
        {
          "indexed": true,
          "internalType": "address",
          "name": "wallet",
          "type": "address"
        },
        {
          "indexed": false,
          "internalType": "uint256",
          "name": "amountClaimed",
          "type": "uint256"
        }
      ],
      "name": "VestingClaimed",
      "type": "event"
    },
    {
      "inputs": [],
      "name": "BLOCKS_PER_MONTH",
      "outputs": [
        {
          "internalType": "uint256",
          "name": "",
          "type": "uint256"
        }
      ],
      "stateMutability": "view",
      "type": "function"
    },
    {
      "inputs": [],
      "name": "MAX_LENGTH",
      "outputs": [
        {
          "internalType": "uint256",
          "name": "",
          "type": "uint256"
        }
      ],
      "stateMutability": "view",
      "type": "function"
    },
    {
      "inputs": [],
      "name": "PERCENTAGE_100",
      "outputs": [
        {
          "internalType": "uint256",
          "name": "",
          "type": "uint256"
        }
      ],
      "stateMutability": "view",
      "type": "function"
    },
    {
      "inputs": [],
      "name": "PERIOD_DURATION",
      "outputs": [
        {
          "internalType": "uint256",
          "name": "",
          "type": "uint256"
        }
      ],
      "stateMutability": "view",
      "type": "function"
    },
    {
      "inputs": [],
      "name": "PRECISION",
      "outputs": [
        {
          "internalType": "uint256",
          "name": "",
          "type": "uint256"
        }
      ],
      "stateMutability": "view",
      "type": "function"
    },
    {
      "inputs": [
        {
          "internalType": "address",
          "name": "wallet",
          "type": "address"
        },
        {
          "internalType": "enum IVesting.Sale",
          "name": "sale",
          "type": "uint8"
        },
        {
          "internalType": "uint256",
          "name": "amount",
          "type": "uint256"
        }
      ],
      "name": "addVesting",
      "outputs": [],
      "stateMutability": "nonpayable",
      "type": "function"
    },
    {
      "inputs": [
        {
          "internalType": "address[]",
          "name": "wallets",
          "type": "address[]"
        },
        {
          "internalType": "enum IVesting.Sale[]",
          "name": "sales",
          "type": "uint8[]"
        },
        {
          "internalType": "uint256[]",
          "name": "amounts",
          "type": "uint256[]"
        }
      ],
      "name": "addVestingBatch",
      "outputs": [],
      "stateMutability": "nonpayable",
      "type": "function"
    },
    {
      "inputs": [
        {
          "internalType": "address",
          "name": "wallet",
          "type": "address"
        }
      ],
      "name": "balanceOf",
      "outputs": [
        {
          "internalType": "uint256",
          "name": "",
          "type": "uint256"
        }
      ],
      "stateMutability": "view",
      "type": "function"
    },
    {
      "inputs": [
        {
          "internalType": "address",
          "name": "wallet",
          "type": "address"
        },
        {
          "internalType": "enum IVesting.Sale",
          "name": "sale",
          "type": "uint8"
        }
      ],
      "name": "balanceOfSale",
      "outputs": [
        {
          "internalType": "uint256",
          "name": "",
          "type": "uint256"
        }
      ],
      "stateMutability": "view",
      "type": "function"
    },
    {
      "inputs": [],
      "name": "blockTGE",
      "outputs": [
        {
          "internalType": "uint256",
          "name": "",
          "type": "uint256"
        }
      ],
      "stateMutability": "view",
      "type": "function"
    },
    {
      "inputs": [
        {
          "internalType": "address",
          "name": "wallet",
          "type": "address"
        },
        {
          "internalType": "enum IVesting.Sale",
          "name": "sale",
          "type": "uint8"
        }
      ],
      "name": "cancelVesting",
      "outputs": [],
      "stateMutability": "nonpayable",
      "type": "function"
    },
    {
      "inputs": [],
      "name": "claim",
      "outputs": [],
      "stateMutability": "nonpayable",
      "type": "function"
    },
    {
      "inputs": [
        {
          "internalType": "address",
          "name": "wallet",
          "type": "address"
        }
      ],
      "name": "countOwnedVestings",
      "outputs": [
        {
          "internalType": "uint256",
          "name": "",
          "type": "uint256"
        }
      ],
      "stateMutability": "view",
      "type": "function"
    },
    {
      "inputs": [
        {
          "internalType": "enum IVesting.Sale",
          "name": "sale",
          "type": "uint8"
        }
      ],
      "name": "emptyStage",
      "outputs": [],
      "stateMutability": "nonpayable",
      "type": "function"
    },
    {
      "inputs": [
        {
          "components": [
            {
              "internalType": "uint256",
              "name": "maxSupply",
              "type": "uint256"
            },
            {
              "internalType": "uint256",
              "name": "lockedSupply",
              "type": "uint256"
            },
            {
              "internalType": "uint256",
              "name": "vestedSupply",
              "type": "uint256"
            },
            {
              "internalType": "uint256",
              "name": "claimedSupply",
              "type": "uint256"
            },
            {
              "internalType": "uint256",
              "name": "releaseTGE",
              "type": "uint256"
            },
            {
              "internalType": "uint256",
              "name": "cliff",
              "type": "uint256"
            },
            {
              "internalType": "uint256",
              "name": "period",
              "type": "uint256"
            }
          ],
          "internalType": "struct IVesting.StageInfo",
          "name": "stage",
          "type": "tuple"
        }
      ],
      "name": "getCurrentSupply",
      "outputs": [
        {
          "internalType": "uint256",
          "name": "",
          "type": "uint256"
        }
      ],
      "stateMutability": "pure",
      "type": "function"
    },
    {
      "inputs": [
        {
          "internalType": "uint256",
          "name": "offset",
          "type": "uint256"
        },
        {
          "internalType": "uint256",
          "name": "limit",
          "type": "uint256"
        }
      ],
      "name": "getListVestings",
      "outputs": [
        {
          "components": [
            {
              "internalType": "address",
              "name": "wallet",
              "type": "address"
            },
            {
              "internalType": "enum IVesting.Sale",
              "name": "sale",
              "type": "uint8"
            },
            {
              "internalType": "uint256",
              "name": "amount",
              "type": "uint256"
            },
            {
              "internalType": "uint256",
              "name": "paid",
              "type": "uint256"
            }
          ],
          "internalType": "struct IVesting.VestingInfo[]",
          "name": "vestingInfos",
          "type": "tuple[]"
        }
      ],
      "stateMutability": "view",
      "type": "function"
    },
    {
      "inputs": [
        {
          "internalType": "enum IVesting.Sale",
          "name": "sale",
          "type": "uint8"
        }
      ],
      "name": "getStageInfo",
      "outputs": [
        {
          "components": [
            {
              "internalType": "uint256",
              "name": "maxSupply",
              "type": "uint256"
            },
            {
              "internalType": "uint256",
              "name": "lockedSupply",
              "type": "uint256"
            },
            {
              "internalType": "uint256",
              "name": "currentSupply",
              "type": "uint256"
            },
            {
              "internalType": "uint256",
              "name": "vestedSupply",
              "type": "uint256"
            },
            {
              "internalType": "uint256",
              "name": "claimedSupply",
              "type": "uint256"
            },
            {
              "internalType": "uint256",
              "name": "unalocatedSupply",
              "type": "uint256"
            }
          ],
          "internalType": "struct IVesting.StagePublicInfo",
          "name": "stagePublicInfo",
          "type": "tuple"
        }
      ],
      "stateMutability": "view",
      "type": "function"
    },
    {
      "inputs": [
        {
          "components": [
            {
              "internalType": "uint256",
              "name": "maxSupply",
              "type": "uint256"
            },
            {
              "internalType": "uint256",
              "name": "lockedSupply",
              "type": "uint256"
            },
            {
              "internalType": "uint256",
              "name": "vestedSupply",
              "type": "uint256"
            },
            {
              "internalType": "uint256",
              "name": "claimedSupply",
              "type": "uint256"
            },
            {
              "internalType": "uint256",
              "name": "releaseTGE",
              "type": "uint256"
            },
            {
              "internalType": "uint256",
              "name": "cliff",
              "type": "uint256"
            },
            {
              "internalType": "uint256",
              "name": "period",
              "type": "uint256"
            }
          ],
          "internalType": "struct IVesting.StageInfo",
          "name": "stage",
          "type": "tuple"
        }
      ],
      "name": "getUnlocatedSupply",
      "outputs": [
        {
          "internalType": "uint256",
          "name": "",
          "type": "uint256"
        }
      ],
      "stateMutability": "pure",
      "type": "function"
    },
    {
      "inputs": [
        {
          "internalType": "address",
          "name": "wallet",
          "type": "address"
        },
        {
          "internalType": "enum IVesting.Sale",
          "name": "sale",
          "type": "uint8"
        }
      ],
      "name": "getVestingIndex",
      "outputs": [
        {
          "internalType": "uint256",
          "name": "",
          "type": "uint256"
        }
      ],
      "stateMutability": "view",
      "type": "function"
    },
    {
      "inputs": [],
      "name": "owner",
      "outputs": [
        {
          "internalType": "address",
          "name": "",
          "type": "address"
        }
      ],
      "stateMutability": "view",
      "type": "function"
    },
    {
      "inputs": [
        {
          "internalType": "enum IVesting.Sale",
          "name": "sale",
          "type": "uint8"
        },
        {
          "internalType": "uint256",
          "name": "amountToRefill",
          "type": "uint256"
        }
      ],
      "name": "refillStage",
      "outputs": [],
      "stateMutability": "nonpayable",
      "type": "function"
    },
    {
      "inputs": [],
      "name": "renounceOwnership",
      "outputs": [],
      "stateMutability": "nonpayable",
      "type": "function"
    },
    {
      "inputs": [
        {
          "internalType": "uint256",
          "name": "_blockTGE",
          "type": "uint256"
        }
      ],
      "name": "setBlockTGE",
      "outputs": [],
      "stateMutability": "nonpayable",
      "type": "function"
    },
    {
      "inputs": [
        {
          "internalType": "enum IVesting.Sale",
          "name": "sale",
          "type": "uint8"
        },
        {
          "internalType": "uint256",
          "name": "maxSupply",
          "type": "uint256"
        },
        {
          "internalType": "uint256",
          "name": "releaseTGE",
          "type": "uint256"
        },
        {
          "internalType": "uint256",
          "name": "cliff",
          "type": "uint256"
        },
        {
          "internalType": "uint256",
          "name": "period",
          "type": "uint256"
        }
      ],
      "name": "setStage",
      "outputs": [],
      "stateMutability": "nonpayable",
      "type": "function"
    },
    {
      "inputs": [
        {
          "internalType": "enum IVesting.Sale[]",
          "name": "sales",
          "type": "uint8[]"
        },
        {
          "internalType": "uint256[]",
          "name": "maxSupplies",
          "type": "uint256[]"
        },
        {
          "internalType": "uint256[]",
          "name": "releasesTGE",
          "type": "uint256[]"
        },
        {
          "internalType": "uint256[]",
          "name": "cliffs",
          "type": "uint256[]"
        },
        {
          "internalType": "uint256[]",
          "name": "periods",
          "type": "uint256[]"
        }
      ],
      "name": "setStageBatch",
      "outputs": [],
      "stateMutability": "nonpayable",
      "type": "function"
    },
    {
      "inputs": [
        {
          "internalType": "enum IVesting.Sale",
          "name": "",
          "type": "uint8"
        }
      ],
      "name": "stageInfo",
      "outputs": [
        {
          "internalType": "uint256",
          "name": "maxSupply",
          "type": "uint256"
        },
        {
          "internalType": "uint256",
          "name": "lockedSupply",
          "type": "uint256"
        },
        {
          "internalType": "uint256",
          "name": "vestedSupply",
          "type": "uint256"
        },
        {
          "internalType": "uint256",
          "name": "claimedSupply",
          "type": "uint256"
        },
        {
          "internalType": "uint256",
          "name": "releaseTGE",
          "type": "uint256"
        },
        {
          "internalType": "uint256",
          "name": "cliff",
          "type": "uint256"
        },
        {
          "internalType": "uint256",
          "name": "period",
          "type": "uint256"
        }
      ],
      "stateMutability": "view",
      "type": "function"
    },
    {
      "inputs": [],
      "name": "token",
      "outputs": [
        {
          "internalType": "contract IERC20",
          "name": "",
          "type": "address"
        }
      ],
      "stateMutability": "view",
      "type": "function"
    },
    {
      "inputs": [
        {
          "internalType": "address",
          "name": "newOwner",
          "type": "address"
        }
      ],
      "name": "transferOwnership",
      "outputs": [],
      "stateMutability": "nonpayable",
      "type": "function"
    },
    {
      "inputs": [
        {
          "internalType": "uint256",
          "name": "",
          "type": "uint256"
        }
      ],
      "name": "vestingInfo",
      "outputs": [
        {
          "internalType": "address",
          "name": "wallet",
          "type": "address"
        },
        {
          "internalType": "enum IVesting.Sale",
          "name": "sale",
          "type": "uint8"
        },
        {
          "internalType": "uint256",
          "name": "amount",
          "type": "uint256"
        },
        {
          "internalType": "uint256",
          "name": "paid",
          "type": "uint256"
        }
      ],
      "stateMutability": "view",
      "type": "function"
    }
  ],
  "bytecode": {
    "object": "0x60806040523480156200001157600080fd5b506040516200278f3803806200278f8339810160408190526200003491620000ba565b6200003f336200006a565b6001600481905580546001600160a01b0319166001600160a01b0392909216919091179055620000ec565b600080546001600160a01b038381166001600160a01b0319831681178455604051919092169283917f8be0079c531659141344cd1fd0a4f28419497f9722a3daafe3b4186f6b6457e09190a35050565b600060208284031215620000cd57600080fd5b81516001600160a01b0381168114620000e557600080fd5b9392505050565b61269380620000fc6000396000f3fe608060405234801561001057600080fd5b50600436106101cf5760003560e01c806383ded10611610104578063a6f9885c116100a2578063cbf5a55e11610071578063cbf5a55e146104a4578063f1af3c3f146104ac578063f2fde38b146104bf578063fc0c546a146104d257600080fd5b8063a6f9885c1461046d578063aaf5eb6814610475578063bed47f1514610487578063c409084a1461049a57600080fd5b80638da5cb5b116100de5780638da5cb5b146103c35780639a21e6d2146103e85780639d104770146103fb578063a3cf7c2f1461045a57600080fd5b806383ded1061461038a5780638499f8831461039d57806387b3306f146103b057600080fd5b80636558954f11610171578063715018a61161014b578063715018a61461033c578063774b8c38146103445780637ba17f4e1461035757806381a63b181461036a57600080fd5b80636558954f146102cb57806366ffcf5f146102d557806370a082311461032957600080fd5b80634e71d92d116101ad5780634e71d92d1461022057806357b89adb1461022a5780635f43793c1461023d57806363c0d0d41461024657600080fd5b806319af64ba146101d45780633a560bad146101fa57806348bb65111461020d575b600080fd5b6101e76101e2366004612006565b6104e5565b6040519081526020015b60405180910390f35b6101e76102083660046120c3565b610508565b6101e761021b3660046120c3565b61058c565b6102286105df565b005b6101e76102383660046120f6565b610631565b6101e760025481565b610296610254366004612111565b60036020528060005260406000206000915090508060000154908060010154908060020154908060030154908060040154908060050154908060060154905087565b604080519788526020880196909652948601939093526060850191909152608084015260a083015260c082015260e0016101f1565b6101e762278d0081565b6103196102e336600461212c565b6005602052600090815260409020805460018201546002909201546001600160a01b03821692600160a01b90920460ff16919084565b6040516101f1949392919061217d565b6101e76103373660046120f6565b610652565b61022861067b565b610228610352366004612111565b61068f565b6102286103653660046121ac565b61079c565b61037d6103783660046121e8565b610805565b6040516101f1919061220a565b6101e7610398366004612006565b6109a9565b6102286103ab366004612280565b6109c6565b6102286103be36600461230e565b6109e2565b6000546001600160a01b03165b6040516001600160a01b0390911681526020016101f1565b6102286103f63660046123a8565b610b76565b61040e610409366004612111565b610d11565b6040516101f19190600060c082019050825182526020830151602083015260408301516040830152606083015160608301526080830151608083015260a083015160a083015292915050565b61022861046836600461212c565b610e1b565b6101e7601e81565b6101e76a084595161401484a00000081565b6102286104953660046123d2565b610edc565b6101e762034bc081565b6101e761100c565b6102286104ba3660046120c3565b611025565b6102286104cd3660046120f6565b611211565b6001546103d0906001600160a01b031681565b60006105028260400151836020015161128790919063ffffffff16565b92915050565b6000610514838361129a565b1580610521575060025443105b1561052e57506000610502565b6001600160a01b03831660009081526007602052604081208184600281111561055957610559612145565b600281111561056a5761056a612145565b81526020019081526020016000205490506105848161130d565b949350505050565b6001600160a01b0382166000908152600760205260408120818360028111156105b7576105b7612145565b60028111156105c8576105c8612145565b815260200190815260200160002054905092915050565b600061060e6105ef336002611508565b6106086105fd336001611508565b610608336000611508565b9061169b565b9050801561062e5761062e335b6001546001600160a01b031690836116a7565b50565b6001600160a01b03811660009081526006602052604081206105029061170a565b6000610502610662836002610508565b610608610670856001610508565b610608866000610508565b610683611714565b61068d600061176e565b565b610697611714565b6000600360008360028111156106af576106af612145565b60028111156106c0576106c0612145565b81526020019081526020016000209050600061072c826040518060e00160405290816000820154815260200160018201548152602001600282015481526020016003820154815260200160048201548152602001600582015481526020016006820154815250506104e5565b905080156107975760018201546107439082611287565b60018301556107513361061b565b82600281111561076357610763612145565b6040518281527fb819d129d0582a3f999e8fe877ffe22795ad2228c7e577d09c19d4a3c5c7cf289060200160405180910390a25b505050565b6107a4611714565b43600254116107fa5760405162461bcd60e51b815260206004820152601d60248201527f56657374696e673a20426c6f636b20544745206861732070617373656400000060448201526064015b60405180910390fd5b6107978383836117be565b336000908152600660205260408120606091906108219061170a565b905060006108438561083d84610837838961169b565b90611a18565b90611a2e565b905061084f8186611287565b67ffffffffffffffff81111561086757610867611ff0565b6040519080825280602002602001820160405280156108c457816020015b6108b1604080516080810190915260008082526020820190815260200160008152602001600081525090565b8152602001906001900390816108855790505b509250845b818110156109a0573360009081526006602052604081206108ea9083611a3d565b905060006108f88389611287565b60008381526005602090815260409182902082516080810190935280546001600160a01b0381168452939450919290830190600160a01b900460ff16600281111561094557610945612145565b600281111561095657610956612145565b815260200160018201548152602001600282015481525050868281518110610980576109806124c3565b602002602001018190525050508080610998906124ef565b9150506108c9565b50505092915050565b60006105028260600151836020015161128790919063ffffffff16565b6109ce611714565b6109db8585858585611a49565b5050505050565b6109ea611714565b4360025411610a3b5760405162461bcd60e51b815260206004820152601d60248201527f56657374696e673a20426c6f636b20544745206861732070617373656400000060448201526064016107f1565b601e851115610a8c5760405162461bcd60e51b815260206004820152601b60248201527f56657374696e673a20546f6f206d616e7920617267756d656e7473000000000060448201526064016107f1565b8483148015610a9a57508281145b610ae15760405162461bcd60e51b81526020600482015260186024820152770accae6e8d2dcce744098cadccee8d040dad2e6dac2e8c6d60431b60448201526064016107f1565b60005b85811015610b6d57610b5b878783818110610b0157610b016124c3565b9050602002016020810190610b1691906120f6565b868684818110610b2857610b286124c3565b9050602002016020810190610b3d9190612111565b858585818110610b4f57610b4f6124c3565b905060200201356117be565b80610b65816124ef565b915050610ae4565b50505050505050565b610b7e611714565b60036000836002811115610b9457610b94612145565b6002811115610ba557610ba5612145565b815260200190815260200160002060000154610c028260036000866002811115610bd157610bd1612145565b6002811115610be257610be2612145565b81526020019081526020016000206001015461169b90919063ffffffff16565b1115610c5b5760405162461bcd60e51b815260206004820152602260248201527f56657374696e673a20416d6f756e742065786365656473206d617820737570706044820152616c7960f01b60648201526084016107f1565b610c758160036000856002811115610bd157610bd1612145565b60036000846002811115610c8b57610c8b612145565b6002811115610c9c57610c9c612145565b8152602081019190915260400160002060010155610cc8336001546001600160a01b0316903084611b83565b816002811115610cda57610cda612145565b6040518281527f1ed1842de53a6797bcd103b15ef4c2cfe977cd44a413ae3ef35bff8c6d252f619060200160405180910390a25050565b610d4a6040518060c001604052806000815260200160008152602001600081526020016000815260200160008152602001600081525090565b600060036000846002811115610d6257610d62612145565b6002811115610d7357610d73612145565b81526020808201929092526040908101600020815160e081018352815480825260018301548286019081526002840154948301949094526003830154606083015260048301546080830152600583015460a083015260069092015460c08201529085529051918401919091529050610dea816109a9565b6040808401919091528101516060808401919091528101516080830152610e10816104e5565b60a083015250919050565b610e23611714565b60025415610e7c576002548110610e7c5760405162461bcd60e51b815260206004820152601e60248201527f56657374696e673a20426c6f636b2054474520616c726561647920736574000060448201526064016107f1565b438111610ed75760405162461bcd60e51b815260206004820152602360248201527f56657374696e673a2053686f756c642073657420626c6f636b20696e2066757460448201526275726560e81b60648201526084016107f1565b600255565b610ee4611714565b8887148015610ef257508685145b8015610efd57508483145b8015610f0857508281145b610f4f5760405162461bcd60e51b81526020600482015260186024820152770accae6e8d2dcce744098cadccee8d040dad2e6dac2e8c6d60431b60448201526064016107f1565b60005b89811015610fff57610fed8b8b83818110610f6f57610f6f6124c3565b9050602002016020810190610f849190612111565b8a8a84818110610f9657610f966124c3565b90506020020135898985818110610faf57610faf6124c3565b90506020020135888886818110610fc857610fc86124c3565b90506020020135878787818110610fe157610fe16124c3565b90506020020135611a49565b80610ff7816124ef565b915050610f52565b5050505050505050505050565b6110226a084595161401484a000000606461250a565b81565b61102d611714565b8181611039828261129a565b6110915760405162461bcd60e51b815260206004820152602360248201527f56657374696e673a20546869732076657374696e6720646f65736e27742065786044820152621a5cdd60ea1b60648201526084016107f1565b6001600160a01b0384166000908152600760205260408120818560028111156110bc576110bc612145565b60028111156110cd576110cd612145565b81526020019081526020016000205490506000600360008660028111156110f6576110f6612145565b600281111561110757611107612145565b81526020808201929092526040908101600090812085825260059093522060018101546002909101549192509061114e90611143908390611287565b600284015490611287565b60028301556001600160a01b03871660009081526006602052604090206111759084611bc1565b506001600160a01b0387166000908152600760205260408120818860028111156111a1576111a1612145565b60028111156111b2576111b2612145565b815260200190815260200160002081905550866001600160a01b0316837f42ccba9814df52d01c2fd804f92a6ededbf830ad1bc8df0e2151be9c2631df238360405161120091815260200190565b60405180910390a350505050505050565b611219611714565b6001600160a01b03811661127e5760405162461bcd60e51b815260206004820152602660248201527f4f776e61626c653a206e6577206f776e657220697320746865207a65726f206160448201526564647265737360d01b60648201526084016107f1565b61062e8161176e565b60006112938284612529565b9392505050565b6001600160a01b03821660009081526007602052604081208190818460028111156112c7576112c7612145565b60028111156112d8576112d8612145565b815260208082019290925260409081016000908120546001600160a01b03881682526006909352209091506105849082611bcd565b600081815260056020908152604080832081516080810190925280546001600160a01b03811683528493830190600160a01b900460ff16600281111561135557611355612145565b600281111561136657611366612145565b81526020016001820154815260200160028201548152505090506000600360008360200151600281111561139c5761139c612145565b60028111156113ad576113ad612145565b81526020019081526020016000206040518060e0016040529081600082015481526020016001820154815260200160028201548152602001600382015481526020016004820154815260200160058201548152602001600682015481525050905060006114446a084595161401484a000000606461142b919061250a565b6080840151604086015161143e91611be5565b90611bf1565b60a0830151909150819060009061146b906114629062034bc0611be5565b6002549061169b565b9050600061149361148c62034bc08760c00151611be590919063ffffffff16565b839061169b565b9050814311156114ec5760006114a98383611bfd565b905060006114c486896040015161128790919063ffffffff16565b90506114e76114e06114d68587611287565b61143e8486611be5565b869061169b565b945050505b60608601516114fc908490611287565b98975050505050505050565b6000611514838361129a565b1580611521575060025443105b1561152e57506000610502565b6001600160a01b03831660009081526007602052604081208184600281111561155957611559612145565b600281111561156a5761156a612145565b815260200190815260200160002054905060006115868261130d565b90508015610584576115d981600360008760028111156115a8576115a8612145565b60028111156115b9576115b9612145565b81526020019081526020016000206003015461169b90919063ffffffff16565b600360008660028111156115ef576115ef612145565b600281111561160057611600612145565b81526020019081526020016000206003018190555061163e81600560008581526020019081526020016000206002015461169b90919063ffffffff16565b60008381526005602090815260409182902060020192909255518281526001600160a01b0387169184917f14a81f9a556dbd4b3ae8c924aef3cc382cb6f3c4b91e88201a1be8e8cf359328910160405180910390a3949350505050565b60006112938284612540565b6040516001600160a01b03831660248201526044810182905261079790849063a9059cbb60e01b906064015b60408051601f198184030181529190526020810180516001600160e01b03166001600160e01b031990931692909217909152611c21565b6000610502825490565b6000546001600160a01b0316331461068d5760405162461bcd60e51b815260206004820181905260248201527f4f776e61626c653a2063616c6c6572206973206e6f7420746865206f776e657260448201526064016107f1565b600080546001600160a01b038381166001600160a01b0319831681178455604051919092169283917f8be0079c531659141344cd1fd0a4f28419497f9722a3daafe3b4186f6b6457e09190a35050565b6117c8838361129a565b156118155760405162461bcd60e51b815260206004820152601960248201527f56657374696e673a20416c726561647920696e7665737465640000000000000060448201526064016107f1565b60006003600084600281111561182d5761182d612145565b600281111561183e5761183e612145565b81526020019081526020016000209050806001015461186a83836002015461169b90919063ffffffff16565b11156118c25760405162461bcd60e51b815260206004820152602160248201527f56657374696e673a20496e7375666973616e74206c6f636b656420737570706c6044820152607960f81b60648201526084016107f1565b60028101546118d1908361169b565b6002828101919091556004805460009081526005602052604080822080546001600160a01b0319166001600160a01b038a1617905591548152208054859260ff60a01b1990911690600160a01b90849081111561193057611930612145565b021790555060048054600090815260056020908152604080832060010186905592546001600160a01b0388168352600690915291902061196f91611cf3565b506004546001600160a01b03851660009081526007602052604081209085600281111561199e5761199e612145565b60028111156119af576119af612145565b81526020810191909152604001600020556004546119ce90600161169b565b60048190556040518381526001600160a01b03861691907fca26c44dfb310e29094c39c1c371f88ec57baa3398ea2a3abc3f9c825a4f72129060200160405180910390a350505050565b6000818310611a275781611293565b5090919050565b6000818311611a275781611293565b60006112938383611cff565b8360036000876002811115611a6057611a60612145565b6002811115611a7157611a71612145565b8152602001908152602001600020600001819055508260036000876002811115611a9d57611a9d612145565b6002811115611aae57611aae612145565b8152602001908152602001600020600401819055508160036000876002811115611ada57611ada612145565b6002811115611aeb57611aeb612145565b8152602001908152602001600020600501819055508060036000876002811115611b1757611b17612145565b6002811115611b2857611b28612145565b8152602001908152602001600020600601819055507f7e9f14af6752ec6d3a32eb60acdc8e5897e088bad8c77b6faec09e0546ddd7df8585858585604051611b74959493929190612558565b60405180910390a15050505050565b6040516001600160a01b0380851660248301528316604482015260648101829052611bbb9085906323b872dd60e01b906084016116d3565b50505050565b60006112938383611d29565b60008181526001830160205260408120541515611293565b6000611293828461250a565b60006112938284612588565b6000814310611c1757611c108284611287565b9050610502565b611c104384611287565b6000611c76826040518060400160405280602081526020017f5361666545524332303a206c6f772d6c6576656c2063616c6c206661696c6564815250856001600160a01b0316611e1c9092919063ffffffff16565b8051909150156107975780806020019051810190611c9491906125aa565b6107975760405162461bcd60e51b815260206004820152602a60248201527f5361666545524332303a204552433230206f7065726174696f6e20646964206e6044820152691bdd081cdd58d8d9595960b21b60648201526084016107f1565b60006112938383611e2b565b6000826000018281548110611d1657611d166124c3565b9060005260206000200154905092915050565b60008181526001830160205260408120548015611e12576000611d4d600183612529565b8554909150600090611d6190600190612529565b9050818114611dc6576000866000018281548110611d8157611d816124c3565b9060005260206000200154905080876000018481548110611da457611da46124c3565b6000918252602080832090910192909255918252600188019052604090208390555b8554869080611dd757611dd76125cc565b600190038181906000526020600020016000905590558560010160008681526020019081526020016000206000905560019350505050610502565b6000915050610502565b60606105848484600085611e7a565b6000818152600183016020526040812054611e7257508154600181810184556000848152602080822090930184905584548482528286019093526040902091909155610502565b506000610502565b606082471015611edb5760405162461bcd60e51b815260206004820152602660248201527f416464726573733a20696e73756666696369656e742062616c616e636520666f6044820152651c8818d85b1b60d21b60648201526084016107f1565b600080866001600160a01b03168587604051611ef7919061260e565b60006040518083038185875af1925050503d8060008114611f34576040519150601f19603f3d011682016040523d82523d6000602084013e611f39565b606091505b5091509150611f4a87838387611f55565b979650505050505050565b60608315611fc1578251611fba576001600160a01b0385163b611fba5760405162461bcd60e51b815260206004820152601d60248201527f416464726573733a2063616c6c20746f206e6f6e2d636f6e747261637400000060448201526064016107f1565b5081610584565b6105848383815115611fd65781518083602001fd5b8060405162461bcd60e51b81526004016107f1919061262a565b634e487b7160e01b600052604160045260246000fd5b600060e0828403121561201857600080fd5b60405160e0810181811067ffffffffffffffff8211171561204957634e487b7160e01b600052604160045260246000fd5b8060405250823581526020830135602082015260408301356040820152606083013560608201526080830135608082015260a083013560a082015260c083013560c08201528091505092915050565b80356001600160a01b03811681146120af57600080fd5b919050565b8035600381106120af57600080fd5b600080604083850312156120d657600080fd5b6120df83612098565b91506120ed602084016120b4565b90509250929050565b60006020828403121561210857600080fd5b61129382612098565b60006020828403121561212357600080fd5b611293826120b4565b60006020828403121561213e57600080fd5b5035919050565b634e487b7160e01b600052602160045260246000fd5b6003811061217957634e487b7160e01b600052602160045260246000fd5b9052565b6001600160a01b03851681526080810161219a602083018661215b565b60408201939093526060015292915050565b6000806000606084860312156121c157600080fd5b6121ca84612098565b92506121d8602085016120b4565b9150604084013590509250925092565b600080604083850312156121fb57600080fd5b50508035926020909101359150565b602080825282518282018190526000919060409081850190868401855b8281101561227357815180516001600160a01b031685528681015161224e8887018261215b565b5080860151858701526060908101519085015260809093019290850190600101612227565b5091979650505050505050565b600080600080600060a0868803121561229857600080fd5b6122a1866120b4565b97602087013597506040870135966060810135965060800135945092505050565b60008083601f8401126122d457600080fd5b50813567ffffffffffffffff8111156122ec57600080fd5b6020830191508360208260051b850101111561230757600080fd5b9250929050565b6000806000806000806060878903121561232757600080fd5b863567ffffffffffffffff8082111561233f57600080fd5b61234b8a838b016122c2565b9098509650602089013591508082111561236457600080fd5b6123708a838b016122c2565b9096509450604089013591508082111561238957600080fd5b5061239689828a016122c2565b979a9699509497509295939492505050565b600080604083850312156123bb57600080fd5b6123c4836120b4565b946020939093013593505050565b60008060008060008060008060008060a08b8d0312156123f157600080fd5b8a3567ffffffffffffffff8082111561240957600080fd5b6124158e838f016122c2565b909c509a5060208d013591508082111561242e57600080fd5b61243a8e838f016122c2565b909a50985060408d013591508082111561245357600080fd5b61245f8e838f016122c2565b909850965060608d013591508082111561247857600080fd5b6124848e838f016122c2565b909650945060808d013591508082111561249d57600080fd5b506124aa8d828e016122c2565b915080935050809150509295989b9194979a5092959850565b634e487b7160e01b600052603260045260246000fd5b634e487b7160e01b600052601160045260246000fd5b6000600019821415612503576125036124d9565b5060010190565b6000816000190483118215151615612524576125246124d9565b500290565b60008282101561253b5761253b6124d9565b500390565b60008219821115612553576125536124d9565b500190565b60a08101612566828861215b565b8560208301528460408301528360608301528260808301529695505050505050565b6000826125a557634e487b7160e01b600052601260045260246000fd5b500490565b6000602082840312156125bc57600080fd5b8151801515811461129357600080fd5b634e487b7160e01b600052603160045260246000fd5b60005b838110156125fd5781810151838201526020016125e5565b83811115611bbb5750506000910152565b600082516126208184602087016125e2565b9190910192915050565b60208152600082518060208401526126498160408501602087016125e2565b601f01601f1916919091016040019291505056fea2646970667358221220286cac5ff4fdbd8ca4856462c7675a58adc338e3273be85bd6225e261a9690e964736f6c634300080a0033",
    "linkReferences": {}
  },
  "methodIdentifiers": {
    "BLOCKS_PER_MONTH()": "c409084a",
    "MAX_LENGTH()": "a6f9885c",
    "PERCENTAGE_100()": "cbf5a55e",
    "PERIOD_DURATION()": "6558954f",
    "PRECISION()": "aaf5eb68",
    "addVesting(address,uint8,uint256)": "7ba17f4e",
    "addVestingBatch(address[],uint8[],uint256[])": "87b3306f",
    "balanceOf(address)": "70a08231",
    "balanceOfSale(address,uint8)": "3a560bad",
    "blockTGE()": "5f43793c",
    "cancelVesting(address,uint8)": "f1af3c3f",
    "claim()": "4e71d92d",
    "countOwnedVestings(address)": "57b89adb",
    "emptyStage(uint8)": "774b8c38",
    "getCurrentSupply((uint256,uint256,uint256,uint256,uint256,uint256,uint256))": "83ded106",
    "getListVestings(uint256,uint256)": "81a63b18",
    "getStageInfo(uint8)": "9d104770",
    "getUnlocatedSupply((uint256,uint256,uint256,uint256,uint256,uint256,uint256))": "19af64ba",
    "getVestingIndex(address,uint8)": "48bb6511",
    "owner()": "8da5cb5b",
    "refillStage(uint8,uint256)": "9a21e6d2",
    "renounceOwnership()": "715018a6",
    "setBlockTGE(uint256)": "a3cf7c2f",
    "setStage(uint8,uint256,uint256,uint256,uint256)": "8499f883",
    "setStageBatch(uint8[],uint256[],uint256[],uint256[],uint256[])": "bed47f15",
    "stageInfo(uint8)": "63c0d0d4",
    "token()": "fc0c546a",
    "transferOwnership(address)": "f2fde38b",
    "vestingInfo(uint256)": "66ffcf5f"
  },
  "id": 1
}