{"contracts/Vesting.sol":{"Vesting":{"abi":[{"inputs":[{"internalType":"address","name":"tokenAddress","type":"address"}],"stateMutability":"nonpayable","type":"constructor"},{"anonymous":false,"inputs":[{"indexed":true,"internalType":"address","name":"previousOwner","type":"address"},{"indexed":true,"internalType":"address","name":"newOwner","type":"address"}],"name":"OwnershipTransferred","type":"event"},{"anonymous":false,"inputs":[{"indexed":true,"internalType":"enum IVesting.Sale","name":"sale","type":"uint8"},{"indexed":false,"internalType":"uint256","name":"amountEmptied","type":"uint256"}],"name":"StageEmptied","type":"event"},{"anonymous":false,"inputs":[{"indexed":true,"internalType":"enum IVesting.Sale","name":"sale","type":"uint8"},{"indexed":false,"internalType":"uint256","name":"amountRefilled","type":"uint256"}],"name":"StageRefilled","type":"event"},{"anonymous":false,"inputs":[{"indexed":false,"internalType":"enum IVesting.Sale","name":"sale","type":"uint8"},{"indexed":false,"internalType":"uint256","name":"maxSupply","type":"uint256"},{"indexed":false,"internalType":"uint256","name":"releaseTGE","type":"uint256"},{"indexed":false,"internalType":"uint256","name":"cliff","type":"uint256"},{"indexed":false,"internalType":"uint256","name":"period","type":"uint256"}],"name":"StageSet","type":"event"},{"anonymous":false,"inputs":[{"indexed":true,"internalType":"uint256","name":"vestingIndex","type":"uint256"},{"indexed":true,"internalType":"address","name":"wallet","type":"address"},{"indexed":false,"internalType":"uint256","name":"amountVested","type":"uint256"}],"name":"VestingAdded","type":"event"},{"anonymous":false,"inputs":[{"indexed":true,"internalType":"uint256","name":"vestingIndex","type":"uint256"},{"indexed":true,"internalType":"address","name":"wallet","type":"address"},{"indexed":false,"internalType":"uint256","name":"amountUnvested","type":"uint256"}],"name":"VestingCanceled","type":"event"},{"anonymous":false,"inputs":[{"indexed":true,"internalType":"uint256","name":"vestingIndex","type":"uint256"},{"indexed":true,"internalType":"address","name":"wallet","type":"address"},{"indexed":false,"internalType":"uint256","name":"amountClaimed","type":"uint256"}],"name":"VestingClaimed","type":"event"},{"inputs":[],"name":"BLOCKS_PER_MONTH","outputs":[{"internalType":"uint256","name":"","type":"uint256"}],"stateMutability":"view","type":"function"},{"inputs":[],"name":"MAX_LENGTH","outputs":[{"internalType":"uint256","name":"","type":"uint256"}],"stateMutability":"view","type":"function"},{"inputs":[],"name":"PERCENTAGE_100","outputs":[{"internalType":"uint256","name":"","type":"uint256"}],"stateMutability":"view","type":"function"},{"inputs":[],"name":"PERIOD_DURATION","outputs":[{"internalType":"uint256","name":"","type":"uint256"}],"stateMutability":"view","type":"function"},{"inputs":[],"name":"PRECISION","outputs":[{"internalType":"uint256","name":"","type":"uint256"}],"stateMutability":"view","type":"function"},{"inputs":[{"internalType":"address","name":"wallet","type":"address"},{"internalType":"enum IVesting.Sale","name":"sale","type":"uint8"},{"internalType":"uint256","name":"amount","type":"uint256"}],"name":"addVesting","outputs":[],"stateMutability":"nonpayable","type":"function"},{"inputs":[{"internalType":"address[]","name":"wallets","type":"address[]"},{"internalType":"enum IVesting.Sale[]","name":"sales","type":"uint8[]"},{"internalType":"uint256[]","name":"amounts","type":"uint256[]"}],"name":"addVestingBatch","outputs":[],"stateMutability":"nonpayable","type":"function"},{"inputs":[{"internalType":"address","name":"wallet","type":"address"}],"name":"balanceOf","outputs":[{"internalType":"uint256","name":"","type":"uint256"}],"stateMutability":"view","type":"function"},{"inputs":[{"internalType":"address","name":"wallet","type":"address"},{"internalType":"enum IVesting.Sale","name":"sale","type":"uint8"}],"name":"balanceOfSale","outputs":[{"internalType":"uint256","name":"","type":"uint256"}],"stateMutability":"view","type":"function"},{"inputs":[],"name":"blockTGE","outputs":[{"internalType":"uint256","name":"","type":"uint256"}],"stateMutability":"view","type":"function"},{"inputs":[{"internalType":"address","name":"wallet","type":"address"},{"internalType":"enum IVesting.Sale","name":"sale","type":"uint8"}],"name":"cancelVesting","outputs":[],"stateMutability":"nonpayable","type":"function"},{"inputs":[],"name":"claim","outputs":[],"stateMutability":"nonpayable","type":"function"},{"inputs":[{"internalType":"address","name":"wallet","type":"address"}],"name":"countOwnedVestings","outputs":[{"internalType":"uint256","name":"","type":"uint256"}],"stateMutability":"view","type":"function"},{"inputs":[{"internalType":"enum IVesting.Sale","name":"sale","type":"uint8"}],"name":"emptyStage","outputs":[],"stateMutability":"nonpayable","type":"function"},{"inputs":[{"components":[{"internalType":"uint256","name":"maxSupply","type":"uint256"},{"internalType":"uint256","name":"lockedSupply","type":"uint256"},{"internalType":"uint256","name":"vestedSupply","type":"uint256"},{"internalType":"uint256","name":"claimedSupply","type":"uint256"},{"internalType":"uint256","name":"releaseTGE","type":"uint256"},{"internalType":"uint256","name":"cliff","type":"uint256"},{"internalType":"uint256","name":"period","type":"uint256"}],"internalType":"struct IVesting.StageInfo","name":"stage","type":"tuple"}],"name":"getCurrentSupply","outputs":[{"internalType":"uint256","name":"","type":"uint256"}],"stateMutability":"pure","type":"function"},{"inputs":[{"internalType":"uint256","name":"offset","type":"uint256"},{"internalType":"uint256","name":"limit","type":"uint256"}],"name":"getListVestings","outputs":[{"components":[{"internalType":"address","name":"wallet","type":"address"},{"internalType":"enum IVesting.Sale","name":"sale","type":"uint8"},{"internalType":"uint256","name":"amount","type":"uint256"},{"internalType":"uint256","name":"paid","type":"uint256"}],"internalType":"struct IVesting.VestingInfo[]","name":"vestingInfos","type":"tuple[]"}],"stateMutability":"view","type":"function"},{"inputs":[{"internalType":"enum IVesting.Sale","name":"sale","type":"uint8"}],"name":"getStageInfo","outputs":[{"components":[{"internalType":"uint256","name":"maxSupply","type":"uint256"},{"internalType":"uint256","name":"lockedSupply","type":"uint256"},{"internalType":"uint256","name":"currentSupply","type":"uint256"},{"internalType":"uint256","name":"vestedSupply","type":"uint256"},{"internalType":"uint256","name":"claimedSupply","type":"uint256"},{"internalType":"uint256","name":"unalocatedSupply","type":"uint256"}],"internalType":"struct IVesting.StagePublicInfo","name":"stagePublicInfo","type":"tuple"}],"stateMutability":"view","type":"function"},{"inputs":[{"components":[{"internalType":"uint256","name":"maxSupply","type":"uint256"},{"internalType":"uint256","name":"lockedSupply","type":"uint256"},{"internalType":"uint256","name":"vestedSupply","type":"uint256"},{"internalType":"uint256","name":"claimedSupply","type":"uint256"},{"internalType":"uint256","name":"releaseTGE","type":"uint256"},{"internalType":"uint256","name":"cliff","type":"uint256"},{"internalType":"uint256","name":"period","type":"uint256"}],"internalType":"struct IVesting.StageInfo","name":"stage","type":"tuple"}],"name":"getUnlocatedSupply","outputs":[{"internalType":"uint256","name":"","type":"uint256"}],"stateMutability":"pure","type":"function"},{"inputs":[{"internalType":"address","name":"wallet","type":"address"},{"internalType":"enum IVesting.Sale","name":"sale","type":"uint8"}],"name":"getVestingIndex","outputs":[{"internalType":"uint256","name":"","type":"uint256"}],"stateMutability":"view","type":"function"},{"inputs":[],"name":"owner","outputs":[{"internalType":"address","name":"","type":"address"}],"stateMutability":"view","type":"function"},{"inputs":[{"internalType":"enum IVesting.Sale","name":"sale","type":"uint8"},{"internalType":"uint256","name":"amountToRefill","type":"uint256"}],"name":"refillStage","outputs":[],"stateMutability":"nonpayable","type":"function"},{"inputs":[],"name":"renounceOwnership","outputs":[],"stateMutability":"nonpayable","type":"function"},{"inputs":[{"internalType":"uint256","name":"_blockTGE","type":"uint256"}],"name":"setBlockTGE","outputs":[],"stateMutability":"nonpayable","type":"function"},{"inputs":[{"internalType":"enum IVesting.Sale","name":"sale","type":"uint8"},{"internalType":"uint256","name":"maxSupply","type":"uint256"},{"internalType":"uint256","name":"releaseTGE","type":"uint256"},{"internalType":"uint256","name":"cliff","type":"uint256"},{"internalType":"uint256","name":"period","type":"uint256"}],"name":"setStage","outputs":[],"stateMutability":"nonpayable","type":"function"},{"inputs":[{"internalType":"enum IVesting.Sale[]","name":"sales","type":"uint8[]"},{"internalType":"uint256[]","name":"maxSupplies","type":"uint256[]"},{"internalType":"uint256[]","name":"releasesTGE","type":"uint256[]"},{"internalType":"uint256[]","name":"cliffs","type":"uint256[]"},{"internalType":"uint256[]","name":"periods","type":"uint256[]"}],"name":"setStageBatch","outputs":[],"stateMutability":"nonpayable","type":"function"},{"inputs":[{"internalType":"enum IVesting.Sale","name":"","type":"uint8"}],"name":"stageInfo","outputs":[{"internalType":"uint256","name":"maxSupply","type":"uint256"},{"internalType":"uint256","name":"lockedSupply","type":"uint256"},{"internalType":"uint256","name":"vestedSupply","type":"uint256"},{"internalType":"uint256","name":"claimedSupply","type":"uint256"},{"internalType":"uint256","name":"releaseTGE","type":"uint256"},{"internalType":"uint256","name":"cliff","type":"uint256"},{"internalType":"uint256","name":"period","type":"uint256"}],"stateMutability":"view","type":"function"},{"inputs":[],"name":"token","outputs":[{"internalType":"contract IERC20","name":"","type":"address"}],"stateMutability":"view","type":"function"},{"inputs":[{"internalType":"address","name":"newOwner","type":"address"}],"name":"transferOwnership","outputs":[],"stateMutability":"nonpayable","type":"function"},{"inputs":[{"internalType":"uint256","name":"","type":"uint256"}],"name":"vestingInfo","outputs":[{"internalType":"address","name":"wallet","type":"address"},{"internalType":"enum IVesting.Sale","name":"sale","type":"uint8"},{"internalType":"uint256","name":"amount","type":"uint256"},{"internalType":"uint256","name":"paid","type":"uint256"}],"stateMutability":"view","type":"function"}],"devdoc":{"kind":"dev","methods":{"getListVestings(uint256,uint256)":{"details":"use with countOwnedVestings() if listOption == ListOption.OWNED"},"owner()":{"details":"Returns the address of the current owner."},"renounceOwnership()":{"details":"Leaves the contract without owner. It will not be possible to call `onlyOwner` functions anymore. Can only be called by the current owner. NOTE: Renouncing ownership will leave the contract without an owner, thereby removing any functionality that is only available to the owner."},"transferOwnership(address)":{"details":"Transfers ownership of the contract to a new account (`newOwner`). Can only be called by the current owner."}},"version":1},"evm":{"bytecode":{"linkReferences":{},"object":"60806040523480156200001157600080fd5b5060405162004279380380620042798339818101604052810190620000379190620001dd565b620000576200004b620000a760201b60201c565b620000af60201b60201c565b600160048190555080600160006101000a81548173ffffffffffffffffffffffffffffffffffffffff021916908373ffffffffffffffffffffffffffffffffffffffff160217905550506200020f565b600033905090565b60008060009054906101000a900473ffffffffffffffffffffffffffffffffffffffff169050816000806101000a81548173ffffffffffffffffffffffffffffffffffffffff021916908373ffffffffffffffffffffffffffffffffffffffff1602179055508173ffffffffffffffffffffffffffffffffffffffff168173ffffffffffffffffffffffffffffffffffffffff167f8be0079c531659141344cd1fd0a4f28419497f9722a3daafe3b4186f6b6457e060405160405180910390a35050565b600080fd5b600073ffffffffffffffffffffffffffffffffffffffff82169050919050565b6000620001a58262000178565b9050919050565b620001b78162000198565b8114620001c357600080fd5b50565b600081519050620001d781620001ac565b92915050565b600060208284031215620001f657620001f562000173565b5b60006200020684828501620001c6565b91505092915050565b61405a806200021f6000396000f3fe608060405234801561001057600080fd5b50600436106101cf5760003560e01c806383ded10611610104578063a6f9885c116100a2578063cbf5a55e11610071578063cbf5a55e14610549578063f1af3c3f14610567578063f2fde38b14610583578063fc0c546a1461059f576101cf565b8063a6f9885c146104d3578063aaf5eb68146104f1578063bed47f151461050f578063c409084a1461052b576101cf565b80638da5cb5b116100de5780638da5cb5b1461044d5780639a21e6d21461046b5780639d10477014610487578063a3cf7c2f146104b7576101cf565b806383ded106146103e55780638499f8831461041557806387b3306f14610431576101cf565b80636558954f11610171578063715018a61161014b578063715018a614610373578063774b8c381461037d5780637ba17f4e1461039957806381a63b18146103b5576101cf565b80636558954f146102f257806366ffcf5f1461031057806370a0823114610343576101cf565b80634e71d92d116101ad5780634e71d92d1461026457806357b89adb1461026e5780635f43793c1461029e57806363c0d0d4146102bc576101cf565b806319af64ba146101d45780633a560bad1461020457806348bb651114610234575b600080fd5b6101ee60048036038101906101e99190612b6f565b6105bd565b6040516101fb9190612bab565b60405180910390f35b61021e60048036038101906102199190612c49565b6105e1565b60405161022b9190612bab565b60405180910390f35b61024e60048036038101906102499190612c49565b610694565b60405161025b9190612bab565b60405180910390f35b61026c610713565b005b61028860048036038101906102839190612c89565b6107d0565b6040516102959190612bab565b60405180910390f35b6102a6610820565b6040516102b39190612bab565b60405180910390f35b6102d660048036038101906102d19190612cb6565b610826565b6040516102e99796959493929190612ce3565b60405180910390f35b6102fa610868565b6040516103079190612bab565b60405180910390f35b61032a60048036038101906103259190612d52565b61086f565b60405161033a9493929190612e05565b60405180910390f35b61035d60048036038101906103589190612c89565b6108cc565b60405161036a9190612bab565b60405180910390f35b61037b610918565b005b61039760048036038101906103929190612cb6565b61092c565b005b6103b360048036038101906103ae9190612e4a565b610a99565b005b6103cf60048036038101906103ca9190612e9d565b610af5565b6040516103dc919061300e565b60405180910390f35b6103ff60048036038101906103fa9190612b6f565b610d6c565b60405161040c9190612bab565b60405180910390f35b61042f600480360381019061042a9190613030565b610d90565b005b61044b600480360381019061044691906131bc565b610dac565b005b610455610f34565b6040516104629190613270565b60405180910390f35b6104856004803603810190610480919061328b565b610f5d565b005b6104a1600480360381019061049c9190612cb6565b61115d565b6040516104ae9190613346565b60405180910390f35b6104d160048036038101906104cc9190612d52565b611253565b005b6104db6112f6565b6040516104e89190612bab565b60405180910390f35b6104f96112fb565b6040516105069190612bab565b60405180910390f35b61052960048036038101906105249190613361565b61130a565b005b610533611453565b6040516105409190612bab565b60405180910390f35b61055161145a565b60405161055e9190612bab565b60405180910390f35b610581600480360381019061057c9190612c49565b611475565b005b61059d60048036038101906105989190612c89565b611702565b005b6105a7611786565b6040516105b491906134dd565b60405180910390f35b60006105da826040015183602001516117ac90919063ffffffff16565b9050919050565b60006105ed83836117c2565b15806105fa575060025443105b15610608576000905061068e565b6000600760008573ffffffffffffffffffffffffffffffffffffffff1673ffffffffffffffffffffffffffffffffffffffff168152602001908152602001600020600084600281111561065e5761065d612d8e565b5b60028111156106705761066f612d8e565b5b815260200190815260200160002054905061068a81611896565b9150505b92915050565b6000600760008473ffffffffffffffffffffffffffffffffffffffff1673ffffffffffffffffffffffffffffffffffffffff16815260200190815260200160002060008360028111156106ea576106e9612d8e565b5b60028111156106fc576106fb612d8e565b5b815260200190815260200160002054905092915050565b600061076d61072a610723611b40565b6002611b48565b61075f61073f610738611b40565b6001611b48565b61075161074a611b40565b6000611b48565b611d2890919063ffffffff16565b611d2890919063ffffffff16565b905060008111156107cd576107cc610783611b40565b82600160009054906101000a900473ffffffffffffffffffffffffffffffffffffffff1673ffffffffffffffffffffffffffffffffffffffff16611d3e9092919063ffffffff16565b5b50565b6000610819600660008473ffffffffffffffffffffffffffffffffffffffff1673ffffffffffffffffffffffffffffffffffffffff168152602001908152602001600020611dc4565b9050919050565b60025481565b60036020528060005260406000206000915090508060000154908060010154908060020154908060030154908060040154908060050154908060060154905087565b62278d0081565b60056020528060005260406000206000915090508060000160009054906101000a900473ffffffffffffffffffffffffffffffffffffffff16908060000160149054906101000a900460ff16908060010154908060020154905084565b60006109116108dc8360026105e1565b6109036108ea8560016105e1565b6108f58660006105e1565b611d2890919063ffffffff16565b611d2890919063ffffffff16565b9050919050565b610920611dd9565b61092a6000611e57565b565b610934611dd9565b60006003600083600281111561094d5761094c612d8e565b5b600281111561095f5761095e612d8e565b5b8152602001908152602001600020905060006109cb826040518060e00160405290816000820154815260200160018201548152602001600282015481526020016003820154815260200160048201548152602001600582015481526020016006820154815250506105bd565b90506000811115610a94576109ed8183600101546117ac90919063ffffffff16565b8260010181905550610a49610a00611b40565b82600160009054906101000a900473ffffffffffffffffffffffffffffffffffffffff1673ffffffffffffffffffffffffffffffffffffffff16611d3e9092919063ffffffff16565b826002811115610a5c57610a5b612d8e565b5b7fb819d129d0582a3f999e8fe877ffe22795ad2228c7e577d09c19d4a3c5c7cf2882604051610a8b9190612bab565b60405180910390a25b505050565b610aa1611dd9565b4360025411610ae5576040517f08c379a0000000000000000000000000000000000000000000000000000000008152600401610adc90613555565b60405180910390fd5b610af0838383611f1b565b505050565b60606000610b4760066000610b08611b40565b73ffffffffffffffffffffffffffffffffffffffff1673ffffffffffffffffffffffffffffffffffffffff168152602001908152602001600020611dc4565b90506000610b8285610b7484610b66888a611d2890919063ffffffff16565b61221290919063ffffffff16565b61222b90919063ffffffff16565b9050610b9785826117ac90919063ffffffff16565b67ffffffffffffffff811115610bb057610baf612a0a565b5b604051908082528060200260200182016040528015610be957816020015b610bd661295a565b815260200190600190039081610bce5790505b50925060008590505b81811015610d63576000610c548260066000610c0c611b40565b73ffffffffffffffffffffffffffffffffffffffff1673ffffffffffffffffffffffffffffffffffffffff16815260200190815260200160002061224490919063ffffffff16565b90506000610c6b88846117ac90919063ffffffff16565b9050600560008381526020019081526020016000206040518060800160405290816000820160009054906101000a900473ffffffffffffffffffffffffffffffffffffffff1673ffffffffffffffffffffffffffffffffffffffff1673ffffffffffffffffffffffffffffffffffffffff1681526020016000820160149054906101000a900460ff166002811115610d0657610d05612d8e565b5b6002811115610d1857610d17612d8e565b5b815260200160018201548152602001600282015481525050868281518110610d4357610d42613575565b5b602002602001018190525050508080610d5b906135d3565b915050610bf2565b50505092915050565b6000610d89826060015183602001516117ac90919063ffffffff16565b9050919050565b610d98611dd9565b610da5858585858561225e565b5050505050565b610db4611dd9565b4360025411610df8576040517f08c379a0000000000000000000000000000000000000000000000000000000008152600401610def90613555565b60405180910390fd5b601e868690501115610e3f576040517f08c379a0000000000000000000000000000000000000000000000000000000008152600401610e3690613668565b60405180910390fd5b8383905086869050148015610e5957508181905084849050145b610e98576040517f08c379a0000000000000000000000000000000000000000000000000000000008152600401610e8f906136d4565b60405180910390fd5b60005b86869050811015610f2b57610f18878783818110610ebc57610ebb613575565b5b9050602002016020810190610ed19190612c89565b868684818110610ee457610ee3613575565b5b9050602002016020810190610ef99190612cb6565b858585818110610f0c57610f0b613575565b5b90506020020135611f1b565b8080610f23906135d3565b915050610e9b565b50505050505050565b60008060009054906101000a900473ffffffffffffffffffffffffffffffffffffffff16905090565b610f65611dd9565b60036000836002811115610f7c57610f7b612d8e565b5b6002811115610f8e57610f8d612d8e565b5b815260200190815260200160002060000154610fed8260036000866002811115610fbb57610fba612d8e565b5b6002811115610fcd57610fcc612d8e565b5b815260200190815260200160002060010154611d2890919063ffffffff16565b111561102e576040517f08c379a000000000000000000000000000000000000000000000000000000000815260040161102590613766565b60405180910390fd5b61107b816003600085600281111561104957611048612d8e565b5b600281111561105b5761105a612d8e565b5b815260200190815260200160002060010154611d2890919063ffffffff16565b6003600084600281111561109257611091612d8e565b5b60028111156110a4576110a3612d8e565b5b81526020019081526020016000206001018190555061110f6110c4611b40565b3083600160009054906101000a900473ffffffffffffffffffffffffffffffffffffffff1673ffffffffffffffffffffffffffffffffffffffff166123a0909392919063ffffffff16565b81600281111561112257611121612d8e565b5b7f1ed1842de53a6797bcd103b15ef4c2cfe977cd44a413ae3ef35bff8c6d252f61826040516111519190612bab565b60405180910390a25050565b6111656129aa565b60006003600084600281111561117e5761117d612d8e565b5b60028111156111905761118f612d8e565b5b81526020019081526020016000206040518060e001604052908160008201548152602001600182015481526020016002820154815260200160038201548152602001600482015481526020016005820154815260200160068201548152505090508060000151826000018181525050806020015182602001818152505061121681610d6c565b82604001818152505080604001518260600181815250508060600151826080018181525050611244816105bd565b8260a001818152505050919050565b61125b611dd9565b6000600254146112aa5760025481106112a9576040517f08c379a00000000000000000000000000000000000000000000000000000000081526004016112a0906137d2565b60405180910390fd5b5b4381116112ec576040517f08c379a00000000000000000000000000000000000000000000000000000000081526004016112e390613864565b60405180910390fd5b8060028190555050565b601e81565b6a084595161401484a00000081565b611312611dd9565b878790508a8a905014801561132c57508585905088889050145b801561133d57508383905086869050145b801561134e57508181905084849050145b61138d576040517f08c379a0000000000000000000000000000000000000000000000000000000008152600401611384906136d4565b60405180910390fd5b60005b8a8a9050811015611446576114338b8b838181106113b1576113b0613575565b5b90506020020160208101906113c69190612cb6565b8a8a848181106113d9576113d8613575565b5b905060200201358989858181106113f3576113f2613575565b5b9050602002013588888681811061140d5761140c613575565b5b9050602002013587878781811061142757611426613575565b5b9050602002013561225e565b808061143e906135d3565b915050611390565b5050505050505050505050565b62034bc081565b6a084595161401484a00000060646114729190613884565b81565b61147d611dd9565b818161148982826117c2565b6114c8576040517f08c379a00000000000000000000000000000000000000000000000000000000081526004016114bf90613950565b60405180910390fd5b6000600760008673ffffffffffffffffffffffffffffffffffffffff1673ffffffffffffffffffffffffffffffffffffffff168152602001908152602001600020600085600281111561151e5761151d612d8e565b5b60028111156115305761152f612d8e565b5b815260200190815260200160002054905060006003600086600281111561155a57611559612d8e565b5b600281111561156c5761156b612d8e565b5b815260200190815260200160002090506000600560008481526020019081526020016000206001015490506115d66115c36005600086815260200190815260200160002060020154836117ac90919063ffffffff16565b83600201546117ac90919063ffffffff16565b826002018190555061162f83600660008a73ffffffffffffffffffffffffffffffffffffffff1673ffffffffffffffffffffffffffffffffffffffff16815260200190815260200160002061242990919063ffffffff16565b506000600760008973ffffffffffffffffffffffffffffffffffffffff1673ffffffffffffffffffffffffffffffffffffffff168152602001908152602001600020600088600281111561168657611685612d8e565b5b600281111561169857611697612d8e565b5b8152602001908152602001600020819055508673ffffffffffffffffffffffffffffffffffffffff16837f42ccba9814df52d01c2fd804f92a6ededbf830ad1bc8df0e2151be9c2631df23836040516116f19190612bab565b60405180910390a350505050505050565b61170a611dd9565b600073ffffffffffffffffffffffffffffffffffffffff168173ffffffffffffffffffffffffffffffffffffffff16141561177a576040517f08c379a0000000000000000000000000000000000000000000000000000000008152600401611771906139e2565b60405180910390fd5b61178381611e57565b50565b600160009054906101000a900473ffffffffffffffffffffffffffffffffffffffff1681565b600081836117ba9190613a02565b905092915050565b600080600760008573ffffffffffffffffffffffffffffffffffffffff1673ffffffffffffffffffffffffffffffffffffffff168152602001908152602001600020600084600281111561181957611818612d8e565b5b600281111561182b5761182a612d8e565b5b815260200190815260200160002054905061188d81600660008773ffffffffffffffffffffffffffffffffffffffff1673ffffffffffffffffffffffffffffffffffffffff16815260200190815260200160002061244390919063ffffffff16565b91505092915050565b600080600560008481526020019081526020016000206040518060800160405290816000820160009054906101000a900473ffffffffffffffffffffffffffffffffffffffff1673ffffffffffffffffffffffffffffffffffffffff1673ffffffffffffffffffffffffffffffffffffffff1681526020016000820160149054906101000a900460ff16600281111561193257611931612d8e565b5b600281111561194457611943612d8e565b5b81526020016001820154815260200160028201548152505090506000600360008360200151600281111561197b5761197a612d8e565b5b600281111561198d5761198c612d8e565b5b81526020019081526020016000206040518060e001604052908160008201548152602001600182015481526020016002820154815260200160038201548152602001600482015481526020016005820154815260200160068201548152505090506000611a346a084595161401484a0000006064611a0b9190613884565b611a268460800151866040015161245d90919063ffffffff16565b61247390919063ffffffff16565b905060008190506000611a6b611a5a62034bc08660a0015161245d90919063ffffffff16565b600254611d2890919063ffffffff16565b90506000611a9b611a8c62034bc08760c0015161245d90919063ffffffff16565b83611d2890919063ffffffff16565b905081431115611b1c576000611ab18383612489565b90506000611acc8689604001516117ac90919063ffffffff16565b9050611b17611b08611ae786866117ac90919063ffffffff16565b611afa858561245d90919063ffffffff16565b61247390919063ffffffff16565b86611d2890919063ffffffff16565b945050505b611b338660600151846117ac90919063ffffffff16565b9650505050505050919050565b600033905090565b6000611b5483836117c2565b1580611b61575060025443105b15611b6f5760009050611d22565b6000600760008573ffffffffffffffffffffffffffffffffffffffff1673ffffffffffffffffffffffffffffffffffffffff1681526020019081526020016000206000846002811115611bc557611bc4612d8e565b5b6002811115611bd757611bd6612d8e565b5b81526020019081526020016000205490506000611bf382611896565b90506000811115611d1c57611c4b8160036000876002811115611c1957611c18612d8e565b5b6002811115611c2b57611c2a612d8e565b5b815260200190815260200160002060030154611d2890919063ffffffff16565b60036000866002811115611c6257611c61612d8e565b5b6002811115611c7457611c73612d8e565b5b815260200190815260200160002060030181905550611cb2816005600085815260200190815260200160002060020154611d2890919063ffffffff16565b60056000848152602001908152602001600020600201819055508473ffffffffffffffffffffffffffffffffffffffff16827f14a81f9a556dbd4b3ae8c924aef3cc382cb6f3c4b91e88201a1be8e8cf35932883604051611d139190612bab565b60405180910390a35b80925050505b92915050565b60008183611d369190613a36565b905092915050565b611dbf8363a9059cbb60e01b8484604051602401611d5d929190613a8c565b604051602081830303815290604052907bffffffffffffffffffffffffffffffffffffffffffffffffffffffff19166020820180517bffffffffffffffffffffffffffffffffffffffffffffffffffffffff83818316178352505050506124c8565b505050565b6000611dd28260000161258f565b9050919050565b611de1611b40565b73ffffffffffffffffffffffffffffffffffffffff16611dff610f34565b73ffffffffffffffffffffffffffffffffffffffff1614611e55576040517f08c379a0000000000000000000000000000000000000000000000000000000008152600401611e4c90613b01565b60405180910390fd5b565b60008060009054906101000a900473ffffffffffffffffffffffffffffffffffffffff169050816000806101000a81548173ffffffffffffffffffffffffffffffffffffffff021916908373ffffffffffffffffffffffffffffffffffffffff1602179055508173ffffffffffffffffffffffffffffffffffffffff168173ffffffffffffffffffffffffffffffffffffffff167f8be0079c531659141344cd1fd0a4f28419497f9722a3daafe3b4186f6b6457e060405160405180910390a35050565b611f2583836117c2565b15611f65576040517f08c379a0000000000000000000000000000000000000000000000000000000008152600401611f5c90613b6d565b60405180910390fd5b600060036000846002811115611f7e57611f7d612d8e565b5b6002811115611f9057611f8f612d8e565b5b815260200190815260200160002090508060010154611fbc838360020154611d2890919063ffffffff16565b1115611ffd576040517f08c379a0000000000000000000000000000000000000000000000000000000008152600401611ff490613bff565b60405180910390fd5b612014828260020154611d2890919063ffffffff16565b81600201819055508360056000600454815260200190815260200160002060000160006101000a81548173ffffffffffffffffffffffffffffffffffffffff021916908373ffffffffffffffffffffffffffffffffffffffff1602179055508260056000600454815260200190815260200160002060000160146101000a81548160ff021916908360028111156120ae576120ad612d8e565b5b02179055508160056000600454815260200190815260200160002060010181905550612123600454600660008773ffffffffffffffffffffffffffffffffffffffff1673ffffffffffffffffffffffffffffffffffffffff1681526020019081526020016000206125a090919063ffffffff16565b50600454600760008673ffffffffffffffffffffffffffffffffffffffff1673ffffffffffffffffffffffffffffffffffffffff168152602001908152602001600020600085600281111561217b5761217a612d8e565b5b600281111561218d5761218c612d8e565b5b8152602001908152602001600020819055506121b56001600454611d2890919063ffffffff16565b6004819055508373ffffffffffffffffffffffffffffffffffffffff166004547fca26c44dfb310e29094c39c1c371f88ec57baa3398ea2a3abc3f9c825a4f7212846040516122049190612bab565b60405180910390a350505050565b60008183106122215781612223565b825b905092915050565b600081831161223a578161223c565b825b905092915050565b600061225383600001836125ba565b60001c905092915050565b836003600087600281111561227657612275612d8e565b5b600281111561228857612287612d8e565b5b81526020019081526020016000206000018190555082600360008760028111156122b5576122b4612d8e565b5b60028111156122c7576122c6612d8e565b5b81526020019081526020016000206004018190555081600360008760028111156122f4576122f3612d8e565b5b600281111561230657612305612d8e565b5b815260200190815260200160002060050181905550806003600087600281111561233357612332612d8e565b5b600281111561234557612344612d8e565b5b8152602001908152602001600020600601819055507f7e9f14af6752ec6d3a32eb60acdc8e5897e088bad8c77b6faec09e0546ddd7df8585858585604051612391959493929190613c1f565b60405180910390a15050505050565b612423846323b872dd60e01b8585856040516024016123c193929190613c72565b604051602081830303815290604052907bffffffffffffffffffffffffffffffffffffffffffffffffffffffff19166020820180517bffffffffffffffffffffffffffffffffffffffffffffffffffffffff83818316178352505050506124c8565b50505050565b600061243b836000018360001b6125e5565b905092915050565b6000612455836000018360001b6126f9565b905092915050565b6000818361246b9190613884565b905092915050565b600081836124819190613cd8565b905092915050565b60008143106124ac576124a583836117ac90919063ffffffff16565b90506124c2565b6124bf83436117ac90919063ffffffff16565b90505b92915050565b600061252a826040518060400160405280602081526020017f5361666545524332303a206c6f772d6c6576656c2063616c6c206661696c65648152508573ffffffffffffffffffffffffffffffffffffffff1661271c9092919063ffffffff16565b905060008151111561258a578080602001905181019061254a9190613d41565b612589576040517f08c379a000000000000000000000000000000000000000000000000000000000815260040161258090613de0565b60405180910390fd5b5b505050565b600081600001805490509050919050565b60006125b2836000018360001b612734565b905092915050565b60008260000182815481106125d2576125d1613575565b5b9060005260206000200154905092915050565b600080836001016000848152602001908152602001600020549050600081146126ed5760006001826126179190613a02565b905060006001866000018054905061262f9190613a02565b905081811461269e5760008660000182815481106126505761264f613575565b5b906000526020600020015490508087600001848154811061267457612673613575565b5b90600052602060002001819055508387600101600083815260200190815260200160002081905550505b856000018054806126b2576126b1613e00565b5b6001900381819060005260206000200160009055905585600101600086815260200190815260200160002060009055600193505050506126f3565b60009150505b92915050565b600080836001016000848152602001908152602001600020541415905092915050565b606061272b84846000856127a4565b90509392505050565b600061274083836126f9565b61279957826000018290806001815401808255809150506001900390600052602060002001600090919091909150558260000180549050836001016000848152602001908152602001600020819055506001905061279e565b600090505b92915050565b6060824710156127e9576040517f08c379a00000000000000000000000000000000000000000000000000000000081526004016127e090613ea1565b60405180910390fd5b6000808673ffffffffffffffffffffffffffffffffffffffff1685876040516128129190613f3b565b60006040518083038185875af1925050503d806000811461284f576040519150601f19603f3d011682016040523d82523d6000602084013e612854565b606091505b509150915061286587838387612871565b92505050949350505050565b606083156128d4576000835114156128cc5761288c856128e7565b6128cb576040517f08c379a00000000000000000000000000000000000000000000000000000000081526004016128c290613f9e565b60405180910390fd5b5b8290506128df565b6128de838361290a565b5b949350505050565b6000808273ffffffffffffffffffffffffffffffffffffffff163b119050919050565b60008251111561291d5781518083602001fd5b806040517f08c379a00000000000000000000000000000000000000000000000000000000081526004016129519190614002565b60405180910390fd5b6040518060800160405280600073ffffffffffffffffffffffffffffffffffffffff1681526020016000600281111561299657612995612d8e565b5b815260200160008152602001600081525090565b6040518060c001604052806000815260200160008152602001600081526020016000815260200160008152602001600081525090565b6000604051905090565b600080fd5b600080fd5b600080fd5b6000601f19601f8301169050919050565b7f4e487b7100000000000000000000000000000000000000000000000000000000600052604160045260246000fd5b612a42826129f9565b810181811067ffffffffffffffff82111715612a6157612a60612a0a565b5b80604052505050565b6000612a746129e0565b9050612a808282612a39565b919050565b6000819050919050565b612a9881612a85565b8114612aa357600080fd5b50565b600081359050612ab581612a8f565b92915050565b600060e08284031215612ad157612ad06129f4565b5b612adb60e0612a6a565b90506000612aeb84828501612aa6565b6000830152506020612aff84828501612aa6565b6020830152506040612b1384828501612aa6565b6040830152506060612b2784828501612aa6565b6060830152506080612b3b84828501612aa6565b60808301525060a0612b4f84828501612aa6565b60a08301525060c0612b6384828501612aa6565b60c08301525092915050565b600060e08284031215612b8557612b846129ea565b5b6000612b9384828501612abb565b91505092915050565b612ba581612a85565b82525050565b6000602082019050612bc06000830184612b9c565b92915050565b600073ffffffffffffffffffffffffffffffffffffffff82169050919050565b6000612bf182612bc6565b9050919050565b612c0181612be6565b8114612c0c57600080fd5b50565b600081359050612c1e81612bf8565b92915050565b60038110612c3157600080fd5b50565b600081359050612c4381612c24565b92915050565b60008060408385031215612c6057612c5f6129ea565b5b6000612c6e85828601612c0f565b9250506020612c7f85828601612c34565b9150509250929050565b600060208284031215612c9f57612c9e6129ea565b5b6000612cad84828501612c0f565b91505092915050565b600060208284031215612ccc57612ccb6129ea565b5b6000612cda84828501612c34565b91505092915050565b600060e082019050612cf8600083018a612b9c565b612d056020830189612b9c565b612d126040830188612b9c565b612d1f6060830187612b9c565b612d2c6080830186612b9c565b612d3960a0830185612b9c565b612d4660c0830184612b9c565b98975050505050505050565b600060208284031215612d6857612d676129ea565b5b6000612d7684828501612aa6565b91505092915050565b612d8881612be6565b82525050565b7f4e487b7100000000000000000000000000000000000000000000000000000000600052602160045260246000fd5b60038110612dce57612dcd612d8e565b5b50565b6000819050612ddf82612dbd565b919050565b6000612def82612dd1565b9050919050565b612dff81612de4565b82525050565b6000608082019050612e1a6000830187612d7f565b612e276020830186612df6565b612e346040830185612b9c565b612e416060830184612b9c565b95945050505050565b600080600060608486031215612e6357612e626129ea565b5b6000612e7186828701612c0f565b9350506020612e8286828701612c34565b9250506040612e9386828701612aa6565b9150509250925092565b60008060408385031215612eb457612eb36129ea565b5b6000612ec285828601612aa6565b9250506020612ed385828601612aa6565b9150509250929050565b600081519050919050565b600082825260208201905092915050565b6000819050602082019050919050565b612f1281612be6565b82525050565b612f2181612de4565b82525050565b612f3081612a85565b82525050565b608082016000820151612f4c6000850182612f09565b506020820151612f5f6020850182612f18565b506040820151612f726040850182612f27565b506060820151612f856060850182612f27565b50505050565b6000612f978383612f36565b60808301905092915050565b6000602082019050919050565b6000612fbb82612edd565b612fc58185612ee8565b9350612fd083612ef9565b8060005b83811015613001578151612fe88882612f8b565b9750612ff383612fa3565b925050600181019050612fd4565b5085935050505092915050565b600060208201905081810360008301526130288184612fb0565b905092915050565b600080600080600060a0868803121561304c5761304b6129ea565b5b600061305a88828901612c34565b955050602061306b88828901612aa6565b945050604061307c88828901612aa6565b935050606061308d88828901612aa6565b925050608061309e88828901612aa6565b9150509295509295909350565b600080fd5b600080fd5b600080fd5b60008083601f8401126130d0576130cf6130ab565b5b8235905067ffffffffffffffff8111156130ed576130ec6130b0565b5b602083019150836020820283011115613109576131086130b5565b5b9250929050565b60008083601f840112613126576131256130ab565b5b8235905067ffffffffffffffff811115613143576131426130b0565b5b60208301915083602082028301111561315f5761315e6130b5565b5b9250929050565b60008083601f84011261317c5761317b6130ab565b5b8235905067ffffffffffffffff811115613199576131986130b0565b5b6020830191508360208202830111156131b5576131b46130b5565b5b9250929050565b600080600080600080606087890312156131d9576131d86129ea565b5b600087013567ffffffffffffffff8111156131f7576131f66129ef565b5b61320389828a016130ba565b9650965050602087013567ffffffffffffffff811115613226576132256129ef565b5b61323289828a01613110565b9450945050604087013567ffffffffffffffff811115613255576132546129ef565b5b61326189828a01613166565b92509250509295509295509295565b60006020820190506132856000830184612d7f565b92915050565b600080604083850312156132a2576132a16129ea565b5b60006132b085828601612c34565b92505060206132c185828601612aa6565b9150509250929050565b60c0820160008201516132e16000850182612f27565b5060208201516132f46020850182612f27565b5060408201516133076040850182612f27565b50606082015161331a6060850182612f27565b50608082015161332d6080850182612f27565b5060a082015161334060a0850182612f27565b50505050565b600060c08201905061335b60008301846132cb565b92915050565b60008060008060008060008060008060a08b8d031215613384576133836129ea565b5b60008b013567ffffffffffffffff8111156133a2576133a16129ef565b5b6133ae8d828e01613110565b9a509a505060208b013567ffffffffffffffff8111156133d1576133d06129ef565b5b6133dd8d828e01613166565b985098505060408b013567ffffffffffffffff811115613400576133ff6129ef565b5b61340c8d828e01613166565b965096505060608b013567ffffffffffffffff81111561342f5761342e6129ef565b5b61343b8d828e01613166565b945094505060808b013567ffffffffffffffff81111561345e5761345d6129ef565b5b61346a8d828e01613166565b92509250509295989b9194979a5092959850565b6000819050919050565b60006134a361349e61349984612bc6565b61347e565b612bc6565b9050919050565b60006134b582613488565b9050919050565b60006134c7826134aa565b9050919050565b6134d7816134bc565b82525050565b60006020820190506134f260008301846134ce565b92915050565b600082825260208201905092915050565b7f56657374696e673a20426c6f636b205447452068617320706173736564000000600082015250565b600061353f601d836134f8565b915061354a82613509565b602082019050919050565b6000602082019050818103600083015261356e81613532565b9050919050565b7f4e487b7100000000000000000000000000000000000000000000000000000000600052603260045260246000fd5b7f4e487b7100000000000000000000000000000000000000000000000000000000600052601160045260246000fd5b60006135de82612a85565b91507fffffffffffffffffffffffffffffffffffffffffffffffffffffffffffffffff821415613611576136106135a4565b5b600182019050919050565b7f56657374696e673a20546f6f206d616e7920617267756d656e74730000000000600082015250565b6000613652601b836134f8565b915061365d8261361c565b602082019050919050565b6000602082019050818103600083015261368181613645565b9050919050565b7f56657374696e673a204c656e677468206d69736d617463680000000000000000600082015250565b60006136be6018836134f8565b91506136c982613688565b602082019050919050565b600060208201905081810360008301526136ed816136b1565b9050919050565b7f56657374696e673a20416d6f756e742065786365656473206d6178207375707060008201527f6c79000000000000000000000000000000000000000000000000000000000000602082015250565b60006137506022836134f8565b915061375b826136f4565b604082019050919050565b6000602082019050818103600083015261377f81613743565b9050919050565b7f56657374696e673a20426c6f636b2054474520616c7265616479207365740000600082015250565b60006137bc601e836134f8565b91506137c782613786565b602082019050919050565b600060208201905081810360008301526137eb816137af565b9050919050565b7f56657374696e673a2053686f756c642073657420626c6f636b20696e2066757460008201527f7572650000000000000000000000000000000000000000000000000000000000602082015250565b600061384e6023836134f8565b9150613859826137f2565b604082019050919050565b6000602082019050818103600083015261387d81613841565b9050919050565b600061388f82612a85565b915061389a83612a85565b9250817fffffffffffffffffffffffffffffffffffffffffffffffffffffffffffffffff04831182151516156138d3576138d26135a4565b5b828202905092915050565b7f56657374696e673a20546869732076657374696e6720646f65736e277420657860008201527f6973740000000000000000000000000000000000000000000000000000000000602082015250565b600061393a6023836134f8565b9150613945826138de565b604082019050919050565b600060208201905081810360008301526139698161392d565b9050919050565b7f4f776e61626c653a206e6577206f776e657220697320746865207a65726f206160008201527f6464726573730000000000000000000000000000000000000000000000000000602082015250565b60006139cc6026836134f8565b91506139d782613970565b604082019050919050565b600060208201905081810360008301526139fb816139bf565b9050919050565b6000613a0d82612a85565b9150613a1883612a85565b925082821015613a2b57613a2a6135a4565b5b828203905092915050565b6000613a4182612a85565b9150613a4c83612a85565b9250827fffffffffffffffffffffffffffffffffffffffffffffffffffffffffffffffff03821115613a8157613a806135a4565b5b828201905092915050565b6000604082019050613aa16000830185612d7f565b613aae6020830184612b9c565b9392505050565b7f4f776e61626c653a2063616c6c6572206973206e6f7420746865206f776e6572600082015250565b6000613aeb6020836134f8565b9150613af682613ab5565b602082019050919050565b60006020820190508181036000830152613b1a81613ade565b9050919050565b7f56657374696e673a20416c726561647920696e76657374656400000000000000600082015250565b6000613b576019836134f8565b9150613b6282613b21565b602082019050919050565b60006020820190508181036000830152613b8681613b4a565b9050919050565b7f56657374696e673a20496e7375666973616e74206c6f636b656420737570706c60008201527f7900000000000000000000000000000000000000000000000000000000000000602082015250565b6000613be96021836134f8565b9150613bf482613b8d565b604082019050919050565b60006020820190508181036000830152613c1881613bdc565b9050919050565b600060a082019050613c346000830188612df6565b613c416020830187612b9c565b613c4e6040830186612b9c565b613c5b6060830185612b9c565b613c686080830184612b9c565b9695505050505050565b6000606082019050613c876000830186612d7f565b613c946020830185612d7f565b613ca16040830184612b9c565b949350505050565b7f4e487b7100000000000000000000000000000000000000000000000000000000600052601260045260246000fd5b6000613ce382612a85565b9150613cee83612a85565b925082613cfe57613cfd613ca9565b5b828204905092915050565b60008115159050919050565b613d1e81613d09565b8114613d2957600080fd5b50565b600081519050613d3b81613d15565b92915050565b600060208284031215613d5757613d566129ea565b5b6000613d6584828501613d2c565b91505092915050565b7f5361666545524332303a204552433230206f7065726174696f6e20646964206e60008201527f6f74207375636365656400000000000000000000000000000000000000000000602082015250565b6000613dca602a836134f8565b9150613dd582613d6e565b604082019050919050565b60006020820190508181036000830152613df981613dbd565b9050919050565b7f4e487b7100000000000000000000000000000000000000000000000000000000600052603160045260246000fd5b7f416464726573733a20696e73756666696369656e742062616c616e636520666f60008201527f722063616c6c0000000000000000000000000000000000000000000000000000602082015250565b6000613e8b6026836134f8565b9150613e9682613e2f565b604082019050919050565b60006020820190508181036000830152613eba81613e7e565b9050919050565b600081519050919050565b600081905092915050565b60005b83811015613ef5578082015181840152602081019050613eda565b83811115613f04576000848401525b50505050565b6000613f1582613ec1565b613f1f8185613ecc565b9350613f2f818560208601613ed7565b80840191505092915050565b6000613f478284613f0a565b915081905092915050565b7f416464726573733a2063616c6c20746f206e6f6e2d636f6e7472616374000000600082015250565b6000613f88601d836134f8565b9150613f9382613f52565b602082019050919050565b60006020820190508181036000830152613fb781613f7b565b9050919050565b600081519050919050565b6000613fd482613fbe565b613fde81856134f8565b9350613fee818560208601613ed7565b613ff7816129f9565b840191505092915050565b6000602082019050818103600083015261401c8184613fc9565b90509291505056fea2646970667358221220d700fe567be014b3fea9a6ea0d470c10127494f0c445b450c76eaf84ba0eeced64736f6c634300080a0033","opcodes":"PUSH1 0x80 PUSH1 0x40 MSTORE CALLVALUE DUP1 ISZERO PUSH3 0x11 JUMPI PUSH1 0x0 DUP1 REVERT JUMPDEST POP PUSH1 0x40 MLOAD PUSH3 0x4279 CODESIZE SUB DUP1 PUSH3 0x4279 DUP4 CODECOPY DUP2 DUP2 ADD PUSH1 0x40 MSTORE DUP2 ADD SWAP1 PUSH3 0x37 SWAP2 SWAP1 PUSH3 0x1DD JUMP JUMPDEST PUSH3 0x57 PUSH3 0x4B PUSH3 0xA7 PUSH1 0x20 SHL PUSH1 0x20 SHR JUMP JUMPDEST PUSH3 0xAF PUSH1 0x20 SHL PUSH1 0x20 SHR JUMP JUMPDEST PUSH1 0x1 PUSH1 0x4 DUP2 SWAP1 SSTORE POP DUP1 PUSH1 0x1 PUSH1 0x0 PUSH2 0x100 EXP DUP2 SLOAD DUP2 PUSH20 0xFFFFFFFFFFFFFFFFFFFFFFFFFFFFFFFFFFFFFFFF MUL NOT AND SWAP1 DUP4 PUSH20 0xFFFFFFFFFFFFFFFFFFFFFFFFFFFFFFFFFFFFFFFF AND MUL OR SWAP1 SSTORE POP POP PUSH3 0x20F JUMP JUMPDEST PUSH1 0x0 CALLER SWAP1 POP SWAP1 JUMP JUMPDEST PUSH1 0x0 DUP1 PUSH1 0x0 SWAP1 SLOAD SWAP1 PUSH2 0x100 EXP SWAP1 DIV PUSH20 0xFFFFFFFFFFFFFFFFFFFFFFFFFFFFFFFFFFFFFFFF AND SWAP1 POP DUP2 PUSH1 0x0 DUP1 PUSH2 0x100 EXP DUP2 SLOAD DUP2 PUSH20 0xFFFFFFFFFFFFFFFFFFFFFFFFFFFFFFFFFFFFFFFF MUL NOT AND SWAP1 DUP4 PUSH20 0xFFFFFFFFFFFFFFFFFFFFFFFFFFFFFFFFFFFFFFFF AND MUL OR SWAP1 SSTORE POP DUP2 PUSH20 0xFFFFFFFFFFFFFFFFFFFFFFFFFFFFFFFFFFFFFFFF AND DUP2 PUSH20 0xFFFFFFFFFFFFFFFFFFFFFFFFFFFFFFFFFFFFFFFF AND PUSH32 0x8BE0079C531659141344CD1FD0A4F28419497F9722A3DAAFE3B4186F6B6457E0 PUSH1 0x40 MLOAD PUSH1 0x40 MLOAD DUP1 SWAP2 SUB SWAP1 LOG3 POP POP JUMP JUMPDEST PUSH1 0x0 DUP1 REVERT JUMPDEST PUSH1 0x0 PUSH20 0xFFFFFFFFFFFFFFFFFFFFFFFFFFFFFFFFFFFFFFFF DUP3 AND SWAP1 POP SWAP2 SWAP1 POP JUMP JUMPDEST PUSH1 0x0 PUSH3 0x1A5 DUP3 PUSH3 0x178 JUMP JUMPDEST SWAP1 POP SWAP2 SWAP1 POP JUMP JUMPDEST PUSH3 0x1B7 DUP2 PUSH3 0x198 JUMP JUMPDEST DUP2 EQ PUSH3 0x1C3 JUMPI PUSH1 0x0 DUP1 REVERT JUMPDEST POP JUMP JUMPDEST PUSH1 0x0 DUP2 MLOAD SWAP1 POP PUSH3 0x1D7 DUP2 PUSH3 0x1AC JUMP JUMPDEST SWAP3 SWAP2 POP POP JUMP JUMPDEST PUSH1 0x0 PUSH1 0x20 DUP3 DUP5 SUB SLT ISZERO PUSH3 0x1F6 JUMPI PUSH3 0x1F5 PUSH3 0x173 JUMP JUMPDEST JUMPDEST PUSH1 0x0 PUSH3 0x206 DUP5 DUP3 DUP6 ADD PUSH3 0x1C6 JUMP JUMPDEST SWAP2 POP POP SWAP3 SWAP2 POP POP JUMP JUMPDEST PUSH2 0x405A DUP1 PUSH3 0x21F PUSH1 0x0 CODECOPY PUSH1 0x0 RETURN INVALID PUSH1 0x80 PUSH1 0x40 MSTORE CALLVALUE DUP1 ISZERO PUSH2 0x10 JUMPI PUSH1 0x0 DUP1 REVERT JUMPDEST POP PUSH1 0x4 CALLDATASIZE LT PUSH2 0x1CF JUMPI PUSH1 0x0 CALLDATALOAD PUSH1 0xE0 SHR DUP1 PUSH4 0x83DED106 GT PUSH2 0x104 JUMPI DUP1 PUSH4 0xA6F9885C GT PUSH2 0xA2 JUMPI DUP1 PUSH4 0xCBF5A55E GT PUSH2 0x71 JUMPI DUP1 PUSH4 0xCBF5A55E EQ PUSH2 0x549 JUMPI DUP1 PUSH4 0xF1AF3C3F EQ PUSH2 0x567 JUMPI DUP1 PUSH4 0xF2FDE38B EQ PUSH2 0x583 JUMPI DUP1 PUSH4 0xFC0C546A EQ PUSH2 0x59F JUMPI PUSH2 0x1CF JUMP JUMPDEST DUP1 PUSH4 0xA6F9885C EQ PUSH2 0x4D3 JUMPI DUP1 PUSH4 0xAAF5EB68 EQ PUSH2 0x4F1 JUMPI DUP1 PUSH4 0xBED47F15 EQ PUSH2 0x50F JUMPI DUP1 PUSH4 0xC409084A EQ PUSH2 0x52B JUMPI PUSH2 0x1CF JUMP JUMPDEST DUP1 PUSH4 0x8DA5CB5B GT PUSH2 0xDE JUMPI DUP1 PUSH4 0x8DA5CB5B EQ PUSH2 0x44D JUMPI DUP1 PUSH4 0x9A21E6D2 EQ PUSH2 0x46B JUMPI DUP1 PUSH4 0x9D104770 EQ PUSH2 0x487 JUMPI DUP1 PUSH4 0xA3CF7C2F EQ PUSH2 0x4B7 JUMPI PUSH2 0x1CF JUMP JUMPDEST DUP1 PUSH4 0x83DED106 EQ PUSH2 0x3E5 JUMPI DUP1 PUSH4 0x8499F883 EQ PUSH2 0x415 JUMPI DUP1 PUSH4 0x87B3306F EQ PUSH2 0x431 JUMPI PUSH2 0x1CF JUMP JUMPDEST DUP1 PUSH4 0x6558954F GT PUSH2 0x171 JUMPI DUP1 PUSH4 0x715018A6 GT PUSH2 0x14B JUMPI DUP1 PUSH4 0x715018A6 EQ PUSH2 0x373 JUMPI DUP1 PUSH4 0x774B8C38 EQ PUSH2 0x37D JUMPI DUP1 PUSH4 0x7BA17F4E EQ PUSH2 0x399 JUMPI DUP1 PUSH4 0x81A63B18 EQ PUSH2 0x3B5 JUMPI PUSH2 0x1CF JUMP JUMPDEST DUP1 PUSH4 0x6558954F EQ PUSH2 0x2F2 JUMPI DUP1 PUSH4 0x66FFCF5F EQ PUSH2 0x310 JUMPI DUP1 PUSH4 0x70A08231 EQ PUSH2 0x343 JUMPI PUSH2 0x1CF JUMP JUMPDEST DUP1 PUSH4 0x4E71D92D GT PUSH2 0x1AD JUMPI DUP1 PUSH4 0x4E71D92D EQ PUSH2 0x264 JUMPI DUP1 PUSH4 0x57B89ADB EQ PUSH2 0x26E JUMPI DUP1 PUSH4 0x5F43793C EQ PUSH2 0x29E JUMPI DUP1 PUSH4 0x63C0D0D4 EQ PUSH2 0x2BC JUMPI PUSH2 0x1CF JUMP JUMPDEST DUP1 PUSH4 0x19AF64BA EQ PUSH2 0x1D4 JUMPI DUP1 PUSH4 0x3A560BAD EQ PUSH2 0x204 JUMPI DUP1 PUSH4 0x48BB6511 EQ PUSH2 0x234 JUMPI JUMPDEST PUSH1 0x0 DUP1 REVERT JUMPDEST PUSH2 0x1EE PUSH1 0x4 DUP1 CALLDATASIZE SUB DUP2 ADD SWAP1 PUSH2 0x1E9 SWAP2 SWAP1 PUSH2 0x2B6F JUMP JUMPDEST PUSH2 0x5BD JUMP JUMPDEST PUSH1 0x40 MLOAD PUSH2 0x1FB SWAP2 SWAP1 PUSH2 0x2BAB JUMP JUMPDEST PUSH1 0x40 MLOAD DUP1 SWAP2 SUB SWAP1 RETURN JUMPDEST PUSH2 0x21E PUSH1 0x4 DUP1 CALLDATASIZE SUB DUP2 ADD SWAP1 PUSH2 0x219 SWAP2 SWAP1 PUSH2 0x2C49 JUMP JUMPDEST PUSH2 0x5E1 JUMP JUMPDEST PUSH1 0x40 MLOAD PUSH2 0x22B SWAP2 SWAP1 PUSH2 0x2BAB JUMP JUMPDEST PUSH1 0x40 MLOAD DUP1 SWAP2 SUB SWAP1 RETURN JUMPDEST PUSH2 0x24E PUSH1 0x4 DUP1 CALLDATASIZE SUB DUP2 ADD SWAP1 PUSH2 0x249 SWAP2 SWAP1 PUSH2 0x2C49 JUMP JUMPDEST PUSH2 0x694 JUMP JUMPDEST PUSH1 0x40 MLOAD PUSH2 0x25B SWAP2 SWAP1 PUSH2 0x2BAB JUMP JUMPDEST PUSH1 0x40 MLOAD DUP1 SWAP2 SUB SWAP1 RETURN JUMPDEST PUSH2 0x26C PUSH2 0x713 JUMP JUMPDEST STOP JUMPDEST PUSH2 0x288 PUSH1 0x4 DUP1 CALLDATASIZE SUB DUP2 ADD SWAP1 PUSH2 0x283 SWAP2 SWAP1 PUSH2 0x2C89 JUMP JUMPDEST PUSH2 0x7D0 JUMP JUMPDEST PUSH1 0x40 MLOAD PUSH2 0x295 SWAP2 SWAP1 PUSH2 0x2BAB JUMP JUMPDEST PUSH1 0x40 MLOAD DUP1 SWAP2 SUB SWAP1 RETURN JUMPDEST PUSH2 0x2A6 PUSH2 0x820 JUMP JUMPDEST PUSH1 0x40 MLOAD PUSH2 0x2B3 SWAP2 SWAP1 PUSH2 0x2BAB JUMP JUMPDEST PUSH1 0x40 MLOAD DUP1 SWAP2 SUB SWAP1 RETURN JUMPDEST PUSH2 0x2D6 PUSH1 0x4 DUP1 CALLDATASIZE SUB DUP2 ADD SWAP1 PUSH2 0x2D1 SWAP2 SWAP1 PUSH2 0x2CB6 JUMP JUMPDEST PUSH2 0x826 JUMP JUMPDEST PUSH1 0x40 MLOAD PUSH2 0x2E9 SWAP8 SWAP7 SWAP6 SWAP5 SWAP4 SWAP3 SWAP2 SWAP1 PUSH2 0x2CE3 JUMP JUMPDEST PUSH1 0x40 MLOAD DUP1 SWAP2 SUB SWAP1 RETURN JUMPDEST PUSH2 0x2FA PUSH2 0x868 JUMP JUMPDEST PUSH1 0x40 MLOAD PUSH2 0x307 SWAP2 SWAP1 PUSH2 0x2BAB JUMP JUMPDEST PUSH1 0x40 MLOAD DUP1 SWAP2 SUB SWAP1 RETURN JUMPDEST PUSH2 0x32A PUSH1 0x4 DUP1 CALLDATASIZE SUB DUP2 ADD SWAP1 PUSH2 0x325 SWAP2 SWAP1 PUSH2 0x2D52 JUMP JUMPDEST PUSH2 0x86F JUMP JUMPDEST PUSH1 0x40 MLOAD PUSH2 0x33A SWAP5 SWAP4 SWAP3 SWAP2 SWAP1 PUSH2 0x2E05 JUMP JUMPDEST PUSH1 0x40 MLOAD DUP1 SWAP2 SUB SWAP1 RETURN JUMPDEST PUSH2 0x35D PUSH1 0x4 DUP1 CALLDATASIZE SUB DUP2 ADD SWAP1 PUSH2 0x358 SWAP2 SWAP1 PUSH2 0x2C89 JUMP JUMPDEST PUSH2 0x8CC JUMP JUMPDEST PUSH1 0x40 MLOAD PUSH2 0x36A SWAP2 SWAP1 PUSH2 0x2BAB JUMP JUMPDEST PUSH1 0x40 MLOAD DUP1 SWAP2 SUB SWAP1 RETURN JUMPDEST PUSH2 0x37B PUSH2 0x918 JUMP JUMPDEST STOP JUMPDEST PUSH2 0x397 PUSH1 0x4 DUP1 CALLDATASIZE SUB DUP2 ADD SWAP1 PUSH2 0x392 SWAP2 SWAP1 PUSH2 0x2CB6 JUMP JUMPDEST PUSH2 0x92C JUMP JUMPDEST STOP JUMPDEST PUSH2 0x3B3 PUSH1 0x4 DUP1 CALLDATASIZE SUB DUP2 ADD SWAP1 PUSH2 0x3AE SWAP2 SWAP1 PUSH2 0x2E4A JUMP JUMPDEST PUSH2 0xA99 JUMP JUMPDEST STOP JUMPDEST PUSH2 0x3CF PUSH1 0x4 DUP1 CALLDATASIZE SUB DUP2 ADD SWAP1 PUSH2 0x3CA SWAP2 SWAP1 PUSH2 0x2E9D JUMP JUMPDEST PUSH2 0xAF5 JUMP JUMPDEST PUSH1 0x40 MLOAD PUSH2 0x3DC SWAP2 SWAP1 PUSH2 0x300E JUMP JUMPDEST PUSH1 0x40 MLOAD DUP1 SWAP2 SUB SWAP1 RETURN JUMPDEST PUSH2 0x3FF PUSH1 0x4 DUP1 CALLDATASIZE SUB DUP2 ADD SWAP1 PUSH2 0x3FA SWAP2 SWAP1 PUSH2 0x2B6F JUMP JUMPDEST PUSH2 0xD6C JUMP JUMPDEST PUSH1 0x40 MLOAD PUSH2 0x40C SWAP2 SWAP1 PUSH2 0x2BAB JUMP JUMPDEST PUSH1 0x40 MLOAD DUP1 SWAP2 SUB SWAP1 RETURN JUMPDEST PUSH2 0x42F PUSH1 0x4 DUP1 CALLDATASIZE SUB DUP2 ADD SWAP1 PUSH2 0x42A SWAP2 SWAP1 PUSH2 0x3030 JUMP JUMPDEST PUSH2 0xD90 JUMP JUMPDEST STOP JUMPDEST PUSH2 0x44B PUSH1 0x4 DUP1 CALLDATASIZE SUB DUP2 ADD SWAP1 PUSH2 0x446 SWAP2 SWAP1 PUSH2 0x31BC JUMP JUMPDEST PUSH2 0xDAC JUMP JUMPDEST STOP JUMPDEST PUSH2 0x455 PUSH2 0xF34 JUMP JUMPDEST PUSH1 0x40 MLOAD PUSH2 0x462 SWAP2 SWAP1 PUSH2 0x3270 JUMP JUMPDEST PUSH1 0x40 MLOAD DUP1 SWAP2 SUB SWAP1 RETURN JUMPDEST PUSH2 0x485 PUSH1 0x4 DUP1 CALLDATASIZE SUB DUP2 ADD SWAP1 PUSH2 0x480 SWAP2 SWAP1 PUSH2 0x328B JUMP JUMPDEST PUSH2 0xF5D JUMP JUMPDEST STOP JUMPDEST PUSH2 0x4A1 PUSH1 0x4 DUP1 CALLDATASIZE SUB DUP2 ADD SWAP1 PUSH2 0x49C SWAP2 SWAP1 PUSH2 0x2CB6 JUMP JUMPDEST PUSH2 0x115D JUMP JUMPDEST PUSH1 0x40 MLOAD PUSH2 0x4AE SWAP2 SWAP1 PUSH2 0x3346 JUMP JUMPDEST PUSH1 0x40 MLOAD DUP1 SWAP2 SUB SWAP1 RETURN JUMPDEST PUSH2 0x4D1 PUSH1 0x4 DUP1 CALLDATASIZE SUB DUP2 ADD SWAP1 PUSH2 0x4CC SWAP2 SWAP1 PUSH2 0x2D52 JUMP JUMPDEST PUSH2 0x1253 JUMP JUMPDEST STOP JUMPDEST PUSH2 0x4DB PUSH2 0x12F6 JUMP JUMPDEST PUSH1 0x40 MLOAD PUSH2 0x4E8 SWAP2 SWAP1 PUSH2 0x2BAB JUMP JUMPDEST PUSH1 0x40 MLOAD DUP1 SWAP2 SUB SWAP1 RETURN JUMPDEST PUSH2 0x4F9 PUSH2 0x12FB JUMP JUMPDEST PUSH1 0x40 MLOAD PUSH2 0x506 SWAP2 SWAP1 PUSH2 0x2BAB JUMP JUMPDEST PUSH1 0x40 MLOAD DUP1 SWAP2 SUB SWAP1 RETURN JUMPDEST PUSH2 0x529 PUSH1 0x4 DUP1 CALLDATASIZE SUB DUP2 ADD SWAP1 PUSH2 0x524 SWAP2 SWAP1 PUSH2 0x3361 JUMP JUMPDEST PUSH2 0x130A JUMP JUMPDEST STOP JUMPDEST PUSH2 0x533 PUSH2 0x1453 JUMP JUMPDEST PUSH1 0x40 MLOAD PUSH2 0x540 SWAP2 SWAP1 PUSH2 0x2BAB JUMP JUMPDEST PUSH1 0x40 MLOAD DUP1 SWAP2 SUB SWAP1 RETURN JUMPDEST PUSH2 0x551 PUSH2 0x145A JUMP JUMPDEST PUSH1 0x40 MLOAD PUSH2 0x55E SWAP2 SWAP1 PUSH2 0x2BAB JUMP JUMPDEST PUSH1 0x40 MLOAD DUP1 SWAP2 SUB SWAP1 RETURN JUMPDEST PUSH2 0x581 PUSH1 0x4 DUP1 CALLDATASIZE SUB DUP2 ADD SWAP1 PUSH2 0x57C SWAP2 SWAP1 PUSH2 0x2C49 JUMP JUMPDEST PUSH2 0x1475 JUMP JUMPDEST STOP JUMPDEST PUSH2 0x59D PUSH1 0x4 DUP1 CALLDATASIZE SUB DUP2 ADD SWAP1 PUSH2 0x598 SWAP2 SWAP1 PUSH2 0x2C89 JUMP JUMPDEST PUSH2 0x1702 JUMP JUMPDEST STOP JUMPDEST PUSH2 0x5A7 PUSH2 0x1786 JUMP JUMPDEST PUSH1 0x40 MLOAD PUSH2 0x5B4 SWAP2 SWAP1 PUSH2 0x34DD JUMP JUMPDEST PUSH1 0x40 MLOAD DUP1 SWAP2 SUB SWAP1 RETURN JUMPDEST PUSH1 0x0 PUSH2 0x5DA DUP3 PUSH1 0x40 ADD MLOAD DUP4 PUSH1 0x20 ADD MLOAD PUSH2 0x17AC SWAP1 SWAP2 SWAP1 PUSH4 0xFFFFFFFF AND JUMP JUMPDEST SWAP1 POP SWAP2 SWAP1 POP JUMP JUMPDEST PUSH1 0x0 PUSH2 0x5ED DUP4 DUP4 PUSH2 0x17C2 JUMP JUMPDEST ISZERO DUP1 PUSH2 0x5FA JUMPI POP PUSH1 0x2 SLOAD NUMBER LT JUMPDEST ISZERO PUSH2 0x608 JUMPI PUSH1 0x0 SWAP1 POP PUSH2 0x68E JUMP JUMPDEST PUSH1 0x0 PUSH1 0x7 PUSH1 0x0 DUP6 PUSH20 0xFFFFFFFFFFFFFFFFFFFFFFFFFFFFFFFFFFFFFFFF AND PUSH20 0xFFFFFFFFFFFFFFFFFFFFFFFFFFFFFFFFFFFFFFFF AND DUP2 MSTORE PUSH1 0x20 ADD SWAP1 DUP2 MSTORE PUSH1 0x20 ADD PUSH1 0x0 KECCAK256 PUSH1 0x0 DUP5 PUSH1 0x2 DUP2 GT ISZERO PUSH2 0x65E JUMPI PUSH2 0x65D PUSH2 0x2D8E JUMP JUMPDEST JUMPDEST PUSH1 0x2 DUP2 GT ISZERO PUSH2 0x670 JUMPI PUSH2 0x66F PUSH2 0x2D8E JUMP JUMPDEST JUMPDEST DUP2 MSTORE PUSH1 0x20 ADD SWAP1 DUP2 MSTORE PUSH1 0x20 ADD PUSH1 0x0 KECCAK256 SLOAD SWAP1 POP PUSH2 0x68A DUP2 PUSH2 0x1896 JUMP JUMPDEST SWAP2 POP POP JUMPDEST SWAP3 SWAP2 POP POP JUMP JUMPDEST PUSH1 0x0 PUSH1 0x7 PUSH1 0x0 DUP5 PUSH20 0xFFFFFFFFFFFFFFFFFFFFFFFFFFFFFFFFFFFFFFFF AND PUSH20 0xFFFFFFFFFFFFFFFFFFFFFFFFFFFFFFFFFFFFFFFF AND DUP2 MSTORE PUSH1 0x20 ADD SWAP1 DUP2 MSTORE PUSH1 0x20 ADD PUSH1 0x0 KECCAK256 PUSH1 0x0 DUP4 PUSH1 0x2 DUP2 GT ISZERO PUSH2 0x6EA JUMPI PUSH2 0x6E9 PUSH2 0x2D8E JUMP JUMPDEST JUMPDEST PUSH1 0x2 DUP2 GT ISZERO PUSH2 0x6FC JUMPI PUSH2 0x6FB PUSH2 0x2D8E JUMP JUMPDEST JUMPDEST DUP2 MSTORE PUSH1 0x20 ADD SWAP1 DUP2 MSTORE PUSH1 0x20 ADD PUSH1 0x0 KECCAK256 SLOAD SWAP1 POP SWAP3 SWAP2 POP POP JUMP JUMPDEST PUSH1 0x0 PUSH2 0x76D PUSH2 0x72A PUSH2 0x723 PUSH2 0x1B40 JUMP JUMPDEST PUSH1 0x2 PUSH2 0x1B48 JUMP JUMPDEST PUSH2 0x75F PUSH2 0x73F PUSH2 0x738 PUSH2 0x1B40 JUMP JUMPDEST PUSH1 0x1 PUSH2 0x1B48 JUMP JUMPDEST PUSH2 0x751 PUSH2 0x74A PUSH2 0x1B40 JUMP JUMPDEST PUSH1 0x0 PUSH2 0x1B48 JUMP JUMPDEST PUSH2 0x1D28 SWAP1 SWAP2 SWAP1 PUSH4 0xFFFFFFFF AND JUMP JUMPDEST PUSH2 0x1D28 SWAP1 SWAP2 SWAP1 PUSH4 0xFFFFFFFF AND JUMP JUMPDEST SWAP1 POP PUSH1 0x0 DUP2 GT ISZERO PUSH2 0x7CD JUMPI PUSH2 0x7CC PUSH2 0x783 PUSH2 0x1B40 JUMP JUMPDEST DUP3 PUSH1 0x1 PUSH1 0x0 SWAP1 SLOAD SWAP1 PUSH2 0x100 EXP SWAP1 DIV PUSH20 0xFFFFFFFFFFFFFFFFFFFFFFFFFFFFFFFFFFFFFFFF AND PUSH20 0xFFFFFFFFFFFFFFFFFFFFFFFFFFFFFFFFFFFFFFFF AND PUSH2 0x1D3E SWAP1 SWAP3 SWAP2 SWAP1 PUSH4 0xFFFFFFFF AND JUMP JUMPDEST JUMPDEST POP JUMP JUMPDEST PUSH1 0x0 PUSH2 0x819 PUSH1 0x6 PUSH1 0x0 DUP5 PUSH20 0xFFFFFFFFFFFFFFFFFFFFFFFFFFFFFFFFFFFFFFFF AND PUSH20 0xFFFFFFFFFFFFFFFFFFFFFFFFFFFFFFFFFFFFFFFF AND DUP2 MSTORE PUSH1 0x20 ADD SWAP1 DUP2 MSTORE PUSH1 0x20 ADD PUSH1 0x0 KECCAK256 PUSH2 0x1DC4 JUMP JUMPDEST SWAP1 POP SWAP2 SWAP1 POP JUMP JUMPDEST PUSH1 0x2 SLOAD DUP2 JUMP JUMPDEST PUSH1 0x3 PUSH1 0x20 MSTORE DUP1 PUSH1 0x0 MSTORE PUSH1 0x40 PUSH1 0x0 KECCAK256 PUSH1 0x0 SWAP2 POP SWAP1 POP DUP1 PUSH1 0x0 ADD SLOAD SWAP1 DUP1 PUSH1 0x1 ADD SLOAD SWAP1 DUP1 PUSH1 0x2 ADD SLOAD SWAP1 DUP1 PUSH1 0x3 ADD SLOAD SWAP1 DUP1 PUSH1 0x4 ADD SLOAD SWAP1 DUP1 PUSH1 0x5 ADD SLOAD SWAP1 DUP1 PUSH1 0x6 ADD SLOAD SWAP1 POP DUP8 JUMP JUMPDEST PUSH3 0x278D00 DUP2 JUMP JUMPDEST PUSH1 0x5 PUSH1 0x20 MSTORE DUP1 PUSH1 0x0 MSTORE PUSH1 0x40 PUSH1 0x0 KECCAK256 PUSH1 0x0 SWAP2 POP SWAP1 POP DUP1 PUSH1 0x0 ADD PUSH1 0x0 SWAP1 SLOAD SWAP1 PUSH2 0x100 EXP SWAP1 DIV PUSH20 0xFFFFFFFFFFFFFFFFFFFFFFFFFFFFFFFFFFFFFFFF AND SWAP1 DUP1 PUSH1 0x0 ADD PUSH1 0x14 SWAP1 SLOAD SWAP1 PUSH2 0x100 EXP SWAP1 DIV PUSH1 0xFF AND SWAP1 DUP1 PUSH1 0x1 ADD SLOAD SWAP1 DUP1 PUSH1 0x2 ADD SLOAD SWAP1 POP DUP5 JUMP JUMPDEST PUSH1 0x0 PUSH2 0x911 PUSH2 0x8DC DUP4 PUSH1 0x2 PUSH2 0x5E1 JUMP JUMPDEST PUSH2 0x903 PUSH2 0x8EA DUP6 PUSH1 0x1 PUSH2 0x5E1 JUMP JUMPDEST PUSH2 0x8F5 DUP7 PUSH1 0x0 PUSH2 0x5E1 JUMP JUMPDEST PUSH2 0x1D28 SWAP1 SWAP2 SWAP1 PUSH4 0xFFFFFFFF AND JUMP JUMPDEST PUSH2 0x1D28 SWAP1 SWAP2 SWAP1 PUSH4 0xFFFFFFFF AND JUMP JUMPDEST SWAP1 POP SWAP2 SWAP1 POP JUMP JUMPDEST PUSH2 0x920 PUSH2 0x1DD9 JUMP JUMPDEST PUSH2 0x92A PUSH1 0x0 PUSH2 0x1E57 JUMP JUMPDEST JUMP JUMPDEST PUSH2 0x934 PUSH2 0x1DD9 JUMP JUMPDEST PUSH1 0x0 PUSH1 0x3 PUSH1 0x0 DUP4 PUSH1 0x2 DUP2 GT ISZERO PUSH2 0x94D JUMPI PUSH2 0x94C PUSH2 0x2D8E JUMP JUMPDEST JUMPDEST PUSH1 0x2 DUP2 GT ISZERO PUSH2 0x95F JUMPI PUSH2 0x95E PUSH2 0x2D8E JUMP JUMPDEST JUMPDEST DUP2 MSTORE PUSH1 0x20 ADD SWAP1 DUP2 MSTORE PUSH1 0x20 ADD PUSH1 0x0 KECCAK256 SWAP1 POP PUSH1 0x0 PUSH2 0x9CB DUP3 PUSH1 0x40 MLOAD DUP1 PUSH1 0xE0 ADD PUSH1 0x40 MSTORE SWAP1 DUP2 PUSH1 0x0 DUP3 ADD SLOAD DUP2 MSTORE PUSH1 0x20 ADD PUSH1 0x1 DUP3 ADD SLOAD DUP2 MSTORE PUSH1 0x20 ADD PUSH1 0x2 DUP3 ADD SLOAD DUP2 MSTORE PUSH1 0x20 ADD PUSH1 0x3 DUP3 ADD SLOAD DUP2 MSTORE PUSH1 0x20 ADD PUSH1 0x4 DUP3 ADD SLOAD DUP2 MSTORE PUSH1 0x20 ADD PUSH1 0x5 DUP3 ADD SLOAD DUP2 MSTORE PUSH1 0x20 ADD PUSH1 0x6 DUP3 ADD SLOAD DUP2 MSTORE POP POP PUSH2 0x5BD JUMP JUMPDEST SWAP1 POP PUSH1 0x0 DUP2 GT ISZERO PUSH2 0xA94 JUMPI PUSH2 0x9ED DUP2 DUP4 PUSH1 0x1 ADD SLOAD PUSH2 0x17AC SWAP1 SWAP2 SWAP1 PUSH4 0xFFFFFFFF AND JUMP JUMPDEST DUP3 PUSH1 0x1 ADD DUP2 SWAP1 SSTORE POP PUSH2 0xA49 PUSH2 0xA00 PUSH2 0x1B40 JUMP JUMPDEST DUP3 PUSH1 0x1 PUSH1 0x0 SWAP1 SLOAD SWAP1 PUSH2 0x100 EXP SWAP1 DIV PUSH20 0xFFFFFFFFFFFFFFFFFFFFFFFFFFFFFFFFFFFFFFFF AND PUSH20 0xFFFFFFFFFFFFFFFFFFFFFFFFFFFFFFFFFFFFFFFF AND PUSH2 0x1D3E SWAP1 SWAP3 SWAP2 SWAP1 PUSH4 0xFFFFFFFF AND JUMP JUMPDEST DUP3 PUSH1 0x2 DUP2 GT ISZERO PUSH2 0xA5C JUMPI PUSH2 0xA5B PUSH2 0x2D8E JUMP JUMPDEST JUMPDEST PUSH32 0xB819D129D0582A3F999E8FE877FFE22795AD2228C7E577D09C19D4A3C5C7CF28 DUP3 PUSH1 0x40 MLOAD PUSH2 0xA8B SWAP2 SWAP1 PUSH2 0x2BAB JUMP JUMPDEST PUSH1 0x40 MLOAD DUP1 SWAP2 SUB SWAP1 LOG2 JUMPDEST POP POP POP JUMP JUMPDEST PUSH2 0xAA1 PUSH2 0x1DD9 JUMP JUMPDEST NUMBER PUSH1 0x2 SLOAD GT PUSH2 0xAE5 JUMPI PUSH1 0x40 MLOAD PUSH32 0x8C379A000000000000000000000000000000000000000000000000000000000 DUP2 MSTORE PUSH1 0x4 ADD PUSH2 0xADC SWAP1 PUSH2 0x3555 JUMP JUMPDEST PUSH1 0x40 MLOAD DUP1 SWAP2 SUB SWAP1 REVERT JUMPDEST PUSH2 0xAF0 DUP4 DUP4 DUP4 PUSH2 0x1F1B JUMP JUMPDEST POP POP POP JUMP JUMPDEST PUSH1 0x60 PUSH1 0x0 PUSH2 0xB47 PUSH1 0x6 PUSH1 0x0 PUSH2 0xB08 PUSH2 0x1B40 JUMP JUMPDEST PUSH20 0xFFFFFFFFFFFFFFFFFFFFFFFFFFFFFFFFFFFFFFFF AND PUSH20 0xFFFFFFFFFFFFFFFFFFFFFFFFFFFFFFFFFFFFFFFF AND DUP2 MSTORE PUSH1 0x20 ADD SWAP1 DUP2 MSTORE PUSH1 0x20 ADD PUSH1 0x0 KECCAK256 PUSH2 0x1DC4 JUMP JUMPDEST SWAP1 POP PUSH1 0x0 PUSH2 0xB82 DUP6 PUSH2 0xB74 DUP5 PUSH2 0xB66 DUP9 DUP11 PUSH2 0x1D28 SWAP1 SWAP2 SWAP1 PUSH4 0xFFFFFFFF AND JUMP JUMPDEST PUSH2 0x2212 SWAP1 SWAP2 SWAP1 PUSH4 0xFFFFFFFF AND JUMP JUMPDEST PUSH2 0x222B SWAP1 SWAP2 SWAP1 PUSH4 0xFFFFFFFF AND JUMP JUMPDEST SWAP1 POP PUSH2 0xB97 DUP6 DUP3 PUSH2 0x17AC SWAP1 SWAP2 SWAP1 PUSH4 0xFFFFFFFF AND JUMP JUMPDEST PUSH8 0xFFFFFFFFFFFFFFFF DUP2 GT ISZERO PUSH2 0xBB0 JUMPI PUSH2 0xBAF PUSH2 0x2A0A JUMP JUMPDEST JUMPDEST PUSH1 0x40 MLOAD SWAP1 DUP1 DUP3 MSTORE DUP1 PUSH1 0x20 MUL PUSH1 0x20 ADD DUP3 ADD PUSH1 0x40 MSTORE DUP1 ISZERO PUSH2 0xBE9 JUMPI DUP2 PUSH1 0x20 ADD JUMPDEST PUSH2 0xBD6 PUSH2 0x295A JUMP JUMPDEST DUP2 MSTORE PUSH1 0x20 ADD SWAP1 PUSH1 0x1 SWAP1 SUB SWAP1 DUP2 PUSH2 0xBCE JUMPI SWAP1 POP JUMPDEST POP SWAP3 POP PUSH1 0x0 DUP6 SWAP1 POP JUMPDEST DUP2 DUP2 LT ISZERO PUSH2 0xD63 JUMPI PUSH1 0x0 PUSH2 0xC54 DUP3 PUSH1 0x6 PUSH1 0x0 PUSH2 0xC0C PUSH2 0x1B40 JUMP JUMPDEST PUSH20 0xFFFFFFFFFFFFFFFFFFFFFFFFFFFFFFFFFFFFFFFF AND PUSH20 0xFFFFFFFFFFFFFFFFFFFFFFFFFFFFFFFFFFFFFFFF AND DUP2 MSTORE PUSH1 0x20 ADD SWAP1 DUP2 MSTORE PUSH1 0x20 ADD PUSH1 0x0 KECCAK256 PUSH2 0x2244 SWAP1 SWAP2 SWAP1 PUSH4 0xFFFFFFFF AND JUMP JUMPDEST SWAP1 POP PUSH1 0x0 PUSH2 0xC6B DUP9 DUP5 PUSH2 0x17AC SWAP1 SWAP2 SWAP1 PUSH4 0xFFFFFFFF AND JUMP JUMPDEST SWAP1 POP PUSH1 0x5 PUSH1 0x0 DUP4 DUP2 MSTORE PUSH1 0x20 ADD SWAP1 DUP2 MSTORE PUSH1 0x20 ADD PUSH1 0x0 KECCAK256 PUSH1 0x40 MLOAD DUP1 PUSH1 0x80 ADD PUSH1 0x40 MSTORE SWAP1 DUP2 PUSH1 0x0 DUP3 ADD PUSH1 0x0 SWAP1 SLOAD SWAP1 PUSH2 0x100 EXP SWAP1 DIV PUSH20 0xFFFFFFFFFFFFFFFFFFFFFFFFFFFFFFFFFFFFFFFF AND PUSH20 0xFFFFFFFFFFFFFFFFFFFFFFFFFFFFFFFFFFFFFFFF AND PUSH20 0xFFFFFFFFFFFFFFFFFFFFFFFFFFFFFFFFFFFFFFFF AND DUP2 MSTORE PUSH1 0x20 ADD PUSH1 0x0 DUP3 ADD PUSH1 0x14 SWAP1 SLOAD SWAP1 PUSH2 0x100 EXP SWAP1 DIV PUSH1 0xFF AND PUSH1 0x2 DUP2 GT ISZERO PUSH2 0xD06 JUMPI PUSH2 0xD05 PUSH2 0x2D8E JUMP JUMPDEST JUMPDEST PUSH1 0x2 DUP2 GT ISZERO PUSH2 0xD18 JUMPI PUSH2 0xD17 PUSH2 0x2D8E JUMP JUMPDEST JUMPDEST DUP2 MSTORE PUSH1 0x20 ADD PUSH1 0x1 DUP3 ADD SLOAD DUP2 MSTORE PUSH1 0x20 ADD PUSH1 0x2 DUP3 ADD SLOAD DUP2 MSTORE POP POP DUP7 DUP3 DUP2 MLOAD DUP2 LT PUSH2 0xD43 JUMPI PUSH2 0xD42 PUSH2 0x3575 JUMP JUMPDEST JUMPDEST PUSH1 0x20 MUL PUSH1 0x20 ADD ADD DUP2 SWAP1 MSTORE POP POP POP DUP1 DUP1 PUSH2 0xD5B SWAP1 PUSH2 0x35D3 JUMP JUMPDEST SWAP2 POP POP PUSH2 0xBF2 JUMP JUMPDEST POP POP POP SWAP3 SWAP2 POP POP JUMP JUMPDEST PUSH1 0x0 PUSH2 0xD89 DUP3 PUSH1 0x60 ADD MLOAD DUP4 PUSH1 0x20 ADD MLOAD PUSH2 0x17AC SWAP1 SWAP2 SWAP1 PUSH4 0xFFFFFFFF AND JUMP JUMPDEST SWAP1 POP SWAP2 SWAP1 POP JUMP JUMPDEST PUSH2 0xD98 PUSH2 0x1DD9 JUMP JUMPDEST PUSH2 0xDA5 DUP6 DUP6 DUP6 DUP6 DUP6 PUSH2 0x225E JUMP JUMPDEST POP POP POP POP POP JUMP JUMPDEST PUSH2 0xDB4 PUSH2 0x1DD9 JUMP JUMPDEST NUMBER PUSH1 0x2 SLOAD GT PUSH2 0xDF8 JUMPI PUSH1 0x40 MLOAD PUSH32 0x8C379A000000000000000000000000000000000000000000000000000000000 DUP2 MSTORE PUSH1 0x4 ADD PUSH2 0xDEF SWAP1 PUSH2 0x3555 JUMP JUMPDEST PUSH1 0x40 MLOAD DUP1 SWAP2 SUB SWAP1 REVERT JUMPDEST PUSH1 0x1E DUP7 DUP7 SWAP1 POP GT ISZERO PUSH2 0xE3F JUMPI PUSH1 0x40 MLOAD PUSH32 0x8C379A000000000000000000000000000000000000000000000000000000000 DUP2 MSTORE PUSH1 0x4 ADD PUSH2 0xE36 SWAP1 PUSH2 0x3668 JUMP JUMPDEST PUSH1 0x40 MLOAD DUP1 SWAP2 SUB SWAP1 REVERT JUMPDEST DUP4 DUP4 SWAP1 POP DUP7 DUP7 SWAP1 POP EQ DUP1 ISZERO PUSH2 0xE59 JUMPI POP DUP2 DUP2 SWAP1 POP DUP5 DUP5 SWAP1 POP EQ JUMPDEST PUSH2 0xE98 JUMPI PUSH1 0x40 MLOAD PUSH32 0x8C379A000000000000000000000000000000000000000000000000000000000 DUP2 MSTORE PUSH1 0x4 ADD PUSH2 0xE8F SWAP1 PUSH2 0x36D4 JUMP JUMPDEST PUSH1 0x40 MLOAD DUP1 SWAP2 SUB SWAP1 REVERT JUMPDEST PUSH1 0x0 JUMPDEST DUP7 DUP7 SWAP1 POP DUP2 LT ISZERO PUSH2 0xF2B JUMPI PUSH2 0xF18 DUP8 DUP8 DUP4 DUP2 DUP2 LT PUSH2 0xEBC JUMPI PUSH2 0xEBB PUSH2 0x3575 JUMP JUMPDEST JUMPDEST SWAP1 POP PUSH1 0x20 MUL ADD PUSH1 0x20 DUP2 ADD SWAP1 PUSH2 0xED1 SWAP2 SWAP1 PUSH2 0x2C89 JUMP JUMPDEST DUP7 DUP7 DUP5 DUP2 DUP2 LT PUSH2 0xEE4 JUMPI PUSH2 0xEE3 PUSH2 0x3575 JUMP JUMPDEST JUMPDEST SWAP1 POP PUSH1 0x20 MUL ADD PUSH1 0x20 DUP2 ADD SWAP1 PUSH2 0xEF9 SWAP2 SWAP1 PUSH2 0x2CB6 JUMP JUMPDEST DUP6 DUP6 DUP6 DUP2 DUP2 LT PUSH2 0xF0C JUMPI PUSH2 0xF0B PUSH2 0x3575 JUMP JUMPDEST JUMPDEST SWAP1 POP PUSH1 0x20 MUL ADD CALLDATALOAD PUSH2 0x1F1B JUMP JUMPDEST DUP1 DUP1 PUSH2 0xF23 SWAP1 PUSH2 0x35D3 JUMP JUMPDEST SWAP2 POP POP PUSH2 0xE9B JUMP JUMPDEST POP POP POP POP POP POP POP JUMP JUMPDEST PUSH1 0x0 DUP1 PUSH1 0x0 SWAP1 SLOAD SWAP1 PUSH2 0x100 EXP SWAP1 DIV PUSH20 0xFFFFFFFFFFFFFFFFFFFFFFFFFFFFFFFFFFFFFFFF AND SWAP1 POP SWAP1 JUMP JUMPDEST PUSH2 0xF65 PUSH2 0x1DD9 JUMP JUMPDEST PUSH1 0x3 PUSH1 0x0 DUP4 PUSH1 0x2 DUP2 GT ISZERO PUSH2 0xF7C JUMPI PUSH2 0xF7B PUSH2 0x2D8E JUMP JUMPDEST JUMPDEST PUSH1 0x2 DUP2 GT ISZERO PUSH2 0xF8E JUMPI PUSH2 0xF8D PUSH2 0x2D8E JUMP JUMPDEST JUMPDEST DUP2 MSTORE PUSH1 0x20 ADD SWAP1 DUP2 MSTORE PUSH1 0x20 ADD PUSH1 0x0 KECCAK256 PUSH1 0x0 ADD SLOAD PUSH2 0xFED DUP3 PUSH1 0x3 PUSH1 0x0 DUP7 PUSH1 0x2 DUP2 GT ISZERO PUSH2 0xFBB JUMPI PUSH2 0xFBA PUSH2 0x2D8E JUMP JUMPDEST JUMPDEST PUSH1 0x2 DUP2 GT ISZERO PUSH2 0xFCD JUMPI PUSH2 0xFCC PUSH2 0x2D8E JUMP JUMPDEST JUMPDEST DUP2 MSTORE PUSH1 0x20 ADD SWAP1 DUP2 MSTORE PUSH1 0x20 ADD PUSH1 0x0 KECCAK256 PUSH1 0x1 ADD SLOAD PUSH2 0x1D28 SWAP1 SWAP2 SWAP1 PUSH4 0xFFFFFFFF AND JUMP JUMPDEST GT ISZERO PUSH2 0x102E JUMPI PUSH1 0x40 MLOAD PUSH32 0x8C379A000000000000000000000000000000000000000000000000000000000 DUP2 MSTORE PUSH1 0x4 ADD PUSH2 0x1025 SWAP1 PUSH2 0x3766 JUMP JUMPDEST PUSH1 0x40 MLOAD DUP1 SWAP2 SUB SWAP1 REVERT JUMPDEST PUSH2 0x107B DUP2 PUSH1 0x3 PUSH1 0x0 DUP6 PUSH1 0x2 DUP2 GT ISZERO PUSH2 0x1049 JUMPI PUSH2 0x1048 PUSH2 0x2D8E JUMP JUMPDEST JUMPDEST PUSH1 0x2 DUP2 GT ISZERO PUSH2 0x105B JUMPI PUSH2 0x105A PUSH2 0x2D8E JUMP JUMPDEST JUMPDEST DUP2 MSTORE PUSH1 0x20 ADD SWAP1 DUP2 MSTORE PUSH1 0x20 ADD PUSH1 0x0 KECCAK256 PUSH1 0x1 ADD SLOAD PUSH2 0x1D28 SWAP1 SWAP2 SWAP1 PUSH4 0xFFFFFFFF AND JUMP JUMPDEST PUSH1 0x3 PUSH1 0x0 DUP5 PUSH1 0x2 DUP2 GT ISZERO PUSH2 0x1092 JUMPI PUSH2 0x1091 PUSH2 0x2D8E JUMP JUMPDEST JUMPDEST PUSH1 0x2 DUP2 GT ISZERO PUSH2 0x10A4 JUMPI PUSH2 0x10A3 PUSH2 0x2D8E JUMP JUMPDEST JUMPDEST DUP2 MSTORE PUSH1 0x20 ADD SWAP1 DUP2 MSTORE PUSH1 0x20 ADD PUSH1 0x0 KECCAK256 PUSH1 0x1 ADD DUP2 SWAP1 SSTORE POP PUSH2 0x110F PUSH2 0x10C4 PUSH2 0x1B40 JUMP JUMPDEST ADDRESS DUP4 PUSH1 0x1 PUSH1 0x0 SWAP1 SLOAD SWAP1 PUSH2 0x100 EXP SWAP1 DIV PUSH20 0xFFFFFFFFFFFFFFFFFFFFFFFFFFFFFFFFFFFFFFFF AND PUSH20 0xFFFFFFFFFFFFFFFFFFFFFFFFFFFFFFFFFFFFFFFF AND PUSH2 0x23A0 SWAP1 SWAP4 SWAP3 SWAP2 SWAP1 PUSH4 0xFFFFFFFF AND JUMP JUMPDEST DUP2 PUSH1 0x2 DUP2 GT ISZERO PUSH2 0x1122 JUMPI PUSH2 0x1121 PUSH2 0x2D8E JUMP JUMPDEST JUMPDEST PUSH32 0x1ED1842DE53A6797BCD103B15EF4C2CFE977CD44A413AE3EF35BFF8C6D252F61 DUP3 PUSH1 0x40 MLOAD PUSH2 0x1151 SWAP2 SWAP1 PUSH2 0x2BAB JUMP JUMPDEST PUSH1 0x40 MLOAD DUP1 SWAP2 SUB SWAP1 LOG2 POP POP JUMP JUMPDEST PUSH2 0x1165 PUSH2 0x29AA JUMP JUMPDEST PUSH1 0x0 PUSH1 0x3 PUSH1 0x0 DUP5 PUSH1 0x2 DUP2 GT ISZERO PUSH2 0x117E JUMPI PUSH2 0x117D PUSH2 0x2D8E JUMP JUMPDEST JUMPDEST PUSH1 0x2 DUP2 GT ISZERO PUSH2 0x1190 JUMPI PUSH2 0x118F PUSH2 0x2D8E JUMP JUMPDEST JUMPDEST DUP2 MSTORE PUSH1 0x20 ADD SWAP1 DUP2 MSTORE PUSH1 0x20 ADD PUSH1 0x0 KECCAK256 PUSH1 0x40 MLOAD DUP1 PUSH1 0xE0 ADD PUSH1 0x40 MSTORE SWAP1 DUP2 PUSH1 0x0 DUP3 ADD SLOAD DUP2 MSTORE PUSH1 0x20 ADD PUSH1 0x1 DUP3 ADD SLOAD DUP2 MSTORE PUSH1 0x20 ADD PUSH1 0x2 DUP3 ADD SLOAD DUP2 MSTORE PUSH1 0x20 ADD PUSH1 0x3 DUP3 ADD SLOAD DUP2 MSTORE PUSH1 0x20 ADD PUSH1 0x4 DUP3 ADD SLOAD DUP2 MSTORE PUSH1 0x20 ADD PUSH1 0x5 DUP3 ADD SLOAD DUP2 MSTORE PUSH1 0x20 ADD PUSH1 0x6 DUP3 ADD SLOAD DUP2 MSTORE POP POP SWAP1 POP DUP1 PUSH1 0x0 ADD MLOAD DUP3 PUSH1 0x0 ADD DUP2 DUP2 MSTORE POP POP DUP1 PUSH1 0x20 ADD MLOAD DUP3 PUSH1 0x20 ADD DUP2 DUP2 MSTORE POP POP PUSH2 0x1216 DUP2 PUSH2 0xD6C JUMP JUMPDEST DUP3 PUSH1 0x40 ADD DUP2 DUP2 MSTORE POP POP DUP1 PUSH1 0x40 ADD MLOAD DUP3 PUSH1 0x60 ADD DUP2 DUP2 MSTORE POP POP DUP1 PUSH1 0x60 ADD MLOAD DUP3 PUSH1 0x80 ADD DUP2 DUP2 MSTORE POP POP PUSH2 0x1244 DUP2 PUSH2 0x5BD JUMP JUMPDEST DUP3 PUSH1 0xA0 ADD DUP2 DUP2 MSTORE POP POP POP SWAP2 SWAP1 POP JUMP JUMPDEST PUSH2 0x125B PUSH2 0x1DD9 JUMP JUMPDEST PUSH1 0x0 PUSH1 0x2 SLOAD EQ PUSH2 0x12AA JUMPI PUSH1 0x2 SLOAD DUP2 LT PUSH2 0x12A9 JUMPI PUSH1 0x40 MLOAD PUSH32 0x8C379A000000000000000000000000000000000000000000000000000000000 DUP2 MSTORE PUSH1 0x4 ADD PUSH2 0x12A0 SWAP1 PUSH2 0x37D2 JUMP JUMPDEST PUSH1 0x40 MLOAD DUP1 SWAP2 SUB SWAP1 REVERT JUMPDEST JUMPDEST NUMBER DUP2 GT PUSH2 0x12EC JUMPI PUSH1 0x40 MLOAD PUSH32 0x8C379A000000000000000000000000000000000000000000000000000000000 DUP2 MSTORE PUSH1 0x4 ADD PUSH2 0x12E3 SWAP1 PUSH2 0x3864 JUMP JUMPDEST PUSH1 0x40 MLOAD DUP1 SWAP2 SUB SWAP1 REVERT JUMPDEST DUP1 PUSH1 0x2 DUP2 SWAP1 SSTORE POP POP JUMP JUMPDEST PUSH1 0x1E DUP2 JUMP JUMPDEST PUSH11 0x84595161401484A000000 DUP2 JUMP JUMPDEST PUSH2 0x1312 PUSH2 0x1DD9 JUMP JUMPDEST DUP8 DUP8 SWAP1 POP DUP11 DUP11 SWAP1 POP EQ DUP1 ISZERO PUSH2 0x132C JUMPI POP DUP6 DUP6 SWAP1 POP DUP9 DUP9 SWAP1 POP EQ JUMPDEST DUP1 ISZERO PUSH2 0x133D JUMPI POP DUP4 DUP4 SWAP1 POP DUP7 DUP7 SWAP1 POP EQ JUMPDEST DUP1 ISZERO PUSH2 0x134E JUMPI POP DUP2 DUP2 SWAP1 POP DUP5 DUP5 SWAP1 POP EQ JUMPDEST PUSH2 0x138D JUMPI PUSH1 0x40 MLOAD PUSH32 0x8C379A000000000000000000000000000000000000000000000000000000000 DUP2 MSTORE PUSH1 0x4 ADD PUSH2 0x1384 SWAP1 PUSH2 0x36D4 JUMP JUMPDEST PUSH1 0x40 MLOAD DUP1 SWAP2 SUB SWAP1 REVERT JUMPDEST PUSH1 0x0 JUMPDEST DUP11 DUP11 SWAP1 POP DUP2 LT ISZERO PUSH2 0x1446 JUMPI PUSH2 0x1433 DUP12 DUP12 DUP4 DUP2 DUP2 LT PUSH2 0x13B1 JUMPI PUSH2 0x13B0 PUSH2 0x3575 JUMP JUMPDEST JUMPDEST SWAP1 POP PUSH1 0x20 MUL ADD PUSH1 0x20 DUP2 ADD SWAP1 PUSH2 0x13C6 SWAP2 SWAP1 PUSH2 0x2CB6 JUMP JUMPDEST DUP11 DUP11 DUP5 DUP2 DUP2 LT PUSH2 0x13D9 JUMPI PUSH2 0x13D8 PUSH2 0x3575 JUMP JUMPDEST JUMPDEST SWAP1 POP PUSH1 0x20 MUL ADD CALLDATALOAD DUP10 DUP10 DUP6 DUP2 DUP2 LT PUSH2 0x13F3 JUMPI PUSH2 0x13F2 PUSH2 0x3575 JUMP JUMPDEST JUMPDEST SWAP1 POP PUSH1 0x20 MUL ADD CALLDATALOAD DUP9 DUP9 DUP7 DUP2 DUP2 LT PUSH2 0x140D JUMPI PUSH2 0x140C PUSH2 0x3575 JUMP JUMPDEST JUMPDEST SWAP1 POP PUSH1 0x20 MUL ADD CALLDATALOAD DUP8 DUP8 DUP8 DUP2 DUP2 LT PUSH2 0x1427 JUMPI PUSH2 0x1426 PUSH2 0x3575 JUMP JUMPDEST JUMPDEST SWAP1 POP PUSH1 0x20 MUL ADD CALLDATALOAD PUSH2 0x225E JUMP JUMPDEST DUP1 DUP1 PUSH2 0x143E SWAP1 PUSH2 0x35D3 JUMP JUMPDEST SWAP2 POP POP PUSH2 0x1390 JUMP JUMPDEST POP POP POP POP POP POP POP POP POP POP POP JUMP JUMPDEST PUSH3 0x34BC0 DUP2 JUMP JUMPDEST PUSH11 0x84595161401484A000000 PUSH1 0x64 PUSH2 0x1472 SWAP2 SWAP1 PUSH2 0x3884 JUMP JUMPDEST DUP2 JUMP JUMPDEST PUSH2 0x147D PUSH2 0x1DD9 JUMP JUMPDEST DUP2 DUP2 PUSH2 0x1489 DUP3 DUP3 PUSH2 0x17C2 JUMP JUMPDEST PUSH2 0x14C8 JUMPI PUSH1 0x40 MLOAD PUSH32 0x8C379A000000000000000000000000000000000000000000000000000000000 DUP2 MSTORE PUSH1 0x4 ADD PUSH2 0x14BF SWAP1 PUSH2 0x3950 JUMP JUMPDEST PUSH1 0x40 MLOAD DUP1 SWAP2 SUB SWAP1 REVERT JUMPDEST PUSH1 0x0 PUSH1 0x7 PUSH1 0x0 DUP7 PUSH20 0xFFFFFFFFFFFFFFFFFFFFFFFFFFFFFFFFFFFFFFFF AND PUSH20 0xFFFFFFFFFFFFFFFFFFFFFFFFFFFFFFFFFFFFFFFF AND DUP2 MSTORE PUSH1 0x20 ADD SWAP1 DUP2 MSTORE PUSH1 0x20 ADD PUSH1 0x0 KECCAK256 PUSH1 0x0 DUP6 PUSH1 0x2 DUP2 GT ISZERO PUSH2 0x151E JUMPI PUSH2 0x151D PUSH2 0x2D8E JUMP JUMPDEST JUMPDEST PUSH1 0x2 DUP2 GT ISZERO PUSH2 0x1530 JUMPI PUSH2 0x152F PUSH2 0x2D8E JUMP JUMPDEST JUMPDEST DUP2 MSTORE PUSH1 0x20 ADD SWAP1 DUP2 MSTORE PUSH1 0x20 ADD PUSH1 0x0 KECCAK256 SLOAD SWAP1 POP PUSH1 0x0 PUSH1 0x3 PUSH1 0x0 DUP7 PUSH1 0x2 DUP2 GT ISZERO PUSH2 0x155A JUMPI PUSH2 0x1559 PUSH2 0x2D8E JUMP JUMPDEST JUMPDEST PUSH1 0x2 DUP2 GT ISZERO PUSH2 0x156C JUMPI PUSH2 0x156B PUSH2 0x2D8E JUMP JUMPDEST JUMPDEST DUP2 MSTORE PUSH1 0x20 ADD SWAP1 DUP2 MSTORE PUSH1 0x20 ADD PUSH1 0x0 KECCAK256 SWAP1 POP PUSH1 0x0 PUSH1 0x5 PUSH1 0x0 DUP5 DUP2 MSTORE PUSH1 0x20 ADD SWAP1 DUP2 MSTORE PUSH1 0x20 ADD PUSH1 0x0 KECCAK256 PUSH1 0x1 ADD SLOAD SWAP1 POP PUSH2 0x15D6 PUSH2 0x15C3 PUSH1 0x5 PUSH1 0x0 DUP7 DUP2 MSTORE PUSH1 0x20 ADD SWAP1 DUP2 MSTORE PUSH1 0x20 ADD PUSH1 0x0 KECCAK256 PUSH1 0x2 ADD SLOAD DUP4 PUSH2 0x17AC SWAP1 SWAP2 SWAP1 PUSH4 0xFFFFFFFF AND JUMP JUMPDEST DUP4 PUSH1 0x2 ADD SLOAD PUSH2 0x17AC SWAP1 SWAP2 SWAP1 PUSH4 0xFFFFFFFF AND JUMP JUMPDEST DUP3 PUSH1 0x2 ADD DUP2 SWAP1 SSTORE POP PUSH2 0x162F DUP4 PUSH1 0x6 PUSH1 0x0 DUP11 PUSH20 0xFFFFFFFFFFFFFFFFFFFFFFFFFFFFFFFFFFFFFFFF AND PUSH20 0xFFFFFFFFFFFFFFFFFFFFFFFFFFFFFFFFFFFFFFFF AND DUP2 MSTORE PUSH1 0x20 ADD SWAP1 DUP2 MSTORE PUSH1 0x20 ADD PUSH1 0x0 KECCAK256 PUSH2 0x2429 SWAP1 SWAP2 SWAP1 PUSH4 0xFFFFFFFF AND JUMP JUMPDEST POP PUSH1 0x0 PUSH1 0x7 PUSH1 0x0 DUP10 PUSH20 0xFFFFFFFFFFFFFFFFFFFFFFFFFFFFFFFFFFFFFFFF AND PUSH20 0xFFFFFFFFFFFFFFFFFFFFFFFFFFFFFFFFFFFFFFFF AND DUP2 MSTORE PUSH1 0x20 ADD SWAP1 DUP2 MSTORE PUSH1 0x20 ADD PUSH1 0x0 KECCAK256 PUSH1 0x0 DUP9 PUSH1 0x2 DUP2 GT ISZERO PUSH2 0x1686 JUMPI PUSH2 0x1685 PUSH2 0x2D8E JUMP JUMPDEST JUMPDEST PUSH1 0x2 DUP2 GT ISZERO PUSH2 0x1698 JUMPI PUSH2 0x1697 PUSH2 0x2D8E JUMP JUMPDEST JUMPDEST DUP2 MSTORE PUSH1 0x20 ADD SWAP1 DUP2 MSTORE PUSH1 0x20 ADD PUSH1 0x0 KECCAK256 DUP2 SWAP1 SSTORE POP DUP7 PUSH20 0xFFFFFFFFFFFFFFFFFFFFFFFFFFFFFFFFFFFFFFFF AND DUP4 PUSH32 0x42CCBA9814DF52D01C2FD804F92A6EDEDBF830AD1BC8DF0E2151BE9C2631DF23 DUP4 PUSH1 0x40 MLOAD PUSH2 0x16F1 SWAP2 SWAP1 PUSH2 0x2BAB JUMP JUMPDEST PUSH1 0x40 MLOAD DUP1 SWAP2 SUB SWAP1 LOG3 POP POP POP POP POP POP POP JUMP JUMPDEST PUSH2 0x170A PUSH2 0x1DD9 JUMP JUMPDEST PUSH1 0x0 PUSH20 0xFFFFFFFFFFFFFFFFFFFFFFFFFFFFFFFFFFFFFFFF AND DUP2 PUSH20 0xFFFFFFFFFFFFFFFFFFFFFFFFFFFFFFFFFFFFFFFF AND EQ ISZERO PUSH2 0x177A JUMPI PUSH1 0x40 MLOAD PUSH32 0x8C379A000000000000000000000000000000000000000000000000000000000 DUP2 MSTORE PUSH1 0x4 ADD PUSH2 0x1771 SWAP1 PUSH2 0x39E2 JUMP JUMPDEST PUSH1 0x40 MLOAD DUP1 SWAP2 SUB SWAP1 REVERT JUMPDEST PUSH2 0x1783 DUP2 PUSH2 0x1E57 JUMP JUMPDEST POP JUMP JUMPDEST PUSH1 0x1 PUSH1 0x0 SWAP1 SLOAD SWAP1 PUSH2 0x100 EXP SWAP1 DIV PUSH20 0xFFFFFFFFFFFFFFFFFFFFFFFFFFFFFFFFFFFFFFFF AND DUP2 JUMP JUMPDEST PUSH1 0x0 DUP2 DUP4 PUSH2 0x17BA SWAP2 SWAP1 PUSH2 0x3A02 JUMP JUMPDEST SWAP1 POP SWAP3 SWAP2 POP POP JUMP JUMPDEST PUSH1 0x0 DUP1 PUSH1 0x7 PUSH1 0x0 DUP6 PUSH20 0xFFFFFFFFFFFFFFFFFFFFFFFFFFFFFFFFFFFFFFFF AND PUSH20 0xFFFFFFFFFFFFFFFFFFFFFFFFFFFFFFFFFFFFFFFF AND DUP2 MSTORE PUSH1 0x20 ADD SWAP1 DUP2 MSTORE PUSH1 0x20 ADD PUSH1 0x0 KECCAK256 PUSH1 0x0 DUP5 PUSH1 0x2 DUP2 GT ISZERO PUSH2 0x1819 JUMPI PUSH2 0x1818 PUSH2 0x2D8E JUMP JUMPDEST JUMPDEST PUSH1 0x2 DUP2 GT ISZERO PUSH2 0x182B JUMPI PUSH2 0x182A PUSH2 0x2D8E JUMP JUMPDEST JUMPDEST DUP2 MSTORE PUSH1 0x20 ADD SWAP1 DUP2 MSTORE PUSH1 0x20 ADD PUSH1 0x0 KECCAK256 SLOAD SWAP1 POP PUSH2 0x188D DUP2 PUSH1 0x6 PUSH1 0x0 DUP8 PUSH20 0xFFFFFFFFFFFFFFFFFFFFFFFFFFFFFFFFFFFFFFFF AND PUSH20 0xFFFFFFFFFFFFFFFFFFFFFFFFFFFFFFFFFFFFFFFF AND DUP2 MSTORE PUSH1 0x20 ADD SWAP1 DUP2 MSTORE PUSH1 0x20 ADD PUSH1 0x0 KECCAK256 PUSH2 0x2443 SWAP1 SWAP2 SWAP1 PUSH4 0xFFFFFFFF AND JUMP JUMPDEST SWAP2 POP POP SWAP3 SWAP2 POP POP JUMP JUMPDEST PUSH1 0x0 DUP1 PUSH1 0x5 PUSH1 0x0 DUP5 DUP2 MSTORE PUSH1 0x20 ADD SWAP1 DUP2 MSTORE PUSH1 0x20 ADD PUSH1 0x0 KECCAK256 PUSH1 0x40 MLOAD DUP1 PUSH1 0x80 ADD PUSH1 0x40 MSTORE SWAP1 DUP2 PUSH1 0x0 DUP3 ADD PUSH1 0x0 SWAP1 SLOAD SWAP1 PUSH2 0x100 EXP SWAP1 DIV PUSH20 0xFFFFFFFFFFFFFFFFFFFFFFFFFFFFFFFFFFFFFFFF AND PUSH20 0xFFFFFFFFFFFFFFFFFFFFFFFFFFFFFFFFFFFFFFFF AND PUSH20 0xFFFFFFFFFFFFFFFFFFFFFFFFFFFFFFFFFFFFFFFF AND DUP2 MSTORE PUSH1 0x20 ADD PUSH1 0x0 DUP3 ADD PUSH1 0x14 SWAP1 SLOAD SWAP1 PUSH2 0x100 EXP SWAP1 DIV PUSH1 0xFF AND PUSH1 0x2 DUP2 GT ISZERO PUSH2 0x1932 JUMPI PUSH2 0x1931 PUSH2 0x2D8E JUMP JUMPDEST JUMPDEST PUSH1 0x2 DUP2 GT ISZERO PUSH2 0x1944 JUMPI PUSH2 0x1943 PUSH2 0x2D8E JUMP JUMPDEST JUMPDEST DUP2 MSTORE PUSH1 0x20 ADD PUSH1 0x1 DUP3 ADD SLOAD DUP2 MSTORE PUSH1 0x20 ADD PUSH1 0x2 DUP3 ADD SLOAD DUP2 MSTORE POP POP SWAP1 POP PUSH1 0x0 PUSH1 0x3 PUSH1 0x0 DUP4 PUSH1 0x20 ADD MLOAD PUSH1 0x2 DUP2 GT ISZERO PUSH2 0x197B JUMPI PUSH2 0x197A PUSH2 0x2D8E JUMP JUMPDEST JUMPDEST PUSH1 0x2 DUP2 GT ISZERO PUSH2 0x198D JUMPI PUSH2 0x198C PUSH2 0x2D8E JUMP JUMPDEST JUMPDEST DUP2 MSTORE PUSH1 0x20 ADD SWAP1 DUP2 MSTORE PUSH1 0x20 ADD PUSH1 0x0 KECCAK256 PUSH1 0x40 MLOAD DUP1 PUSH1 0xE0 ADD PUSH1 0x40 MSTORE SWAP1 DUP2 PUSH1 0x0 DUP3 ADD SLOAD DUP2 MSTORE PUSH1 0x20 ADD PUSH1 0x1 DUP3 ADD SLOAD DUP2 MSTORE PUSH1 0x20 ADD PUSH1 0x2 DUP3 ADD SLOAD DUP2 MSTORE PUSH1 0x20 ADD PUSH1 0x3 DUP3 ADD SLOAD DUP2 MSTORE PUSH1 0x20 ADD PUSH1 0x4 DUP3 ADD SLOAD DUP2 MSTORE PUSH1 0x20 ADD PUSH1 0x5 DUP3 ADD SLOAD DUP2 MSTORE PUSH1 0x20 ADD PUSH1 0x6 DUP3 ADD SLOAD DUP2 MSTORE POP POP SWAP1 POP PUSH1 0x0 PUSH2 0x1A34 PUSH11 0x84595161401484A000000 PUSH1 0x64 PUSH2 0x1A0B SWAP2 SWAP1 PUSH2 0x3884 JUMP JUMPDEST PUSH2 0x1A26 DUP5 PUSH1 0x80 ADD MLOAD DUP7 PUSH1 0x40 ADD MLOAD PUSH2 0x245D SWAP1 SWAP2 SWAP1 PUSH4 0xFFFFFFFF AND JUMP JUMPDEST PUSH2 0x2473 SWAP1 SWAP2 SWAP1 PUSH4 0xFFFFFFFF AND JUMP JUMPDEST SWAP1 POP PUSH1 0x0 DUP2 SWAP1 POP PUSH1 0x0 PUSH2 0x1A6B PUSH2 0x1A5A PUSH3 0x34BC0 DUP7 PUSH1 0xA0 ADD MLOAD PUSH2 0x245D SWAP1 SWAP2 SWAP1 PUSH4 0xFFFFFFFF AND JUMP JUMPDEST PUSH1 0x2 SLOAD PUSH2 0x1D28 SWAP1 SWAP2 SWAP1 PUSH4 0xFFFFFFFF AND JUMP JUMPDEST SWAP1 POP PUSH1 0x0 PUSH2 0x1A9B PUSH2 0x1A8C PUSH3 0x34BC0 DUP8 PUSH1 0xC0 ADD MLOAD PUSH2 0x245D SWAP1 SWAP2 SWAP1 PUSH4 0xFFFFFFFF AND JUMP JUMPDEST DUP4 PUSH2 0x1D28 SWAP1 SWAP2 SWAP1 PUSH4 0xFFFFFFFF AND JUMP JUMPDEST SWAP1 POP DUP2 NUMBER GT ISZERO PUSH2 0x1B1C JUMPI PUSH1 0x0 PUSH2 0x1AB1 DUP4 DUP4 PUSH2 0x2489 JUMP JUMPDEST SWAP1 POP PUSH1 0x0 PUSH2 0x1ACC DUP7 DUP10 PUSH1 0x40 ADD MLOAD PUSH2 0x17AC SWAP1 SWAP2 SWAP1 PUSH4 0xFFFFFFFF AND JUMP JUMPDEST SWAP1 POP PUSH2 0x1B17 PUSH2 0x1B08 PUSH2 0x1AE7 DUP7 DUP7 PUSH2 0x17AC SWAP1 SWAP2 SWAP1 PUSH4 0xFFFFFFFF AND JUMP JUMPDEST PUSH2 0x1AFA DUP6 DUP6 PUSH2 0x245D SWAP1 SWAP2 SWAP1 PUSH4 0xFFFFFFFF AND JUMP JUMPDEST PUSH2 0x2473 SWAP1 SWAP2 SWAP1 PUSH4 0xFFFFFFFF AND JUMP JUMPDEST DUP7 PUSH2 0x1D28 SWAP1 SWAP2 SWAP1 PUSH4 0xFFFFFFFF AND JUMP JUMPDEST SWAP5 POP POP POP JUMPDEST PUSH2 0x1B33 DUP7 PUSH1 0x60 ADD MLOAD DUP5 PUSH2 0x17AC SWAP1 SWAP2 SWAP1 PUSH4 0xFFFFFFFF AND JUMP JUMPDEST SWAP7 POP POP POP POP POP POP POP SWAP2 SWAP1 POP JUMP JUMPDEST PUSH1 0x0 CALLER SWAP1 POP SWAP1 JUMP JUMPDEST PUSH1 0x0 PUSH2 0x1B54 DUP4 DUP4 PUSH2 0x17C2 JUMP JUMPDEST ISZERO DUP1 PUSH2 0x1B61 JUMPI POP PUSH1 0x2 SLOAD NUMBER LT JUMPDEST ISZERO PUSH2 0x1B6F JUMPI PUSH1 0x0 SWAP1 POP PUSH2 0x1D22 JUMP JUMPDEST PUSH1 0x0 PUSH1 0x7 PUSH1 0x0 DUP6 PUSH20 0xFFFFFFFFFFFFFFFFFFFFFFFFFFFFFFFFFFFFFFFF AND PUSH20 0xFFFFFFFFFFFFFFFFFFFFFFFFFFFFFFFFFFFFFFFF AND DUP2 MSTORE PUSH1 0x20 ADD SWAP1 DUP2 MSTORE PUSH1 0x20 ADD PUSH1 0x0 KECCAK256 PUSH1 0x0 DUP5 PUSH1 0x2 DUP2 GT ISZERO PUSH2 0x1BC5 JUMPI PUSH2 0x1BC4 PUSH2 0x2D8E JUMP JUMPDEST JUMPDEST PUSH1 0x2 DUP2 GT ISZERO PUSH2 0x1BD7 JUMPI PUSH2 0x1BD6 PUSH2 0x2D8E JUMP JUMPDEST JUMPDEST DUP2 MSTORE PUSH1 0x20 ADD SWAP1 DUP2 MSTORE PUSH1 0x20 ADD PUSH1 0x0 KECCAK256 SLOAD SWAP1 POP PUSH1 0x0 PUSH2 0x1BF3 DUP3 PUSH2 0x1896 JUMP JUMPDEST SWAP1 POP PUSH1 0x0 DUP2 GT ISZERO PUSH2 0x1D1C JUMPI PUSH2 0x1C4B DUP2 PUSH1 0x3 PUSH1 0x0 DUP8 PUSH1 0x2 DUP2 GT ISZERO PUSH2 0x1C19 JUMPI PUSH2 0x1C18 PUSH2 0x2D8E JUMP JUMPDEST JUMPDEST PUSH1 0x2 DUP2 GT ISZERO PUSH2 0x1C2B JUMPI PUSH2 0x1C2A PUSH2 0x2D8E JUMP JUMPDEST JUMPDEST DUP2 MSTORE PUSH1 0x20 ADD SWAP1 DUP2 MSTORE PUSH1 0x20 ADD PUSH1 0x0 KECCAK256 PUSH1 0x3 ADD SLOAD PUSH2 0x1D28 SWAP1 SWAP2 SWAP1 PUSH4 0xFFFFFFFF AND JUMP JUMPDEST PUSH1 0x3 PUSH1 0x0 DUP7 PUSH1 0x2 DUP2 GT ISZERO PUSH2 0x1C62 JUMPI PUSH2 0x1C61 PUSH2 0x2D8E JUMP JUMPDEST JUMPDEST PUSH1 0x2 DUP2 GT ISZERO PUSH2 0x1C74 JUMPI PUSH2 0x1C73 PUSH2 0x2D8E JUMP JUMPDEST JUMPDEST DUP2 MSTORE PUSH1 0x20 ADD SWAP1 DUP2 MSTORE PUSH1 0x20 ADD PUSH1 0x0 KECCAK256 PUSH1 0x3 ADD DUP2 SWAP1 SSTORE POP PUSH2 0x1CB2 DUP2 PUSH1 0x5 PUSH1 0x0 DUP6 DUP2 MSTORE PUSH1 0x20 ADD SWAP1 DUP2 MSTORE PUSH1 0x20 ADD PUSH1 0x0 KECCAK256 PUSH1 0x2 ADD SLOAD PUSH2 0x1D28 SWAP1 SWAP2 SWAP1 PUSH4 0xFFFFFFFF AND JUMP JUMPDEST PUSH1 0x5 PUSH1 0x0 DUP5 DUP2 MSTORE PUSH1 0x20 ADD SWAP1 DUP2 MSTORE PUSH1 0x20 ADD PUSH1 0x0 KECCAK256 PUSH1 0x2 ADD DUP2 SWAP1 SSTORE POP DUP5 PUSH20 0xFFFFFFFFFFFFFFFFFFFFFFFFFFFFFFFFFFFFFFFF AND DUP3 PUSH32 0x14A81F9A556DBD4B3AE8C924AEF3CC382CB6F3C4B91E88201A1BE8E8CF359328 DUP4 PUSH1 0x40 MLOAD PUSH2 0x1D13 SWAP2 SWAP1 PUSH2 0x2BAB JUMP JUMPDEST PUSH1 0x40 MLOAD DUP1 SWAP2 SUB SWAP1 LOG3 JUMPDEST DUP1 SWAP3 POP POP POP JUMPDEST SWAP3 SWAP2 POP POP JUMP JUMPDEST PUSH1 0x0 DUP2 DUP4 PUSH2 0x1D36 SWAP2 SWAP1 PUSH2 0x3A36 JUMP JUMPDEST SWAP1 POP SWAP3 SWAP2 POP POP JUMP JUMPDEST PUSH2 0x1DBF DUP4 PUSH4 0xA9059CBB PUSH1 0xE0 SHL DUP5 DUP5 PUSH1 0x40 MLOAD PUSH1 0x24 ADD PUSH2 0x1D5D SWAP3 SWAP2 SWAP1 PUSH2 0x3A8C JUMP JUMPDEST PUSH1 0x40 MLOAD PUSH1 0x20 DUP2 DUP4 SUB SUB DUP2 MSTORE SWAP1 PUSH1 0x40 MSTORE SWAP1 PUSH28 0xFFFFFFFFFFFFFFFFFFFFFFFFFFFFFFFFFFFFFFFFFFFFFFFFFFFFFFFF NOT AND PUSH1 0x20 DUP3 ADD DUP1 MLOAD PUSH28 0xFFFFFFFFFFFFFFFFFFFFFFFFFFFFFFFFFFFFFFFFFFFFFFFFFFFFFFFF DUP4 DUP2 DUP4 AND OR DUP4 MSTORE POP POP POP POP PUSH2 0x24C8 JUMP JUMPDEST POP POP POP JUMP JUMPDEST PUSH1 0x0 PUSH2 0x1DD2 DUP3 PUSH1 0x0 ADD PUSH2 0x258F JUMP JUMPDEST SWAP1 POP SWAP2 SWAP1 POP JUMP JUMPDEST PUSH2 0x1DE1 PUSH2 0x1B40 JUMP JUMPDEST PUSH20 0xFFFFFFFFFFFFFFFFFFFFFFFFFFFFFFFFFFFFFFFF AND PUSH2 0x1DFF PUSH2 0xF34 JUMP JUMPDEST PUSH20 0xFFFFFFFFFFFFFFFFFFFFFFFFFFFFFFFFFFFFFFFF AND EQ PUSH2 0x1E55 JUMPI PUSH1 0x40 MLOAD PUSH32 0x8C379A000000000000000000000000000000000000000000000000000000000 DUP2 MSTORE PUSH1 0x4 ADD PUSH2 0x1E4C SWAP1 PUSH2 0x3B01 JUMP JUMPDEST PUSH1 0x40 MLOAD DUP1 SWAP2 SUB SWAP1 REVERT JUMPDEST JUMP JUMPDEST PUSH1 0x0 DUP1 PUSH1 0x0 SWAP1 SLOAD SWAP1 PUSH2 0x100 EXP SWAP1 DIV PUSH20 0xFFFFFFFFFFFFFFFFFFFFFFFFFFFFFFFFFFFFFFFF AND SWAP1 POP DUP2 PUSH1 0x0 DUP1 PUSH2 0x100 EXP DUP2 SLOAD DUP2 PUSH20 0xFFFFFFFFFFFFFFFFFFFFFFFFFFFFFFFFFFFFFFFF MUL NOT AND SWAP1 DUP4 PUSH20 0xFFFFFFFFFFFFFFFFFFFFFFFFFFFFFFFFFFFFFFFF AND MUL OR SWAP1 SSTORE POP DUP2 PUSH20 0xFFFFFFFFFFFFFFFFFFFFFFFFFFFFFFFFFFFFFFFF AND DUP2 PUSH20 0xFFFFFFFFFFFFFFFFFFFFFFFFFFFFFFFFFFFFFFFF AND PUSH32 0x8BE0079C531659141344CD1FD0A4F28419497F9722A3DAAFE3B4186F6B6457E0 PUSH1 0x40 MLOAD PUSH1 0x40 MLOAD DUP1 SWAP2 SUB SWAP1 LOG3 POP POP JUMP JUMPDEST PUSH2 0x1F25 DUP4 DUP4 PUSH2 0x17C2 JUMP JUMPDEST ISZERO PUSH2 0x1F65 JUMPI PUSH1 0x40 MLOAD PUSH32 0x8C379A000000000000000000000000000000000000000000000000000000000 DUP2 MSTORE PUSH1 0x4 ADD PUSH2 0x1F5C SWAP1 PUSH2 0x3B6D JUMP JUMPDEST PUSH1 0x40 MLOAD DUP1 SWAP2 SUB SWAP1 REVERT JUMPDEST PUSH1 0x0 PUSH1 0x3 PUSH1 0x0 DUP5 PUSH1 0x2 DUP2 GT ISZERO PUSH2 0x1F7E JUMPI PUSH2 0x1F7D PUSH2 0x2D8E JUMP JUMPDEST JUMPDEST PUSH1 0x2 DUP2 GT ISZERO PUSH2 0x1F90 JUMPI PUSH2 0x1F8F PUSH2 0x2D8E JUMP JUMPDEST JUMPDEST DUP2 MSTORE PUSH1 0x20 ADD SWAP1 DUP2 MSTORE PUSH1 0x20 ADD PUSH1 0x0 KECCAK256 SWAP1 POP DUP1 PUSH1 0x1 ADD SLOAD PUSH2 0x1FBC DUP4 DUP4 PUSH1 0x2 ADD SLOAD PUSH2 0x1D28 SWAP1 SWAP2 SWAP1 PUSH4 0xFFFFFFFF AND JUMP JUMPDEST GT ISZERO PUSH2 0x1FFD JUMPI PUSH1 0x40 MLOAD PUSH32 0x8C379A000000000000000000000000000000000000000000000000000000000 DUP2 MSTORE PUSH1 0x4 ADD PUSH2 0x1FF4 SWAP1 PUSH2 0x3BFF JUMP JUMPDEST PUSH1 0x40 MLOAD DUP1 SWAP2 SUB SWAP1 REVERT JUMPDEST PUSH2 0x2014 DUP3 DUP3 PUSH1 0x2 ADD SLOAD PUSH2 0x1D28 SWAP1 SWAP2 SWAP1 PUSH4 0xFFFFFFFF AND JUMP JUMPDEST DUP2 PUSH1 0x2 ADD DUP2 SWAP1 SSTORE POP DUP4 PUSH1 0x5 PUSH1 0x0 PUSH1 0x4 SLOAD DUP2 MSTORE PUSH1 0x20 ADD SWAP1 DUP2 MSTORE PUSH1 0x20 ADD PUSH1 0x0 KECCAK256 PUSH1 0x0 ADD PUSH1 0x0 PUSH2 0x100 EXP DUP2 SLOAD DUP2 PUSH20 0xFFFFFFFFFFFFFFFFFFFFFFFFFFFFFFFFFFFFFFFF MUL NOT AND SWAP1 DUP4 PUSH20 0xFFFFFFFFFFFFFFFFFFFFFFFFFFFFFFFFFFFFFFFF AND MUL OR SWAP1 SSTORE POP DUP3 PUSH1 0x5 PUSH1 0x0 PUSH1 0x4 SLOAD DUP2 MSTORE PUSH1 0x20 ADD SWAP1 DUP2 MSTORE PUSH1 0x20 ADD PUSH1 0x0 KECCAK256 PUSH1 0x0 ADD PUSH1 0x14 PUSH2 0x100 EXP DUP2 SLOAD DUP2 PUSH1 0xFF MUL NOT AND SWAP1 DUP4 PUSH1 0x2 DUP2 GT ISZERO PUSH2 0x20AE JUMPI PUSH2 0x20AD PUSH2 0x2D8E JUMP JUMPDEST JUMPDEST MUL OR SWAP1 SSTORE POP DUP2 PUSH1 0x5 PUSH1 0x0 PUSH1 0x4 SLOAD DUP2 MSTORE PUSH1 0x20 ADD SWAP1 DUP2 MSTORE PUSH1 0x20 ADD PUSH1 0x0 KECCAK256 PUSH1 0x1 ADD DUP2 SWAP1 SSTORE POP PUSH2 0x2123 PUSH1 0x4 SLOAD PUSH1 0x6 PUSH1 0x0 DUP8 PUSH20 0xFFFFFFFFFFFFFFFFFFFFFFFFFFFFFFFFFFFFFFFF AND PUSH20 0xFFFFFFFFFFFFFFFFFFFFFFFFFFFFFFFFFFFFFFFF AND DUP2 MSTORE PUSH1 0x20 ADD SWAP1 DUP2 MSTORE PUSH1 0x20 ADD PUSH1 0x0 KECCAK256 PUSH2 0x25A0 SWAP1 SWAP2 SWAP1 PUSH4 0xFFFFFFFF AND JUMP JUMPDEST POP PUSH1 0x4 SLOAD PUSH1 0x7 PUSH1 0x0 DUP7 PUSH20 0xFFFFFFFFFFFFFFFFFFFFFFFFFFFFFFFFFFFFFFFF AND PUSH20 0xFFFFFFFFFFFFFFFFFFFFFFFFFFFFFFFFFFFFFFFF AND DUP2 MSTORE PUSH1 0x20 ADD SWAP1 DUP2 MSTORE PUSH1 0x20 ADD PUSH1 0x0 KECCAK256 PUSH1 0x0 DUP6 PUSH1 0x2 DUP2 GT ISZERO PUSH2 0x217B JUMPI PUSH2 0x217A PUSH2 0x2D8E JUMP JUMPDEST JUMPDEST PUSH1 0x2 DUP2 GT ISZERO PUSH2 0x218D JUMPI PUSH2 0x218C PUSH2 0x2D8E JUMP JUMPDEST JUMPDEST DUP2 MSTORE PUSH1 0x20 ADD SWAP1 DUP2 MSTORE PUSH1 0x20 ADD PUSH1 0x0 KECCAK256 DUP2 SWAP1 SSTORE POP PUSH2 0x21B5 PUSH1 0x1 PUSH1 0x4 SLOAD PUSH2 0x1D28 SWAP1 SWAP2 SWAP1 PUSH4 0xFFFFFFFF AND JUMP JUMPDEST PUSH1 0x4 DUP2 SWAP1 SSTORE POP DUP4 PUSH20 0xFFFFFFFFFFFFFFFFFFFFFFFFFFFFFFFFFFFFFFFF AND PUSH1 0x4 SLOAD PUSH32 0xCA26C44DFB310E29094C39C1C371F88EC57BAA3398EA2A3ABC3F9C825A4F7212 DUP5 PUSH1 0x40 MLOAD PUSH2 0x2204 SWAP2 SWAP1 PUSH2 0x2BAB JUMP JUMPDEST PUSH1 0x40 MLOAD DUP1 SWAP2 SUB SWAP1 LOG3 POP POP POP POP JUMP JUMPDEST PUSH1 0x0 DUP2 DUP4 LT PUSH2 0x2221 JUMPI DUP2 PUSH2 0x2223 JUMP JUMPDEST DUP3 JUMPDEST SWAP1 POP SWAP3 SWAP2 POP POP JUMP JUMPDEST PUSH1 0x0 DUP2 DUP4 GT PUSH2 0x223A JUMPI DUP2 PUSH2 0x223C JUMP JUMPDEST DUP3 JUMPDEST SWAP1 POP SWAP3 SWAP2 POP POP JUMP JUMPDEST PUSH1 0x0 PUSH2 0x2253 DUP4 PUSH1 0x0 ADD DUP4 PUSH2 0x25BA JUMP JUMPDEST PUSH1 0x0 SHR SWAP1 POP SWAP3 SWAP2 POP POP JUMP JUMPDEST DUP4 PUSH1 0x3 PUSH1 0x0 DUP8 PUSH1 0x2 DUP2 GT ISZERO PUSH2 0x2276 JUMPI PUSH2 0x2275 PUSH2 0x2D8E JUMP JUMPDEST JUMPDEST PUSH1 0x2 DUP2 GT ISZERO PUSH2 0x2288 JUMPI PUSH2 0x2287 PUSH2 0x2D8E JUMP JUMPDEST JUMPDEST DUP2 MSTORE PUSH1 0x20 ADD SWAP1 DUP2 MSTORE PUSH1 0x20 ADD PUSH1 0x0 KECCAK256 PUSH1 0x0 ADD DUP2 SWAP1 SSTORE POP DUP3 PUSH1 0x3 PUSH1 0x0 DUP8 PUSH1 0x2 DUP2 GT ISZERO PUSH2 0x22B5 JUMPI PUSH2 0x22B4 PUSH2 0x2D8E JUMP JUMPDEST JUMPDEST PUSH1 0x2 DUP2 GT ISZERO PUSH2 0x22C7 JUMPI PUSH2 0x22C6 PUSH2 0x2D8E JUMP JUMPDEST JUMPDEST DUP2 MSTORE PUSH1 0x20 ADD SWAP1 DUP2 MSTORE PUSH1 0x20 ADD PUSH1 0x0 KECCAK256 PUSH1 0x4 ADD DUP2 SWAP1 SSTORE POP DUP2 PUSH1 0x3 PUSH1 0x0 DUP8 PUSH1 0x2 DUP2 GT ISZERO PUSH2 0x22F4 JUMPI PUSH2 0x22F3 PUSH2 0x2D8E JUMP JUMPDEST JUMPDEST PUSH1 0x2 DUP2 GT ISZERO PUSH2 0x2306 JUMPI PUSH2 0x2305 PUSH2 0x2D8E JUMP JUMPDEST JUMPDEST DUP2 MSTORE PUSH1 0x20 ADD SWAP1 DUP2 MSTORE PUSH1 0x20 ADD PUSH1 0x0 KECCAK256 PUSH1 0x5 ADD DUP2 SWAP1 SSTORE POP DUP1 PUSH1 0x3 PUSH1 0x0 DUP8 PUSH1 0x2 DUP2 GT ISZERO PUSH2 0x2333 JUMPI PUSH2 0x2332 PUSH2 0x2D8E JUMP JUMPDEST JUMPDEST PUSH1 0x2 DUP2 GT ISZERO PUSH2 0x2345 JUMPI PUSH2 0x2344 PUSH2 0x2D8E JUMP JUMPDEST JUMPDEST DUP2 MSTORE PUSH1 0x20 ADD SWAP1 DUP2 MSTORE PUSH1 0x20 ADD PUSH1 0x0 KECCAK256 PUSH1 0x6 ADD DUP2 SWAP1 SSTORE POP PUSH32 0x7E9F14AF6752EC6D3A32EB60ACDC8E5897E088BAD8C77B6FAEC09E0546DDD7DF DUP6 DUP6 DUP6 DUP6 DUP6 PUSH1 0x40 MLOAD PUSH2 0x2391 SWAP6 SWAP5 SWAP4 SWAP3 SWAP2 SWAP1 PUSH2 0x3C1F JUMP JUMPDEST PUSH1 0x40 MLOAD DUP1 SWAP2 SUB SWAP1 LOG1 POP POP POP POP POP JUMP JUMPDEST PUSH2 0x2423 DUP5 PUSH4 0x23B872DD PUSH1 0xE0 SHL DUP6 DUP6 DUP6 PUSH1 0x40 MLOAD PUSH1 0x24 ADD PUSH2 0x23C1 SWAP4 SWAP3 SWAP2 SWAP1 PUSH2 0x3C72 JUMP JUMPDEST PUSH1 0x40 MLOAD PUSH1 0x20 DUP2 DUP4 SUB SUB DUP2 MSTORE SWAP1 PUSH1 0x40 MSTORE SWAP1 PUSH28 0xFFFFFFFFFFFFFFFFFFFFFFFFFFFFFFFFFFFFFFFFFFFFFFFFFFFFFFFF NOT AND PUSH1 0x20 DUP3 ADD DUP1 MLOAD PUSH28 0xFFFFFFFFFFFFFFFFFFFFFFFFFFFFFFFFFFFFFFFFFFFFFFFFFFFFFFFF DUP4 DUP2 DUP4 AND OR DUP4 MSTORE POP POP POP POP PUSH2 0x24C8 JUMP JUMPDEST POP POP POP POP JUMP JUMPDEST PUSH1 0x0 PUSH2 0x243B DUP4 PUSH1 0x0 ADD DUP4 PUSH1 0x0 SHL PUSH2 0x25E5 JUMP JUMPDEST SWAP1 POP SWAP3 SWAP2 POP POP JUMP JUMPDEST PUSH1 0x0 PUSH2 0x2455 DUP4 PUSH1 0x0 ADD DUP4 PUSH1 0x0 SHL PUSH2 0x26F9 JUMP JUMPDEST SWAP1 POP SWAP3 SWAP2 POP POP JUMP JUMPDEST PUSH1 0x0 DUP2 DUP4 PUSH2 0x246B SWAP2 SWAP1 PUSH2 0x3884 JUMP JUMPDEST SWAP1 POP SWAP3 SWAP2 POP POP JUMP JUMPDEST PUSH1 0x0 DUP2 DUP4 PUSH2 0x2481 SWAP2 SWAP1 PUSH2 0x3CD8 JUMP JUMPDEST SWAP1 POP SWAP3 SWAP2 POP POP JUMP JUMPDEST PUSH1 0x0 DUP2 NUMBER LT PUSH2 0x24AC JUMPI PUSH2 0x24A5 DUP4 DUP4 PUSH2 0x17AC SWAP1 SWAP2 SWAP1 PUSH4 0xFFFFFFFF AND JUMP JUMPDEST SWAP1 POP PUSH2 0x24C2 JUMP JUMPDEST PUSH2 0x24BF DUP4 NUMBER PUSH2 0x17AC SWAP1 SWAP2 SWAP1 PUSH4 0xFFFFFFFF AND JUMP JUMPDEST SWAP1 POP JUMPDEST SWAP3 SWAP2 POP POP JUMP JUMPDEST PUSH1 0x0 PUSH2 0x252A DUP3 PUSH1 0x40 MLOAD DUP1 PUSH1 0x40 ADD PUSH1 0x40 MSTORE DUP1 PUSH1 0x20 DUP2 MSTORE PUSH1 0x20 ADD PUSH32 0x5361666545524332303A206C6F772D6C6576656C2063616C6C206661696C6564 DUP2 MSTORE POP DUP6 PUSH20 0xFFFFFFFFFFFFFFFFFFFFFFFFFFFFFFFFFFFFFFFF AND PUSH2 0x271C SWAP1 SWAP3 SWAP2 SWAP1 PUSH4 0xFFFFFFFF AND JUMP JUMPDEST SWAP1 POP PUSH1 0x0 DUP2 MLOAD GT ISZERO PUSH2 0x258A JUMPI DUP1 DUP1 PUSH1 0x20 ADD SWAP1 MLOAD DUP2 ADD SWAP1 PUSH2 0x254A SWAP2 SWAP1 PUSH2 0x3D41 JUMP JUMPDEST PUSH2 0x2589 JUMPI PUSH1 0x40 MLOAD PUSH32 0x8C379A000000000000000000000000000000000000000000000000000000000 DUP2 MSTORE PUSH1 0x4 ADD PUSH2 0x2580 SWAP1 PUSH2 0x3DE0 JUMP JUMPDEST PUSH1 0x40 MLOAD DUP1 SWAP2 SUB SWAP1 REVERT JUMPDEST JUMPDEST POP POP POP JUMP JUMPDEST PUSH1 0x0 DUP2 PUSH1 0x0 ADD DUP1 SLOAD SWAP1 POP SWAP1 POP SWAP2 SWAP1 POP JUMP JUMPDEST PUSH1 0x0 PUSH2 0x25B2 DUP4 PUSH1 0x0 ADD DUP4 PUSH1 0x0 SHL PUSH2 0x2734 JUMP JUMPDEST SWAP1 POP SWAP3 SWAP2 POP POP JUMP JUMPDEST PUSH1 0x0 DUP3 PUSH1 0x0 ADD DUP3 DUP2 SLOAD DUP2 LT PUSH2 0x25D2 JUMPI PUSH2 0x25D1 PUSH2 0x3575 JUMP JUMPDEST JUMPDEST SWAP1 PUSH1 0x0 MSTORE PUSH1 0x20 PUSH1 0x0 KECCAK256 ADD SLOAD SWAP1 POP SWAP3 SWAP2 POP POP JUMP JUMPDEST PUSH1 0x0 DUP1 DUP4 PUSH1 0x1 ADD PUSH1 0x0 DUP5 DUP2 MSTORE PUSH1 0x20 ADD SWAP1 DUP2 MSTORE PUSH1 0x20 ADD PUSH1 0x0 KECCAK256 SLOAD SWAP1 POP PUSH1 0x0 DUP2 EQ PUSH2 0x26ED JUMPI PUSH1 0x0 PUSH1 0x1 DUP3 PUSH2 0x2617 SWAP2 SWAP1 PUSH2 0x3A02 JUMP JUMPDEST SWAP1 POP PUSH1 0x0 PUSH1 0x1 DUP7 PUSH1 0x0 ADD DUP1 SLOAD SWAP1 POP PUSH2 0x262F SWAP2 SWAP1 PUSH2 0x3A02 JUMP JUMPDEST SWAP1 POP DUP2 DUP2 EQ PUSH2 0x269E JUMPI PUSH1 0x0 DUP7 PUSH1 0x0 ADD DUP3 DUP2 SLOAD DUP2 LT PUSH2 0x2650 JUMPI PUSH2 0x264F PUSH2 0x3575 JUMP JUMPDEST JUMPDEST SWAP1 PUSH1 0x0 MSTORE PUSH1 0x20 PUSH1 0x0 KECCAK256 ADD SLOAD SWAP1 POP DUP1 DUP8 PUSH1 0x0 ADD DUP5 DUP2 SLOAD DUP2 LT PUSH2 0x2674 JUMPI PUSH2 0x2673 PUSH2 0x3575 JUMP JUMPDEST JUMPDEST SWAP1 PUSH1 0x0 MSTORE PUSH1 0x20 PUSH1 0x0 KECCAK256 ADD DUP2 SWAP1 SSTORE POP DUP4 DUP8 PUSH1 0x1 ADD PUSH1 0x0 DUP4 DUP2 MSTORE PUSH1 0x20 ADD SWAP1 DUP2 MSTORE PUSH1 0x20 ADD PUSH1 0x0 KECCAK256 DUP2 SWAP1 SSTORE POP POP JUMPDEST DUP6 PUSH1 0x0 ADD DUP1 SLOAD DUP1 PUSH2 0x26B2 JUMPI PUSH2 0x26B1 PUSH2 0x3E00 JUMP JUMPDEST JUMPDEST PUSH1 0x1 SWAP1 SUB DUP2 DUP2 SWAP1 PUSH1 0x0 MSTORE PUSH1 0x20 PUSH1 0x0 KECCAK256 ADD PUSH1 0x0 SWAP1 SSTORE SWAP1 SSTORE DUP6 PUSH1 0x1 ADD PUSH1 0x0 DUP7 DUP2 MSTORE PUSH1 0x20 ADD SWAP1 DUP2 MSTORE PUSH1 0x20 ADD PUSH1 0x0 KECCAK256 PUSH1 0x0 SWAP1 SSTORE PUSH1 0x1 SWAP4 POP POP POP POP PUSH2 0x26F3 JUMP JUMPDEST PUSH1 0x0 SWAP2 POP POP JUMPDEST SWAP3 SWAP2 POP POP JUMP JUMPDEST PUSH1 0x0 DUP1 DUP4 PUSH1 0x1 ADD PUSH1 0x0 DUP5 DUP2 MSTORE PUSH1 0x20 ADD SWAP1 DUP2 MSTORE PUSH1 0x20 ADD PUSH1 0x0 KECCAK256 SLOAD EQ ISZERO SWAP1 POP SWAP3 SWAP2 POP POP JUMP JUMPDEST PUSH1 0x60 PUSH2 0x272B DUP5 DUP5 PUSH1 0x0 DUP6 PUSH2 0x27A4 JUMP JUMPDEST SWAP1 POP SWAP4 SWAP3 POP POP POP JUMP JUMPDEST PUSH1 0x0 PUSH2 0x2740 DUP4 DUP4 PUSH2 0x26F9 JUMP JUMPDEST PUSH2 0x2799 JUMPI DUP3 PUSH1 0x0 ADD DUP3 SWAP1 DUP1 PUSH1 0x1 DUP2 SLOAD ADD DUP1 DUP3 SSTORE DUP1 SWAP2 POP POP PUSH1 0x1 SWAP1 SUB SWAP1 PUSH1 0x0 MSTORE PUSH1 0x20 PUSH1 0x0 KECCAK256 ADD PUSH1 0x0 SWAP1 SWAP2 SWAP1 SWAP2 SWAP1 SWAP2 POP SSTORE DUP3 PUSH1 0x0 ADD DUP1 SLOAD SWAP1 POP DUP4 PUSH1 0x1 ADD PUSH1 0x0 DUP5 DUP2 MSTORE PUSH1 0x20 ADD SWAP1 DUP2 MSTORE PUSH1 0x20 ADD PUSH1 0x0 KECCAK256 DUP2 SWAP1 SSTORE POP PUSH1 0x1 SWAP1 POP PUSH2 0x279E JUMP JUMPDEST PUSH1 0x0 SWAP1 POP JUMPDEST SWAP3 SWAP2 POP POP JUMP JUMPDEST PUSH1 0x60 DUP3 SELFBALANCE LT ISZERO PUSH2 0x27E9 JUMPI PUSH1 0x40 MLOAD PUSH32 0x8C379A000000000000000000000000000000000000000000000000000000000 DUP2 MSTORE PUSH1 0x4 ADD PUSH2 0x27E0 SWAP1 PUSH2 0x3EA1 JUMP JUMPDEST PUSH1 0x40 MLOAD DUP1 SWAP2 SUB SWAP1 REVERT JUMPDEST PUSH1 0x0 DUP1 DUP7 PUSH20 0xFFFFFFFFFFFFFFFFFFFFFFFFFFFFFFFFFFFFFFFF AND DUP6 DUP8 PUSH1 0x40 MLOAD PUSH2 0x2812 SWAP2 SWAP1 PUSH2 0x3F3B JUMP JUMPDEST PUSH1 0x0 PUSH1 0x40 MLOAD DUP1 DUP4 SUB DUP2 DUP6 DUP8 GAS CALL SWAP3 POP POP POP RETURNDATASIZE DUP1 PUSH1 0x0 DUP2 EQ PUSH2 0x284F JUMPI PUSH1 0x40 MLOAD SWAP2 POP PUSH1 0x1F NOT PUSH1 0x3F RETURNDATASIZE ADD AND DUP3 ADD PUSH1 0x40 MSTORE RETURNDATASIZE DUP3 MSTORE RETURNDATASIZE PUSH1 0x0 PUSH1 0x20 DUP5 ADD RETURNDATACOPY PUSH2 0x2854 JUMP JUMPDEST PUSH1 0x60 SWAP2 POP JUMPDEST POP SWAP2 POP SWAP2 POP PUSH2 0x2865 DUP8 DUP4 DUP4 DUP8 PUSH2 0x2871 JUMP JUMPDEST SWAP3 POP POP POP SWAP5 SWAP4 POP POP POP POP JUMP JUMPDEST PUSH1 0x60 DUP4 ISZERO PUSH2 0x28D4 JUMPI PUSH1 0x0 DUP4 MLOAD EQ ISZERO PUSH2 0x28CC JUMPI PUSH2 0x288C DUP6 PUSH2 0x28E7 JUMP JUMPDEST PUSH2 0x28CB JUMPI PUSH1 0x40 MLOAD PUSH32 0x8C379A000000000000000000000000000000000000000000000000000000000 DUP2 MSTORE PUSH1 0x4 ADD PUSH2 0x28C2 SWAP1 PUSH2 0x3F9E JUMP JUMPDEST PUSH1 0x40 MLOAD DUP1 SWAP2 SUB SWAP1 REVERT JUMPDEST JUMPDEST DUP3 SWAP1 POP PUSH2 0x28DF JUMP JUMPDEST PUSH2 0x28DE DUP4 DUP4 PUSH2 0x290A JUMP JUMPDEST JUMPDEST SWAP5 SWAP4 POP POP POP POP JUMP JUMPDEST PUSH1 0x0 DUP1 DUP3 PUSH20 0xFFFFFFFFFFFFFFFFFFFFFFFFFFFFFFFFFFFFFFFF AND EXTCODESIZE GT SWAP1 POP SWAP2 SWAP1 POP JUMP JUMPDEST PUSH1 0x0 DUP3 MLOAD GT ISZERO PUSH2 0x291D JUMPI DUP2 MLOAD DUP1 DUP4 PUSH1 0x20 ADD REVERT JUMPDEST DUP1 PUSH1 0x40 MLOAD PUSH32 0x8C379A000000000000000000000000000000000000000000000000000000000 DUP2 MSTORE PUSH1 0x4 ADD PUSH2 0x2951 SWAP2 SWAP1 PUSH2 0x4002 JUMP JUMPDEST PUSH1 0x40 MLOAD DUP1 SWAP2 SUB SWAP1 REVERT JUMPDEST PUSH1 0x40 MLOAD DUP1 PUSH1 0x80 ADD PUSH1 0x40 MSTORE DUP1 PUSH1 0x0 PUSH20 0xFFFFFFFFFFFFFFFFFFFFFFFFFFFFFFFFFFFFFFFF AND DUP2 MSTORE PUSH1 0x20 ADD PUSH1 0x0 PUSH1 0x2 DUP2 GT ISZERO PUSH2 0x2996 JUMPI PUSH2 0x2995 PUSH2 0x2D8E JUMP JUMPDEST JUMPDEST DUP2 MSTORE PUSH1 0x20 ADD PUSH1 0x0 DUP2 MSTORE PUSH1 0x20 ADD PUSH1 0x0 DUP2 MSTORE POP SWAP1 JUMP JUMPDEST PUSH1 0x40 MLOAD DUP1 PUSH1 0xC0 ADD PUSH1 0x40 MSTORE DUP1 PUSH1 0x0 DUP2 MSTORE PUSH1 0x20 ADD PUSH1 0x0 DUP2 MSTORE PUSH1 0x20 ADD PUSH1 0x0 DUP2 MSTORE PUSH1 0x20 ADD PUSH1 0x0 DUP2 MSTORE PUSH1 0x20 ADD PUSH1 0x0 DUP2 MSTORE PUSH1 0x20 ADD PUSH1 0x0 DUP2 MSTORE POP SWAP1 JUMP JUMPDEST PUSH1 0x0 PUSH1 0x40 MLOAD SWAP1 POP SWAP1 JUMP JUMPDEST PUSH1 0x0 DUP1 REVERT JUMPDEST PUSH1 0x0 DUP1 REVERT JUMPDEST PUSH1 0x0 DUP1 REVERT JUMPDEST PUSH1 0x0 PUSH1 0x1F NOT PUSH1 0x1F DUP4 ADD AND SWAP1 POP SWAP2 SWAP1 POP JUMP JUMPDEST PUSH32 0x4E487B7100000000000000000000000000000000000000000000000000000000 PUSH1 0x0 MSTORE PUSH1 0x41 PUSH1 0x4 MSTORE PUSH1 0x24 PUSH1 0x0 REVERT JUMPDEST PUSH2 0x2A42 DUP3 PUSH2 0x29F9 JUMP JUMPDEST DUP2 ADD DUP2 DUP2 LT PUSH8 0xFFFFFFFFFFFFFFFF DUP3 GT OR ISZERO PUSH2 0x2A61 JUMPI PUSH2 0x2A60 PUSH2 0x2A0A JUMP JUMPDEST JUMPDEST DUP1 PUSH1 0x40 MSTORE POP POP POP JUMP JUMPDEST PUSH1 0x0 PUSH2 0x2A74 PUSH2 0x29E0 JUMP JUMPDEST SWAP1 POP PUSH2 0x2A80 DUP3 DUP3 PUSH2 0x2A39 JUMP JUMPDEST SWAP2 SWAP1 POP JUMP JUMPDEST PUSH1 0x0 DUP2 SWAP1 POP SWAP2 SWAP1 POP JUMP JUMPDEST PUSH2 0x2A98 DUP2 PUSH2 0x2A85 JUMP JUMPDEST DUP2 EQ PUSH2 0x2AA3 JUMPI PUSH1 0x0 DUP1 REVERT JUMPDEST POP JUMP JUMPDEST PUSH1 0x0 DUP2 CALLDATALOAD SWAP1 POP PUSH2 0x2AB5 DUP2 PUSH2 0x2A8F JUMP JUMPDEST SWAP3 SWAP2 POP POP JUMP JUMPDEST PUSH1 0x0 PUSH1 0xE0 DUP3 DUP5 SUB SLT ISZERO PUSH2 0x2AD1 JUMPI PUSH2 0x2AD0 PUSH2 0x29F4 JUMP JUMPDEST JUMPDEST PUSH2 0x2ADB PUSH1 0xE0 PUSH2 0x2A6A JUMP JUMPDEST SWAP1 POP PUSH1 0x0 PUSH2 0x2AEB DUP5 DUP3 DUP6 ADD PUSH2 0x2AA6 JUMP JUMPDEST PUSH1 0x0 DUP4 ADD MSTORE POP PUSH1 0x20 PUSH2 0x2AFF DUP5 DUP3 DUP6 ADD PUSH2 0x2AA6 JUMP JUMPDEST PUSH1 0x20 DUP4 ADD MSTORE POP PUSH1 0x40 PUSH2 0x2B13 DUP5 DUP3 DUP6 ADD PUSH2 0x2AA6 JUMP JUMPDEST PUSH1 0x40 DUP4 ADD MSTORE POP PUSH1 0x60 PUSH2 0x2B27 DUP5 DUP3 DUP6 ADD PUSH2 0x2AA6 JUMP JUMPDEST PUSH1 0x60 DUP4 ADD MSTORE POP PUSH1 0x80 PUSH2 0x2B3B DUP5 DUP3 DUP6 ADD PUSH2 0x2AA6 JUMP JUMPDEST PUSH1 0x80 DUP4 ADD MSTORE POP PUSH1 0xA0 PUSH2 0x2B4F DUP5 DUP3 DUP6 ADD PUSH2 0x2AA6 JUMP JUMPDEST PUSH1 0xA0 DUP4 ADD MSTORE POP PUSH1 0xC0 PUSH2 0x2B63 DUP5 DUP3 DUP6 ADD PUSH2 0x2AA6 JUMP JUMPDEST PUSH1 0xC0 DUP4 ADD MSTORE POP SWAP3 SWAP2 POP POP JUMP JUMPDEST PUSH1 0x0 PUSH1 0xE0 DUP3 DUP5 SUB SLT ISZERO PUSH2 0x2B85 JUMPI PUSH2 0x2B84 PUSH2 0x29EA JUMP JUMPDEST JUMPDEST PUSH1 0x0 PUSH2 0x2B93 DUP5 DUP3 DUP6 ADD PUSH2 0x2ABB JUMP JUMPDEST SWAP2 POP POP SWAP3 SWAP2 POP POP JUMP JUMPDEST PUSH2 0x2BA5 DUP2 PUSH2 0x2A85 JUMP JUMPDEST DUP3 MSTORE POP POP JUMP JUMPDEST PUSH1 0x0 PUSH1 0x20 DUP3 ADD SWAP1 POP PUSH2 0x2BC0 PUSH1 0x0 DUP4 ADD DUP5 PUSH2 0x2B9C JUMP JUMPDEST SWAP3 SWAP2 POP POP JUMP JUMPDEST PUSH1 0x0 PUSH20 0xFFFFFFFFFFFFFFFFFFFFFFFFFFFFFFFFFFFFFFFF DUP3 AND SWAP1 POP SWAP2 SWAP1 POP JUMP JUMPDEST PUSH1 0x0 PUSH2 0x2BF1 DUP3 PUSH2 0x2BC6 JUMP JUMPDEST SWAP1 POP SWAP2 SWAP1 POP JUMP JUMPDEST PUSH2 0x2C01 DUP2 PUSH2 0x2BE6 JUMP JUMPDEST DUP2 EQ PUSH2 0x2C0C JUMPI PUSH1 0x0 DUP1 REVERT JUMPDEST POP JUMP JUMPDEST PUSH1 0x0 DUP2 CALLDATALOAD SWAP1 POP PUSH2 0x2C1E DUP2 PUSH2 0x2BF8 JUMP JUMPDEST SWAP3 SWAP2 POP POP JUMP JUMPDEST PUSH1 0x3 DUP2 LT PUSH2 0x2C31 JUMPI PUSH1 0x0 DUP1 REVERT JUMPDEST POP JUMP JUMPDEST PUSH1 0x0 DUP2 CALLDATALOAD SWAP1 POP PUSH2 0x2C43 DUP2 PUSH2 0x2C24 JUMP JUMPDEST SWAP3 SWAP2 POP POP JUMP JUMPDEST PUSH1 0x0 DUP1 PUSH1 0x40 DUP4 DUP6 SUB SLT ISZERO PUSH2 0x2C60 JUMPI PUSH2 0x2C5F PUSH2 0x29EA JUMP JUMPDEST JUMPDEST PUSH1 0x0 PUSH2 0x2C6E DUP6 DUP3 DUP7 ADD PUSH2 0x2C0F JUMP JUMPDEST SWAP3 POP POP PUSH1 0x20 PUSH2 0x2C7F DUP6 DUP3 DUP7 ADD PUSH2 0x2C34 JUMP JUMPDEST SWAP2 POP POP SWAP3 POP SWAP3 SWAP1 POP JUMP JUMPDEST PUSH1 0x0 PUSH1 0x20 DUP3 DUP5 SUB SLT ISZERO PUSH2 0x2C9F JUMPI PUSH2 0x2C9E PUSH2 0x29EA JUMP JUMPDEST JUMPDEST PUSH1 0x0 PUSH2 0x2CAD DUP5 DUP3 DUP6 ADD PUSH2 0x2C0F JUMP JUMPDEST SWAP2 POP POP SWAP3 SWAP2 POP POP JUMP JUMPDEST PUSH1 0x0 PUSH1 0x20 DUP3 DUP5 SUB SLT ISZERO PUSH2 0x2CCC JUMPI PUSH2 0x2CCB PUSH2 0x29EA JUMP JUMPDEST JUMPDEST PUSH1 0x0 PUSH2 0x2CDA DUP5 DUP3 DUP6 ADD PUSH2 0x2C34 JUMP JUMPDEST SWAP2 POP POP SWAP3 SWAP2 POP POP JUMP JUMPDEST PUSH1 0x0 PUSH1 0xE0 DUP3 ADD SWAP1 POP PUSH2 0x2CF8 PUSH1 0x0 DUP4 ADD DUP11 PUSH2 0x2B9C JUMP JUMPDEST PUSH2 0x2D05 PUSH1 0x20 DUP4 ADD DUP10 PUSH2 0x2B9C JUMP JUMPDEST PUSH2 0x2D12 PUSH1 0x40 DUP4 ADD DUP9 PUSH2 0x2B9C JUMP JUMPDEST PUSH2 0x2D1F PUSH1 0x60 DUP4 ADD DUP8 PUSH2 0x2B9C JUMP JUMPDEST PUSH2 0x2D2C PUSH1 0x80 DUP4 ADD DUP7 PUSH2 0x2B9C JUMP JUMPDEST PUSH2 0x2D39 PUSH1 0xA0 DUP4 ADD DUP6 PUSH2 0x2B9C JUMP JUMPDEST PUSH2 0x2D46 PUSH1 0xC0 DUP4 ADD DUP5 PUSH2 0x2B9C JUMP JUMPDEST SWAP9 SWAP8 POP POP POP POP POP POP POP POP JUMP JUMPDEST PUSH1 0x0 PUSH1 0x20 DUP3 DUP5 SUB SLT ISZERO PUSH2 0x2D68 JUMPI PUSH2 0x2D67 PUSH2 0x29EA JUMP JUMPDEST JUMPDEST PUSH1 0x0 PUSH2 0x2D76 DUP5 DUP3 DUP6 ADD PUSH2 0x2AA6 JUMP JUMPDEST SWAP2 POP POP SWAP3 SWAP2 POP POP JUMP JUMPDEST PUSH2 0x2D88 DUP2 PUSH2 0x2BE6 JUMP JUMPDEST DUP3 MSTORE POP POP JUMP JUMPDEST PUSH32 0x4E487B7100000000000000000000000000000000000000000000000000000000 PUSH1 0x0 MSTORE PUSH1 0x21 PUSH1 0x4 MSTORE PUSH1 0x24 PUSH1 0x0 REVERT JUMPDEST PUSH1 0x3 DUP2 LT PUSH2 0x2DCE JUMPI PUSH2 0x2DCD PUSH2 0x2D8E JUMP JUMPDEST JUMPDEST POP JUMP JUMPDEST PUSH1 0x0 DUP2 SWAP1 POP PUSH2 0x2DDF DUP3 PUSH2 0x2DBD JUMP JUMPDEST SWAP2 SWAP1 POP JUMP JUMPDEST PUSH1 0x0 PUSH2 0x2DEF DUP3 PUSH2 0x2DD1 JUMP JUMPDEST SWAP1 POP SWAP2 SWAP1 POP JUMP JUMPDEST PUSH2 0x2DFF DUP2 PUSH2 0x2DE4 JUMP JUMPDEST DUP3 MSTORE POP POP JUMP JUMPDEST PUSH1 0x0 PUSH1 0x80 DUP3 ADD SWAP1 POP PUSH2 0x2E1A PUSH1 0x0 DUP4 ADD DUP8 PUSH2 0x2D7F JUMP JUMPDEST PUSH2 0x2E27 PUSH1 0x20 DUP4 ADD DUP7 PUSH2 0x2DF6 JUMP JUMPDEST PUSH2 0x2E34 PUSH1 0x40 DUP4 ADD DUP6 PUSH2 0x2B9C JUMP JUMPDEST PUSH2 0x2E41 PUSH1 0x60 DUP4 ADD DUP5 PUSH2 0x2B9C JUMP JUMPDEST SWAP6 SWAP5 POP POP POP POP POP JUMP JUMPDEST PUSH1 0x0 DUP1 PUSH1 0x0 PUSH1 0x60 DUP5 DUP7 SUB SLT ISZERO PUSH2 0x2E63 JUMPI PUSH2 0x2E62 PUSH2 0x29EA JUMP JUMPDEST JUMPDEST PUSH1 0x0 PUSH2 0x2E71 DUP7 DUP3 DUP8 ADD PUSH2 0x2C0F JUMP JUMPDEST SWAP4 POP POP PUSH1 0x20 PUSH2 0x2E82 DUP7 DUP3 DUP8 ADD PUSH2 0x2C34 JUMP JUMPDEST SWAP3 POP POP PUSH1 0x40 PUSH2 0x2E93 DUP7 DUP3 DUP8 ADD PUSH2 0x2AA6 JUMP JUMPDEST SWAP2 POP POP SWAP3 POP SWAP3 POP SWAP3 JUMP JUMPDEST PUSH1 0x0 DUP1 PUSH1 0x40 DUP4 DUP6 SUB SLT ISZERO PUSH2 0x2EB4 JUMPI PUSH2 0x2EB3 PUSH2 0x29EA JUMP JUMPDEST JUMPDEST PUSH1 0x0 PUSH2 0x2EC2 DUP6 DUP3 DUP7 ADD PUSH2 0x2AA6 JUMP JUMPDEST SWAP3 POP POP PUSH1 0x20 PUSH2 0x2ED3 DUP6 DUP3 DUP7 ADD PUSH2 0x2AA6 JUMP JUMPDEST SWAP2 POP POP SWAP3 POP SWAP3 SWAP1 POP JUMP JUMPDEST PUSH1 0x0 DUP2 MLOAD SWAP1 POP SWAP2 SWAP1 POP JUMP JUMPDEST PUSH1 0x0 DUP3 DUP3 MSTORE PUSH1 0x20 DUP3 ADD SWAP1 POP SWAP3 SWAP2 POP POP JUMP JUMPDEST PUSH1 0x0 DUP2 SWAP1 POP PUSH1 0x20 DUP3 ADD SWAP1 POP SWAP2 SWAP1 POP JUMP JUMPDEST PUSH2 0x2F12 DUP2 PUSH2 0x2BE6 JUMP JUMPDEST DUP3 MSTORE POP POP JUMP JUMPDEST PUSH2 0x2F21 DUP2 PUSH2 0x2DE4 JUMP JUMPDEST DUP3 MSTORE POP POP JUMP JUMPDEST PUSH2 0x2F30 DUP2 PUSH2 0x2A85 JUMP JUMPDEST DUP3 MSTORE POP POP JUMP JUMPDEST PUSH1 0x80 DUP3 ADD PUSH1 0x0 DUP3 ADD MLOAD PUSH2 0x2F4C PUSH1 0x0 DUP6 ADD DUP3 PUSH2 0x2F09 JUMP JUMPDEST POP PUSH1 0x20 DUP3 ADD MLOAD PUSH2 0x2F5F PUSH1 0x20 DUP6 ADD DUP3 PUSH2 0x2F18 JUMP JUMPDEST POP PUSH1 0x40 DUP3 ADD MLOAD PUSH2 0x2F72 PUSH1 0x40 DUP6 ADD DUP3 PUSH2 0x2F27 JUMP JUMPDEST POP PUSH1 0x60 DUP3 ADD MLOAD PUSH2 0x2F85 PUSH1 0x60 DUP6 ADD DUP3 PUSH2 0x2F27 JUMP JUMPDEST POP POP POP POP JUMP JUMPDEST PUSH1 0x0 PUSH2 0x2F97 DUP4 DUP4 PUSH2 0x2F36 JUMP JUMPDEST PUSH1 0x80 DUP4 ADD SWAP1 POP SWAP3 SWAP2 POP POP JUMP JUMPDEST PUSH1 0x0 PUSH1 0x20 DUP3 ADD SWAP1 POP SWAP2 SWAP1 POP JUMP JUMPDEST PUSH1 0x0 PUSH2 0x2FBB DUP3 PUSH2 0x2EDD JUMP JUMPDEST PUSH2 0x2FC5 DUP2 DUP6 PUSH2 0x2EE8 JUMP JUMPDEST SWAP4 POP PUSH2 0x2FD0 DUP4 PUSH2 0x2EF9 JUMP JUMPDEST DUP1 PUSH1 0x0 JUMPDEST DUP4 DUP2 LT ISZERO PUSH2 0x3001 JUMPI DUP2 MLOAD PUSH2 0x2FE8 DUP9 DUP3 PUSH2 0x2F8B JUMP JUMPDEST SWAP8 POP PUSH2 0x2FF3 DUP4 PUSH2 0x2FA3 JUMP JUMPDEST SWAP3 POP POP PUSH1 0x1 DUP2 ADD SWAP1 POP PUSH2 0x2FD4 JUMP JUMPDEST POP DUP6 SWAP4 POP POP POP POP SWAP3 SWAP2 POP POP JUMP JUMPDEST PUSH1 0x0 PUSH1 0x20 DUP3 ADD SWAP1 POP DUP2 DUP2 SUB PUSH1 0x0 DUP4 ADD MSTORE PUSH2 0x3028 DUP2 DUP5 PUSH2 0x2FB0 JUMP JUMPDEST SWAP1 POP SWAP3 SWAP2 POP POP JUMP JUMPDEST PUSH1 0x0 DUP1 PUSH1 0x0 DUP1 PUSH1 0x0 PUSH1 0xA0 DUP7 DUP9 SUB SLT ISZERO PUSH2 0x304C JUMPI PUSH2 0x304B PUSH2 0x29EA JUMP JUMPDEST JUMPDEST PUSH1 0x0 PUSH2 0x305A DUP9 DUP3 DUP10 ADD PUSH2 0x2C34 JUMP JUMPDEST SWAP6 POP POP PUSH1 0x20 PUSH2 0x306B DUP9 DUP3 DUP10 ADD PUSH2 0x2AA6 JUMP JUMPDEST SWAP5 POP POP PUSH1 0x40 PUSH2 0x307C DUP9 DUP3 DUP10 ADD PUSH2 0x2AA6 JUMP JUMPDEST SWAP4 POP POP PUSH1 0x60 PUSH2 0x308D DUP9 DUP3 DUP10 ADD PUSH2 0x2AA6 JUMP JUMPDEST SWAP3 POP POP PUSH1 0x80 PUSH2 0x309E DUP9 DUP3 DUP10 ADD PUSH2 0x2AA6 JUMP JUMPDEST SWAP2 POP POP SWAP3 SWAP6 POP SWAP3 SWAP6 SWAP1 SWAP4 POP JUMP JUMPDEST PUSH1 0x0 DUP1 REVERT JUMPDEST PUSH1 0x0 DUP1 REVERT JUMPDEST PUSH1 0x0 DUP1 REVERT JUMPDEST PUSH1 0x0 DUP1 DUP4 PUSH1 0x1F DUP5 ADD SLT PUSH2 0x30D0 JUMPI PUSH2 0x30CF PUSH2 0x30AB JUMP JUMPDEST JUMPDEST DUP3 CALLDATALOAD SWAP1 POP PUSH8 0xFFFFFFFFFFFFFFFF DUP2 GT ISZERO PUSH2 0x30ED JUMPI PUSH2 0x30EC PUSH2 0x30B0 JUMP JUMPDEST JUMPDEST PUSH1 0x20 DUP4 ADD SWAP2 POP DUP4 PUSH1 0x20 DUP3 MUL DUP4 ADD GT ISZERO PUSH2 0x3109 JUMPI PUSH2 0x3108 PUSH2 0x30B5 JUMP JUMPDEST JUMPDEST SWAP3 POP SWAP3 SWAP1 POP JUMP JUMPDEST PUSH1 0x0 DUP1 DUP4 PUSH1 0x1F DUP5 ADD SLT PUSH2 0x3126 JUMPI PUSH2 0x3125 PUSH2 0x30AB JUMP JUMPDEST JUMPDEST DUP3 CALLDATALOAD SWAP1 POP PUSH8 0xFFFFFFFFFFFFFFFF DUP2 GT ISZERO PUSH2 0x3143 JUMPI PUSH2 0x3142 PUSH2 0x30B0 JUMP JUMPDEST JUMPDEST PUSH1 0x20 DUP4 ADD SWAP2 POP DUP4 PUSH1 0x20 DUP3 MUL DUP4 ADD GT ISZERO PUSH2 0x315F JUMPI PUSH2 0x315E PUSH2 0x30B5 JUMP JUMPDEST JUMPDEST SWAP3 POP SWAP3 SWAP1 POP JUMP JUMPDEST PUSH1 0x0 DUP1 DUP4 PUSH1 0x1F DUP5 ADD SLT PUSH2 0x317C JUMPI PUSH2 0x317B PUSH2 0x30AB JUMP JUMPDEST JUMPDEST DUP3 CALLDATALOAD SWAP1 POP PUSH8 0xFFFFFFFFFFFFFFFF DUP2 GT ISZERO PUSH2 0x3199 JUMPI PUSH2 0x3198 PUSH2 0x30B0 JUMP JUMPDEST JUMPDEST PUSH1 0x20 DUP4 ADD SWAP2 POP DUP4 PUSH1 0x20 DUP3 MUL DUP4 ADD GT ISZERO PUSH2 0x31B5 JUMPI PUSH2 0x31B4 PUSH2 0x30B5 JUMP JUMPDEST JUMPDEST SWAP3 POP SWAP3 SWAP1 POP JUMP JUMPDEST PUSH1 0x0 DUP1 PUSH1 0x0 DUP1 PUSH1 0x0 DUP1 PUSH1 0x60 DUP8 DUP10 SUB SLT ISZERO PUSH2 0x31D9 JUMPI PUSH2 0x31D8 PUSH2 0x29EA JUMP JUMPDEST JUMPDEST PUSH1 0x0 DUP8 ADD CALLDATALOAD PUSH8 0xFFFFFFFFFFFFFFFF DUP2 GT ISZERO PUSH2 0x31F7 JUMPI PUSH2 0x31F6 PUSH2 0x29EF JUMP JUMPDEST JUMPDEST PUSH2 0x3203 DUP10 DUP3 DUP11 ADD PUSH2 0x30BA JUMP JUMPDEST SWAP7 POP SWAP7 POP POP PUSH1 0x20 DUP8 ADD CALLDATALOAD PUSH8 0xFFFFFFFFFFFFFFFF DUP2 GT ISZERO PUSH2 0x3226 JUMPI PUSH2 0x3225 PUSH2 0x29EF JUMP JUMPDEST JUMPDEST PUSH2 0x3232 DUP10 DUP3 DUP11 ADD PUSH2 0x3110 JUMP JUMPDEST SWAP5 POP SWAP5 POP POP PUSH1 0x40 DUP8 ADD CALLDATALOAD PUSH8 0xFFFFFFFFFFFFFFFF DUP2 GT ISZERO PUSH2 0x3255 JUMPI PUSH2 0x3254 PUSH2 0x29EF JUMP JUMPDEST JUMPDEST PUSH2 0x3261 DUP10 DUP3 DUP11 ADD PUSH2 0x3166 JUMP JUMPDEST SWAP3 POP SWAP3 POP POP SWAP3 SWAP6 POP SWAP3 SWAP6 POP SWAP3 SWAP6 JUMP JUMPDEST PUSH1 0x0 PUSH1 0x20 DUP3 ADD SWAP1 POP PUSH2 0x3285 PUSH1 0x0 DUP4 ADD DUP5 PUSH2 0x2D7F JUMP JUMPDEST SWAP3 SWAP2 POP POP JUMP JUMPDEST PUSH1 0x0 DUP1 PUSH1 0x40 DUP4 DUP6 SUB SLT ISZERO PUSH2 0x32A2 JUMPI PUSH2 0x32A1 PUSH2 0x29EA JUMP JUMPDEST JUMPDEST PUSH1 0x0 PUSH2 0x32B0 DUP6 DUP3 DUP7 ADD PUSH2 0x2C34 JUMP JUMPDEST SWAP3 POP POP PUSH1 0x20 PUSH2 0x32C1 DUP6 DUP3 DUP7 ADD PUSH2 0x2AA6 JUMP JUMPDEST SWAP2 POP POP SWAP3 POP SWAP3 SWAP1 POP JUMP JUMPDEST PUSH1 0xC0 DUP3 ADD PUSH1 0x0 DUP3 ADD MLOAD PUSH2 0x32E1 PUSH1 0x0 DUP6 ADD DUP3 PUSH2 0x2F27 JUMP JUMPDEST POP PUSH1 0x20 DUP3 ADD MLOAD PUSH2 0x32F4 PUSH1 0x20 DUP6 ADD DUP3 PUSH2 0x2F27 JUMP JUMPDEST POP PUSH1 0x40 DUP3 ADD MLOAD PUSH2 0x3307 PUSH1 0x40 DUP6 ADD DUP3 PUSH2 0x2F27 JUMP JUMPDEST POP PUSH1 0x60 DUP3 ADD MLOAD PUSH2 0x331A PUSH1 0x60 DUP6 ADD DUP3 PUSH2 0x2F27 JUMP JUMPDEST POP PUSH1 0x80 DUP3 ADD MLOAD PUSH2 0x332D PUSH1 0x80 DUP6 ADD DUP3 PUSH2 0x2F27 JUMP JUMPDEST POP PUSH1 0xA0 DUP3 ADD MLOAD PUSH2 0x3340 PUSH1 0xA0 DUP6 ADD DUP3 PUSH2 0x2F27 JUMP JUMPDEST POP POP POP POP JUMP JUMPDEST PUSH1 0x0 PUSH1 0xC0 DUP3 ADD SWAP1 POP PUSH2 0x335B PUSH1 0x0 DUP4 ADD DUP5 PUSH2 0x32CB JUMP JUMPDEST SWAP3 SWAP2 POP POP JUMP JUMPDEST PUSH1 0x0 DUP1 PUSH1 0x0 DUP1 PUSH1 0x0 DUP1 PUSH1 0x0 DUP1 PUSH1 0x0 DUP1 PUSH1 0xA0 DUP12 DUP14 SUB SLT ISZERO PUSH2 0x3384 JUMPI PUSH2 0x3383 PUSH2 0x29EA JUMP JUMPDEST JUMPDEST PUSH1 0x0 DUP12 ADD CALLDATALOAD PUSH8 0xFFFFFFFFFFFFFFFF DUP2 GT ISZERO PUSH2 0x33A2 JUMPI PUSH2 0x33A1 PUSH2 0x29EF JUMP JUMPDEST JUMPDEST PUSH2 0x33AE DUP14 DUP3 DUP15 ADD PUSH2 0x3110 JUMP JUMPDEST SWAP11 POP SWAP11 POP POP PUSH1 0x20 DUP12 ADD CALLDATALOAD PUSH8 0xFFFFFFFFFFFFFFFF DUP2 GT ISZERO PUSH2 0x33D1 JUMPI PUSH2 0x33D0 PUSH2 0x29EF JUMP JUMPDEST JUMPDEST PUSH2 0x33DD DUP14 DUP3 DUP15 ADD PUSH2 0x3166 JUMP JUMPDEST SWAP9 POP SWAP9 POP POP PUSH1 0x40 DUP12 ADD CALLDATALOAD PUSH8 0xFFFFFFFFFFFFFFFF DUP2 GT ISZERO PUSH2 0x3400 JUMPI PUSH2 0x33FF PUSH2 0x29EF JUMP JUMPDEST JUMPDEST PUSH2 0x340C DUP14 DUP3 DUP15 ADD PUSH2 0x3166 JUMP JUMPDEST SWAP7 POP SWAP7 POP POP PUSH1 0x60 DUP12 ADD CALLDATALOAD PUSH8 0xFFFFFFFFFFFFFFFF DUP2 GT ISZERO PUSH2 0x342F JUMPI PUSH2 0x342E PUSH2 0x29EF JUMP JUMPDEST JUMPDEST PUSH2 0x343B DUP14 DUP3 DUP15 ADD PUSH2 0x3166 JUMP JUMPDEST SWAP5 POP SWAP5 POP POP PUSH1 0x80 DUP12 ADD CALLDATALOAD PUSH8 0xFFFFFFFFFFFFFFFF DUP2 GT ISZERO PUSH2 0x345E JUMPI PUSH2 0x345D PUSH2 0x29EF JUMP JUMPDEST JUMPDEST PUSH2 0x346A DUP14 DUP3 DUP15 ADD PUSH2 0x3166 JUMP JUMPDEST SWAP3 POP SWAP3 POP POP SWAP3 SWAP6 SWAP9 SWAP12 SWAP2 SWAP5 SWAP8 SWAP11 POP SWAP3 SWAP6 SWAP9 POP JUMP JUMPDEST PUSH1 0x0 DUP2 SWAP1 POP SWAP2 SWAP1 POP JUMP JUMPDEST PUSH1 0x0 PUSH2 0x34A3 PUSH2 0x349E PUSH2 0x3499 DUP5 PUSH2 0x2BC6 JUMP JUMPDEST PUSH2 0x347E JUMP JUMPDEST PUSH2 0x2BC6 JUMP JUMPDEST SWAP1 POP SWAP2 SWAP1 POP JUMP JUMPDEST PUSH1 0x0 PUSH2 0x34B5 DUP3 PUSH2 0x3488 JUMP JUMPDEST SWAP1 POP SWAP2 SWAP1 POP JUMP JUMPDEST PUSH1 0x0 PUSH2 0x34C7 DUP3 PUSH2 0x34AA JUMP JUMPDEST SWAP1 POP SWAP2 SWAP1 POP JUMP JUMPDEST PUSH2 0x34D7 DUP2 PUSH2 0x34BC JUMP JUMPDEST DUP3 MSTORE POP POP JUMP JUMPDEST PUSH1 0x0 PUSH1 0x20 DUP3 ADD SWAP1 POP PUSH2 0x34F2 PUSH1 0x0 DUP4 ADD DUP5 PUSH2 0x34CE JUMP JUMPDEST SWAP3 SWAP2 POP POP JUMP JUMPDEST PUSH1 0x0 DUP3 DUP3 MSTORE PUSH1 0x20 DUP3 ADD SWAP1 POP SWAP3 SWAP2 POP POP JUMP JUMPDEST PUSH32 0x56657374696E673A20426C6F636B205447452068617320706173736564000000 PUSH1 0x0 DUP3 ADD MSTORE POP JUMP JUMPDEST PUSH1 0x0 PUSH2 0x353F PUSH1 0x1D DUP4 PUSH2 0x34F8 JUMP JUMPDEST SWAP2 POP PUSH2 0x354A DUP3 PUSH2 0x3509 JUMP JUMPDEST PUSH1 0x20 DUP3 ADD SWAP1 POP SWAP2 SWAP1 POP JUMP JUMPDEST PUSH1 0x0 PUSH1 0x20 DUP3 ADD SWAP1 POP DUP2 DUP2 SUB PUSH1 0x0 DUP4 ADD MSTORE PUSH2 0x356E DUP2 PUSH2 0x3532 JUMP JUMPDEST SWAP1 POP SWAP2 SWAP1 POP JUMP JUMPDEST PUSH32 0x4E487B7100000000000000000000000000000000000000000000000000000000 PUSH1 0x0 MSTORE PUSH1 0x32 PUSH1 0x4 MSTORE PUSH1 0x24 PUSH1 0x0 REVERT JUMPDEST PUSH32 0x4E487B7100000000000000000000000000000000000000000000000000000000 PUSH1 0x0 MSTORE PUSH1 0x11 PUSH1 0x4 MSTORE PUSH1 0x24 PUSH1 0x0 REVERT JUMPDEST PUSH1 0x0 PUSH2 0x35DE DUP3 PUSH2 0x2A85 JUMP JUMPDEST SWAP2 POP PUSH32 0xFFFFFFFFFFFFFFFFFFFFFFFFFFFFFFFFFFFFFFFFFFFFFFFFFFFFFFFFFFFFFFFF DUP3 EQ ISZERO PUSH2 0x3611 JUMPI PUSH2 0x3610 PUSH2 0x35A4 JUMP JUMPDEST JUMPDEST PUSH1 0x1 DUP3 ADD SWAP1 POP SWAP2 SWAP1 POP JUMP JUMPDEST PUSH32 0x56657374696E673A20546F6F206D616E7920617267756D656E74730000000000 PUSH1 0x0 DUP3 ADD MSTORE POP JUMP JUMPDEST PUSH1 0x0 PUSH2 0x3652 PUSH1 0x1B DUP4 PUSH2 0x34F8 JUMP JUMPDEST SWAP2 POP PUSH2 0x365D DUP3 PUSH2 0x361C JUMP JUMPDEST PUSH1 0x20 DUP3 ADD SWAP1 POP SWAP2 SWAP1 POP JUMP JUMPDEST PUSH1 0x0 PUSH1 0x20 DUP3 ADD SWAP1 POP DUP2 DUP2 SUB PUSH1 0x0 DUP4 ADD MSTORE PUSH2 0x3681 DUP2 PUSH2 0x3645 JUMP JUMPDEST SWAP1 POP SWAP2 SWAP1 POP JUMP JUMPDEST PUSH32 0x56657374696E673A204C656E677468206D69736D617463680000000000000000 PUSH1 0x0 DUP3 ADD MSTORE POP JUMP JUMPDEST PUSH1 0x0 PUSH2 0x36BE PUSH1 0x18 DUP4 PUSH2 0x34F8 JUMP JUMPDEST SWAP2 POP PUSH2 0x36C9 DUP3 PUSH2 0x3688 JUMP JUMPDEST PUSH1 0x20 DUP3 ADD SWAP1 POP SWAP2 SWAP1 POP JUMP JUMPDEST PUSH1 0x0 PUSH1 0x20 DUP3 ADD SWAP1 POP DUP2 DUP2 SUB PUSH1 0x0 DUP4 ADD MSTORE PUSH2 0x36ED DUP2 PUSH2 0x36B1 JUMP JUMPDEST SWAP1 POP SWAP2 SWAP1 POP JUMP JUMPDEST PUSH32 0x56657374696E673A20416D6F756E742065786365656473206D61782073757070 PUSH1 0x0 DUP3 ADD MSTORE PUSH32 0x6C79000000000000000000000000000000000000000000000000000000000000 PUSH1 0x20 DUP3 ADD MSTORE POP JUMP JUMPDEST PUSH1 0x0 PUSH2 0x3750 PUSH1 0x22 DUP4 PUSH2 0x34F8 JUMP JUMPDEST SWAP2 POP PUSH2 0x375B DUP3 PUSH2 0x36F4 JUMP JUMPDEST PUSH1 0x40 DUP3 ADD SWAP1 POP SWAP2 SWAP1 POP JUMP JUMPDEST PUSH1 0x0 PUSH1 0x20 DUP3 ADD SWAP1 POP DUP2 DUP2 SUB PUSH1 0x0 DUP4 ADD MSTORE PUSH2 0x377F DUP2 PUSH2 0x3743 JUMP JUMPDEST SWAP1 POP SWAP2 SWAP1 POP JUMP JUMPDEST PUSH32 0x56657374696E673A20426C6F636B2054474520616C7265616479207365740000 PUSH1 0x0 DUP3 ADD MSTORE POP JUMP JUMPDEST PUSH1 0x0 PUSH2 0x37BC PUSH1 0x1E DUP4 PUSH2 0x34F8 JUMP JUMPDEST SWAP2 POP PUSH2 0x37C7 DUP3 PUSH2 0x3786 JUMP JUMPDEST PUSH1 0x20 DUP3 ADD SWAP1 POP SWAP2 SWAP1 POP JUMP JUMPDEST PUSH1 0x0 PUSH1 0x20 DUP3 ADD SWAP1 POP DUP2 DUP2 SUB PUSH1 0x0 DUP4 ADD MSTORE PUSH2 0x37EB DUP2 PUSH2 0x37AF JUMP JUMPDEST SWAP1 POP SWAP2 SWAP1 POP JUMP JUMPDEST PUSH32 0x56657374696E673A2053686F756C642073657420626C6F636B20696E20667574 PUSH1 0x0 DUP3 ADD MSTORE PUSH32 0x7572650000000000000000000000000000000000000000000000000000000000 PUSH1 0x20 DUP3 ADD MSTORE POP JUMP JUMPDEST PUSH1 0x0 PUSH2 0x384E PUSH1 0x23 DUP4 PUSH2 0x34F8 JUMP JUMPDEST SWAP2 POP PUSH2 0x3859 DUP3 PUSH2 0x37F2 JUMP JUMPDEST PUSH1 0x40 DUP3 ADD SWAP1 POP SWAP2 SWAP1 POP JUMP JUMPDEST PUSH1 0x0 PUSH1 0x20 DUP3 ADD SWAP1 POP DUP2 DUP2 SUB PUSH1 0x0 DUP4 ADD MSTORE PUSH2 0x387D DUP2 PUSH2 0x3841 JUMP JUMPDEST SWAP1 POP SWAP2 SWAP1 POP JUMP JUMPDEST PUSH1 0x0 PUSH2 0x388F DUP3 PUSH2 0x2A85 JUMP JUMPDEST SWAP2 POP PUSH2 0x389A DUP4 PUSH2 0x2A85 JUMP JUMPDEST SWAP3 POP DUP2 PUSH32 0xFFFFFFFFFFFFFFFFFFFFFFFFFFFFFFFFFFFFFFFFFFFFFFFFFFFFFFFFFFFFFFFF DIV DUP4 GT DUP3 ISZERO ISZERO AND ISZERO PUSH2 0x38D3 JUMPI PUSH2 0x38D2 PUSH2 0x35A4 JUMP JUMPDEST JUMPDEST DUP3 DUP3 MUL SWAP1 POP SWAP3 SWAP2 POP POP JUMP JUMPDEST PUSH32 0x56657374696E673A20546869732076657374696E6720646F65736E2774206578 PUSH1 0x0 DUP3 ADD MSTORE PUSH32 0x6973740000000000000000000000000000000000000000000000000000000000 PUSH1 0x20 DUP3 ADD MSTORE POP JUMP JUMPDEST PUSH1 0x0 PUSH2 0x393A PUSH1 0x23 DUP4 PUSH2 0x34F8 JUMP JUMPDEST SWAP2 POP PUSH2 0x3945 DUP3 PUSH2 0x38DE JUMP JUMPDEST PUSH1 0x40 DUP3 ADD SWAP1 POP SWAP2 SWAP1 POP JUMP JUMPDEST PUSH1 0x0 PUSH1 0x20 DUP3 ADD SWAP1 POP DUP2 DUP2 SUB PUSH1 0x0 DUP4 ADD MSTORE PUSH2 0x3969 DUP2 PUSH2 0x392D JUMP JUMPDEST SWAP1 POP SWAP2 SWAP1 POP JUMP JUMPDEST PUSH32 0x4F776E61626C653A206E6577206F776E657220697320746865207A65726F2061 PUSH1 0x0 DUP3 ADD MSTORE PUSH32 0x6464726573730000000000000000000000000000000000000000000000000000 PUSH1 0x20 DUP3 ADD MSTORE POP JUMP JUMPDEST PUSH1 0x0 PUSH2 0x39CC PUSH1 0x26 DUP4 PUSH2 0x34F8 JUMP JUMPDEST SWAP2 POP PUSH2 0x39D7 DUP3 PUSH2 0x3970 JUMP JUMPDEST PUSH1 0x40 DUP3 ADD SWAP1 POP SWAP2 SWAP1 POP JUMP JUMPDEST PUSH1 0x0 PUSH1 0x20 DUP3 ADD SWAP1 POP DUP2 DUP2 SUB PUSH1 0x0 DUP4 ADD MSTORE PUSH2 0x39FB DUP2 PUSH2 0x39BF JUMP JUMPDEST SWAP1 POP SWAP2 SWAP1 POP JUMP JUMPDEST PUSH1 0x0 PUSH2 0x3A0D DUP3 PUSH2 0x2A85 JUMP JUMPDEST SWAP2 POP PUSH2 0x3A18 DUP4 PUSH2 0x2A85 JUMP JUMPDEST SWAP3 POP DUP3 DUP3 LT ISZERO PUSH2 0x3A2B JUMPI PUSH2 0x3A2A PUSH2 0x35A4 JUMP JUMPDEST JUMPDEST DUP3 DUP3 SUB SWAP1 POP SWAP3 SWAP2 POP POP JUMP JUMPDEST PUSH1 0x0 PUSH2 0x3A41 DUP3 PUSH2 0x2A85 JUMP JUMPDEST SWAP2 POP PUSH2 0x3A4C DUP4 PUSH2 0x2A85 JUMP JUMPDEST SWAP3 POP DUP3 PUSH32 0xFFFFFFFFFFFFFFFFFFFFFFFFFFFFFFFFFFFFFFFFFFFFFFFFFFFFFFFFFFFFFFFF SUB DUP3 GT ISZERO PUSH2 0x3A81 JUMPI PUSH2 0x3A80 PUSH2 0x35A4 JUMP JUMPDEST JUMPDEST DUP3 DUP3 ADD SWAP1 POP SWAP3 SWAP2 POP POP JUMP JUMPDEST PUSH1 0x0 PUSH1 0x40 DUP3 ADD SWAP1 POP PUSH2 0x3AA1 PUSH1 0x0 DUP4 ADD DUP6 PUSH2 0x2D7F JUMP JUMPDEST PUSH2 0x3AAE PUSH1 0x20 DUP4 ADD DUP5 PUSH2 0x2B9C JUMP JUMPDEST SWAP4 SWAP3 POP POP POP JUMP JUMPDEST PUSH32 0x4F776E61626C653A2063616C6C6572206973206E6F7420746865206F776E6572 PUSH1 0x0 DUP3 ADD MSTORE POP JUMP JUMPDEST PUSH1 0x0 PUSH2 0x3AEB PUSH1 0x20 DUP4 PUSH2 0x34F8 JUMP JUMPDEST SWAP2 POP PUSH2 0x3AF6 DUP3 PUSH2 0x3AB5 JUMP JUMPDEST PUSH1 0x20 DUP3 ADD SWAP1 POP SWAP2 SWAP1 POP JUMP JUMPDEST PUSH1 0x0 PUSH1 0x20 DUP3 ADD SWAP1 POP DUP2 DUP2 SUB PUSH1 0x0 DUP4 ADD MSTORE PUSH2 0x3B1A DUP2 PUSH2 0x3ADE JUMP JUMPDEST SWAP1 POP SWAP2 SWAP1 POP JUMP JUMPDEST PUSH32 0x56657374696E673A20416C726561647920696E76657374656400000000000000 PUSH1 0x0 DUP3 ADD MSTORE POP JUMP JUMPDEST PUSH1 0x0 PUSH2 0x3B57 PUSH1 0x19 DUP4 PUSH2 0x34F8 JUMP JUMPDEST SWAP2 POP PUSH2 0x3B62 DUP3 PUSH2 0x3B21 JUMP JUMPDEST PUSH1 0x20 DUP3 ADD SWAP1 POP SWAP2 SWAP1 POP JUMP JUMPDEST PUSH1 0x0 PUSH1 0x20 DUP3 ADD SWAP1 POP DUP2 DUP2 SUB PUSH1 0x0 DUP4 ADD MSTORE PUSH2 0x3B86 DUP2 PUSH2 0x3B4A JUMP JUMPDEST SWAP1 POP SWAP2 SWAP1 POP JUMP JUMPDEST PUSH32 0x56657374696E673A20496E7375666973616E74206C6F636B656420737570706C PUSH1 0x0 DUP3 ADD MSTORE PUSH32 0x7900000000000000000000000000000000000000000000000000000000000000 PUSH1 0x20 DUP3 ADD MSTORE POP JUMP JUMPDEST PUSH1 0x0 PUSH2 0x3BE9 PUSH1 0x21 DUP4 PUSH2 0x34F8 JUMP JUMPDEST SWAP2 POP PUSH2 0x3BF4 DUP3 PUSH2 0x3B8D JUMP JUMPDEST PUSH1 0x40 DUP3 ADD SWAP1 POP SWAP2 SWAP1 POP JUMP JUMPDEST PUSH1 0x0 PUSH1 0x20 DUP3 ADD SWAP1 POP DUP2 DUP2 SUB PUSH1 0x0 DUP4 ADD MSTORE PUSH2 0x3C18 DUP2 PUSH2 0x3BDC JUMP JUMPDEST SWAP1 POP SWAP2 SWAP1 POP JUMP JUMPDEST PUSH1 0x0 PUSH1 0xA0 DUP3 ADD SWAP1 POP PUSH2 0x3C34 PUSH1 0x0 DUP4 ADD DUP9 PUSH2 0x2DF6 JUMP JUMPDEST PUSH2 0x3C41 PUSH1 0x20 DUP4 ADD DUP8 PUSH2 0x2B9C JUMP JUMPDEST PUSH2 0x3C4E PUSH1 0x40 DUP4 ADD DUP7 PUSH2 0x2B9C JUMP JUMPDEST PUSH2 0x3C5B PUSH1 0x60 DUP4 ADD DUP6 PUSH2 0x2B9C JUMP JUMPDEST PUSH2 0x3C68 PUSH1 0x80 DUP4 ADD DUP5 PUSH2 0x2B9C JUMP JUMPDEST SWAP7 SWAP6 POP POP POP POP POP POP JUMP JUMPDEST PUSH1 0x0 PUSH1 0x60 DUP3 ADD SWAP1 POP PUSH2 0x3C87 PUSH1 0x0 DUP4 ADD DUP7 PUSH2 0x2D7F JUMP JUMPDEST PUSH2 0x3C94 PUSH1 0x20 DUP4 ADD DUP6 PUSH2 0x2D7F JUMP JUMPDEST PUSH2 0x3CA1 PUSH1 0x40 DUP4 ADD DUP5 PUSH2 0x2B9C JUMP JUMPDEST SWAP5 SWAP4 POP POP POP POP JUMP JUMPDEST PUSH32 0x4E487B7100000000000000000000000000000000000000000000000000000000 PUSH1 0x0 MSTORE PUSH1 0x12 PUSH1 0x4 MSTORE PUSH1 0x24 PUSH1 0x0 REVERT JUMPDEST PUSH1 0x0 PUSH2 0x3CE3 DUP3 PUSH2 0x2A85 JUMP JUMPDEST SWAP2 POP PUSH2 0x3CEE DUP4 PUSH2 0x2A85 JUMP JUMPDEST SWAP3 POP DUP3 PUSH2 0x3CFE JUMPI PUSH2 0x3CFD PUSH2 0x3CA9 JUMP JUMPDEST JUMPDEST DUP3 DUP3 DIV SWAP1 POP SWAP3 SWAP2 POP POP JUMP JUMPDEST PUSH1 0x0 DUP2 ISZERO ISZERO SWAP1 POP SWAP2 SWAP1 POP JUMP JUMPDEST PUSH2 0x3D1E DUP2 PUSH2 0x3D09 JUMP JUMPDEST DUP2 EQ PUSH2 0x3D29 JUMPI PUSH1 0x0 DUP1 REVERT JUMPDEST POP JUMP JUMPDEST PUSH1 0x0 DUP2 MLOAD SWAP1 POP PUSH2 0x3D3B DUP2 PUSH2 0x3D15 JUMP JUMPDEST SWAP3 SWAP2 POP POP JUMP JUMPDEST PUSH1 0x0 PUSH1 0x20 DUP3 DUP5 SUB SLT ISZERO PUSH2 0x3D57 JUMPI PUSH2 0x3D56 PUSH2 0x29EA JUMP JUMPDEST JUMPDEST PUSH1 0x0 PUSH2 0x3D65 DUP5 DUP3 DUP6 ADD PUSH2 0x3D2C JUMP JUMPDEST SWAP2 POP POP SWAP3 SWAP2 POP POP JUMP JUMPDEST PUSH32 0x5361666545524332303A204552433230206F7065726174696F6E20646964206E PUSH1 0x0 DUP3 ADD MSTORE PUSH32 0x6F74207375636365656400000000000000000000000000000000000000000000 PUSH1 0x20 DUP3 ADD MSTORE POP JUMP JUMPDEST PUSH1 0x0 PUSH2 0x3DCA PUSH1 0x2A DUP4 PUSH2 0x34F8 JUMP JUMPDEST SWAP2 POP PUSH2 0x3DD5 DUP3 PUSH2 0x3D6E JUMP JUMPDEST PUSH1 0x40 DUP3 ADD SWAP1 POP SWAP2 SWAP1 POP JUMP JUMPDEST PUSH1 0x0 PUSH1 0x20 DUP3 ADD SWAP1 POP DUP2 DUP2 SUB PUSH1 0x0 DUP4 ADD MSTORE PUSH2 0x3DF9 DUP2 PUSH2 0x3DBD JUMP JUMPDEST SWAP1 POP SWAP2 SWAP1 POP JUMP JUMPDEST PUSH32 0x4E487B7100000000000000000000000000000000000000000000000000000000 PUSH1 0x0 MSTORE PUSH1 0x31 PUSH1 0x4 MSTORE PUSH1 0x24 PUSH1 0x0 REVERT JUMPDEST PUSH32 0x416464726573733A20696E73756666696369656E742062616C616E636520666F PUSH1 0x0 DUP3 ADD MSTORE PUSH32 0x722063616C6C0000000000000000000000000000000000000000000000000000 PUSH1 0x20 DUP3 ADD MSTORE POP JUMP JUMPDEST PUSH1 0x0 PUSH2 0x3E8B PUSH1 0x26 DUP4 PUSH2 0x34F8 JUMP JUMPDEST SWAP2 POP PUSH2 0x3E96 DUP3 PUSH2 0x3E2F JUMP JUMPDEST PUSH1 0x40 DUP3 ADD SWAP1 POP SWAP2 SWAP1 POP JUMP JUMPDEST PUSH1 0x0 PUSH1 0x20 DUP3 ADD SWAP1 POP DUP2 DUP2 SUB PUSH1 0x0 DUP4 ADD MSTORE PUSH2 0x3EBA DUP2 PUSH2 0x3E7E JUMP JUMPDEST SWAP1 POP SWAP2 SWAP1 POP JUMP JUMPDEST PUSH1 0x0 DUP2 MLOAD SWAP1 POP SWAP2 SWAP1 POP JUMP JUMPDEST PUSH1 0x0 DUP2 SWAP1 POP SWAP3 SWAP2 POP POP JUMP JUMPDEST PUSH1 0x0 JUMPDEST DUP4 DUP2 LT ISZERO PUSH2 0x3EF5 JUMPI DUP1 DUP3 ADD MLOAD DUP2 DUP5 ADD MSTORE PUSH1 0x20 DUP2 ADD SWAP1 POP PUSH2 0x3EDA JUMP JUMPDEST DUP4 DUP2 GT ISZERO PUSH2 0x3F04 JUMPI PUSH1 0x0 DUP5 DUP5 ADD MSTORE JUMPDEST POP POP POP POP JUMP JUMPDEST PUSH1 0x0 PUSH2 0x3F15 DUP3 PUSH2 0x3EC1 JUMP JUMPDEST PUSH2 0x3F1F DUP2 DUP6 PUSH2 0x3ECC JUMP JUMPDEST SWAP4 POP PUSH2 0x3F2F DUP2 DUP6 PUSH1 0x20 DUP7 ADD PUSH2 0x3ED7 JUMP JUMPDEST DUP1 DUP5 ADD SWAP2 POP POP SWAP3 SWAP2 POP POP JUMP JUMPDEST PUSH1 0x0 PUSH2 0x3F47 DUP3 DUP5 PUSH2 0x3F0A JUMP JUMPDEST SWAP2 POP DUP2 SWAP1 POP SWAP3 SWAP2 POP POP JUMP JUMPDEST PUSH32 0x416464726573733A2063616C6C20746F206E6F6E2D636F6E7472616374000000 PUSH1 0x0 DUP3 ADD MSTORE POP JUMP JUMPDEST PUSH1 0x0 PUSH2 0x3F88 PUSH1 0x1D DUP4 PUSH2 0x34F8 JUMP JUMPDEST SWAP2 POP PUSH2 0x3F93 DUP3 PUSH2 0x3F52 JUMP JUMPDEST PUSH1 0x20 DUP3 ADD SWAP1 POP SWAP2 SWAP1 POP JUMP JUMPDEST PUSH1 0x0 PUSH1 0x20 DUP3 ADD SWAP1 POP DUP2 DUP2 SUB PUSH1 0x0 DUP4 ADD MSTORE PUSH2 0x3FB7 DUP2 PUSH2 0x3F7B JUMP JUMPDEST SWAP1 POP SWAP2 SWAP1 POP JUMP JUMPDEST PUSH1 0x0 DUP2 MLOAD SWAP1 POP SWAP2 SWAP1 POP JUMP JUMPDEST PUSH1 0x0 PUSH2 0x3FD4 DUP3 PUSH2 0x3FBE JUMP JUMPDEST PUSH2 0x3FDE DUP2 DUP6 PUSH2 0x34F8 JUMP JUMPDEST SWAP4 POP PUSH2 0x3FEE DUP2 DUP6 PUSH1 0x20 DUP7 ADD PUSH2 0x3ED7 JUMP JUMPDEST PUSH2 0x3FF7 DUP2 PUSH2 0x29F9 JUMP JUMPDEST DUP5 ADD SWAP2 POP POP SWAP3 SWAP2 POP POP JUMP JUMPDEST PUSH1 0x0 PUSH1 0x20 DUP3 ADD SWAP1 POP DUP2 DUP2 SUB PUSH1 0x0 DUP4 ADD MSTORE PUSH2 0x401C DUP2 DUP5 PUSH2 0x3FC9 JUMP JUMPDEST SWAP1 POP SWAP3 SWAP2 POP POP JUMP INVALID LOG2 PUSH5 0x6970667358 0x22 SLT KECCAK256 0xD7 STOP INVALID JUMP PUSH28 0xE014B3FEA9A6EA0D470C10127494F0C445B450C76EAF84BA0EECED64 PUSH20 0x6F6C634300080A00330000000000000000000000 "},"methodIdentifiers":{"BLOCKS_PER_MONTH()":"c409084a","MAX_LENGTH()":"a6f9885c","PERCENTAGE_100()":"cbf5a55e","PERIOD_DURATION()":"6558954f","PRECISION()":"aaf5eb68","addVesting(address,uint8,uint256)":"7ba17f4e","addVestingBatch(address[],uint8[],uint256[])":"87b3306f","balanceOf(address)":"70a08231","balanceOfSale(address,uint8)":"3a560bad","blockTGE()":"5f43793c","cancelVesting(address,uint8)":"f1af3c3f","claim()":"4e71d92d","countOwnedVestings(address)":"57b89adb","emptyStage(uint8)":"774b8c38","getCurrentSupply((uint256,uint256,uint256,uint256,uint256,uint256,uint256))":"83ded106","getListVestings(uint256,uint256)":"81a63b18","getStageInfo(uint8)":"9d104770","getUnlocatedSupply((uint256,uint256,uint256,uint256,uint256,uint256,uint256))":"19af64ba","getVestingIndex(address,uint8)":"48bb6511","owner()":"8da5cb5b","refillStage(uint8,uint256)":"9a21e6d2","renounceOwnership()":"715018a6","setBlockTGE(uint256)":"a3cf7c2f","setStage(uint8,uint256,uint256,uint256,uint256)":"8499f883","setStageBatch(uint8[],uint256[],uint256[],uint256[],uint256[])":"bed47f15","stageInfo(uint8)":"63c0d0d4","token()":"fc0c546a","transferOwnership(address)":"f2fde38b","vestingInfo(uint256)":"66ffcf5f"}},"userdoc":{"kind":"user","methods":{},"version":1}}}}