{"contracts/mocks/VestingMock.sol":{"VestingMock":{"abi":[{"inputs":[{"internalType":"address","name":"tokenAddress","type":"address"}],"stateMutability":"nonpayable","type":"constructor"},{"anonymous":false,"inputs":[{"indexed":true,"internalType":"address","name":"previousOwner","type":"address"},{"indexed":true,"internalType":"address","name":"newOwner","type":"address"}],"name":"OwnershipTransferred","type":"event"},{"anonymous":false,"inputs":[{"indexed":true,"internalType":"enum IVesting.Sale","name":"sale","type":"uint8"},{"indexed":false,"internalType":"uint256","name":"amountEmptied","type":"uint256"}],"name":"StageEmptied","type":"event"},{"anonymous":false,"inputs":[{"indexed":true,"internalType":"enum IVesting.Sale","name":"sale","type":"uint8"},{"indexed":false,"internalType":"uint256","name":"amountRefilled","type":"uint256"}],"name":"StageRefilled","type":"event"},{"anonymous":false,"inputs":[{"indexed":false,"internalType":"enum IVesting.Sale","name":"sale","type":"uint8"},{"indexed":false,"internalType":"uint256","name":"maxSupply","type":"uint256"},{"indexed":false,"internalType":"uint256","name":"releaseTGE","type":"uint256"},{"indexed":false,"internalType":"uint256","name":"cliff","type":"uint256"},{"indexed":false,"internalType":"uint256","name":"period","type":"uint256"}],"name":"StageSet","type":"event"},{"anonymous":false,"inputs":[{"indexed":true,"internalType":"uint256","name":"vestingIndex","type":"uint256"},{"indexed":true,"internalType":"address","name":"wallet","type":"address"},{"indexed":false,"internalType":"uint256","name":"amountVested","type":"uint256"}],"name":"VestingAdded","type":"event"},{"anonymous":false,"inputs":[{"indexed":true,"internalType":"uint256","name":"vestingIndex","type":"uint256"},{"indexed":true,"internalType":"address","name":"wallet","type":"address"},{"indexed":false,"internalType":"uint256","name":"amountUnvested","type":"uint256"}],"name":"VestingCanceled","type":"event"},{"anonymous":false,"inputs":[{"indexed":true,"internalType":"uint256","name":"vestingIndex","type":"uint256"},{"indexed":true,"internalType":"address","name":"wallet","type":"address"},{"indexed":false,"internalType":"uint256","name":"amountClaimed","type":"uint256"}],"name":"VestingClaimed","type":"event"},{"inputs":[],"name":"BLOCKS_PER_MONTH","outputs":[{"internalType":"uint256","name":"","type":"uint256"}],"stateMutability":"view","type":"function"},{"inputs":[],"name":"BLOCKS_TEST","outputs":[{"internalType":"uint256","name":"","type":"uint256"}],"stateMutability":"view","type":"function"},{"inputs":[],"name":"MAX_LENGTH","outputs":[{"internalType":"uint256","name":"","type":"uint256"}],"stateMutability":"view","type":"function"},{"inputs":[],"name":"PERCENTAGE_100","outputs":[{"internalType":"uint256","name":"","type":"uint256"}],"stateMutability":"view","type":"function"},{"inputs":[],"name":"PERIOD_DURATION","outputs":[{"internalType":"uint256","name":"","type":"uint256"}],"stateMutability":"view","type":"function"},{"inputs":[],"name":"PRECISION","outputs":[{"internalType":"uint256","name":"","type":"uint256"}],"stateMutability":"view","type":"function"},{"inputs":[{"internalType":"address","name":"wallet","type":"address"},{"internalType":"enum IVesting.Sale","name":"sale","type":"uint8"},{"internalType":"uint256","name":"amount","type":"uint256"}],"name":"addVesting","outputs":[],"stateMutability":"nonpayable","type":"function"},{"inputs":[{"internalType":"address[]","name":"wallets","type":"address[]"},{"internalType":"enum IVesting.Sale[]","name":"sales","type":"uint8[]"},{"internalType":"uint256[]","name":"amounts","type":"uint256[]"}],"name":"addVestingBatch","outputs":[],"stateMutability":"nonpayable","type":"function"},{"inputs":[{"internalType":"address","name":"wallet","type":"address"}],"name":"balanceOf","outputs":[{"internalType":"uint256","name":"","type":"uint256"}],"stateMutability":"view","type":"function"},{"inputs":[{"internalType":"address","name":"wallet","type":"address"},{"internalType":"enum IVesting.Sale","name":"sale","type":"uint8"}],"name":"balanceOfSale","outputs":[{"internalType":"uint256","name":"","type":"uint256"}],"stateMutability":"view","type":"function"},{"inputs":[],"name":"blockTGE","outputs":[{"internalType":"uint256","name":"","type":"uint256"}],"stateMutability":"view","type":"function"},{"inputs":[{"internalType":"address","name":"wallet","type":"address"},{"internalType":"enum IVesting.Sale","name":"sale","type":"uint8"}],"name":"cancelVesting","outputs":[],"stateMutability":"nonpayable","type":"function"},{"inputs":[],"name":"claim","outputs":[],"stateMutability":"nonpayable","type":"function"},{"inputs":[{"internalType":"address","name":"wallet","type":"address"}],"name":"countOwnedVestings","outputs":[{"internalType":"uint256","name":"","type":"uint256"}],"stateMutability":"view","type":"function"},{"inputs":[{"internalType":"enum IVesting.Sale","name":"sale","type":"uint8"}],"name":"emptyStage","outputs":[],"stateMutability":"nonpayable","type":"function"},{"inputs":[{"components":[{"internalType":"uint256","name":"maxSupply","type":"uint256"},{"internalType":"uint256","name":"lockedSupply","type":"uint256"},{"internalType":"uint256","name":"vestedSupply","type":"uint256"},{"internalType":"uint256","name":"claimedSupply","type":"uint256"},{"internalType":"uint256","name":"releaseTGE","type":"uint256"},{"internalType":"uint256","name":"cliff","type":"uint256"},{"internalType":"uint256","name":"period","type":"uint256"}],"internalType":"struct IVesting.StageInfo","name":"stage","type":"tuple"}],"name":"getCurrentSupply","outputs":[{"internalType":"uint256","name":"","type":"uint256"}],"stateMutability":"pure","type":"function"},{"inputs":[{"internalType":"uint256","name":"offset","type":"uint256"},{"internalType":"uint256","name":"limit","type":"uint256"}],"name":"getListVestings","outputs":[{"components":[{"internalType":"address","name":"wallet","type":"address"},{"internalType":"enum IVesting.Sale","name":"sale","type":"uint8"},{"internalType":"uint256","name":"amount","type":"uint256"},{"internalType":"uint256","name":"paid","type":"uint256"}],"internalType":"struct IVesting.VestingInfo[]","name":"vestingInfos","type":"tuple[]"}],"stateMutability":"view","type":"function"},{"inputs":[{"internalType":"enum IVesting.Sale","name":"sale","type":"uint8"}],"name":"getStageInfo","outputs":[{"components":[{"internalType":"uint256","name":"maxSupply","type":"uint256"},{"internalType":"uint256","name":"lockedSupply","type":"uint256"},{"internalType":"uint256","name":"currentSupply","type":"uint256"},{"internalType":"uint256","name":"vestedSupply","type":"uint256"},{"internalType":"uint256","name":"claimedSupply","type":"uint256"},{"internalType":"uint256","name":"unalocatedSupply","type":"uint256"}],"internalType":"struct IVesting.StagePublicInfo","name":"stagePublicInfo","type":"tuple"}],"stateMutability":"view","type":"function"},{"inputs":[{"components":[{"internalType":"uint256","name":"maxSupply","type":"uint256"},{"internalType":"uint256","name":"lockedSupply","type":"uint256"},{"internalType":"uint256","name":"vestedSupply","type":"uint256"},{"internalType":"uint256","name":"claimedSupply","type":"uint256"},{"internalType":"uint256","name":"releaseTGE","type":"uint256"},{"internalType":"uint256","name":"cliff","type":"uint256"},{"internalType":"uint256","name":"period","type":"uint256"}],"internalType":"struct IVesting.StageInfo","name":"stage","type":"tuple"}],"name":"getUnlocatedSupply","outputs":[{"internalType":"uint256","name":"","type":"uint256"}],"stateMutability":"pure","type":"function"},{"inputs":[{"internalType":"address","name":"wallet","type":"address"},{"internalType":"enum IVesting.Sale","name":"sale","type":"uint8"}],"name":"getVestingIndex","outputs":[{"internalType":"uint256","name":"","type":"uint256"}],"stateMutability":"view","type":"function"},{"inputs":[],"name":"owner","outputs":[{"internalType":"address","name":"","type":"address"}],"stateMutability":"view","type":"function"},{"inputs":[{"internalType":"enum IVesting.Sale","name":"sale","type":"uint8"},{"internalType":"uint256","name":"amountToRefill","type":"uint256"}],"name":"refillStage","outputs":[],"stateMutability":"nonpayable","type":"function"},{"inputs":[],"name":"renounceOwnership","outputs":[],"stateMutability":"nonpayable","type":"function"},{"inputs":[{"internalType":"uint256","name":"_blockTGE","type":"uint256"}],"name":"setBlockTGE","outputs":[],"stateMutability":"nonpayable","type":"function"},{"inputs":[{"internalType":"enum IVesting.Sale","name":"sale","type":"uint8"},{"internalType":"uint256","name":"maxSupply","type":"uint256"},{"internalType":"uint256","name":"releaseTGE","type":"uint256"},{"internalType":"uint256","name":"cliff","type":"uint256"},{"internalType":"uint256","name":"period","type":"uint256"}],"name":"setStage","outputs":[],"stateMutability":"nonpayable","type":"function"},{"inputs":[{"internalType":"enum IVesting.Sale[]","name":"sales","type":"uint8[]"},{"internalType":"uint256[]","name":"maxSupplies","type":"uint256[]"},{"internalType":"uint256[]","name":"releasesTGE","type":"uint256[]"},{"internalType":"uint256[]","name":"cliffs","type":"uint256[]"},{"internalType":"uint256[]","name":"periods","type":"uint256[]"}],"name":"setStageBatch","outputs":[],"stateMutability":"nonpayable","type":"function"},{"inputs":[{"internalType":"enum IVesting.Sale","name":"","type":"uint8"}],"name":"stageInfo","outputs":[{"internalType":"uint256","name":"maxSupply","type":"uint256"},{"internalType":"uint256","name":"lockedSupply","type":"uint256"},{"internalType":"uint256","name":"vestedSupply","type":"uint256"},{"internalType":"uint256","name":"claimedSupply","type":"uint256"},{"internalType":"uint256","name":"releaseTGE","type":"uint256"},{"internalType":"uint256","name":"cliff","type":"uint256"},{"internalType":"uint256","name":"period","type":"uint256"}],"stateMutability":"view","type":"function"},{"inputs":[],"name":"token","outputs":[{"internalType":"contract IERC20","name":"","type":"address"}],"stateMutability":"view","type":"function"},{"inputs":[{"internalType":"address","name":"newOwner","type":"address"}],"name":"transferOwnership","outputs":[],"stateMutability":"nonpayable","type":"function"},{"inputs":[{"internalType":"uint256","name":"","type":"uint256"}],"name":"vestingInfo","outputs":[{"internalType":"address","name":"wallet","type":"address"},{"internalType":"enum IVesting.Sale","name":"sale","type":"uint8"},{"internalType":"uint256","name":"amount","type":"uint256"},{"internalType":"uint256","name":"paid","type":"uint256"}],"stateMutability":"view","type":"function"}],"devdoc":{"kind":"dev","methods":{"getListVestings(uint256,uint256)":{"details":"use with countOwnedVestings() if listOption == ListOption.OWNED"},"owner()":{"details":"Returns the address of the current owner."},"renounceOwnership()":{"details":"Leaves the contract without owner. It will not be possible to call `onlyOwner` functions anymore. Can only be called by the current owner. NOTE: Renouncing ownership will leave the contract without an owner, thereby removing any functionality that is only available to the owner."},"transferOwnership(address)":{"details":"Transfers ownership of the contract to a new account (`newOwner`). Can only be called by the current owner."}},"version":1},"evm":{"bytecode":{"linkReferences":{},"object":"60806040523480156200001157600080fd5b50604051620042a5380380620042a58339818101604052810190620000379190620001df565b80620000586200004c620000a960201b60201c565b620000b160201b60201c565b600160048190555080600160006101000a81548173ffffffffffffffffffffffffffffffffffffffff021916908373ffffffffffffffffffffffffffffffffffffffff160217905550505062000211565b600033905090565b60008060009054906101000a900473ffffffffffffffffffffffffffffffffffffffff169050816000806101000a81548173ffffffffffffffffffffffffffffffffffffffff021916908373ffffffffffffffffffffffffffffffffffffffff1602179055508173ffffffffffffffffffffffffffffffffffffffff168173ffffffffffffffffffffffffffffffffffffffff167f8be0079c531659141344cd1fd0a4f28419497f9722a3daafe3b4186f6b6457e060405160405180910390a35050565b600080fd5b600073ffffffffffffffffffffffffffffffffffffffff82169050919050565b6000620001a7826200017a565b9050919050565b620001b9816200019a565b8114620001c557600080fd5b50565b600081519050620001d981620001ae565b92915050565b600060208284031215620001f857620001f762000175565b5b60006200020884828501620001c8565b91505092915050565b61408480620002216000396000f3fe608060405234801561001057600080fd5b50600436106101da5760003560e01c806383ded10611610104578063a6f9885c116100a2578063cbf5a55e11610071578063cbf5a55e14610572578063f1af3c3f14610590578063f2fde38b146105ac578063fc0c546a146105c8576101da565b8063a6f9885c146104fc578063aaf5eb681461051a578063bed47f1514610538578063c409084a14610554576101da565b80638da5cb5b116100de5780638da5cb5b146104765780639a21e6d2146104945780639d104770146104b0578063a3cf7c2f146104e0576101da565b806383ded1061461040e5780638499f8831461043e57806387b3306f1461045a576101da565b806363c0d0d41161017c578063715018a61161014b578063715018a61461039c578063774b8c38146103a65780637ba17f4e146103c257806381a63b18146103de576101da565b806363c0d0d4146102e55780636558954f1461031b57806366ffcf5f1461033957806370a082311461036c576101da565b80634e71d92d116101b85780634e71d92d1461026f57806357b89adb146102795780635f43793c146102a9578063625be80e146102c7576101da565b806319af64ba146101df5780633a560bad1461020f57806348bb65111461023f575b600080fd5b6101f960048036038101906101f49190612b99565b6105e6565b6040516102069190612bd5565b60405180910390f35b61022960048036038101906102249190612c73565b61060a565b6040516102369190612bd5565b60405180910390f35b61025960048036038101906102549190612c73565b6106bd565b6040516102669190612bd5565b60405180910390f35b61027761073c565b005b610293600480360381019061028e9190612cb3565b6107f9565b6040516102a09190612bd5565b60405180910390f35b6102b1610849565b6040516102be9190612bd5565b60405180910390f35b6102cf61084f565b6040516102dc9190612bd5565b60405180910390f35b6102ff60048036038101906102fa9190612ce0565b610854565b6040516103129796959493929190612d0d565b60405180910390f35b610323610896565b6040516103309190612bd5565b60405180910390f35b610353600480360381019061034e9190612d7c565b61089d565b6040516103639493929190612e2f565b60405180910390f35b61038660048036038101906103819190612cb3565b6108fa565b6040516103939190612bd5565b60405180910390f35b6103a4610946565b005b6103c060048036038101906103bb9190612ce0565b61095a565b005b6103dc60048036038101906103d79190612e74565b610ac7565b005b6103f860048036038101906103f39190612ec7565b610b23565b6040516104059190613038565b60405180910390f35b61042860048036038101906104239190612b99565b610d9a565b6040516104359190612bd5565b60405180910390f35b6104586004803603810190610453919061305a565b610dbe565b005b610474600480360381019061046f91906131e6565b610dda565b005b61047e610f62565b60405161048b919061329a565b60405180910390f35b6104ae60048036038101906104a991906132b5565b610f8b565b005b6104ca60048036038101906104c59190612ce0565b61118b565b6040516104d79190613370565b60405180910390f35b6104fa60048036038101906104f59190612d7c565b611281565b005b610504611324565b6040516105119190612bd5565b60405180910390f35b610522611329565b60405161052f9190612bd5565b60405180910390f35b610552600480360381019061054d919061338b565b611338565b005b61055c611481565b6040516105699190612bd5565b60405180910390f35b61057a611488565b6040516105879190612bd5565b60405180910390f35b6105aa60048036038101906105a59190612c73565b6114a3565b005b6105c660048036038101906105c19190612cb3565b611730565b005b6105d06117b4565b6040516105dd9190613507565b60405180910390f35b6000610603826040015183602001516117da90919063ffffffff16565b9050919050565b600061061683836117f0565b1580610623575060025443105b1561063157600090506106b7565b6000600760008573ffffffffffffffffffffffffffffffffffffffff1673ffffffffffffffffffffffffffffffffffffffff168152602001908152602001600020600084600281111561068757610686612db8565b5b600281111561069957610698612db8565b5b81526020019081526020016000205490506106b3816118c4565b9150505b92915050565b6000600760008473ffffffffffffffffffffffffffffffffffffffff1673ffffffffffffffffffffffffffffffffffffffff168152602001908152602001600020600083600281111561071357610712612db8565b5b600281111561072557610724612db8565b5b815260200190815260200160002054905092915050565b600061079661075361074c611b6a565b6002611b72565b610788610768610761611b6a565b6001611b72565b61077a610773611b6a565b6000611b72565b611d5290919063ffffffff16565b611d5290919063ffffffff16565b905060008111156107f6576107f56107ac611b6a565b82600160009054906101000a900473ffffffffffffffffffffffffffffffffffffffff1673ffffffffffffffffffffffffffffffffffffffff16611d689092919063ffffffff16565b5b50565b6000610842600660008473ffffffffffffffffffffffffffffffffffffffff1673ffffffffffffffffffffffffffffffffffffffff168152602001908152602001600020611dee565b9050919050565b60025481565b600a81565b60036020528060005260406000206000915090508060000154908060010154908060020154908060030154908060040154908060050154908060060154905087565b62278d0081565b60056020528060005260406000206000915090508060000160009054906101000a900473ffffffffffffffffffffffffffffffffffffffff16908060000160149054906101000a900460ff16908060010154908060020154905084565b600061093f61090a83600261060a565b61093161091885600161060a565b61092386600061060a565b611d5290919063ffffffff16565b611d5290919063ffffffff16565b9050919050565b61094e611e03565b6109586000611e81565b565b610962611e03565b60006003600083600281111561097b5761097a612db8565b5b600281111561098d5761098c612db8565b5b8152602001908152602001600020905060006109f9826040518060e00160405290816000820154815260200160018201548152602001600282015481526020016003820154815260200160048201548152602001600582015481526020016006820154815250506105e6565b90506000811115610ac257610a1b8183600101546117da90919063ffffffff16565b8260010181905550610a77610a2e611b6a565b82600160009054906101000a900473ffffffffffffffffffffffffffffffffffffffff1673ffffffffffffffffffffffffffffffffffffffff16611d689092919063ffffffff16565b826002811115610a8a57610a89612db8565b5b7fb819d129d0582a3f999e8fe877ffe22795ad2228c7e577d09c19d4a3c5c7cf2882604051610ab99190612bd5565b60405180910390a25b505050565b610acf611e03565b4360025411610b13576040517f08c379a0000000000000000000000000000000000000000000000000000000008152600401610b0a9061357f565b60405180910390fd5b610b1e838383611f45565b505050565b60606000610b7560066000610b36611b6a565b73ffffffffffffffffffffffffffffffffffffffff1673ffffffffffffffffffffffffffffffffffffffff168152602001908152602001600020611dee565b90506000610bb085610ba284610b94888a611d5290919063ffffffff16565b61223c90919063ffffffff16565b61225590919063ffffffff16565b9050610bc585826117da90919063ffffffff16565b67ffffffffffffffff811115610bde57610bdd612a34565b5b604051908082528060200260200182016040528015610c1757816020015b610c04612984565b815260200190600190039081610bfc5790505b50925060008590505b81811015610d91576000610c828260066000610c3a611b6a565b73ffffffffffffffffffffffffffffffffffffffff1673ffffffffffffffffffffffffffffffffffffffff16815260200190815260200160002061226e90919063ffffffff16565b90506000610c9988846117da90919063ffffffff16565b9050600560008381526020019081526020016000206040518060800160405290816000820160009054906101000a900473ffffffffffffffffffffffffffffffffffffffff1673ffffffffffffffffffffffffffffffffffffffff1673ffffffffffffffffffffffffffffffffffffffff1681526020016000820160149054906101000a900460ff166002811115610d3457610d33612db8565b5b6002811115610d4657610d45612db8565b5b815260200160018201548152602001600282015481525050868281518110610d7157610d7061359f565b5b602002602001018190525050508080610d89906135fd565b915050610c20565b50505092915050565b6000610db7826060015183602001516117da90919063ffffffff16565b9050919050565b610dc6611e03565b610dd38585858585612288565b5050505050565b610de2611e03565b4360025411610e26576040517f08c379a0000000000000000000000000000000000000000000000000000000008152600401610e1d9061357f565b60405180910390fd5b601e868690501115610e6d576040517f08c379a0000000000000000000000000000000000000000000000000000000008152600401610e6490613692565b60405180910390fd5b8383905086869050148015610e8757508181905084849050145b610ec6576040517f08c379a0000000000000000000000000000000000000000000000000000000008152600401610ebd906136fe565b60405180910390fd5b60005b86869050811015610f5957610f46878783818110610eea57610ee961359f565b5b9050602002016020810190610eff9190612cb3565b868684818110610f1257610f1161359f565b5b9050602002016020810190610f279190612ce0565b858585818110610f3a57610f3961359f565b5b90506020020135611f45565b8080610f51906135fd565b915050610ec9565b50505050505050565b60008060009054906101000a900473ffffffffffffffffffffffffffffffffffffffff16905090565b610f93611e03565b60036000836002811115610faa57610fa9612db8565b5b6002811115610fbc57610fbb612db8565b5b81526020019081526020016000206000015461101b8260036000866002811115610fe957610fe8612db8565b5b6002811115610ffb57610ffa612db8565b5b815260200190815260200160002060010154611d5290919063ffffffff16565b111561105c576040517f08c379a000000000000000000000000000000000000000000000000000000000815260040161105390613790565b60405180910390fd5b6110a9816003600085600281111561107757611076612db8565b5b600281111561108957611088612db8565b5b815260200190815260200160002060010154611d5290919063ffffffff16565b600360008460028111156110c0576110bf612db8565b5b60028111156110d2576110d1612db8565b5b81526020019081526020016000206001018190555061113d6110f2611b6a565b3083600160009054906101000a900473ffffffffffffffffffffffffffffffffffffffff1673ffffffffffffffffffffffffffffffffffffffff166123ca909392919063ffffffff16565b8160028111156111505761114f612db8565b5b7f1ed1842de53a6797bcd103b15ef4c2cfe977cd44a413ae3ef35bff8c6d252f618260405161117f9190612bd5565b60405180910390a25050565b6111936129d4565b6000600360008460028111156111ac576111ab612db8565b5b60028111156111be576111bd612db8565b5b81526020019081526020016000206040518060e001604052908160008201548152602001600182015481526020016002820154815260200160038201548152602001600482015481526020016005820154815260200160068201548152505090508060000151826000018181525050806020015182602001818152505061124481610d9a565b82604001818152505080604001518260600181815250508060600151826080018181525050611272816105e6565b8260a001818152505050919050565b611289611e03565b6000600254146112d85760025481106112d7576040517f08c379a00000000000000000000000000000000000000000000000000000000081526004016112ce906137fc565b60405180910390fd5b5b43811161131a576040517f08c379a00000000000000000000000000000000000000000000000000000000081526004016113119061388e565b60405180910390fd5b8060028190555050565b601e81565b6a084595161401484a00000081565b611340611e03565b878790508a8a905014801561135a57508585905088889050145b801561136b57508383905086869050145b801561137c57508181905084849050145b6113bb576040517f08c379a00000000000000000000000000000000000000000000000000000000081526004016113b2906136fe565b60405180910390fd5b60005b8a8a9050811015611474576114618b8b838181106113df576113de61359f565b5b90506020020160208101906113f49190612ce0565b8a8a848181106114075761140661359f565b5b905060200201358989858181106114215761142061359f565b5b9050602002013588888681811061143b5761143a61359f565b5b905060200201358787878181106114555761145461359f565b5b90506020020135612288565b808061146c906135fd565b9150506113be565b5050505050505050505050565b62034bc081565b6a084595161401484a00000060646114a091906138ae565b81565b6114ab611e03565b81816114b782826117f0565b6114f6576040517f08c379a00000000000000000000000000000000000000000000000000000000081526004016114ed9061397a565b60405180910390fd5b6000600760008673ffffffffffffffffffffffffffffffffffffffff1673ffffffffffffffffffffffffffffffffffffffff168152602001908152602001600020600085600281111561154c5761154b612db8565b5b600281111561155e5761155d612db8565b5b815260200190815260200160002054905060006003600086600281111561158857611587612db8565b5b600281111561159a57611599612db8565b5b815260200190815260200160002090506000600560008481526020019081526020016000206001015490506116046115f16005600086815260200190815260200160002060020154836117da90919063ffffffff16565b83600201546117da90919063ffffffff16565b826002018190555061165d83600660008a73ffffffffffffffffffffffffffffffffffffffff1673ffffffffffffffffffffffffffffffffffffffff16815260200190815260200160002061245390919063ffffffff16565b506000600760008973ffffffffffffffffffffffffffffffffffffffff1673ffffffffffffffffffffffffffffffffffffffff16815260200190815260200160002060008860028111156116b4576116b3612db8565b5b60028111156116c6576116c5612db8565b5b8152602001908152602001600020819055508673ffffffffffffffffffffffffffffffffffffffff16837f42ccba9814df52d01c2fd804f92a6ededbf830ad1bc8df0e2151be9c2631df238360405161171f9190612bd5565b60405180910390a350505050505050565b611738611e03565b600073ffffffffffffffffffffffffffffffffffffffff168173ffffffffffffffffffffffffffffffffffffffff1614156117a8576040517f08c379a000000000000000000000000000000000000000000000000000000000815260040161179f90613a0c565b60405180910390fd5b6117b181611e81565b50565b600160009054906101000a900473ffffffffffffffffffffffffffffffffffffffff1681565b600081836117e89190613a2c565b905092915050565b600080600760008573ffffffffffffffffffffffffffffffffffffffff1673ffffffffffffffffffffffffffffffffffffffff168152602001908152602001600020600084600281111561184757611846612db8565b5b600281111561185957611858612db8565b5b81526020019081526020016000205490506118bb81600660008773ffffffffffffffffffffffffffffffffffffffff1673ffffffffffffffffffffffffffffffffffffffff16815260200190815260200160002061246d90919063ffffffff16565b91505092915050565b600080600560008481526020019081526020016000206040518060800160405290816000820160009054906101000a900473ffffffffffffffffffffffffffffffffffffffff1673ffffffffffffffffffffffffffffffffffffffff1673ffffffffffffffffffffffffffffffffffffffff1681526020016000820160149054906101000a900460ff1660028111156119605761195f612db8565b5b600281111561197257611971612db8565b5b8152602001600182015481526020016002820154815250509050600060036000836020015160028111156119a9576119a8612db8565b5b60028111156119bb576119ba612db8565b5b81526020019081526020016000206040518060e001604052908160008201548152602001600182015481526020016002820154815260200160038201548152602001600482015481526020016005820154815260200160068201548152505090506000611a626a084595161401484a0000006064611a3991906138ae565b611a548460800151866040015161248790919063ffffffff16565b61249d90919063ffffffff16565b905060008190506000611a97611a86600a8660a0015161248790919063ffffffff16565b600254611d5290919063ffffffff16565b90506000611ac5611ab6600a8760c0015161248790919063ffffffff16565b83611d5290919063ffffffff16565b905081431115611b46576000611adb83836124b3565b90506000611af68689604001516117da90919063ffffffff16565b9050611b41611b32611b1186866117da90919063ffffffff16565b611b24858561248790919063ffffffff16565b61249d90919063ffffffff16565b86611d5290919063ffffffff16565b945050505b611b5d8660600151846117da90919063ffffffff16565b9650505050505050919050565b600033905090565b6000611b7e83836117f0565b1580611b8b575060025443105b15611b995760009050611d4c565b6000600760008573ffffffffffffffffffffffffffffffffffffffff1673ffffffffffffffffffffffffffffffffffffffff1681526020019081526020016000206000846002811115611bef57611bee612db8565b5b6002811115611c0157611c00612db8565b5b81526020019081526020016000205490506000611c1d826118c4565b90506000811115611d4657611c758160036000876002811115611c4357611c42612db8565b5b6002811115611c5557611c54612db8565b5b815260200190815260200160002060030154611d5290919063ffffffff16565b60036000866002811115611c8c57611c8b612db8565b5b6002811115611c9e57611c9d612db8565b5b815260200190815260200160002060030181905550611cdc816005600085815260200190815260200160002060020154611d5290919063ffffffff16565b60056000848152602001908152602001600020600201819055508473ffffffffffffffffffffffffffffffffffffffff16827f14a81f9a556dbd4b3ae8c924aef3cc382cb6f3c4b91e88201a1be8e8cf35932883604051611d3d9190612bd5565b60405180910390a35b80925050505b92915050565b60008183611d609190613a60565b905092915050565b611de98363a9059cbb60e01b8484604051602401611d87929190613ab6565b604051602081830303815290604052907bffffffffffffffffffffffffffffffffffffffffffffffffffffffff19166020820180517bffffffffffffffffffffffffffffffffffffffffffffffffffffffff83818316178352505050506124f2565b505050565b6000611dfc826000016125b9565b9050919050565b611e0b611b6a565b73ffffffffffffffffffffffffffffffffffffffff16611e29610f62565b73ffffffffffffffffffffffffffffffffffffffff1614611e7f576040517f08c379a0000000000000000000000000000000000000000000000000000000008152600401611e7690613b2b565b60405180910390fd5b565b60008060009054906101000a900473ffffffffffffffffffffffffffffffffffffffff169050816000806101000a81548173ffffffffffffffffffffffffffffffffffffffff021916908373ffffffffffffffffffffffffffffffffffffffff1602179055508173ffffffffffffffffffffffffffffffffffffffff168173ffffffffffffffffffffffffffffffffffffffff167f8be0079c531659141344cd1fd0a4f28419497f9722a3daafe3b4186f6b6457e060405160405180910390a35050565b611f4f83836117f0565b15611f8f576040517f08c379a0000000000000000000000000000000000000000000000000000000008152600401611f8690613b97565b60405180910390fd5b600060036000846002811115611fa857611fa7612db8565b5b6002811115611fba57611fb9612db8565b5b815260200190815260200160002090508060010154611fe6838360020154611d5290919063ffffffff16565b1115612027576040517f08c379a000000000000000000000000000000000000000000000000000000000815260040161201e90613c29565b60405180910390fd5b61203e828260020154611d5290919063ffffffff16565b81600201819055508360056000600454815260200190815260200160002060000160006101000a81548173ffffffffffffffffffffffffffffffffffffffff021916908373ffffffffffffffffffffffffffffffffffffffff1602179055508260056000600454815260200190815260200160002060000160146101000a81548160ff021916908360028111156120d8576120d7612db8565b5b0217905550816005600060045481526020019081526020016000206001018190555061214d600454600660008773ffffffffffffffffffffffffffffffffffffffff1673ffffffffffffffffffffffffffffffffffffffff1681526020019081526020016000206125ca90919063ffffffff16565b50600454600760008673ffffffffffffffffffffffffffffffffffffffff1673ffffffffffffffffffffffffffffffffffffffff16815260200190815260200160002060008560028111156121a5576121a4612db8565b5b60028111156121b7576121b6612db8565b5b8152602001908152602001600020819055506121df6001600454611d5290919063ffffffff16565b6004819055508373ffffffffffffffffffffffffffffffffffffffff166004547fca26c44dfb310e29094c39c1c371f88ec57baa3398ea2a3abc3f9c825a4f72128460405161222e9190612bd5565b60405180910390a350505050565b600081831061224b578161224d565b825b905092915050565b60008183116122645781612266565b825b905092915050565b600061227d83600001836125e4565b60001c905092915050565b83600360008760028111156122a05761229f612db8565b5b60028111156122b2576122b1612db8565b5b81526020019081526020016000206000018190555082600360008760028111156122df576122de612db8565b5b60028111156122f1576122f0612db8565b5b815260200190815260200160002060040181905550816003600087600281111561231e5761231d612db8565b5b60028111156123305761232f612db8565b5b815260200190815260200160002060050181905550806003600087600281111561235d5761235c612db8565b5b600281111561236f5761236e612db8565b5b8152602001908152602001600020600601819055507f7e9f14af6752ec6d3a32eb60acdc8e5897e088bad8c77b6faec09e0546ddd7df85858585856040516123bb959493929190613c49565b60405180910390a15050505050565b61244d846323b872dd60e01b8585856040516024016123eb93929190613c9c565b604051602081830303815290604052907bffffffffffffffffffffffffffffffffffffffffffffffffffffffff19166020820180517bffffffffffffffffffffffffffffffffffffffffffffffffffffffff83818316178352505050506124f2565b50505050565b6000612465836000018360001b61260f565b905092915050565b600061247f836000018360001b612723565b905092915050565b6000818361249591906138ae565b905092915050565b600081836124ab9190613d02565b905092915050565b60008143106124d6576124cf83836117da90919063ffffffff16565b90506124ec565b6124e983436117da90919063ffffffff16565b90505b92915050565b6000612554826040518060400160405280602081526020017f5361666545524332303a206c6f772d6c6576656c2063616c6c206661696c65648152508573ffffffffffffffffffffffffffffffffffffffff166127469092919063ffffffff16565b90506000815111156125b457808060200190518101906125749190613d6b565b6125b3576040517f08c379a00000000000000000000000000000000000000000000000000000000081526004016125aa90613e0a565b60405180910390fd5b5b505050565b600081600001805490509050919050565b60006125dc836000018360001b61275e565b905092915050565b60008260000182815481106125fc576125fb61359f565b5b9060005260206000200154905092915050565b600080836001016000848152602001908152602001600020549050600081146127175760006001826126419190613a2c565b90506000600186600001805490506126599190613a2c565b90508181146126c857600086600001828154811061267a5761267961359f565b5b906000526020600020015490508087600001848154811061269e5761269d61359f565b5b90600052602060002001819055508387600101600083815260200190815260200160002081905550505b856000018054806126dc576126db613e2a565b5b60019003818190600052602060002001600090559055856001016000868152602001908152602001600020600090556001935050505061271d565b60009150505b92915050565b600080836001016000848152602001908152602001600020541415905092915050565b606061275584846000856127ce565b90509392505050565b600061276a8383612723565b6127c35782600001829080600181540180825580915050600190039060005260206000200160009091909190915055826000018054905083600101600084815260200190815260200160002081905550600190506127c8565b600090505b92915050565b606082471015612813576040517f08c379a000000000000000000000000000000000000000000000000000000000815260040161280a90613ecb565b60405180910390fd5b6000808673ffffffffffffffffffffffffffffffffffffffff16858760405161283c9190613f65565b60006040518083038185875af1925050503d8060008114612879576040519150601f19603f3d011682016040523d82523d6000602084013e61287e565b606091505b509150915061288f8783838761289b565b92505050949350505050565b606083156128fe576000835114156128f6576128b685612911565b6128f5576040517f08c379a00000000000000000000000000000000000000000000000000000000081526004016128ec90613fc8565b60405180910390fd5b5b829050612909565b6129088383612934565b5b949350505050565b6000808273ffffffffffffffffffffffffffffffffffffffff163b119050919050565b6000825111156129475781518083602001fd5b806040517f08c379a000000000000000000000000000000000000000000000000000000000815260040161297b919061402c565b60405180910390fd5b6040518060800160405280600073ffffffffffffffffffffffffffffffffffffffff168152602001600060028111156129c0576129bf612db8565b5b815260200160008152602001600081525090565b6040518060c001604052806000815260200160008152602001600081526020016000815260200160008152602001600081525090565b6000604051905090565b600080fd5b600080fd5b600080fd5b6000601f19601f8301169050919050565b7f4e487b7100000000000000000000000000000000000000000000000000000000600052604160045260246000fd5b612a6c82612a23565b810181811067ffffffffffffffff82111715612a8b57612a8a612a34565b5b80604052505050565b6000612a9e612a0a565b9050612aaa8282612a63565b919050565b6000819050919050565b612ac281612aaf565b8114612acd57600080fd5b50565b600081359050612adf81612ab9565b92915050565b600060e08284031215612afb57612afa612a1e565b5b612b0560e0612a94565b90506000612b1584828501612ad0565b6000830152506020612b2984828501612ad0565b6020830152506040612b3d84828501612ad0565b6040830152506060612b5184828501612ad0565b6060830152506080612b6584828501612ad0565b60808301525060a0612b7984828501612ad0565b60a08301525060c0612b8d84828501612ad0565b60c08301525092915050565b600060e08284031215612baf57612bae612a14565b5b6000612bbd84828501612ae5565b91505092915050565b612bcf81612aaf565b82525050565b6000602082019050612bea6000830184612bc6565b92915050565b600073ffffffffffffffffffffffffffffffffffffffff82169050919050565b6000612c1b82612bf0565b9050919050565b612c2b81612c10565b8114612c3657600080fd5b50565b600081359050612c4881612c22565b92915050565b60038110612c5b57600080fd5b50565b600081359050612c6d81612c4e565b92915050565b60008060408385031215612c8a57612c89612a14565b5b6000612c9885828601612c39565b9250506020612ca985828601612c5e565b9150509250929050565b600060208284031215612cc957612cc8612a14565b5b6000612cd784828501612c39565b91505092915050565b600060208284031215612cf657612cf5612a14565b5b6000612d0484828501612c5e565b91505092915050565b600060e082019050612d22600083018a612bc6565b612d2f6020830189612bc6565b612d3c6040830188612bc6565b612d496060830187612bc6565b612d566080830186612bc6565b612d6360a0830185612bc6565b612d7060c0830184612bc6565b98975050505050505050565b600060208284031215612d9257612d91612a14565b5b6000612da084828501612ad0565b91505092915050565b612db281612c10565b82525050565b7f4e487b7100000000000000000000000000000000000000000000000000000000600052602160045260246000fd5b60038110612df857612df7612db8565b5b50565b6000819050612e0982612de7565b919050565b6000612e1982612dfb565b9050919050565b612e2981612e0e565b82525050565b6000608082019050612e446000830187612da9565b612e516020830186612e20565b612e5e6040830185612bc6565b612e6b6060830184612bc6565b95945050505050565b600080600060608486031215612e8d57612e8c612a14565b5b6000612e9b86828701612c39565b9350506020612eac86828701612c5e565b9250506040612ebd86828701612ad0565b9150509250925092565b60008060408385031215612ede57612edd612a14565b5b6000612eec85828601612ad0565b9250506020612efd85828601612ad0565b9150509250929050565b600081519050919050565b600082825260208201905092915050565b6000819050602082019050919050565b612f3c81612c10565b82525050565b612f4b81612e0e565b82525050565b612f5a81612aaf565b82525050565b608082016000820151612f766000850182612f33565b506020820151612f896020850182612f42565b506040820151612f9c6040850182612f51565b506060820151612faf6060850182612f51565b50505050565b6000612fc18383612f60565b60808301905092915050565b6000602082019050919050565b6000612fe582612f07565b612fef8185612f12565b9350612ffa83612f23565b8060005b8381101561302b5781516130128882612fb5565b975061301d83612fcd565b925050600181019050612ffe565b5085935050505092915050565b600060208201905081810360008301526130528184612fda565b905092915050565b600080600080600060a0868803121561307657613075612a14565b5b600061308488828901612c5e565b955050602061309588828901612ad0565b94505060406130a688828901612ad0565b93505060606130b788828901612ad0565b92505060806130c888828901612ad0565b9150509295509295909350565b600080fd5b600080fd5b600080fd5b60008083601f8401126130fa576130f96130d5565b5b8235905067ffffffffffffffff811115613117576131166130da565b5b602083019150836020820283011115613133576131326130df565b5b9250929050565b60008083601f8401126131505761314f6130d5565b5b8235905067ffffffffffffffff81111561316d5761316c6130da565b5b602083019150836020820283011115613189576131886130df565b5b9250929050565b60008083601f8401126131a6576131a56130d5565b5b8235905067ffffffffffffffff8111156131c3576131c26130da565b5b6020830191508360208202830111156131df576131de6130df565b5b9250929050565b6000806000806000806060878903121561320357613202612a14565b5b600087013567ffffffffffffffff81111561322157613220612a19565b5b61322d89828a016130e4565b9650965050602087013567ffffffffffffffff8111156132505761324f612a19565b5b61325c89828a0161313a565b9450945050604087013567ffffffffffffffff81111561327f5761327e612a19565b5b61328b89828a01613190565b92509250509295509295509295565b60006020820190506132af6000830184612da9565b92915050565b600080604083850312156132cc576132cb612a14565b5b60006132da85828601612c5e565b92505060206132eb85828601612ad0565b9150509250929050565b60c08201600082015161330b6000850182612f51565b50602082015161331e6020850182612f51565b5060408201516133316040850182612f51565b5060608201516133446060850182612f51565b5060808201516133576080850182612f51565b5060a082015161336a60a0850182612f51565b50505050565b600060c08201905061338560008301846132f5565b92915050565b60008060008060008060008060008060a08b8d0312156133ae576133ad612a14565b5b60008b013567ffffffffffffffff8111156133cc576133cb612a19565b5b6133d88d828e0161313a565b9a509a505060208b013567ffffffffffffffff8111156133fb576133fa612a19565b5b6134078d828e01613190565b985098505060408b013567ffffffffffffffff81111561342a57613429612a19565b5b6134368d828e01613190565b965096505060608b013567ffffffffffffffff81111561345957613458612a19565b5b6134658d828e01613190565b945094505060808b013567ffffffffffffffff81111561348857613487612a19565b5b6134948d828e01613190565b92509250509295989b9194979a5092959850565b6000819050919050565b60006134cd6134c86134c384612bf0565b6134a8565b612bf0565b9050919050565b60006134df826134b2565b9050919050565b60006134f1826134d4565b9050919050565b613501816134e6565b82525050565b600060208201905061351c60008301846134f8565b92915050565b600082825260208201905092915050565b7f56657374696e673a20426c6f636b205447452068617320706173736564000000600082015250565b6000613569601d83613522565b915061357482613533565b602082019050919050565b600060208201905081810360008301526135988161355c565b9050919050565b7f4e487b7100000000000000000000000000000000000000000000000000000000600052603260045260246000fd5b7f4e487b7100000000000000000000000000000000000000000000000000000000600052601160045260246000fd5b600061360882612aaf565b91507fffffffffffffffffffffffffffffffffffffffffffffffffffffffffffffffff82141561363b5761363a6135ce565b5b600182019050919050565b7f56657374696e673a20546f6f206d616e7920617267756d656e74730000000000600082015250565b600061367c601b83613522565b915061368782613646565b602082019050919050565b600060208201905081810360008301526136ab8161366f565b9050919050565b7f56657374696e673a204c656e677468206d69736d617463680000000000000000600082015250565b60006136e8601883613522565b91506136f3826136b2565b602082019050919050565b60006020820190508181036000830152613717816136db565b9050919050565b7f56657374696e673a20416d6f756e742065786365656473206d6178207375707060008201527f6c79000000000000000000000000000000000000000000000000000000000000602082015250565b600061377a602283613522565b91506137858261371e565b604082019050919050565b600060208201905081810360008301526137a98161376d565b9050919050565b7f56657374696e673a20426c6f636b2054474520616c7265616479207365740000600082015250565b60006137e6601e83613522565b91506137f1826137b0565b602082019050919050565b60006020820190508181036000830152613815816137d9565b9050919050565b7f56657374696e673a2053686f756c642073657420626c6f636b20696e2066757460008201527f7572650000000000000000000000000000000000000000000000000000000000602082015250565b6000613878602383613522565b91506138838261381c565b604082019050919050565b600060208201905081810360008301526138a78161386b565b9050919050565b60006138b982612aaf565b91506138c483612aaf565b9250817fffffffffffffffffffffffffffffffffffffffffffffffffffffffffffffffff04831182151516156138fd576138fc6135ce565b5b828202905092915050565b7f56657374696e673a20546869732076657374696e6720646f65736e277420657860008201527f6973740000000000000000000000000000000000000000000000000000000000602082015250565b6000613964602383613522565b915061396f82613908565b604082019050919050565b6000602082019050818103600083015261399381613957565b9050919050565b7f4f776e61626c653a206e6577206f776e657220697320746865207a65726f206160008201527f6464726573730000000000000000000000000000000000000000000000000000602082015250565b60006139f6602683613522565b9150613a018261399a565b604082019050919050565b60006020820190508181036000830152613a25816139e9565b9050919050565b6000613a3782612aaf565b9150613a4283612aaf565b925082821015613a5557613a546135ce565b5b828203905092915050565b6000613a6b82612aaf565b9150613a7683612aaf565b9250827fffffffffffffffffffffffffffffffffffffffffffffffffffffffffffffffff03821115613aab57613aaa6135ce565b5b828201905092915050565b6000604082019050613acb6000830185612da9565b613ad86020830184612bc6565b9392505050565b7f4f776e61626c653a2063616c6c6572206973206e6f7420746865206f776e6572600082015250565b6000613b15602083613522565b9150613b2082613adf565b602082019050919050565b60006020820190508181036000830152613b4481613b08565b9050919050565b7f56657374696e673a20416c726561647920696e76657374656400000000000000600082015250565b6000613b81601983613522565b9150613b8c82613b4b565b602082019050919050565b60006020820190508181036000830152613bb081613b74565b9050919050565b7f56657374696e673a20496e7375666973616e74206c6f636b656420737570706c60008201527f7900000000000000000000000000000000000000000000000000000000000000602082015250565b6000613c13602183613522565b9150613c1e82613bb7565b604082019050919050565b60006020820190508181036000830152613c4281613c06565b9050919050565b600060a082019050613c5e6000830188612e20565b613c6b6020830187612bc6565b613c786040830186612bc6565b613c856060830185612bc6565b613c926080830184612bc6565b9695505050505050565b6000606082019050613cb16000830186612da9565b613cbe6020830185612da9565b613ccb6040830184612bc6565b949350505050565b7f4e487b7100000000000000000000000000000000000000000000000000000000600052601260045260246000fd5b6000613d0d82612aaf565b9150613d1883612aaf565b925082613d2857613d27613cd3565b5b828204905092915050565b60008115159050919050565b613d4881613d33565b8114613d5357600080fd5b50565b600081519050613d6581613d3f565b92915050565b600060208284031215613d8157613d80612a14565b5b6000613d8f84828501613d56565b91505092915050565b7f5361666545524332303a204552433230206f7065726174696f6e20646964206e60008201527f6f74207375636365656400000000000000000000000000000000000000000000602082015250565b6000613df4602a83613522565b9150613dff82613d98565b604082019050919050565b60006020820190508181036000830152613e2381613de7565b9050919050565b7f4e487b7100000000000000000000000000000000000000000000000000000000600052603160045260246000fd5b7f416464726573733a20696e73756666696369656e742062616c616e636520666f60008201527f722063616c6c0000000000000000000000000000000000000000000000000000602082015250565b6000613eb5602683613522565b9150613ec082613e59565b604082019050919050565b60006020820190508181036000830152613ee481613ea8565b9050919050565b600081519050919050565b600081905092915050565b60005b83811015613f1f578082015181840152602081019050613f04565b83811115613f2e576000848401525b50505050565b6000613f3f82613eeb565b613f498185613ef6565b9350613f59818560208601613f01565b80840191505092915050565b6000613f718284613f34565b915081905092915050565b7f416464726573733a2063616c6c20746f206e6f6e2d636f6e7472616374000000600082015250565b6000613fb2601d83613522565b9150613fbd82613f7c565b602082019050919050565b60006020820190508181036000830152613fe181613fa5565b9050919050565b600081519050919050565b6000613ffe82613fe8565b6140088185613522565b9350614018818560208601613f01565b61402181612a23565b840191505092915050565b600060208201905081810360008301526140468184613ff3565b90509291505056fea26469706673582212208363c02f71d5b8145ee063e0ddb32d19c1273c093ffeffb63c68fbe53a8e897c64736f6c634300080a0033","opcodes":"PUSH1 0x80 PUSH1 0x40 MSTORE CALLVALUE DUP1 ISZERO PUSH3 0x11 JUMPI PUSH1 0x0 DUP1 REVERT JUMPDEST POP PUSH1 0x40 MLOAD PUSH3 0x42A5 CODESIZE SUB DUP1 PUSH3 0x42A5 DUP4 CODECOPY DUP2 DUP2 ADD PUSH1 0x40 MSTORE DUP2 ADD SWAP1 PUSH3 0x37 SWAP2 SWAP1 PUSH3 0x1DF JUMP JUMPDEST DUP1 PUSH3 0x58 PUSH3 0x4C PUSH3 0xA9 PUSH1 0x20 SHL PUSH1 0x20 SHR JUMP JUMPDEST PUSH3 0xB1 PUSH1 0x20 SHL PUSH1 0x20 SHR JUMP JUMPDEST PUSH1 0x1 PUSH1 0x4 DUP2 SWAP1 SSTORE POP DUP1 PUSH1 0x1 PUSH1 0x0 PUSH2 0x100 EXP DUP2 SLOAD DUP2 PUSH20 0xFFFFFFFFFFFFFFFFFFFFFFFFFFFFFFFFFFFFFFFF MUL NOT AND SWAP1 DUP4 PUSH20 0xFFFFFFFFFFFFFFFFFFFFFFFFFFFFFFFFFFFFFFFF AND MUL OR SWAP1 SSTORE POP POP POP PUSH3 0x211 JUMP JUMPDEST PUSH1 0x0 CALLER SWAP1 POP SWAP1 JUMP JUMPDEST PUSH1 0x0 DUP1 PUSH1 0x0 SWAP1 SLOAD SWAP1 PUSH2 0x100 EXP SWAP1 DIV PUSH20 0xFFFFFFFFFFFFFFFFFFFFFFFFFFFFFFFFFFFFFFFF AND SWAP1 POP DUP2 PUSH1 0x0 DUP1 PUSH2 0x100 EXP DUP2 SLOAD DUP2 PUSH20 0xFFFFFFFFFFFFFFFFFFFFFFFFFFFFFFFFFFFFFFFF MUL NOT AND SWAP1 DUP4 PUSH20 0xFFFFFFFFFFFFFFFFFFFFFFFFFFFFFFFFFFFFFFFF AND MUL OR SWAP1 SSTORE POP DUP2 PUSH20 0xFFFFFFFFFFFFFFFFFFFFFFFFFFFFFFFFFFFFFFFF AND DUP2 PUSH20 0xFFFFFFFFFFFFFFFFFFFFFFFFFFFFFFFFFFFFFFFF AND PUSH32 0x8BE0079C531659141344CD1FD0A4F28419497F9722A3DAAFE3B4186F6B6457E0 PUSH1 0x40 MLOAD PUSH1 0x40 MLOAD DUP1 SWAP2 SUB SWAP1 LOG3 POP POP JUMP JUMPDEST PUSH1 0x0 DUP1 REVERT JUMPDEST PUSH1 0x0 PUSH20 0xFFFFFFFFFFFFFFFFFFFFFFFFFFFFFFFFFFFFFFFF DUP3 AND SWAP1 POP SWAP2 SWAP1 POP JUMP JUMPDEST PUSH1 0x0 PUSH3 0x1A7 DUP3 PUSH3 0x17A JUMP JUMPDEST SWAP1 POP SWAP2 SWAP1 POP JUMP JUMPDEST PUSH3 0x1B9 DUP2 PUSH3 0x19A JUMP JUMPDEST DUP2 EQ PUSH3 0x1C5 JUMPI PUSH1 0x0 DUP1 REVERT JUMPDEST POP JUMP JUMPDEST PUSH1 0x0 DUP2 MLOAD SWAP1 POP PUSH3 0x1D9 DUP2 PUSH3 0x1AE JUMP JUMPDEST SWAP3 SWAP2 POP POP JUMP JUMPDEST PUSH1 0x0 PUSH1 0x20 DUP3 DUP5 SUB SLT ISZERO PUSH3 0x1F8 JUMPI PUSH3 0x1F7 PUSH3 0x175 JUMP JUMPDEST JUMPDEST PUSH1 0x0 PUSH3 0x208 DUP5 DUP3 DUP6 ADD PUSH3 0x1C8 JUMP JUMPDEST SWAP2 POP POP SWAP3 SWAP2 POP POP JUMP JUMPDEST PUSH2 0x4084 DUP1 PUSH3 0x221 PUSH1 0x0 CODECOPY PUSH1 0x0 RETURN INVALID PUSH1 0x80 PUSH1 0x40 MSTORE CALLVALUE DUP1 ISZERO PUSH2 0x10 JUMPI PUSH1 0x0 DUP1 REVERT JUMPDEST POP PUSH1 0x4 CALLDATASIZE LT PUSH2 0x1DA JUMPI PUSH1 0x0 CALLDATALOAD PUSH1 0xE0 SHR DUP1 PUSH4 0x83DED106 GT PUSH2 0x104 JUMPI DUP1 PUSH4 0xA6F9885C GT PUSH2 0xA2 JUMPI DUP1 PUSH4 0xCBF5A55E GT PUSH2 0x71 JUMPI DUP1 PUSH4 0xCBF5A55E EQ PUSH2 0x572 JUMPI DUP1 PUSH4 0xF1AF3C3F EQ PUSH2 0x590 JUMPI DUP1 PUSH4 0xF2FDE38B EQ PUSH2 0x5AC JUMPI DUP1 PUSH4 0xFC0C546A EQ PUSH2 0x5C8 JUMPI PUSH2 0x1DA JUMP JUMPDEST DUP1 PUSH4 0xA6F9885C EQ PUSH2 0x4FC JUMPI DUP1 PUSH4 0xAAF5EB68 EQ PUSH2 0x51A JUMPI DUP1 PUSH4 0xBED47F15 EQ PUSH2 0x538 JUMPI DUP1 PUSH4 0xC409084A EQ PUSH2 0x554 JUMPI PUSH2 0x1DA JUMP JUMPDEST DUP1 PUSH4 0x8DA5CB5B GT PUSH2 0xDE JUMPI DUP1 PUSH4 0x8DA5CB5B EQ PUSH2 0x476 JUMPI DUP1 PUSH4 0x9A21E6D2 EQ PUSH2 0x494 JUMPI DUP1 PUSH4 0x9D104770 EQ PUSH2 0x4B0 JUMPI DUP1 PUSH4 0xA3CF7C2F EQ PUSH2 0x4E0 JUMPI PUSH2 0x1DA JUMP JUMPDEST DUP1 PUSH4 0x83DED106 EQ PUSH2 0x40E JUMPI DUP1 PUSH4 0x8499F883 EQ PUSH2 0x43E JUMPI DUP1 PUSH4 0x87B3306F EQ PUSH2 0x45A JUMPI PUSH2 0x1DA JUMP JUMPDEST DUP1 PUSH4 0x63C0D0D4 GT PUSH2 0x17C JUMPI DUP1 PUSH4 0x715018A6 GT PUSH2 0x14B JUMPI DUP1 PUSH4 0x715018A6 EQ PUSH2 0x39C JUMPI DUP1 PUSH4 0x774B8C38 EQ PUSH2 0x3A6 JUMPI DUP1 PUSH4 0x7BA17F4E EQ PUSH2 0x3C2 JUMPI DUP1 PUSH4 0x81A63B18 EQ PUSH2 0x3DE JUMPI PUSH2 0x1DA JUMP JUMPDEST DUP1 PUSH4 0x63C0D0D4 EQ PUSH2 0x2E5 JUMPI DUP1 PUSH4 0x6558954F EQ PUSH2 0x31B JUMPI DUP1 PUSH4 0x66FFCF5F EQ PUSH2 0x339 JUMPI DUP1 PUSH4 0x70A08231 EQ PUSH2 0x36C JUMPI PUSH2 0x1DA JUMP JUMPDEST DUP1 PUSH4 0x4E71D92D GT PUSH2 0x1B8 JUMPI DUP1 PUSH4 0x4E71D92D EQ PUSH2 0x26F JUMPI DUP1 PUSH4 0x57B89ADB EQ PUSH2 0x279 JUMPI DUP1 PUSH4 0x5F43793C EQ PUSH2 0x2A9 JUMPI DUP1 PUSH4 0x625BE80E EQ PUSH2 0x2C7 JUMPI PUSH2 0x1DA JUMP JUMPDEST DUP1 PUSH4 0x19AF64BA EQ PUSH2 0x1DF JUMPI DUP1 PUSH4 0x3A560BAD EQ PUSH2 0x20F JUMPI DUP1 PUSH4 0x48BB6511 EQ PUSH2 0x23F JUMPI JUMPDEST PUSH1 0x0 DUP1 REVERT JUMPDEST PUSH2 0x1F9 PUSH1 0x4 DUP1 CALLDATASIZE SUB DUP2 ADD SWAP1 PUSH2 0x1F4 SWAP2 SWAP1 PUSH2 0x2B99 JUMP JUMPDEST PUSH2 0x5E6 JUMP JUMPDEST PUSH1 0x40 MLOAD PUSH2 0x206 SWAP2 SWAP1 PUSH2 0x2BD5 JUMP JUMPDEST PUSH1 0x40 MLOAD DUP1 SWAP2 SUB SWAP1 RETURN JUMPDEST PUSH2 0x229 PUSH1 0x4 DUP1 CALLDATASIZE SUB DUP2 ADD SWAP1 PUSH2 0x224 SWAP2 SWAP1 PUSH2 0x2C73 JUMP JUMPDEST PUSH2 0x60A JUMP JUMPDEST PUSH1 0x40 MLOAD PUSH2 0x236 SWAP2 SWAP1 PUSH2 0x2BD5 JUMP JUMPDEST PUSH1 0x40 MLOAD DUP1 SWAP2 SUB SWAP1 RETURN JUMPDEST PUSH2 0x259 PUSH1 0x4 DUP1 CALLDATASIZE SUB DUP2 ADD SWAP1 PUSH2 0x254 SWAP2 SWAP1 PUSH2 0x2C73 JUMP JUMPDEST PUSH2 0x6BD JUMP JUMPDEST PUSH1 0x40 MLOAD PUSH2 0x266 SWAP2 SWAP1 PUSH2 0x2BD5 JUMP JUMPDEST PUSH1 0x40 MLOAD DUP1 SWAP2 SUB SWAP1 RETURN JUMPDEST PUSH2 0x277 PUSH2 0x73C JUMP JUMPDEST STOP JUMPDEST PUSH2 0x293 PUSH1 0x4 DUP1 CALLDATASIZE SUB DUP2 ADD SWAP1 PUSH2 0x28E SWAP2 SWAP1 PUSH2 0x2CB3 JUMP JUMPDEST PUSH2 0x7F9 JUMP JUMPDEST PUSH1 0x40 MLOAD PUSH2 0x2A0 SWAP2 SWAP1 PUSH2 0x2BD5 JUMP JUMPDEST PUSH1 0x40 MLOAD DUP1 SWAP2 SUB SWAP1 RETURN JUMPDEST PUSH2 0x2B1 PUSH2 0x849 JUMP JUMPDEST PUSH1 0x40 MLOAD PUSH2 0x2BE SWAP2 SWAP1 PUSH2 0x2BD5 JUMP JUMPDEST PUSH1 0x40 MLOAD DUP1 SWAP2 SUB SWAP1 RETURN JUMPDEST PUSH2 0x2CF PUSH2 0x84F JUMP JUMPDEST PUSH1 0x40 MLOAD PUSH2 0x2DC SWAP2 SWAP1 PUSH2 0x2BD5 JUMP JUMPDEST PUSH1 0x40 MLOAD DUP1 SWAP2 SUB SWAP1 RETURN JUMPDEST PUSH2 0x2FF PUSH1 0x4 DUP1 CALLDATASIZE SUB DUP2 ADD SWAP1 PUSH2 0x2FA SWAP2 SWAP1 PUSH2 0x2CE0 JUMP JUMPDEST PUSH2 0x854 JUMP JUMPDEST PUSH1 0x40 MLOAD PUSH2 0x312 SWAP8 SWAP7 SWAP6 SWAP5 SWAP4 SWAP3 SWAP2 SWAP1 PUSH2 0x2D0D JUMP JUMPDEST PUSH1 0x40 MLOAD DUP1 SWAP2 SUB SWAP1 RETURN JUMPDEST PUSH2 0x323 PUSH2 0x896 JUMP JUMPDEST PUSH1 0x40 MLOAD PUSH2 0x330 SWAP2 SWAP1 PUSH2 0x2BD5 JUMP JUMPDEST PUSH1 0x40 MLOAD DUP1 SWAP2 SUB SWAP1 RETURN JUMPDEST PUSH2 0x353 PUSH1 0x4 DUP1 CALLDATASIZE SUB DUP2 ADD SWAP1 PUSH2 0x34E SWAP2 SWAP1 PUSH2 0x2D7C JUMP JUMPDEST PUSH2 0x89D JUMP JUMPDEST PUSH1 0x40 MLOAD PUSH2 0x363 SWAP5 SWAP4 SWAP3 SWAP2 SWAP1 PUSH2 0x2E2F JUMP JUMPDEST PUSH1 0x40 MLOAD DUP1 SWAP2 SUB SWAP1 RETURN JUMPDEST PUSH2 0x386 PUSH1 0x4 DUP1 CALLDATASIZE SUB DUP2 ADD SWAP1 PUSH2 0x381 SWAP2 SWAP1 PUSH2 0x2CB3 JUMP JUMPDEST PUSH2 0x8FA JUMP JUMPDEST PUSH1 0x40 MLOAD PUSH2 0x393 SWAP2 SWAP1 PUSH2 0x2BD5 JUMP JUMPDEST PUSH1 0x40 MLOAD DUP1 SWAP2 SUB SWAP1 RETURN JUMPDEST PUSH2 0x3A4 PUSH2 0x946 JUMP JUMPDEST STOP JUMPDEST PUSH2 0x3C0 PUSH1 0x4 DUP1 CALLDATASIZE SUB DUP2 ADD SWAP1 PUSH2 0x3BB SWAP2 SWAP1 PUSH2 0x2CE0 JUMP JUMPDEST PUSH2 0x95A JUMP JUMPDEST STOP JUMPDEST PUSH2 0x3DC PUSH1 0x4 DUP1 CALLDATASIZE SUB DUP2 ADD SWAP1 PUSH2 0x3D7 SWAP2 SWAP1 PUSH2 0x2E74 JUMP JUMPDEST PUSH2 0xAC7 JUMP JUMPDEST STOP JUMPDEST PUSH2 0x3F8 PUSH1 0x4 DUP1 CALLDATASIZE SUB DUP2 ADD SWAP1 PUSH2 0x3F3 SWAP2 SWAP1 PUSH2 0x2EC7 JUMP JUMPDEST PUSH2 0xB23 JUMP JUMPDEST PUSH1 0x40 MLOAD PUSH2 0x405 SWAP2 SWAP1 PUSH2 0x3038 JUMP JUMPDEST PUSH1 0x40 MLOAD DUP1 SWAP2 SUB SWAP1 RETURN JUMPDEST PUSH2 0x428 PUSH1 0x4 DUP1 CALLDATASIZE SUB DUP2 ADD SWAP1 PUSH2 0x423 SWAP2 SWAP1 PUSH2 0x2B99 JUMP JUMPDEST PUSH2 0xD9A JUMP JUMPDEST PUSH1 0x40 MLOAD PUSH2 0x435 SWAP2 SWAP1 PUSH2 0x2BD5 JUMP JUMPDEST PUSH1 0x40 MLOAD DUP1 SWAP2 SUB SWAP1 RETURN JUMPDEST PUSH2 0x458 PUSH1 0x4 DUP1 CALLDATASIZE SUB DUP2 ADD SWAP1 PUSH2 0x453 SWAP2 SWAP1 PUSH2 0x305A JUMP JUMPDEST PUSH2 0xDBE JUMP JUMPDEST STOP JUMPDEST PUSH2 0x474 PUSH1 0x4 DUP1 CALLDATASIZE SUB DUP2 ADD SWAP1 PUSH2 0x46F SWAP2 SWAP1 PUSH2 0x31E6 JUMP JUMPDEST PUSH2 0xDDA JUMP JUMPDEST STOP JUMPDEST PUSH2 0x47E PUSH2 0xF62 JUMP JUMPDEST PUSH1 0x40 MLOAD PUSH2 0x48B SWAP2 SWAP1 PUSH2 0x329A JUMP JUMPDEST PUSH1 0x40 MLOAD DUP1 SWAP2 SUB SWAP1 RETURN JUMPDEST PUSH2 0x4AE PUSH1 0x4 DUP1 CALLDATASIZE SUB DUP2 ADD SWAP1 PUSH2 0x4A9 SWAP2 SWAP1 PUSH2 0x32B5 JUMP JUMPDEST PUSH2 0xF8B JUMP JUMPDEST STOP JUMPDEST PUSH2 0x4CA PUSH1 0x4 DUP1 CALLDATASIZE SUB DUP2 ADD SWAP1 PUSH2 0x4C5 SWAP2 SWAP1 PUSH2 0x2CE0 JUMP JUMPDEST PUSH2 0x118B JUMP JUMPDEST PUSH1 0x40 MLOAD PUSH2 0x4D7 SWAP2 SWAP1 PUSH2 0x3370 JUMP JUMPDEST PUSH1 0x40 MLOAD DUP1 SWAP2 SUB SWAP1 RETURN JUMPDEST PUSH2 0x4FA PUSH1 0x4 DUP1 CALLDATASIZE SUB DUP2 ADD SWAP1 PUSH2 0x4F5 SWAP2 SWAP1 PUSH2 0x2D7C JUMP JUMPDEST PUSH2 0x1281 JUMP JUMPDEST STOP JUMPDEST PUSH2 0x504 PUSH2 0x1324 JUMP JUMPDEST PUSH1 0x40 MLOAD PUSH2 0x511 SWAP2 SWAP1 PUSH2 0x2BD5 JUMP JUMPDEST PUSH1 0x40 MLOAD DUP1 SWAP2 SUB SWAP1 RETURN JUMPDEST PUSH2 0x522 PUSH2 0x1329 JUMP JUMPDEST PUSH1 0x40 MLOAD PUSH2 0x52F SWAP2 SWAP1 PUSH2 0x2BD5 JUMP JUMPDEST PUSH1 0x40 MLOAD DUP1 SWAP2 SUB SWAP1 RETURN JUMPDEST PUSH2 0x552 PUSH1 0x4 DUP1 CALLDATASIZE SUB DUP2 ADD SWAP1 PUSH2 0x54D SWAP2 SWAP1 PUSH2 0x338B JUMP JUMPDEST PUSH2 0x1338 JUMP JUMPDEST STOP JUMPDEST PUSH2 0x55C PUSH2 0x1481 JUMP JUMPDEST PUSH1 0x40 MLOAD PUSH2 0x569 SWAP2 SWAP1 PUSH2 0x2BD5 JUMP JUMPDEST PUSH1 0x40 MLOAD DUP1 SWAP2 SUB SWAP1 RETURN JUMPDEST PUSH2 0x57A PUSH2 0x1488 JUMP JUMPDEST PUSH1 0x40 MLOAD PUSH2 0x587 SWAP2 SWAP1 PUSH2 0x2BD5 JUMP JUMPDEST PUSH1 0x40 MLOAD DUP1 SWAP2 SUB SWAP1 RETURN JUMPDEST PUSH2 0x5AA PUSH1 0x4 DUP1 CALLDATASIZE SUB DUP2 ADD SWAP1 PUSH2 0x5A5 SWAP2 SWAP1 PUSH2 0x2C73 JUMP JUMPDEST PUSH2 0x14A3 JUMP JUMPDEST STOP JUMPDEST PUSH2 0x5C6 PUSH1 0x4 DUP1 CALLDATASIZE SUB DUP2 ADD SWAP1 PUSH2 0x5C1 SWAP2 SWAP1 PUSH2 0x2CB3 JUMP JUMPDEST PUSH2 0x1730 JUMP JUMPDEST STOP JUMPDEST PUSH2 0x5D0 PUSH2 0x17B4 JUMP JUMPDEST PUSH1 0x40 MLOAD PUSH2 0x5DD SWAP2 SWAP1 PUSH2 0x3507 JUMP JUMPDEST PUSH1 0x40 MLOAD DUP1 SWAP2 SUB SWAP1 RETURN JUMPDEST PUSH1 0x0 PUSH2 0x603 DUP3 PUSH1 0x40 ADD MLOAD DUP4 PUSH1 0x20 ADD MLOAD PUSH2 0x17DA SWAP1 SWAP2 SWAP1 PUSH4 0xFFFFFFFF AND JUMP JUMPDEST SWAP1 POP SWAP2 SWAP1 POP JUMP JUMPDEST PUSH1 0x0 PUSH2 0x616 DUP4 DUP4 PUSH2 0x17F0 JUMP JUMPDEST ISZERO DUP1 PUSH2 0x623 JUMPI POP PUSH1 0x2 SLOAD NUMBER LT JUMPDEST ISZERO PUSH2 0x631 JUMPI PUSH1 0x0 SWAP1 POP PUSH2 0x6B7 JUMP JUMPDEST PUSH1 0x0 PUSH1 0x7 PUSH1 0x0 DUP6 PUSH20 0xFFFFFFFFFFFFFFFFFFFFFFFFFFFFFFFFFFFFFFFF AND PUSH20 0xFFFFFFFFFFFFFFFFFFFFFFFFFFFFFFFFFFFFFFFF AND DUP2 MSTORE PUSH1 0x20 ADD SWAP1 DUP2 MSTORE PUSH1 0x20 ADD PUSH1 0x0 KECCAK256 PUSH1 0x0 DUP5 PUSH1 0x2 DUP2 GT ISZERO PUSH2 0x687 JUMPI PUSH2 0x686 PUSH2 0x2DB8 JUMP JUMPDEST JUMPDEST PUSH1 0x2 DUP2 GT ISZERO PUSH2 0x699 JUMPI PUSH2 0x698 PUSH2 0x2DB8 JUMP JUMPDEST JUMPDEST DUP2 MSTORE PUSH1 0x20 ADD SWAP1 DUP2 MSTORE PUSH1 0x20 ADD PUSH1 0x0 KECCAK256 SLOAD SWAP1 POP PUSH2 0x6B3 DUP2 PUSH2 0x18C4 JUMP JUMPDEST SWAP2 POP POP JUMPDEST SWAP3 SWAP2 POP POP JUMP JUMPDEST PUSH1 0x0 PUSH1 0x7 PUSH1 0x0 DUP5 PUSH20 0xFFFFFFFFFFFFFFFFFFFFFFFFFFFFFFFFFFFFFFFF AND PUSH20 0xFFFFFFFFFFFFFFFFFFFFFFFFFFFFFFFFFFFFFFFF AND DUP2 MSTORE PUSH1 0x20 ADD SWAP1 DUP2 MSTORE PUSH1 0x20 ADD PUSH1 0x0 KECCAK256 PUSH1 0x0 DUP4 PUSH1 0x2 DUP2 GT ISZERO PUSH2 0x713 JUMPI PUSH2 0x712 PUSH2 0x2DB8 JUMP JUMPDEST JUMPDEST PUSH1 0x2 DUP2 GT ISZERO PUSH2 0x725 JUMPI PUSH2 0x724 PUSH2 0x2DB8 JUMP JUMPDEST JUMPDEST DUP2 MSTORE PUSH1 0x20 ADD SWAP1 DUP2 MSTORE PUSH1 0x20 ADD PUSH1 0x0 KECCAK256 SLOAD SWAP1 POP SWAP3 SWAP2 POP POP JUMP JUMPDEST PUSH1 0x0 PUSH2 0x796 PUSH2 0x753 PUSH2 0x74C PUSH2 0x1B6A JUMP JUMPDEST PUSH1 0x2 PUSH2 0x1B72 JUMP JUMPDEST PUSH2 0x788 PUSH2 0x768 PUSH2 0x761 PUSH2 0x1B6A JUMP JUMPDEST PUSH1 0x1 PUSH2 0x1B72 JUMP JUMPDEST PUSH2 0x77A PUSH2 0x773 PUSH2 0x1B6A JUMP JUMPDEST PUSH1 0x0 PUSH2 0x1B72 JUMP JUMPDEST PUSH2 0x1D52 SWAP1 SWAP2 SWAP1 PUSH4 0xFFFFFFFF AND JUMP JUMPDEST PUSH2 0x1D52 SWAP1 SWAP2 SWAP1 PUSH4 0xFFFFFFFF AND JUMP JUMPDEST SWAP1 POP PUSH1 0x0 DUP2 GT ISZERO PUSH2 0x7F6 JUMPI PUSH2 0x7F5 PUSH2 0x7AC PUSH2 0x1B6A JUMP JUMPDEST DUP3 PUSH1 0x1 PUSH1 0x0 SWAP1 SLOAD SWAP1 PUSH2 0x100 EXP SWAP1 DIV PUSH20 0xFFFFFFFFFFFFFFFFFFFFFFFFFFFFFFFFFFFFFFFF AND PUSH20 0xFFFFFFFFFFFFFFFFFFFFFFFFFFFFFFFFFFFFFFFF AND PUSH2 0x1D68 SWAP1 SWAP3 SWAP2 SWAP1 PUSH4 0xFFFFFFFF AND JUMP JUMPDEST JUMPDEST POP JUMP JUMPDEST PUSH1 0x0 PUSH2 0x842 PUSH1 0x6 PUSH1 0x0 DUP5 PUSH20 0xFFFFFFFFFFFFFFFFFFFFFFFFFFFFFFFFFFFFFFFF AND PUSH20 0xFFFFFFFFFFFFFFFFFFFFFFFFFFFFFFFFFFFFFFFF AND DUP2 MSTORE PUSH1 0x20 ADD SWAP1 DUP2 MSTORE PUSH1 0x20 ADD PUSH1 0x0 KECCAK256 PUSH2 0x1DEE JUMP JUMPDEST SWAP1 POP SWAP2 SWAP1 POP JUMP JUMPDEST PUSH1 0x2 SLOAD DUP2 JUMP JUMPDEST PUSH1 0xA DUP2 JUMP JUMPDEST PUSH1 0x3 PUSH1 0x20 MSTORE DUP1 PUSH1 0x0 MSTORE PUSH1 0x40 PUSH1 0x0 KECCAK256 PUSH1 0x0 SWAP2 POP SWAP1 POP DUP1 PUSH1 0x0 ADD SLOAD SWAP1 DUP1 PUSH1 0x1 ADD SLOAD SWAP1 DUP1 PUSH1 0x2 ADD SLOAD SWAP1 DUP1 PUSH1 0x3 ADD SLOAD SWAP1 DUP1 PUSH1 0x4 ADD SLOAD SWAP1 DUP1 PUSH1 0x5 ADD SLOAD SWAP1 DUP1 PUSH1 0x6 ADD SLOAD SWAP1 POP DUP8 JUMP JUMPDEST PUSH3 0x278D00 DUP2 JUMP JUMPDEST PUSH1 0x5 PUSH1 0x20 MSTORE DUP1 PUSH1 0x0 MSTORE PUSH1 0x40 PUSH1 0x0 KECCAK256 PUSH1 0x0 SWAP2 POP SWAP1 POP DUP1 PUSH1 0x0 ADD PUSH1 0x0 SWAP1 SLOAD SWAP1 PUSH2 0x100 EXP SWAP1 DIV PUSH20 0xFFFFFFFFFFFFFFFFFFFFFFFFFFFFFFFFFFFFFFFF AND SWAP1 DUP1 PUSH1 0x0 ADD PUSH1 0x14 SWAP1 SLOAD SWAP1 PUSH2 0x100 EXP SWAP1 DIV PUSH1 0xFF AND SWAP1 DUP1 PUSH1 0x1 ADD SLOAD SWAP1 DUP1 PUSH1 0x2 ADD SLOAD SWAP1 POP DUP5 JUMP JUMPDEST PUSH1 0x0 PUSH2 0x93F PUSH2 0x90A DUP4 PUSH1 0x2 PUSH2 0x60A JUMP JUMPDEST PUSH2 0x931 PUSH2 0x918 DUP6 PUSH1 0x1 PUSH2 0x60A JUMP JUMPDEST PUSH2 0x923 DUP7 PUSH1 0x0 PUSH2 0x60A JUMP JUMPDEST PUSH2 0x1D52 SWAP1 SWAP2 SWAP1 PUSH4 0xFFFFFFFF AND JUMP JUMPDEST PUSH2 0x1D52 SWAP1 SWAP2 SWAP1 PUSH4 0xFFFFFFFF AND JUMP JUMPDEST SWAP1 POP SWAP2 SWAP1 POP JUMP JUMPDEST PUSH2 0x94E PUSH2 0x1E03 JUMP JUMPDEST PUSH2 0x958 PUSH1 0x0 PUSH2 0x1E81 JUMP JUMPDEST JUMP JUMPDEST PUSH2 0x962 PUSH2 0x1E03 JUMP JUMPDEST PUSH1 0x0 PUSH1 0x3 PUSH1 0x0 DUP4 PUSH1 0x2 DUP2 GT ISZERO PUSH2 0x97B JUMPI PUSH2 0x97A PUSH2 0x2DB8 JUMP JUMPDEST JUMPDEST PUSH1 0x2 DUP2 GT ISZERO PUSH2 0x98D JUMPI PUSH2 0x98C PUSH2 0x2DB8 JUMP JUMPDEST JUMPDEST DUP2 MSTORE PUSH1 0x20 ADD SWAP1 DUP2 MSTORE PUSH1 0x20 ADD PUSH1 0x0 KECCAK256 SWAP1 POP PUSH1 0x0 PUSH2 0x9F9 DUP3 PUSH1 0x40 MLOAD DUP1 PUSH1 0xE0 ADD PUSH1 0x40 MSTORE SWAP1 DUP2 PUSH1 0x0 DUP3 ADD SLOAD DUP2 MSTORE PUSH1 0x20 ADD PUSH1 0x1 DUP3 ADD SLOAD DUP2 MSTORE PUSH1 0x20 ADD PUSH1 0x2 DUP3 ADD SLOAD DUP2 MSTORE PUSH1 0x20 ADD PUSH1 0x3 DUP3 ADD SLOAD DUP2 MSTORE PUSH1 0x20 ADD PUSH1 0x4 DUP3 ADD SLOAD DUP2 MSTORE PUSH1 0x20 ADD PUSH1 0x5 DUP3 ADD SLOAD DUP2 MSTORE PUSH1 0x20 ADD PUSH1 0x6 DUP3 ADD SLOAD DUP2 MSTORE POP POP PUSH2 0x5E6 JUMP JUMPDEST SWAP1 POP PUSH1 0x0 DUP2 GT ISZERO PUSH2 0xAC2 JUMPI PUSH2 0xA1B DUP2 DUP4 PUSH1 0x1 ADD SLOAD PUSH2 0x17DA SWAP1 SWAP2 SWAP1 PUSH4 0xFFFFFFFF AND JUMP JUMPDEST DUP3 PUSH1 0x1 ADD DUP2 SWAP1 SSTORE POP PUSH2 0xA77 PUSH2 0xA2E PUSH2 0x1B6A JUMP JUMPDEST DUP3 PUSH1 0x1 PUSH1 0x0 SWAP1 SLOAD SWAP1 PUSH2 0x100 EXP SWAP1 DIV PUSH20 0xFFFFFFFFFFFFFFFFFFFFFFFFFFFFFFFFFFFFFFFF AND PUSH20 0xFFFFFFFFFFFFFFFFFFFFFFFFFFFFFFFFFFFFFFFF AND PUSH2 0x1D68 SWAP1 SWAP3 SWAP2 SWAP1 PUSH4 0xFFFFFFFF AND JUMP JUMPDEST DUP3 PUSH1 0x2 DUP2 GT ISZERO PUSH2 0xA8A JUMPI PUSH2 0xA89 PUSH2 0x2DB8 JUMP JUMPDEST JUMPDEST PUSH32 0xB819D129D0582A3F999E8FE877FFE22795AD2228C7E577D09C19D4A3C5C7CF28 DUP3 PUSH1 0x40 MLOAD PUSH2 0xAB9 SWAP2 SWAP1 PUSH2 0x2BD5 JUMP JUMPDEST PUSH1 0x40 MLOAD DUP1 SWAP2 SUB SWAP1 LOG2 JUMPDEST POP POP POP JUMP JUMPDEST PUSH2 0xACF PUSH2 0x1E03 JUMP JUMPDEST NUMBER PUSH1 0x2 SLOAD GT PUSH2 0xB13 JUMPI PUSH1 0x40 MLOAD PUSH32 0x8C379A000000000000000000000000000000000000000000000000000000000 DUP2 MSTORE PUSH1 0x4 ADD PUSH2 0xB0A SWAP1 PUSH2 0x357F JUMP JUMPDEST PUSH1 0x40 MLOAD DUP1 SWAP2 SUB SWAP1 REVERT JUMPDEST PUSH2 0xB1E DUP4 DUP4 DUP4 PUSH2 0x1F45 JUMP JUMPDEST POP POP POP JUMP JUMPDEST PUSH1 0x60 PUSH1 0x0 PUSH2 0xB75 PUSH1 0x6 PUSH1 0x0 PUSH2 0xB36 PUSH2 0x1B6A JUMP JUMPDEST PUSH20 0xFFFFFFFFFFFFFFFFFFFFFFFFFFFFFFFFFFFFFFFF AND PUSH20 0xFFFFFFFFFFFFFFFFFFFFFFFFFFFFFFFFFFFFFFFF AND DUP2 MSTORE PUSH1 0x20 ADD SWAP1 DUP2 MSTORE PUSH1 0x20 ADD PUSH1 0x0 KECCAK256 PUSH2 0x1DEE JUMP JUMPDEST SWAP1 POP PUSH1 0x0 PUSH2 0xBB0 DUP6 PUSH2 0xBA2 DUP5 PUSH2 0xB94 DUP9 DUP11 PUSH2 0x1D52 SWAP1 SWAP2 SWAP1 PUSH4 0xFFFFFFFF AND JUMP JUMPDEST PUSH2 0x223C SWAP1 SWAP2 SWAP1 PUSH4 0xFFFFFFFF AND JUMP JUMPDEST PUSH2 0x2255 SWAP1 SWAP2 SWAP1 PUSH4 0xFFFFFFFF AND JUMP JUMPDEST SWAP1 POP PUSH2 0xBC5 DUP6 DUP3 PUSH2 0x17DA SWAP1 SWAP2 SWAP1 PUSH4 0xFFFFFFFF AND JUMP JUMPDEST PUSH8 0xFFFFFFFFFFFFFFFF DUP2 GT ISZERO PUSH2 0xBDE JUMPI PUSH2 0xBDD PUSH2 0x2A34 JUMP JUMPDEST JUMPDEST PUSH1 0x40 MLOAD SWAP1 DUP1 DUP3 MSTORE DUP1 PUSH1 0x20 MUL PUSH1 0x20 ADD DUP3 ADD PUSH1 0x40 MSTORE DUP1 ISZERO PUSH2 0xC17 JUMPI DUP2 PUSH1 0x20 ADD JUMPDEST PUSH2 0xC04 PUSH2 0x2984 JUMP JUMPDEST DUP2 MSTORE PUSH1 0x20 ADD SWAP1 PUSH1 0x1 SWAP1 SUB SWAP1 DUP2 PUSH2 0xBFC JUMPI SWAP1 POP JUMPDEST POP SWAP3 POP PUSH1 0x0 DUP6 SWAP1 POP JUMPDEST DUP2 DUP2 LT ISZERO PUSH2 0xD91 JUMPI PUSH1 0x0 PUSH2 0xC82 DUP3 PUSH1 0x6 PUSH1 0x0 PUSH2 0xC3A PUSH2 0x1B6A JUMP JUMPDEST PUSH20 0xFFFFFFFFFFFFFFFFFFFFFFFFFFFFFFFFFFFFFFFF AND PUSH20 0xFFFFFFFFFFFFFFFFFFFFFFFFFFFFFFFFFFFFFFFF AND DUP2 MSTORE PUSH1 0x20 ADD SWAP1 DUP2 MSTORE PUSH1 0x20 ADD PUSH1 0x0 KECCAK256 PUSH2 0x226E SWAP1 SWAP2 SWAP1 PUSH4 0xFFFFFFFF AND JUMP JUMPDEST SWAP1 POP PUSH1 0x0 PUSH2 0xC99 DUP9 DUP5 PUSH2 0x17DA SWAP1 SWAP2 SWAP1 PUSH4 0xFFFFFFFF AND JUMP JUMPDEST SWAP1 POP PUSH1 0x5 PUSH1 0x0 DUP4 DUP2 MSTORE PUSH1 0x20 ADD SWAP1 DUP2 MSTORE PUSH1 0x20 ADD PUSH1 0x0 KECCAK256 PUSH1 0x40 MLOAD DUP1 PUSH1 0x80 ADD PUSH1 0x40 MSTORE SWAP1 DUP2 PUSH1 0x0 DUP3 ADD PUSH1 0x0 SWAP1 SLOAD SWAP1 PUSH2 0x100 EXP SWAP1 DIV PUSH20 0xFFFFFFFFFFFFFFFFFFFFFFFFFFFFFFFFFFFFFFFF AND PUSH20 0xFFFFFFFFFFFFFFFFFFFFFFFFFFFFFFFFFFFFFFFF AND PUSH20 0xFFFFFFFFFFFFFFFFFFFFFFFFFFFFFFFFFFFFFFFF AND DUP2 MSTORE PUSH1 0x20 ADD PUSH1 0x0 DUP3 ADD PUSH1 0x14 SWAP1 SLOAD SWAP1 PUSH2 0x100 EXP SWAP1 DIV PUSH1 0xFF AND PUSH1 0x2 DUP2 GT ISZERO PUSH2 0xD34 JUMPI PUSH2 0xD33 PUSH2 0x2DB8 JUMP JUMPDEST JUMPDEST PUSH1 0x2 DUP2 GT ISZERO PUSH2 0xD46 JUMPI PUSH2 0xD45 PUSH2 0x2DB8 JUMP JUMPDEST JUMPDEST DUP2 MSTORE PUSH1 0x20 ADD PUSH1 0x1 DUP3 ADD SLOAD DUP2 MSTORE PUSH1 0x20 ADD PUSH1 0x2 DUP3 ADD SLOAD DUP2 MSTORE POP POP DUP7 DUP3 DUP2 MLOAD DUP2 LT PUSH2 0xD71 JUMPI PUSH2 0xD70 PUSH2 0x359F JUMP JUMPDEST JUMPDEST PUSH1 0x20 MUL PUSH1 0x20 ADD ADD DUP2 SWAP1 MSTORE POP POP POP DUP1 DUP1 PUSH2 0xD89 SWAP1 PUSH2 0x35FD JUMP JUMPDEST SWAP2 POP POP PUSH2 0xC20 JUMP JUMPDEST POP POP POP SWAP3 SWAP2 POP POP JUMP JUMPDEST PUSH1 0x0 PUSH2 0xDB7 DUP3 PUSH1 0x60 ADD MLOAD DUP4 PUSH1 0x20 ADD MLOAD PUSH2 0x17DA SWAP1 SWAP2 SWAP1 PUSH4 0xFFFFFFFF AND JUMP JUMPDEST SWAP1 POP SWAP2 SWAP1 POP JUMP JUMPDEST PUSH2 0xDC6 PUSH2 0x1E03 JUMP JUMPDEST PUSH2 0xDD3 DUP6 DUP6 DUP6 DUP6 DUP6 PUSH2 0x2288 JUMP JUMPDEST POP POP POP POP POP JUMP JUMPDEST PUSH2 0xDE2 PUSH2 0x1E03 JUMP JUMPDEST NUMBER PUSH1 0x2 SLOAD GT PUSH2 0xE26 JUMPI PUSH1 0x40 MLOAD PUSH32 0x8C379A000000000000000000000000000000000000000000000000000000000 DUP2 MSTORE PUSH1 0x4 ADD PUSH2 0xE1D SWAP1 PUSH2 0x357F JUMP JUMPDEST PUSH1 0x40 MLOAD DUP1 SWAP2 SUB SWAP1 REVERT JUMPDEST PUSH1 0x1E DUP7 DUP7 SWAP1 POP GT ISZERO PUSH2 0xE6D JUMPI PUSH1 0x40 MLOAD PUSH32 0x8C379A000000000000000000000000000000000000000000000000000000000 DUP2 MSTORE PUSH1 0x4 ADD PUSH2 0xE64 SWAP1 PUSH2 0x3692 JUMP JUMPDEST PUSH1 0x40 MLOAD DUP1 SWAP2 SUB SWAP1 REVERT JUMPDEST DUP4 DUP4 SWAP1 POP DUP7 DUP7 SWAP1 POP EQ DUP1 ISZERO PUSH2 0xE87 JUMPI POP DUP2 DUP2 SWAP1 POP DUP5 DUP5 SWAP1 POP EQ JUMPDEST PUSH2 0xEC6 JUMPI PUSH1 0x40 MLOAD PUSH32 0x8C379A000000000000000000000000000000000000000000000000000000000 DUP2 MSTORE PUSH1 0x4 ADD PUSH2 0xEBD SWAP1 PUSH2 0x36FE JUMP JUMPDEST PUSH1 0x40 MLOAD DUP1 SWAP2 SUB SWAP1 REVERT JUMPDEST PUSH1 0x0 JUMPDEST DUP7 DUP7 SWAP1 POP DUP2 LT ISZERO PUSH2 0xF59 JUMPI PUSH2 0xF46 DUP8 DUP8 DUP4 DUP2 DUP2 LT PUSH2 0xEEA JUMPI PUSH2 0xEE9 PUSH2 0x359F JUMP JUMPDEST JUMPDEST SWAP1 POP PUSH1 0x20 MUL ADD PUSH1 0x20 DUP2 ADD SWAP1 PUSH2 0xEFF SWAP2 SWAP1 PUSH2 0x2CB3 JUMP JUMPDEST DUP7 DUP7 DUP5 DUP2 DUP2 LT PUSH2 0xF12 JUMPI PUSH2 0xF11 PUSH2 0x359F JUMP JUMPDEST JUMPDEST SWAP1 POP PUSH1 0x20 MUL ADD PUSH1 0x20 DUP2 ADD SWAP1 PUSH2 0xF27 SWAP2 SWAP1 PUSH2 0x2CE0 JUMP JUMPDEST DUP6 DUP6 DUP6 DUP2 DUP2 LT PUSH2 0xF3A JUMPI PUSH2 0xF39 PUSH2 0x359F JUMP JUMPDEST JUMPDEST SWAP1 POP PUSH1 0x20 MUL ADD CALLDATALOAD PUSH2 0x1F45 JUMP JUMPDEST DUP1 DUP1 PUSH2 0xF51 SWAP1 PUSH2 0x35FD JUMP JUMPDEST SWAP2 POP POP PUSH2 0xEC9 JUMP JUMPDEST POP POP POP POP POP POP POP JUMP JUMPDEST PUSH1 0x0 DUP1 PUSH1 0x0 SWAP1 SLOAD SWAP1 PUSH2 0x100 EXP SWAP1 DIV PUSH20 0xFFFFFFFFFFFFFFFFFFFFFFFFFFFFFFFFFFFFFFFF AND SWAP1 POP SWAP1 JUMP JUMPDEST PUSH2 0xF93 PUSH2 0x1E03 JUMP JUMPDEST PUSH1 0x3 PUSH1 0x0 DUP4 PUSH1 0x2 DUP2 GT ISZERO PUSH2 0xFAA JUMPI PUSH2 0xFA9 PUSH2 0x2DB8 JUMP JUMPDEST JUMPDEST PUSH1 0x2 DUP2 GT ISZERO PUSH2 0xFBC JUMPI PUSH2 0xFBB PUSH2 0x2DB8 JUMP JUMPDEST JUMPDEST DUP2 MSTORE PUSH1 0x20 ADD SWAP1 DUP2 MSTORE PUSH1 0x20 ADD PUSH1 0x0 KECCAK256 PUSH1 0x0 ADD SLOAD PUSH2 0x101B DUP3 PUSH1 0x3 PUSH1 0x0 DUP7 PUSH1 0x2 DUP2 GT ISZERO PUSH2 0xFE9 JUMPI PUSH2 0xFE8 PUSH2 0x2DB8 JUMP JUMPDEST JUMPDEST PUSH1 0x2 DUP2 GT ISZERO PUSH2 0xFFB JUMPI PUSH2 0xFFA PUSH2 0x2DB8 JUMP JUMPDEST JUMPDEST DUP2 MSTORE PUSH1 0x20 ADD SWAP1 DUP2 MSTORE PUSH1 0x20 ADD PUSH1 0x0 KECCAK256 PUSH1 0x1 ADD SLOAD PUSH2 0x1D52 SWAP1 SWAP2 SWAP1 PUSH4 0xFFFFFFFF AND JUMP JUMPDEST GT ISZERO PUSH2 0x105C JUMPI PUSH1 0x40 MLOAD PUSH32 0x8C379A000000000000000000000000000000000000000000000000000000000 DUP2 MSTORE PUSH1 0x4 ADD PUSH2 0x1053 SWAP1 PUSH2 0x3790 JUMP JUMPDEST PUSH1 0x40 MLOAD DUP1 SWAP2 SUB SWAP1 REVERT JUMPDEST PUSH2 0x10A9 DUP2 PUSH1 0x3 PUSH1 0x0 DUP6 PUSH1 0x2 DUP2 GT ISZERO PUSH2 0x1077 JUMPI PUSH2 0x1076 PUSH2 0x2DB8 JUMP JUMPDEST JUMPDEST PUSH1 0x2 DUP2 GT ISZERO PUSH2 0x1089 JUMPI PUSH2 0x1088 PUSH2 0x2DB8 JUMP JUMPDEST JUMPDEST DUP2 MSTORE PUSH1 0x20 ADD SWAP1 DUP2 MSTORE PUSH1 0x20 ADD PUSH1 0x0 KECCAK256 PUSH1 0x1 ADD SLOAD PUSH2 0x1D52 SWAP1 SWAP2 SWAP1 PUSH4 0xFFFFFFFF AND JUMP JUMPDEST PUSH1 0x3 PUSH1 0x0 DUP5 PUSH1 0x2 DUP2 GT ISZERO PUSH2 0x10C0 JUMPI PUSH2 0x10BF PUSH2 0x2DB8 JUMP JUMPDEST JUMPDEST PUSH1 0x2 DUP2 GT ISZERO PUSH2 0x10D2 JUMPI PUSH2 0x10D1 PUSH2 0x2DB8 JUMP JUMPDEST JUMPDEST DUP2 MSTORE PUSH1 0x20 ADD SWAP1 DUP2 MSTORE PUSH1 0x20 ADD PUSH1 0x0 KECCAK256 PUSH1 0x1 ADD DUP2 SWAP1 SSTORE POP PUSH2 0x113D PUSH2 0x10F2 PUSH2 0x1B6A JUMP JUMPDEST ADDRESS DUP4 PUSH1 0x1 PUSH1 0x0 SWAP1 SLOAD SWAP1 PUSH2 0x100 EXP SWAP1 DIV PUSH20 0xFFFFFFFFFFFFFFFFFFFFFFFFFFFFFFFFFFFFFFFF AND PUSH20 0xFFFFFFFFFFFFFFFFFFFFFFFFFFFFFFFFFFFFFFFF AND PUSH2 0x23CA SWAP1 SWAP4 SWAP3 SWAP2 SWAP1 PUSH4 0xFFFFFFFF AND JUMP JUMPDEST DUP2 PUSH1 0x2 DUP2 GT ISZERO PUSH2 0x1150 JUMPI PUSH2 0x114F PUSH2 0x2DB8 JUMP JUMPDEST JUMPDEST PUSH32 0x1ED1842DE53A6797BCD103B15EF4C2CFE977CD44A413AE3EF35BFF8C6D252F61 DUP3 PUSH1 0x40 MLOAD PUSH2 0x117F SWAP2 SWAP1 PUSH2 0x2BD5 JUMP JUMPDEST PUSH1 0x40 MLOAD DUP1 SWAP2 SUB SWAP1 LOG2 POP POP JUMP JUMPDEST PUSH2 0x1193 PUSH2 0x29D4 JUMP JUMPDEST PUSH1 0x0 PUSH1 0x3 PUSH1 0x0 DUP5 PUSH1 0x2 DUP2 GT ISZERO PUSH2 0x11AC JUMPI PUSH2 0x11AB PUSH2 0x2DB8 JUMP JUMPDEST JUMPDEST PUSH1 0x2 DUP2 GT ISZERO PUSH2 0x11BE JUMPI PUSH2 0x11BD PUSH2 0x2DB8 JUMP JUMPDEST JUMPDEST DUP2 MSTORE PUSH1 0x20 ADD SWAP1 DUP2 MSTORE PUSH1 0x20 ADD PUSH1 0x0 KECCAK256 PUSH1 0x40 MLOAD DUP1 PUSH1 0xE0 ADD PUSH1 0x40 MSTORE SWAP1 DUP2 PUSH1 0x0 DUP3 ADD SLOAD DUP2 MSTORE PUSH1 0x20 ADD PUSH1 0x1 DUP3 ADD SLOAD DUP2 MSTORE PUSH1 0x20 ADD PUSH1 0x2 DUP3 ADD SLOAD DUP2 MSTORE PUSH1 0x20 ADD PUSH1 0x3 DUP3 ADD SLOAD DUP2 MSTORE PUSH1 0x20 ADD PUSH1 0x4 DUP3 ADD SLOAD DUP2 MSTORE PUSH1 0x20 ADD PUSH1 0x5 DUP3 ADD SLOAD DUP2 MSTORE PUSH1 0x20 ADD PUSH1 0x6 DUP3 ADD SLOAD DUP2 MSTORE POP POP SWAP1 POP DUP1 PUSH1 0x0 ADD MLOAD DUP3 PUSH1 0x0 ADD DUP2 DUP2 MSTORE POP POP DUP1 PUSH1 0x20 ADD MLOAD DUP3 PUSH1 0x20 ADD DUP2 DUP2 MSTORE POP POP PUSH2 0x1244 DUP2 PUSH2 0xD9A JUMP JUMPDEST DUP3 PUSH1 0x40 ADD DUP2 DUP2 MSTORE POP POP DUP1 PUSH1 0x40 ADD MLOAD DUP3 PUSH1 0x60 ADD DUP2 DUP2 MSTORE POP POP DUP1 PUSH1 0x60 ADD MLOAD DUP3 PUSH1 0x80 ADD DUP2 DUP2 MSTORE POP POP PUSH2 0x1272 DUP2 PUSH2 0x5E6 JUMP JUMPDEST DUP3 PUSH1 0xA0 ADD DUP2 DUP2 MSTORE POP POP POP SWAP2 SWAP1 POP JUMP JUMPDEST PUSH2 0x1289 PUSH2 0x1E03 JUMP JUMPDEST PUSH1 0x0 PUSH1 0x2 SLOAD EQ PUSH2 0x12D8 JUMPI PUSH1 0x2 SLOAD DUP2 LT PUSH2 0x12D7 JUMPI PUSH1 0x40 MLOAD PUSH32 0x8C379A000000000000000000000000000000000000000000000000000000000 DUP2 MSTORE PUSH1 0x4 ADD PUSH2 0x12CE SWAP1 PUSH2 0x37FC JUMP JUMPDEST PUSH1 0x40 MLOAD DUP1 SWAP2 SUB SWAP1 REVERT JUMPDEST JUMPDEST NUMBER DUP2 GT PUSH2 0x131A JUMPI PUSH1 0x40 MLOAD PUSH32 0x8C379A000000000000000000000000000000000000000000000000000000000 DUP2 MSTORE PUSH1 0x4 ADD PUSH2 0x1311 SWAP1 PUSH2 0x388E JUMP JUMPDEST PUSH1 0x40 MLOAD DUP1 SWAP2 SUB SWAP1 REVERT JUMPDEST DUP1 PUSH1 0x2 DUP2 SWAP1 SSTORE POP POP JUMP JUMPDEST PUSH1 0x1E DUP2 JUMP JUMPDEST PUSH11 0x84595161401484A000000 DUP2 JUMP JUMPDEST PUSH2 0x1340 PUSH2 0x1E03 JUMP JUMPDEST DUP8 DUP8 SWAP1 POP DUP11 DUP11 SWAP1 POP EQ DUP1 ISZERO PUSH2 0x135A JUMPI POP DUP6 DUP6 SWAP1 POP DUP9 DUP9 SWAP1 POP EQ JUMPDEST DUP1 ISZERO PUSH2 0x136B JUMPI POP DUP4 DUP4 SWAP1 POP DUP7 DUP7 SWAP1 POP EQ JUMPDEST DUP1 ISZERO PUSH2 0x137C JUMPI POP DUP2 DUP2 SWAP1 POP DUP5 DUP5 SWAP1 POP EQ JUMPDEST PUSH2 0x13BB JUMPI PUSH1 0x40 MLOAD PUSH32 0x8C379A000000000000000000000000000000000000000000000000000000000 DUP2 MSTORE PUSH1 0x4 ADD PUSH2 0x13B2 SWAP1 PUSH2 0x36FE JUMP JUMPDEST PUSH1 0x40 MLOAD DUP1 SWAP2 SUB SWAP1 REVERT JUMPDEST PUSH1 0x0 JUMPDEST DUP11 DUP11 SWAP1 POP DUP2 LT ISZERO PUSH2 0x1474 JUMPI PUSH2 0x1461 DUP12 DUP12 DUP4 DUP2 DUP2 LT PUSH2 0x13DF JUMPI PUSH2 0x13DE PUSH2 0x359F JUMP JUMPDEST JUMPDEST SWAP1 POP PUSH1 0x20 MUL ADD PUSH1 0x20 DUP2 ADD SWAP1 PUSH2 0x13F4 SWAP2 SWAP1 PUSH2 0x2CE0 JUMP JUMPDEST DUP11 DUP11 DUP5 DUP2 DUP2 LT PUSH2 0x1407 JUMPI PUSH2 0x1406 PUSH2 0x359F JUMP JUMPDEST JUMPDEST SWAP1 POP PUSH1 0x20 MUL ADD CALLDATALOAD DUP10 DUP10 DUP6 DUP2 DUP2 LT PUSH2 0x1421 JUMPI PUSH2 0x1420 PUSH2 0x359F JUMP JUMPDEST JUMPDEST SWAP1 POP PUSH1 0x20 MUL ADD CALLDATALOAD DUP9 DUP9 DUP7 DUP2 DUP2 LT PUSH2 0x143B JUMPI PUSH2 0x143A PUSH2 0x359F JUMP JUMPDEST JUMPDEST SWAP1 POP PUSH1 0x20 MUL ADD CALLDATALOAD DUP8 DUP8 DUP8 DUP2 DUP2 LT PUSH2 0x1455 JUMPI PUSH2 0x1454 PUSH2 0x359F JUMP JUMPDEST JUMPDEST SWAP1 POP PUSH1 0x20 MUL ADD CALLDATALOAD PUSH2 0x2288 JUMP JUMPDEST DUP1 DUP1 PUSH2 0x146C SWAP1 PUSH2 0x35FD JUMP JUMPDEST SWAP2 POP POP PUSH2 0x13BE JUMP JUMPDEST POP POP POP POP POP POP POP POP POP POP POP JUMP JUMPDEST PUSH3 0x34BC0 DUP2 JUMP JUMPDEST PUSH11 0x84595161401484A000000 PUSH1 0x64 PUSH2 0x14A0 SWAP2 SWAP1 PUSH2 0x38AE JUMP JUMPDEST DUP2 JUMP JUMPDEST PUSH2 0x14AB PUSH2 0x1E03 JUMP JUMPDEST DUP2 DUP2 PUSH2 0x14B7 DUP3 DUP3 PUSH2 0x17F0 JUMP JUMPDEST PUSH2 0x14F6 JUMPI PUSH1 0x40 MLOAD PUSH32 0x8C379A000000000000000000000000000000000000000000000000000000000 DUP2 MSTORE PUSH1 0x4 ADD PUSH2 0x14ED SWAP1 PUSH2 0x397A JUMP JUMPDEST PUSH1 0x40 MLOAD DUP1 SWAP2 SUB SWAP1 REVERT JUMPDEST PUSH1 0x0 PUSH1 0x7 PUSH1 0x0 DUP7 PUSH20 0xFFFFFFFFFFFFFFFFFFFFFFFFFFFFFFFFFFFFFFFF AND PUSH20 0xFFFFFFFFFFFFFFFFFFFFFFFFFFFFFFFFFFFFFFFF AND DUP2 MSTORE PUSH1 0x20 ADD SWAP1 DUP2 MSTORE PUSH1 0x20 ADD PUSH1 0x0 KECCAK256 PUSH1 0x0 DUP6 PUSH1 0x2 DUP2 GT ISZERO PUSH2 0x154C JUMPI PUSH2 0x154B PUSH2 0x2DB8 JUMP JUMPDEST JUMPDEST PUSH1 0x2 DUP2 GT ISZERO PUSH2 0x155E JUMPI PUSH2 0x155D PUSH2 0x2DB8 JUMP JUMPDEST JUMPDEST DUP2 MSTORE PUSH1 0x20 ADD SWAP1 DUP2 MSTORE PUSH1 0x20 ADD PUSH1 0x0 KECCAK256 SLOAD SWAP1 POP PUSH1 0x0 PUSH1 0x3 PUSH1 0x0 DUP7 PUSH1 0x2 DUP2 GT ISZERO PUSH2 0x1588 JUMPI PUSH2 0x1587 PUSH2 0x2DB8 JUMP JUMPDEST JUMPDEST PUSH1 0x2 DUP2 GT ISZERO PUSH2 0x159A JUMPI PUSH2 0x1599 PUSH2 0x2DB8 JUMP JUMPDEST JUMPDEST DUP2 MSTORE PUSH1 0x20 ADD SWAP1 DUP2 MSTORE PUSH1 0x20 ADD PUSH1 0x0 KECCAK256 SWAP1 POP PUSH1 0x0 PUSH1 0x5 PUSH1 0x0 DUP5 DUP2 MSTORE PUSH1 0x20 ADD SWAP1 DUP2 MSTORE PUSH1 0x20 ADD PUSH1 0x0 KECCAK256 PUSH1 0x1 ADD SLOAD SWAP1 POP PUSH2 0x1604 PUSH2 0x15F1 PUSH1 0x5 PUSH1 0x0 DUP7 DUP2 MSTORE PUSH1 0x20 ADD SWAP1 DUP2 MSTORE PUSH1 0x20 ADD PUSH1 0x0 KECCAK256 PUSH1 0x2 ADD SLOAD DUP4 PUSH2 0x17DA SWAP1 SWAP2 SWAP1 PUSH4 0xFFFFFFFF AND JUMP JUMPDEST DUP4 PUSH1 0x2 ADD SLOAD PUSH2 0x17DA SWAP1 SWAP2 SWAP1 PUSH4 0xFFFFFFFF AND JUMP JUMPDEST DUP3 PUSH1 0x2 ADD DUP2 SWAP1 SSTORE POP PUSH2 0x165D DUP4 PUSH1 0x6 PUSH1 0x0 DUP11 PUSH20 0xFFFFFFFFFFFFFFFFFFFFFFFFFFFFFFFFFFFFFFFF AND PUSH20 0xFFFFFFFFFFFFFFFFFFFFFFFFFFFFFFFFFFFFFFFF AND DUP2 MSTORE PUSH1 0x20 ADD SWAP1 DUP2 MSTORE PUSH1 0x20 ADD PUSH1 0x0 KECCAK256 PUSH2 0x2453 SWAP1 SWAP2 SWAP1 PUSH4 0xFFFFFFFF AND JUMP JUMPDEST POP PUSH1 0x0 PUSH1 0x7 PUSH1 0x0 DUP10 PUSH20 0xFFFFFFFFFFFFFFFFFFFFFFFFFFFFFFFFFFFFFFFF AND PUSH20 0xFFFFFFFFFFFFFFFFFFFFFFFFFFFFFFFFFFFFFFFF AND DUP2 MSTORE PUSH1 0x20 ADD SWAP1 DUP2 MSTORE PUSH1 0x20 ADD PUSH1 0x0 KECCAK256 PUSH1 0x0 DUP9 PUSH1 0x2 DUP2 GT ISZERO PUSH2 0x16B4 JUMPI PUSH2 0x16B3 PUSH2 0x2DB8 JUMP JUMPDEST JUMPDEST PUSH1 0x2 DUP2 GT ISZERO PUSH2 0x16C6 JUMPI PUSH2 0x16C5 PUSH2 0x2DB8 JUMP JUMPDEST JUMPDEST DUP2 MSTORE PUSH1 0x20 ADD SWAP1 DUP2 MSTORE PUSH1 0x20 ADD PUSH1 0x0 KECCAK256 DUP2 SWAP1 SSTORE POP DUP7 PUSH20 0xFFFFFFFFFFFFFFFFFFFFFFFFFFFFFFFFFFFFFFFF AND DUP4 PUSH32 0x42CCBA9814DF52D01C2FD804F92A6EDEDBF830AD1BC8DF0E2151BE9C2631DF23 DUP4 PUSH1 0x40 MLOAD PUSH2 0x171F SWAP2 SWAP1 PUSH2 0x2BD5 JUMP JUMPDEST PUSH1 0x40 MLOAD DUP1 SWAP2 SUB SWAP1 LOG3 POP POP POP POP POP POP POP JUMP JUMPDEST PUSH2 0x1738 PUSH2 0x1E03 JUMP JUMPDEST PUSH1 0x0 PUSH20 0xFFFFFFFFFFFFFFFFFFFFFFFFFFFFFFFFFFFFFFFF AND DUP2 PUSH20 0xFFFFFFFFFFFFFFFFFFFFFFFFFFFFFFFFFFFFFFFF AND EQ ISZERO PUSH2 0x17A8 JUMPI PUSH1 0x40 MLOAD PUSH32 0x8C379A000000000000000000000000000000000000000000000000000000000 DUP2 MSTORE PUSH1 0x4 ADD PUSH2 0x179F SWAP1 PUSH2 0x3A0C JUMP JUMPDEST PUSH1 0x40 MLOAD DUP1 SWAP2 SUB SWAP1 REVERT JUMPDEST PUSH2 0x17B1 DUP2 PUSH2 0x1E81 JUMP JUMPDEST POP JUMP JUMPDEST PUSH1 0x1 PUSH1 0x0 SWAP1 SLOAD SWAP1 PUSH2 0x100 EXP SWAP1 DIV PUSH20 0xFFFFFFFFFFFFFFFFFFFFFFFFFFFFFFFFFFFFFFFF AND DUP2 JUMP JUMPDEST PUSH1 0x0 DUP2 DUP4 PUSH2 0x17E8 SWAP2 SWAP1 PUSH2 0x3A2C JUMP JUMPDEST SWAP1 POP SWAP3 SWAP2 POP POP JUMP JUMPDEST PUSH1 0x0 DUP1 PUSH1 0x7 PUSH1 0x0 DUP6 PUSH20 0xFFFFFFFFFFFFFFFFFFFFFFFFFFFFFFFFFFFFFFFF AND PUSH20 0xFFFFFFFFFFFFFFFFFFFFFFFFFFFFFFFFFFFFFFFF AND DUP2 MSTORE PUSH1 0x20 ADD SWAP1 DUP2 MSTORE PUSH1 0x20 ADD PUSH1 0x0 KECCAK256 PUSH1 0x0 DUP5 PUSH1 0x2 DUP2 GT ISZERO PUSH2 0x1847 JUMPI PUSH2 0x1846 PUSH2 0x2DB8 JUMP JUMPDEST JUMPDEST PUSH1 0x2 DUP2 GT ISZERO PUSH2 0x1859 JUMPI PUSH2 0x1858 PUSH2 0x2DB8 JUMP JUMPDEST JUMPDEST DUP2 MSTORE PUSH1 0x20 ADD SWAP1 DUP2 MSTORE PUSH1 0x20 ADD PUSH1 0x0 KECCAK256 SLOAD SWAP1 POP PUSH2 0x18BB DUP2 PUSH1 0x6 PUSH1 0x0 DUP8 PUSH20 0xFFFFFFFFFFFFFFFFFFFFFFFFFFFFFFFFFFFFFFFF AND PUSH20 0xFFFFFFFFFFFFFFFFFFFFFFFFFFFFFFFFFFFFFFFF AND DUP2 MSTORE PUSH1 0x20 ADD SWAP1 DUP2 MSTORE PUSH1 0x20 ADD PUSH1 0x0 KECCAK256 PUSH2 0x246D SWAP1 SWAP2 SWAP1 PUSH4 0xFFFFFFFF AND JUMP JUMPDEST SWAP2 POP POP SWAP3 SWAP2 POP POP JUMP JUMPDEST PUSH1 0x0 DUP1 PUSH1 0x5 PUSH1 0x0 DUP5 DUP2 MSTORE PUSH1 0x20 ADD SWAP1 DUP2 MSTORE PUSH1 0x20 ADD PUSH1 0x0 KECCAK256 PUSH1 0x40 MLOAD DUP1 PUSH1 0x80 ADD PUSH1 0x40 MSTORE SWAP1 DUP2 PUSH1 0x0 DUP3 ADD PUSH1 0x0 SWAP1 SLOAD SWAP1 PUSH2 0x100 EXP SWAP1 DIV PUSH20 0xFFFFFFFFFFFFFFFFFFFFFFFFFFFFFFFFFFFFFFFF AND PUSH20 0xFFFFFFFFFFFFFFFFFFFFFFFFFFFFFFFFFFFFFFFF AND PUSH20 0xFFFFFFFFFFFFFFFFFFFFFFFFFFFFFFFFFFFFFFFF AND DUP2 MSTORE PUSH1 0x20 ADD PUSH1 0x0 DUP3 ADD PUSH1 0x14 SWAP1 SLOAD SWAP1 PUSH2 0x100 EXP SWAP1 DIV PUSH1 0xFF AND PUSH1 0x2 DUP2 GT ISZERO PUSH2 0x1960 JUMPI PUSH2 0x195F PUSH2 0x2DB8 JUMP JUMPDEST JUMPDEST PUSH1 0x2 DUP2 GT ISZERO PUSH2 0x1972 JUMPI PUSH2 0x1971 PUSH2 0x2DB8 JUMP JUMPDEST JUMPDEST DUP2 MSTORE PUSH1 0x20 ADD PUSH1 0x1 DUP3 ADD SLOAD DUP2 MSTORE PUSH1 0x20 ADD PUSH1 0x2 DUP3 ADD SLOAD DUP2 MSTORE POP POP SWAP1 POP PUSH1 0x0 PUSH1 0x3 PUSH1 0x0 DUP4 PUSH1 0x20 ADD MLOAD PUSH1 0x2 DUP2 GT ISZERO PUSH2 0x19A9 JUMPI PUSH2 0x19A8 PUSH2 0x2DB8 JUMP JUMPDEST JUMPDEST PUSH1 0x2 DUP2 GT ISZERO PUSH2 0x19BB JUMPI PUSH2 0x19BA PUSH2 0x2DB8 JUMP JUMPDEST JUMPDEST DUP2 MSTORE PUSH1 0x20 ADD SWAP1 DUP2 MSTORE PUSH1 0x20 ADD PUSH1 0x0 KECCAK256 PUSH1 0x40 MLOAD DUP1 PUSH1 0xE0 ADD PUSH1 0x40 MSTORE SWAP1 DUP2 PUSH1 0x0 DUP3 ADD SLOAD DUP2 MSTORE PUSH1 0x20 ADD PUSH1 0x1 DUP3 ADD SLOAD DUP2 MSTORE PUSH1 0x20 ADD PUSH1 0x2 DUP3 ADD SLOAD DUP2 MSTORE PUSH1 0x20 ADD PUSH1 0x3 DUP3 ADD SLOAD DUP2 MSTORE PUSH1 0x20 ADD PUSH1 0x4 DUP3 ADD SLOAD DUP2 MSTORE PUSH1 0x20 ADD PUSH1 0x5 DUP3 ADD SLOAD DUP2 MSTORE PUSH1 0x20 ADD PUSH1 0x6 DUP3 ADD SLOAD DUP2 MSTORE POP POP SWAP1 POP PUSH1 0x0 PUSH2 0x1A62 PUSH11 0x84595161401484A000000 PUSH1 0x64 PUSH2 0x1A39 SWAP2 SWAP1 PUSH2 0x38AE JUMP JUMPDEST PUSH2 0x1A54 DUP5 PUSH1 0x80 ADD MLOAD DUP7 PUSH1 0x40 ADD MLOAD PUSH2 0x2487 SWAP1 SWAP2 SWAP1 PUSH4 0xFFFFFFFF AND JUMP JUMPDEST PUSH2 0x249D SWAP1 SWAP2 SWAP1 PUSH4 0xFFFFFFFF AND JUMP JUMPDEST SWAP1 POP PUSH1 0x0 DUP2 SWAP1 POP PUSH1 0x0 PUSH2 0x1A97 PUSH2 0x1A86 PUSH1 0xA DUP7 PUSH1 0xA0 ADD MLOAD PUSH2 0x2487 SWAP1 SWAP2 SWAP1 PUSH4 0xFFFFFFFF AND JUMP JUMPDEST PUSH1 0x2 SLOAD PUSH2 0x1D52 SWAP1 SWAP2 SWAP1 PUSH4 0xFFFFFFFF AND JUMP JUMPDEST SWAP1 POP PUSH1 0x0 PUSH2 0x1AC5 PUSH2 0x1AB6 PUSH1 0xA DUP8 PUSH1 0xC0 ADD MLOAD PUSH2 0x2487 SWAP1 SWAP2 SWAP1 PUSH4 0xFFFFFFFF AND JUMP JUMPDEST DUP4 PUSH2 0x1D52 SWAP1 SWAP2 SWAP1 PUSH4 0xFFFFFFFF AND JUMP JUMPDEST SWAP1 POP DUP2 NUMBER GT ISZERO PUSH2 0x1B46 JUMPI PUSH1 0x0 PUSH2 0x1ADB DUP4 DUP4 PUSH2 0x24B3 JUMP JUMPDEST SWAP1 POP PUSH1 0x0 PUSH2 0x1AF6 DUP7 DUP10 PUSH1 0x40 ADD MLOAD PUSH2 0x17DA SWAP1 SWAP2 SWAP1 PUSH4 0xFFFFFFFF AND JUMP JUMPDEST SWAP1 POP PUSH2 0x1B41 PUSH2 0x1B32 PUSH2 0x1B11 DUP7 DUP7 PUSH2 0x17DA SWAP1 SWAP2 SWAP1 PUSH4 0xFFFFFFFF AND JUMP JUMPDEST PUSH2 0x1B24 DUP6 DUP6 PUSH2 0x2487 SWAP1 SWAP2 SWAP1 PUSH4 0xFFFFFFFF AND JUMP JUMPDEST PUSH2 0x249D SWAP1 SWAP2 SWAP1 PUSH4 0xFFFFFFFF AND JUMP JUMPDEST DUP7 PUSH2 0x1D52 SWAP1 SWAP2 SWAP1 PUSH4 0xFFFFFFFF AND JUMP JUMPDEST SWAP5 POP POP POP JUMPDEST PUSH2 0x1B5D DUP7 PUSH1 0x60 ADD MLOAD DUP5 PUSH2 0x17DA SWAP1 SWAP2 SWAP1 PUSH4 0xFFFFFFFF AND JUMP JUMPDEST SWAP7 POP POP POP POP POP POP POP SWAP2 SWAP1 POP JUMP JUMPDEST PUSH1 0x0 CALLER SWAP1 POP SWAP1 JUMP JUMPDEST PUSH1 0x0 PUSH2 0x1B7E DUP4 DUP4 PUSH2 0x17F0 JUMP JUMPDEST ISZERO DUP1 PUSH2 0x1B8B JUMPI POP PUSH1 0x2 SLOAD NUMBER LT JUMPDEST ISZERO PUSH2 0x1B99 JUMPI PUSH1 0x0 SWAP1 POP PUSH2 0x1D4C JUMP JUMPDEST PUSH1 0x0 PUSH1 0x7 PUSH1 0x0 DUP6 PUSH20 0xFFFFFFFFFFFFFFFFFFFFFFFFFFFFFFFFFFFFFFFF AND PUSH20 0xFFFFFFFFFFFFFFFFFFFFFFFFFFFFFFFFFFFFFFFF AND DUP2 MSTORE PUSH1 0x20 ADD SWAP1 DUP2 MSTORE PUSH1 0x20 ADD PUSH1 0x0 KECCAK256 PUSH1 0x0 DUP5 PUSH1 0x2 DUP2 GT ISZERO PUSH2 0x1BEF JUMPI PUSH2 0x1BEE PUSH2 0x2DB8 JUMP JUMPDEST JUMPDEST PUSH1 0x2 DUP2 GT ISZERO PUSH2 0x1C01 JUMPI PUSH2 0x1C00 PUSH2 0x2DB8 JUMP JUMPDEST JUMPDEST DUP2 MSTORE PUSH1 0x20 ADD SWAP1 DUP2 MSTORE PUSH1 0x20 ADD PUSH1 0x0 KECCAK256 SLOAD SWAP1 POP PUSH1 0x0 PUSH2 0x1C1D DUP3 PUSH2 0x18C4 JUMP JUMPDEST SWAP1 POP PUSH1 0x0 DUP2 GT ISZERO PUSH2 0x1D46 JUMPI PUSH2 0x1C75 DUP2 PUSH1 0x3 PUSH1 0x0 DUP8 PUSH1 0x2 DUP2 GT ISZERO PUSH2 0x1C43 JUMPI PUSH2 0x1C42 PUSH2 0x2DB8 JUMP JUMPDEST JUMPDEST PUSH1 0x2 DUP2 GT ISZERO PUSH2 0x1C55 JUMPI PUSH2 0x1C54 PUSH2 0x2DB8 JUMP JUMPDEST JUMPDEST DUP2 MSTORE PUSH1 0x20 ADD SWAP1 DUP2 MSTORE PUSH1 0x20 ADD PUSH1 0x0 KECCAK256 PUSH1 0x3 ADD SLOAD PUSH2 0x1D52 SWAP1 SWAP2 SWAP1 PUSH4 0xFFFFFFFF AND JUMP JUMPDEST PUSH1 0x3 PUSH1 0x0 DUP7 PUSH1 0x2 DUP2 GT ISZERO PUSH2 0x1C8C JUMPI PUSH2 0x1C8B PUSH2 0x2DB8 JUMP JUMPDEST JUMPDEST PUSH1 0x2 DUP2 GT ISZERO PUSH2 0x1C9E JUMPI PUSH2 0x1C9D PUSH2 0x2DB8 JUMP JUMPDEST JUMPDEST DUP2 MSTORE PUSH1 0x20 ADD SWAP1 DUP2 MSTORE PUSH1 0x20 ADD PUSH1 0x0 KECCAK256 PUSH1 0x3 ADD DUP2 SWAP1 SSTORE POP PUSH2 0x1CDC DUP2 PUSH1 0x5 PUSH1 0x0 DUP6 DUP2 MSTORE PUSH1 0x20 ADD SWAP1 DUP2 MSTORE PUSH1 0x20 ADD PUSH1 0x0 KECCAK256 PUSH1 0x2 ADD SLOAD PUSH2 0x1D52 SWAP1 SWAP2 SWAP1 PUSH4 0xFFFFFFFF AND JUMP JUMPDEST PUSH1 0x5 PUSH1 0x0 DUP5 DUP2 MSTORE PUSH1 0x20 ADD SWAP1 DUP2 MSTORE PUSH1 0x20 ADD PUSH1 0x0 KECCAK256 PUSH1 0x2 ADD DUP2 SWAP1 SSTORE POP DUP5 PUSH20 0xFFFFFFFFFFFFFFFFFFFFFFFFFFFFFFFFFFFFFFFF AND DUP3 PUSH32 0x14A81F9A556DBD4B3AE8C924AEF3CC382CB6F3C4B91E88201A1BE8E8CF359328 DUP4 PUSH1 0x40 MLOAD PUSH2 0x1D3D SWAP2 SWAP1 PUSH2 0x2BD5 JUMP JUMPDEST PUSH1 0x40 MLOAD DUP1 SWAP2 SUB SWAP1 LOG3 JUMPDEST DUP1 SWAP3 POP POP POP JUMPDEST SWAP3 SWAP2 POP POP JUMP JUMPDEST PUSH1 0x0 DUP2 DUP4 PUSH2 0x1D60 SWAP2 SWAP1 PUSH2 0x3A60 JUMP JUMPDEST SWAP1 POP SWAP3 SWAP2 POP POP JUMP JUMPDEST PUSH2 0x1DE9 DUP4 PUSH4 0xA9059CBB PUSH1 0xE0 SHL DUP5 DUP5 PUSH1 0x40 MLOAD PUSH1 0x24 ADD PUSH2 0x1D87 SWAP3 SWAP2 SWAP1 PUSH2 0x3AB6 JUMP JUMPDEST PUSH1 0x40 MLOAD PUSH1 0x20 DUP2 DUP4 SUB SUB DUP2 MSTORE SWAP1 PUSH1 0x40 MSTORE SWAP1 PUSH28 0xFFFFFFFFFFFFFFFFFFFFFFFFFFFFFFFFFFFFFFFFFFFFFFFFFFFFFFFF NOT AND PUSH1 0x20 DUP3 ADD DUP1 MLOAD PUSH28 0xFFFFFFFFFFFFFFFFFFFFFFFFFFFFFFFFFFFFFFFFFFFFFFFFFFFFFFFF DUP4 DUP2 DUP4 AND OR DUP4 MSTORE POP POP POP POP PUSH2 0x24F2 JUMP JUMPDEST POP POP POP JUMP JUMPDEST PUSH1 0x0 PUSH2 0x1DFC DUP3 PUSH1 0x0 ADD PUSH2 0x25B9 JUMP JUMPDEST SWAP1 POP SWAP2 SWAP1 POP JUMP JUMPDEST PUSH2 0x1E0B PUSH2 0x1B6A JUMP JUMPDEST PUSH20 0xFFFFFFFFFFFFFFFFFFFFFFFFFFFFFFFFFFFFFFFF AND PUSH2 0x1E29 PUSH2 0xF62 JUMP JUMPDEST PUSH20 0xFFFFFFFFFFFFFFFFFFFFFFFFFFFFFFFFFFFFFFFF AND EQ PUSH2 0x1E7F JUMPI PUSH1 0x40 MLOAD PUSH32 0x8C379A000000000000000000000000000000000000000000000000000000000 DUP2 MSTORE PUSH1 0x4 ADD PUSH2 0x1E76 SWAP1 PUSH2 0x3B2B JUMP JUMPDEST PUSH1 0x40 MLOAD DUP1 SWAP2 SUB SWAP1 REVERT JUMPDEST JUMP JUMPDEST PUSH1 0x0 DUP1 PUSH1 0x0 SWAP1 SLOAD SWAP1 PUSH2 0x100 EXP SWAP1 DIV PUSH20 0xFFFFFFFFFFFFFFFFFFFFFFFFFFFFFFFFFFFFFFFF AND SWAP1 POP DUP2 PUSH1 0x0 DUP1 PUSH2 0x100 EXP DUP2 SLOAD DUP2 PUSH20 0xFFFFFFFFFFFFFFFFFFFFFFFFFFFFFFFFFFFFFFFF MUL NOT AND SWAP1 DUP4 PUSH20 0xFFFFFFFFFFFFFFFFFFFFFFFFFFFFFFFFFFFFFFFF AND MUL OR SWAP1 SSTORE POP DUP2 PUSH20 0xFFFFFFFFFFFFFFFFFFFFFFFFFFFFFFFFFFFFFFFF AND DUP2 PUSH20 0xFFFFFFFFFFFFFFFFFFFFFFFFFFFFFFFFFFFFFFFF AND PUSH32 0x8BE0079C531659141344CD1FD0A4F28419497F9722A3DAAFE3B4186F6B6457E0 PUSH1 0x40 MLOAD PUSH1 0x40 MLOAD DUP1 SWAP2 SUB SWAP1 LOG3 POP POP JUMP JUMPDEST PUSH2 0x1F4F DUP4 DUP4 PUSH2 0x17F0 JUMP JUMPDEST ISZERO PUSH2 0x1F8F JUMPI PUSH1 0x40 MLOAD PUSH32 0x8C379A000000000000000000000000000000000000000000000000000000000 DUP2 MSTORE PUSH1 0x4 ADD PUSH2 0x1F86 SWAP1 PUSH2 0x3B97 JUMP JUMPDEST PUSH1 0x40 MLOAD DUP1 SWAP2 SUB SWAP1 REVERT JUMPDEST PUSH1 0x0 PUSH1 0x3 PUSH1 0x0 DUP5 PUSH1 0x2 DUP2 GT ISZERO PUSH2 0x1FA8 JUMPI PUSH2 0x1FA7 PUSH2 0x2DB8 JUMP JUMPDEST JUMPDEST PUSH1 0x2 DUP2 GT ISZERO PUSH2 0x1FBA JUMPI PUSH2 0x1FB9 PUSH2 0x2DB8 JUMP JUMPDEST JUMPDEST DUP2 MSTORE PUSH1 0x20 ADD SWAP1 DUP2 MSTORE PUSH1 0x20 ADD PUSH1 0x0 KECCAK256 SWAP1 POP DUP1 PUSH1 0x1 ADD SLOAD PUSH2 0x1FE6 DUP4 DUP4 PUSH1 0x2 ADD SLOAD PUSH2 0x1D52 SWAP1 SWAP2 SWAP1 PUSH4 0xFFFFFFFF AND JUMP JUMPDEST GT ISZERO PUSH2 0x2027 JUMPI PUSH1 0x40 MLOAD PUSH32 0x8C379A000000000000000000000000000000000000000000000000000000000 DUP2 MSTORE PUSH1 0x4 ADD PUSH2 0x201E SWAP1 PUSH2 0x3C29 JUMP JUMPDEST PUSH1 0x40 MLOAD DUP1 SWAP2 SUB SWAP1 REVERT JUMPDEST PUSH2 0x203E DUP3 DUP3 PUSH1 0x2 ADD SLOAD PUSH2 0x1D52 SWAP1 SWAP2 SWAP1 PUSH4 0xFFFFFFFF AND JUMP JUMPDEST DUP2 PUSH1 0x2 ADD DUP2 SWAP1 SSTORE POP DUP4 PUSH1 0x5 PUSH1 0x0 PUSH1 0x4 SLOAD DUP2 MSTORE PUSH1 0x20 ADD SWAP1 DUP2 MSTORE PUSH1 0x20 ADD PUSH1 0x0 KECCAK256 PUSH1 0x0 ADD PUSH1 0x0 PUSH2 0x100 EXP DUP2 SLOAD DUP2 PUSH20 0xFFFFFFFFFFFFFFFFFFFFFFFFFFFFFFFFFFFFFFFF MUL NOT AND SWAP1 DUP4 PUSH20 0xFFFFFFFFFFFFFFFFFFFFFFFFFFFFFFFFFFFFFFFF AND MUL OR SWAP1 SSTORE POP DUP3 PUSH1 0x5 PUSH1 0x0 PUSH1 0x4 SLOAD DUP2 MSTORE PUSH1 0x20 ADD SWAP1 DUP2 MSTORE PUSH1 0x20 ADD PUSH1 0x0 KECCAK256 PUSH1 0x0 ADD PUSH1 0x14 PUSH2 0x100 EXP DUP2 SLOAD DUP2 PUSH1 0xFF MUL NOT AND SWAP1 DUP4 PUSH1 0x2 DUP2 GT ISZERO PUSH2 0x20D8 JUMPI PUSH2 0x20D7 PUSH2 0x2DB8 JUMP JUMPDEST JUMPDEST MUL OR SWAP1 SSTORE POP DUP2 PUSH1 0x5 PUSH1 0x0 PUSH1 0x4 SLOAD DUP2 MSTORE PUSH1 0x20 ADD SWAP1 DUP2 MSTORE PUSH1 0x20 ADD PUSH1 0x0 KECCAK256 PUSH1 0x1 ADD DUP2 SWAP1 SSTORE POP PUSH2 0x214D PUSH1 0x4 SLOAD PUSH1 0x6 PUSH1 0x0 DUP8 PUSH20 0xFFFFFFFFFFFFFFFFFFFFFFFFFFFFFFFFFFFFFFFF AND PUSH20 0xFFFFFFFFFFFFFFFFFFFFFFFFFFFFFFFFFFFFFFFF AND DUP2 MSTORE PUSH1 0x20 ADD SWAP1 DUP2 MSTORE PUSH1 0x20 ADD PUSH1 0x0 KECCAK256 PUSH2 0x25CA SWAP1 SWAP2 SWAP1 PUSH4 0xFFFFFFFF AND JUMP JUMPDEST POP PUSH1 0x4 SLOAD PUSH1 0x7 PUSH1 0x0 DUP7 PUSH20 0xFFFFFFFFFFFFFFFFFFFFFFFFFFFFFFFFFFFFFFFF AND PUSH20 0xFFFFFFFFFFFFFFFFFFFFFFFFFFFFFFFFFFFFFFFF AND DUP2 MSTORE PUSH1 0x20 ADD SWAP1 DUP2 MSTORE PUSH1 0x20 ADD PUSH1 0x0 KECCAK256 PUSH1 0x0 DUP6 PUSH1 0x2 DUP2 GT ISZERO PUSH2 0x21A5 JUMPI PUSH2 0x21A4 PUSH2 0x2DB8 JUMP JUMPDEST JUMPDEST PUSH1 0x2 DUP2 GT ISZERO PUSH2 0x21B7 JUMPI PUSH2 0x21B6 PUSH2 0x2DB8 JUMP JUMPDEST JUMPDEST DUP2 MSTORE PUSH1 0x20 ADD SWAP1 DUP2 MSTORE PUSH1 0x20 ADD PUSH1 0x0 KECCAK256 DUP2 SWAP1 SSTORE POP PUSH2 0x21DF PUSH1 0x1 PUSH1 0x4 SLOAD PUSH2 0x1D52 SWAP1 SWAP2 SWAP1 PUSH4 0xFFFFFFFF AND JUMP JUMPDEST PUSH1 0x4 DUP2 SWAP1 SSTORE POP DUP4 PUSH20 0xFFFFFFFFFFFFFFFFFFFFFFFFFFFFFFFFFFFFFFFF AND PUSH1 0x4 SLOAD PUSH32 0xCA26C44DFB310E29094C39C1C371F88EC57BAA3398EA2A3ABC3F9C825A4F7212 DUP5 PUSH1 0x40 MLOAD PUSH2 0x222E SWAP2 SWAP1 PUSH2 0x2BD5 JUMP JUMPDEST PUSH1 0x40 MLOAD DUP1 SWAP2 SUB SWAP1 LOG3 POP POP POP POP JUMP JUMPDEST PUSH1 0x0 DUP2 DUP4 LT PUSH2 0x224B JUMPI DUP2 PUSH2 0x224D JUMP JUMPDEST DUP3 JUMPDEST SWAP1 POP SWAP3 SWAP2 POP POP JUMP JUMPDEST PUSH1 0x0 DUP2 DUP4 GT PUSH2 0x2264 JUMPI DUP2 PUSH2 0x2266 JUMP JUMPDEST DUP3 JUMPDEST SWAP1 POP SWAP3 SWAP2 POP POP JUMP JUMPDEST PUSH1 0x0 PUSH2 0x227D DUP4 PUSH1 0x0 ADD DUP4 PUSH2 0x25E4 JUMP JUMPDEST PUSH1 0x0 SHR SWAP1 POP SWAP3 SWAP2 POP POP JUMP JUMPDEST DUP4 PUSH1 0x3 PUSH1 0x0 DUP8 PUSH1 0x2 DUP2 GT ISZERO PUSH2 0x22A0 JUMPI PUSH2 0x229F PUSH2 0x2DB8 JUMP JUMPDEST JUMPDEST PUSH1 0x2 DUP2 GT ISZERO PUSH2 0x22B2 JUMPI PUSH2 0x22B1 PUSH2 0x2DB8 JUMP JUMPDEST JUMPDEST DUP2 MSTORE PUSH1 0x20 ADD SWAP1 DUP2 MSTORE PUSH1 0x20 ADD PUSH1 0x0 KECCAK256 PUSH1 0x0 ADD DUP2 SWAP1 SSTORE POP DUP3 PUSH1 0x3 PUSH1 0x0 DUP8 PUSH1 0x2 DUP2 GT ISZERO PUSH2 0x22DF JUMPI PUSH2 0x22DE PUSH2 0x2DB8 JUMP JUMPDEST JUMPDEST PUSH1 0x2 DUP2 GT ISZERO PUSH2 0x22F1 JUMPI PUSH2 0x22F0 PUSH2 0x2DB8 JUMP JUMPDEST JUMPDEST DUP2 MSTORE PUSH1 0x20 ADD SWAP1 DUP2 MSTORE PUSH1 0x20 ADD PUSH1 0x0 KECCAK256 PUSH1 0x4 ADD DUP2 SWAP1 SSTORE POP DUP2 PUSH1 0x3 PUSH1 0x0 DUP8 PUSH1 0x2 DUP2 GT ISZERO PUSH2 0x231E JUMPI PUSH2 0x231D PUSH2 0x2DB8 JUMP JUMPDEST JUMPDEST PUSH1 0x2 DUP2 GT ISZERO PUSH2 0x2330 JUMPI PUSH2 0x232F PUSH2 0x2DB8 JUMP JUMPDEST JUMPDEST DUP2 MSTORE PUSH1 0x20 ADD SWAP1 DUP2 MSTORE PUSH1 0x20 ADD PUSH1 0x0 KECCAK256 PUSH1 0x5 ADD DUP2 SWAP1 SSTORE POP DUP1 PUSH1 0x3 PUSH1 0x0 DUP8 PUSH1 0x2 DUP2 GT ISZERO PUSH2 0x235D JUMPI PUSH2 0x235C PUSH2 0x2DB8 JUMP JUMPDEST JUMPDEST PUSH1 0x2 DUP2 GT ISZERO PUSH2 0x236F JUMPI PUSH2 0x236E PUSH2 0x2DB8 JUMP JUMPDEST JUMPDEST DUP2 MSTORE PUSH1 0x20 ADD SWAP1 DUP2 MSTORE PUSH1 0x20 ADD PUSH1 0x0 KECCAK256 PUSH1 0x6 ADD DUP2 SWAP1 SSTORE POP PUSH32 0x7E9F14AF6752EC6D3A32EB60ACDC8E5897E088BAD8C77B6FAEC09E0546DDD7DF DUP6 DUP6 DUP6 DUP6 DUP6 PUSH1 0x40 MLOAD PUSH2 0x23BB SWAP6 SWAP5 SWAP4 SWAP3 SWAP2 SWAP1 PUSH2 0x3C49 JUMP JUMPDEST PUSH1 0x40 MLOAD DUP1 SWAP2 SUB SWAP1 LOG1 POP POP POP POP POP JUMP JUMPDEST PUSH2 0x244D DUP5 PUSH4 0x23B872DD PUSH1 0xE0 SHL DUP6 DUP6 DUP6 PUSH1 0x40 MLOAD PUSH1 0x24 ADD PUSH2 0x23EB SWAP4 SWAP3 SWAP2 SWAP1 PUSH2 0x3C9C JUMP JUMPDEST PUSH1 0x40 MLOAD PUSH1 0x20 DUP2 DUP4 SUB SUB DUP2 MSTORE SWAP1 PUSH1 0x40 MSTORE SWAP1 PUSH28 0xFFFFFFFFFFFFFFFFFFFFFFFFFFFFFFFFFFFFFFFFFFFFFFFFFFFFFFFF NOT AND PUSH1 0x20 DUP3 ADD DUP1 MLOAD PUSH28 0xFFFFFFFFFFFFFFFFFFFFFFFFFFFFFFFFFFFFFFFFFFFFFFFFFFFFFFFF DUP4 DUP2 DUP4 AND OR DUP4 MSTORE POP POP POP POP PUSH2 0x24F2 JUMP JUMPDEST POP POP POP POP JUMP JUMPDEST PUSH1 0x0 PUSH2 0x2465 DUP4 PUSH1 0x0 ADD DUP4 PUSH1 0x0 SHL PUSH2 0x260F JUMP JUMPDEST SWAP1 POP SWAP3 SWAP2 POP POP JUMP JUMPDEST PUSH1 0x0 PUSH2 0x247F DUP4 PUSH1 0x0 ADD DUP4 PUSH1 0x0 SHL PUSH2 0x2723 JUMP JUMPDEST SWAP1 POP SWAP3 SWAP2 POP POP JUMP JUMPDEST PUSH1 0x0 DUP2 DUP4 PUSH2 0x2495 SWAP2 SWAP1 PUSH2 0x38AE JUMP JUMPDEST SWAP1 POP SWAP3 SWAP2 POP POP JUMP JUMPDEST PUSH1 0x0 DUP2 DUP4 PUSH2 0x24AB SWAP2 SWAP1 PUSH2 0x3D02 JUMP JUMPDEST SWAP1 POP SWAP3 SWAP2 POP POP JUMP JUMPDEST PUSH1 0x0 DUP2 NUMBER LT PUSH2 0x24D6 JUMPI PUSH2 0x24CF DUP4 DUP4 PUSH2 0x17DA SWAP1 SWAP2 SWAP1 PUSH4 0xFFFFFFFF AND JUMP JUMPDEST SWAP1 POP PUSH2 0x24EC JUMP JUMPDEST PUSH2 0x24E9 DUP4 NUMBER PUSH2 0x17DA SWAP1 SWAP2 SWAP1 PUSH4 0xFFFFFFFF AND JUMP JUMPDEST SWAP1 POP JUMPDEST SWAP3 SWAP2 POP POP JUMP JUMPDEST PUSH1 0x0 PUSH2 0x2554 DUP3 PUSH1 0x40 MLOAD DUP1 PUSH1 0x40 ADD PUSH1 0x40 MSTORE DUP1 PUSH1 0x20 DUP2 MSTORE PUSH1 0x20 ADD PUSH32 0x5361666545524332303A206C6F772D6C6576656C2063616C6C206661696C6564 DUP2 MSTORE POP DUP6 PUSH20 0xFFFFFFFFFFFFFFFFFFFFFFFFFFFFFFFFFFFFFFFF AND PUSH2 0x2746 SWAP1 SWAP3 SWAP2 SWAP1 PUSH4 0xFFFFFFFF AND JUMP JUMPDEST SWAP1 POP PUSH1 0x0 DUP2 MLOAD GT ISZERO PUSH2 0x25B4 JUMPI DUP1 DUP1 PUSH1 0x20 ADD SWAP1 MLOAD DUP2 ADD SWAP1 PUSH2 0x2574 SWAP2 SWAP1 PUSH2 0x3D6B JUMP JUMPDEST PUSH2 0x25B3 JUMPI PUSH1 0x40 MLOAD PUSH32 0x8C379A000000000000000000000000000000000000000000000000000000000 DUP2 MSTORE PUSH1 0x4 ADD PUSH2 0x25AA SWAP1 PUSH2 0x3E0A JUMP JUMPDEST PUSH1 0x40 MLOAD DUP1 SWAP2 SUB SWAP1 REVERT JUMPDEST JUMPDEST POP POP POP JUMP JUMPDEST PUSH1 0x0 DUP2 PUSH1 0x0 ADD DUP1 SLOAD SWAP1 POP SWAP1 POP SWAP2 SWAP1 POP JUMP JUMPDEST PUSH1 0x0 PUSH2 0x25DC DUP4 PUSH1 0x0 ADD DUP4 PUSH1 0x0 SHL PUSH2 0x275E JUMP JUMPDEST SWAP1 POP SWAP3 SWAP2 POP POP JUMP JUMPDEST PUSH1 0x0 DUP3 PUSH1 0x0 ADD DUP3 DUP2 SLOAD DUP2 LT PUSH2 0x25FC JUMPI PUSH2 0x25FB PUSH2 0x359F JUMP JUMPDEST JUMPDEST SWAP1 PUSH1 0x0 MSTORE PUSH1 0x20 PUSH1 0x0 KECCAK256 ADD SLOAD SWAP1 POP SWAP3 SWAP2 POP POP JUMP JUMPDEST PUSH1 0x0 DUP1 DUP4 PUSH1 0x1 ADD PUSH1 0x0 DUP5 DUP2 MSTORE PUSH1 0x20 ADD SWAP1 DUP2 MSTORE PUSH1 0x20 ADD PUSH1 0x0 KECCAK256 SLOAD SWAP1 POP PUSH1 0x0 DUP2 EQ PUSH2 0x2717 JUMPI PUSH1 0x0 PUSH1 0x1 DUP3 PUSH2 0x2641 SWAP2 SWAP1 PUSH2 0x3A2C JUMP JUMPDEST SWAP1 POP PUSH1 0x0 PUSH1 0x1 DUP7 PUSH1 0x0 ADD DUP1 SLOAD SWAP1 POP PUSH2 0x2659 SWAP2 SWAP1 PUSH2 0x3A2C JUMP JUMPDEST SWAP1 POP DUP2 DUP2 EQ PUSH2 0x26C8 JUMPI PUSH1 0x0 DUP7 PUSH1 0x0 ADD DUP3 DUP2 SLOAD DUP2 LT PUSH2 0x267A JUMPI PUSH2 0x2679 PUSH2 0x359F JUMP JUMPDEST JUMPDEST SWAP1 PUSH1 0x0 MSTORE PUSH1 0x20 PUSH1 0x0 KECCAK256 ADD SLOAD SWAP1 POP DUP1 DUP8 PUSH1 0x0 ADD DUP5 DUP2 SLOAD DUP2 LT PUSH2 0x269E JUMPI PUSH2 0x269D PUSH2 0x359F JUMP JUMPDEST JUMPDEST SWAP1 PUSH1 0x0 MSTORE PUSH1 0x20 PUSH1 0x0 KECCAK256 ADD DUP2 SWAP1 SSTORE POP DUP4 DUP8 PUSH1 0x1 ADD PUSH1 0x0 DUP4 DUP2 MSTORE PUSH1 0x20 ADD SWAP1 DUP2 MSTORE PUSH1 0x20 ADD PUSH1 0x0 KECCAK256 DUP2 SWAP1 SSTORE POP POP JUMPDEST DUP6 PUSH1 0x0 ADD DUP1 SLOAD DUP1 PUSH2 0x26DC JUMPI PUSH2 0x26DB PUSH2 0x3E2A JUMP JUMPDEST JUMPDEST PUSH1 0x1 SWAP1 SUB DUP2 DUP2 SWAP1 PUSH1 0x0 MSTORE PUSH1 0x20 PUSH1 0x0 KECCAK256 ADD PUSH1 0x0 SWAP1 SSTORE SWAP1 SSTORE DUP6 PUSH1 0x1 ADD PUSH1 0x0 DUP7 DUP2 MSTORE PUSH1 0x20 ADD SWAP1 DUP2 MSTORE PUSH1 0x20 ADD PUSH1 0x0 KECCAK256 PUSH1 0x0 SWAP1 SSTORE PUSH1 0x1 SWAP4 POP POP POP POP PUSH2 0x271D JUMP JUMPDEST PUSH1 0x0 SWAP2 POP POP JUMPDEST SWAP3 SWAP2 POP POP JUMP JUMPDEST PUSH1 0x0 DUP1 DUP4 PUSH1 0x1 ADD PUSH1 0x0 DUP5 DUP2 MSTORE PUSH1 0x20 ADD SWAP1 DUP2 MSTORE PUSH1 0x20 ADD PUSH1 0x0 KECCAK256 SLOAD EQ ISZERO SWAP1 POP SWAP3 SWAP2 POP POP JUMP JUMPDEST PUSH1 0x60 PUSH2 0x2755 DUP5 DUP5 PUSH1 0x0 DUP6 PUSH2 0x27CE JUMP JUMPDEST SWAP1 POP SWAP4 SWAP3 POP POP POP JUMP JUMPDEST PUSH1 0x0 PUSH2 0x276A DUP4 DUP4 PUSH2 0x2723 JUMP JUMPDEST PUSH2 0x27C3 JUMPI DUP3 PUSH1 0x0 ADD DUP3 SWAP1 DUP1 PUSH1 0x1 DUP2 SLOAD ADD DUP1 DUP3 SSTORE DUP1 SWAP2 POP POP PUSH1 0x1 SWAP1 SUB SWAP1 PUSH1 0x0 MSTORE PUSH1 0x20 PUSH1 0x0 KECCAK256 ADD PUSH1 0x0 SWAP1 SWAP2 SWAP1 SWAP2 SWAP1 SWAP2 POP SSTORE DUP3 PUSH1 0x0 ADD DUP1 SLOAD SWAP1 POP DUP4 PUSH1 0x1 ADD PUSH1 0x0 DUP5 DUP2 MSTORE PUSH1 0x20 ADD SWAP1 DUP2 MSTORE PUSH1 0x20 ADD PUSH1 0x0 KECCAK256 DUP2 SWAP1 SSTORE POP PUSH1 0x1 SWAP1 POP PUSH2 0x27C8 JUMP JUMPDEST PUSH1 0x0 SWAP1 POP JUMPDEST SWAP3 SWAP2 POP POP JUMP JUMPDEST PUSH1 0x60 DUP3 SELFBALANCE LT ISZERO PUSH2 0x2813 JUMPI PUSH1 0x40 MLOAD PUSH32 0x8C379A000000000000000000000000000000000000000000000000000000000 DUP2 MSTORE PUSH1 0x4 ADD PUSH2 0x280A SWAP1 PUSH2 0x3ECB JUMP JUMPDEST PUSH1 0x40 MLOAD DUP1 SWAP2 SUB SWAP1 REVERT JUMPDEST PUSH1 0x0 DUP1 DUP7 PUSH20 0xFFFFFFFFFFFFFFFFFFFFFFFFFFFFFFFFFFFFFFFF AND DUP6 DUP8 PUSH1 0x40 MLOAD PUSH2 0x283C SWAP2 SWAP1 PUSH2 0x3F65 JUMP JUMPDEST PUSH1 0x0 PUSH1 0x40 MLOAD DUP1 DUP4 SUB DUP2 DUP6 DUP8 GAS CALL SWAP3 POP POP POP RETURNDATASIZE DUP1 PUSH1 0x0 DUP2 EQ PUSH2 0x2879 JUMPI PUSH1 0x40 MLOAD SWAP2 POP PUSH1 0x1F NOT PUSH1 0x3F RETURNDATASIZE ADD AND DUP3 ADD PUSH1 0x40 MSTORE RETURNDATASIZE DUP3 MSTORE RETURNDATASIZE PUSH1 0x0 PUSH1 0x20 DUP5 ADD RETURNDATACOPY PUSH2 0x287E JUMP JUMPDEST PUSH1 0x60 SWAP2 POP JUMPDEST POP SWAP2 POP SWAP2 POP PUSH2 0x288F DUP8 DUP4 DUP4 DUP8 PUSH2 0x289B JUMP JUMPDEST SWAP3 POP POP POP SWAP5 SWAP4 POP POP POP POP JUMP JUMPDEST PUSH1 0x60 DUP4 ISZERO PUSH2 0x28FE JUMPI PUSH1 0x0 DUP4 MLOAD EQ ISZERO PUSH2 0x28F6 JUMPI PUSH2 0x28B6 DUP6 PUSH2 0x2911 JUMP JUMPDEST PUSH2 0x28F5 JUMPI PUSH1 0x40 MLOAD PUSH32 0x8C379A000000000000000000000000000000000000000000000000000000000 DUP2 MSTORE PUSH1 0x4 ADD PUSH2 0x28EC SWAP1 PUSH2 0x3FC8 JUMP JUMPDEST PUSH1 0x40 MLOAD DUP1 SWAP2 SUB SWAP1 REVERT JUMPDEST JUMPDEST DUP3 SWAP1 POP PUSH2 0x2909 JUMP JUMPDEST PUSH2 0x2908 DUP4 DUP4 PUSH2 0x2934 JUMP JUMPDEST JUMPDEST SWAP5 SWAP4 POP POP POP POP JUMP JUMPDEST PUSH1 0x0 DUP1 DUP3 PUSH20 0xFFFFFFFFFFFFFFFFFFFFFFFFFFFFFFFFFFFFFFFF AND EXTCODESIZE GT SWAP1 POP SWAP2 SWAP1 POP JUMP JUMPDEST PUSH1 0x0 DUP3 MLOAD GT ISZERO PUSH2 0x2947 JUMPI DUP2 MLOAD DUP1 DUP4 PUSH1 0x20 ADD REVERT JUMPDEST DUP1 PUSH1 0x40 MLOAD PUSH32 0x8C379A000000000000000000000000000000000000000000000000000000000 DUP2 MSTORE PUSH1 0x4 ADD PUSH2 0x297B SWAP2 SWAP1 PUSH2 0x402C JUMP JUMPDEST PUSH1 0x40 MLOAD DUP1 SWAP2 SUB SWAP1 REVERT JUMPDEST PUSH1 0x40 MLOAD DUP1 PUSH1 0x80 ADD PUSH1 0x40 MSTORE DUP1 PUSH1 0x0 PUSH20 0xFFFFFFFFFFFFFFFFFFFFFFFFFFFFFFFFFFFFFFFF AND DUP2 MSTORE PUSH1 0x20 ADD PUSH1 0x0 PUSH1 0x2 DUP2 GT ISZERO PUSH2 0x29C0 JUMPI PUSH2 0x29BF PUSH2 0x2DB8 JUMP JUMPDEST JUMPDEST DUP2 MSTORE PUSH1 0x20 ADD PUSH1 0x0 DUP2 MSTORE PUSH1 0x20 ADD PUSH1 0x0 DUP2 MSTORE POP SWAP1 JUMP JUMPDEST PUSH1 0x40 MLOAD DUP1 PUSH1 0xC0 ADD PUSH1 0x40 MSTORE DUP1 PUSH1 0x0 DUP2 MSTORE PUSH1 0x20 ADD PUSH1 0x0 DUP2 MSTORE PUSH1 0x20 ADD PUSH1 0x0 DUP2 MSTORE PUSH1 0x20 ADD PUSH1 0x0 DUP2 MSTORE PUSH1 0x20 ADD PUSH1 0x0 DUP2 MSTORE PUSH1 0x20 ADD PUSH1 0x0 DUP2 MSTORE POP SWAP1 JUMP JUMPDEST PUSH1 0x0 PUSH1 0x40 MLOAD SWAP1 POP SWAP1 JUMP JUMPDEST PUSH1 0x0 DUP1 REVERT JUMPDEST PUSH1 0x0 DUP1 REVERT JUMPDEST PUSH1 0x0 DUP1 REVERT JUMPDEST PUSH1 0x0 PUSH1 0x1F NOT PUSH1 0x1F DUP4 ADD AND SWAP1 POP SWAP2 SWAP1 POP JUMP JUMPDEST PUSH32 0x4E487B7100000000000000000000000000000000000000000000000000000000 PUSH1 0x0 MSTORE PUSH1 0x41 PUSH1 0x4 MSTORE PUSH1 0x24 PUSH1 0x0 REVERT JUMPDEST PUSH2 0x2A6C DUP3 PUSH2 0x2A23 JUMP JUMPDEST DUP2 ADD DUP2 DUP2 LT PUSH8 0xFFFFFFFFFFFFFFFF DUP3 GT OR ISZERO PUSH2 0x2A8B JUMPI PUSH2 0x2A8A PUSH2 0x2A34 JUMP JUMPDEST JUMPDEST DUP1 PUSH1 0x40 MSTORE POP POP POP JUMP JUMPDEST PUSH1 0x0 PUSH2 0x2A9E PUSH2 0x2A0A JUMP JUMPDEST SWAP1 POP PUSH2 0x2AAA DUP3 DUP3 PUSH2 0x2A63 JUMP JUMPDEST SWAP2 SWAP1 POP JUMP JUMPDEST PUSH1 0x0 DUP2 SWAP1 POP SWAP2 SWAP1 POP JUMP JUMPDEST PUSH2 0x2AC2 DUP2 PUSH2 0x2AAF JUMP JUMPDEST DUP2 EQ PUSH2 0x2ACD JUMPI PUSH1 0x0 DUP1 REVERT JUMPDEST POP JUMP JUMPDEST PUSH1 0x0 DUP2 CALLDATALOAD SWAP1 POP PUSH2 0x2ADF DUP2 PUSH2 0x2AB9 JUMP JUMPDEST SWAP3 SWAP2 POP POP JUMP JUMPDEST PUSH1 0x0 PUSH1 0xE0 DUP3 DUP5 SUB SLT ISZERO PUSH2 0x2AFB JUMPI PUSH2 0x2AFA PUSH2 0x2A1E JUMP JUMPDEST JUMPDEST PUSH2 0x2B05 PUSH1 0xE0 PUSH2 0x2A94 JUMP JUMPDEST SWAP1 POP PUSH1 0x0 PUSH2 0x2B15 DUP5 DUP3 DUP6 ADD PUSH2 0x2AD0 JUMP JUMPDEST PUSH1 0x0 DUP4 ADD MSTORE POP PUSH1 0x20 PUSH2 0x2B29 DUP5 DUP3 DUP6 ADD PUSH2 0x2AD0 JUMP JUMPDEST PUSH1 0x20 DUP4 ADD MSTORE POP PUSH1 0x40 PUSH2 0x2B3D DUP5 DUP3 DUP6 ADD PUSH2 0x2AD0 JUMP JUMPDEST PUSH1 0x40 DUP4 ADD MSTORE POP PUSH1 0x60 PUSH2 0x2B51 DUP5 DUP3 DUP6 ADD PUSH2 0x2AD0 JUMP JUMPDEST PUSH1 0x60 DUP4 ADD MSTORE POP PUSH1 0x80 PUSH2 0x2B65 DUP5 DUP3 DUP6 ADD PUSH2 0x2AD0 JUMP JUMPDEST PUSH1 0x80 DUP4 ADD MSTORE POP PUSH1 0xA0 PUSH2 0x2B79 DUP5 DUP3 DUP6 ADD PUSH2 0x2AD0 JUMP JUMPDEST PUSH1 0xA0 DUP4 ADD MSTORE POP PUSH1 0xC0 PUSH2 0x2B8D DUP5 DUP3 DUP6 ADD PUSH2 0x2AD0 JUMP JUMPDEST PUSH1 0xC0 DUP4 ADD MSTORE POP SWAP3 SWAP2 POP POP JUMP JUMPDEST PUSH1 0x0 PUSH1 0xE0 DUP3 DUP5 SUB SLT ISZERO PUSH2 0x2BAF JUMPI PUSH2 0x2BAE PUSH2 0x2A14 JUMP JUMPDEST JUMPDEST PUSH1 0x0 PUSH2 0x2BBD DUP5 DUP3 DUP6 ADD PUSH2 0x2AE5 JUMP JUMPDEST SWAP2 POP POP SWAP3 SWAP2 POP POP JUMP JUMPDEST PUSH2 0x2BCF DUP2 PUSH2 0x2AAF JUMP JUMPDEST DUP3 MSTORE POP POP JUMP JUMPDEST PUSH1 0x0 PUSH1 0x20 DUP3 ADD SWAP1 POP PUSH2 0x2BEA PUSH1 0x0 DUP4 ADD DUP5 PUSH2 0x2BC6 JUMP JUMPDEST SWAP3 SWAP2 POP POP JUMP JUMPDEST PUSH1 0x0 PUSH20 0xFFFFFFFFFFFFFFFFFFFFFFFFFFFFFFFFFFFFFFFF DUP3 AND SWAP1 POP SWAP2 SWAP1 POP JUMP JUMPDEST PUSH1 0x0 PUSH2 0x2C1B DUP3 PUSH2 0x2BF0 JUMP JUMPDEST SWAP1 POP SWAP2 SWAP1 POP JUMP JUMPDEST PUSH2 0x2C2B DUP2 PUSH2 0x2C10 JUMP JUMPDEST DUP2 EQ PUSH2 0x2C36 JUMPI PUSH1 0x0 DUP1 REVERT JUMPDEST POP JUMP JUMPDEST PUSH1 0x0 DUP2 CALLDATALOAD SWAP1 POP PUSH2 0x2C48 DUP2 PUSH2 0x2C22 JUMP JUMPDEST SWAP3 SWAP2 POP POP JUMP JUMPDEST PUSH1 0x3 DUP2 LT PUSH2 0x2C5B JUMPI PUSH1 0x0 DUP1 REVERT JUMPDEST POP JUMP JUMPDEST PUSH1 0x0 DUP2 CALLDATALOAD SWAP1 POP PUSH2 0x2C6D DUP2 PUSH2 0x2C4E JUMP JUMPDEST SWAP3 SWAP2 POP POP JUMP JUMPDEST PUSH1 0x0 DUP1 PUSH1 0x40 DUP4 DUP6 SUB SLT ISZERO PUSH2 0x2C8A JUMPI PUSH2 0x2C89 PUSH2 0x2A14 JUMP JUMPDEST JUMPDEST PUSH1 0x0 PUSH2 0x2C98 DUP6 DUP3 DUP7 ADD PUSH2 0x2C39 JUMP JUMPDEST SWAP3 POP POP PUSH1 0x20 PUSH2 0x2CA9 DUP6 DUP3 DUP7 ADD PUSH2 0x2C5E JUMP JUMPDEST SWAP2 POP POP SWAP3 POP SWAP3 SWAP1 POP JUMP JUMPDEST PUSH1 0x0 PUSH1 0x20 DUP3 DUP5 SUB SLT ISZERO PUSH2 0x2CC9 JUMPI PUSH2 0x2CC8 PUSH2 0x2A14 JUMP JUMPDEST JUMPDEST PUSH1 0x0 PUSH2 0x2CD7 DUP5 DUP3 DUP6 ADD PUSH2 0x2C39 JUMP JUMPDEST SWAP2 POP POP SWAP3 SWAP2 POP POP JUMP JUMPDEST PUSH1 0x0 PUSH1 0x20 DUP3 DUP5 SUB SLT ISZERO PUSH2 0x2CF6 JUMPI PUSH2 0x2CF5 PUSH2 0x2A14 JUMP JUMPDEST JUMPDEST PUSH1 0x0 PUSH2 0x2D04 DUP5 DUP3 DUP6 ADD PUSH2 0x2C5E JUMP JUMPDEST SWAP2 POP POP SWAP3 SWAP2 POP POP JUMP JUMPDEST PUSH1 0x0 PUSH1 0xE0 DUP3 ADD SWAP1 POP PUSH2 0x2D22 PUSH1 0x0 DUP4 ADD DUP11 PUSH2 0x2BC6 JUMP JUMPDEST PUSH2 0x2D2F PUSH1 0x20 DUP4 ADD DUP10 PUSH2 0x2BC6 JUMP JUMPDEST PUSH2 0x2D3C PUSH1 0x40 DUP4 ADD DUP9 PUSH2 0x2BC6 JUMP JUMPDEST PUSH2 0x2D49 PUSH1 0x60 DUP4 ADD DUP8 PUSH2 0x2BC6 JUMP JUMPDEST PUSH2 0x2D56 PUSH1 0x80 DUP4 ADD DUP7 PUSH2 0x2BC6 JUMP JUMPDEST PUSH2 0x2D63 PUSH1 0xA0 DUP4 ADD DUP6 PUSH2 0x2BC6 JUMP JUMPDEST PUSH2 0x2D70 PUSH1 0xC0 DUP4 ADD DUP5 PUSH2 0x2BC6 JUMP JUMPDEST SWAP9 SWAP8 POP POP POP POP POP POP POP POP JUMP JUMPDEST PUSH1 0x0 PUSH1 0x20 DUP3 DUP5 SUB SLT ISZERO PUSH2 0x2D92 JUMPI PUSH2 0x2D91 PUSH2 0x2A14 JUMP JUMPDEST JUMPDEST PUSH1 0x0 PUSH2 0x2DA0 DUP5 DUP3 DUP6 ADD PUSH2 0x2AD0 JUMP JUMPDEST SWAP2 POP POP SWAP3 SWAP2 POP POP JUMP JUMPDEST PUSH2 0x2DB2 DUP2 PUSH2 0x2C10 JUMP JUMPDEST DUP3 MSTORE POP POP JUMP JUMPDEST PUSH32 0x4E487B7100000000000000000000000000000000000000000000000000000000 PUSH1 0x0 MSTORE PUSH1 0x21 PUSH1 0x4 MSTORE PUSH1 0x24 PUSH1 0x0 REVERT JUMPDEST PUSH1 0x3 DUP2 LT PUSH2 0x2DF8 JUMPI PUSH2 0x2DF7 PUSH2 0x2DB8 JUMP JUMPDEST JUMPDEST POP JUMP JUMPDEST PUSH1 0x0 DUP2 SWAP1 POP PUSH2 0x2E09 DUP3 PUSH2 0x2DE7 JUMP JUMPDEST SWAP2 SWAP1 POP JUMP JUMPDEST PUSH1 0x0 PUSH2 0x2E19 DUP3 PUSH2 0x2DFB JUMP JUMPDEST SWAP1 POP SWAP2 SWAP1 POP JUMP JUMPDEST PUSH2 0x2E29 DUP2 PUSH2 0x2E0E JUMP JUMPDEST DUP3 MSTORE POP POP JUMP JUMPDEST PUSH1 0x0 PUSH1 0x80 DUP3 ADD SWAP1 POP PUSH2 0x2E44 PUSH1 0x0 DUP4 ADD DUP8 PUSH2 0x2DA9 JUMP JUMPDEST PUSH2 0x2E51 PUSH1 0x20 DUP4 ADD DUP7 PUSH2 0x2E20 JUMP JUMPDEST PUSH2 0x2E5E PUSH1 0x40 DUP4 ADD DUP6 PUSH2 0x2BC6 JUMP JUMPDEST PUSH2 0x2E6B PUSH1 0x60 DUP4 ADD DUP5 PUSH2 0x2BC6 JUMP JUMPDEST SWAP6 SWAP5 POP POP POP POP POP JUMP JUMPDEST PUSH1 0x0 DUP1 PUSH1 0x0 PUSH1 0x60 DUP5 DUP7 SUB SLT ISZERO PUSH2 0x2E8D JUMPI PUSH2 0x2E8C PUSH2 0x2A14 JUMP JUMPDEST JUMPDEST PUSH1 0x0 PUSH2 0x2E9B DUP7 DUP3 DUP8 ADD PUSH2 0x2C39 JUMP JUMPDEST SWAP4 POP POP PUSH1 0x20 PUSH2 0x2EAC DUP7 DUP3 DUP8 ADD PUSH2 0x2C5E JUMP JUMPDEST SWAP3 POP POP PUSH1 0x40 PUSH2 0x2EBD DUP7 DUP3 DUP8 ADD PUSH2 0x2AD0 JUMP JUMPDEST SWAP2 POP POP SWAP3 POP SWAP3 POP SWAP3 JUMP JUMPDEST PUSH1 0x0 DUP1 PUSH1 0x40 DUP4 DUP6 SUB SLT ISZERO PUSH2 0x2EDE JUMPI PUSH2 0x2EDD PUSH2 0x2A14 JUMP JUMPDEST JUMPDEST PUSH1 0x0 PUSH2 0x2EEC DUP6 DUP3 DUP7 ADD PUSH2 0x2AD0 JUMP JUMPDEST SWAP3 POP POP PUSH1 0x20 PUSH2 0x2EFD DUP6 DUP3 DUP7 ADD PUSH2 0x2AD0 JUMP JUMPDEST SWAP2 POP POP SWAP3 POP SWAP3 SWAP1 POP JUMP JUMPDEST PUSH1 0x0 DUP2 MLOAD SWAP1 POP SWAP2 SWAP1 POP JUMP JUMPDEST PUSH1 0x0 DUP3 DUP3 MSTORE PUSH1 0x20 DUP3 ADD SWAP1 POP SWAP3 SWAP2 POP POP JUMP JUMPDEST PUSH1 0x0 DUP2 SWAP1 POP PUSH1 0x20 DUP3 ADD SWAP1 POP SWAP2 SWAP1 POP JUMP JUMPDEST PUSH2 0x2F3C DUP2 PUSH2 0x2C10 JUMP JUMPDEST DUP3 MSTORE POP POP JUMP JUMPDEST PUSH2 0x2F4B DUP2 PUSH2 0x2E0E JUMP JUMPDEST DUP3 MSTORE POP POP JUMP JUMPDEST PUSH2 0x2F5A DUP2 PUSH2 0x2AAF JUMP JUMPDEST DUP3 MSTORE POP POP JUMP JUMPDEST PUSH1 0x80 DUP3 ADD PUSH1 0x0 DUP3 ADD MLOAD PUSH2 0x2F76 PUSH1 0x0 DUP6 ADD DUP3 PUSH2 0x2F33 JUMP JUMPDEST POP PUSH1 0x20 DUP3 ADD MLOAD PUSH2 0x2F89 PUSH1 0x20 DUP6 ADD DUP3 PUSH2 0x2F42 JUMP JUMPDEST POP PUSH1 0x40 DUP3 ADD MLOAD PUSH2 0x2F9C PUSH1 0x40 DUP6 ADD DUP3 PUSH2 0x2F51 JUMP JUMPDEST POP PUSH1 0x60 DUP3 ADD MLOAD PUSH2 0x2FAF PUSH1 0x60 DUP6 ADD DUP3 PUSH2 0x2F51 JUMP JUMPDEST POP POP POP POP JUMP JUMPDEST PUSH1 0x0 PUSH2 0x2FC1 DUP4 DUP4 PUSH2 0x2F60 JUMP JUMPDEST PUSH1 0x80 DUP4 ADD SWAP1 POP SWAP3 SWAP2 POP POP JUMP JUMPDEST PUSH1 0x0 PUSH1 0x20 DUP3 ADD SWAP1 POP SWAP2 SWAP1 POP JUMP JUMPDEST PUSH1 0x0 PUSH2 0x2FE5 DUP3 PUSH2 0x2F07 JUMP JUMPDEST PUSH2 0x2FEF DUP2 DUP6 PUSH2 0x2F12 JUMP JUMPDEST SWAP4 POP PUSH2 0x2FFA DUP4 PUSH2 0x2F23 JUMP JUMPDEST DUP1 PUSH1 0x0 JUMPDEST DUP4 DUP2 LT ISZERO PUSH2 0x302B JUMPI DUP2 MLOAD PUSH2 0x3012 DUP9 DUP3 PUSH2 0x2FB5 JUMP JUMPDEST SWAP8 POP PUSH2 0x301D DUP4 PUSH2 0x2FCD JUMP JUMPDEST SWAP3 POP POP PUSH1 0x1 DUP2 ADD SWAP1 POP PUSH2 0x2FFE JUMP JUMPDEST POP DUP6 SWAP4 POP POP POP POP SWAP3 SWAP2 POP POP JUMP JUMPDEST PUSH1 0x0 PUSH1 0x20 DUP3 ADD SWAP1 POP DUP2 DUP2 SUB PUSH1 0x0 DUP4 ADD MSTORE PUSH2 0x3052 DUP2 DUP5 PUSH2 0x2FDA JUMP JUMPDEST SWAP1 POP SWAP3 SWAP2 POP POP JUMP JUMPDEST PUSH1 0x0 DUP1 PUSH1 0x0 DUP1 PUSH1 0x0 PUSH1 0xA0 DUP7 DUP9 SUB SLT ISZERO PUSH2 0x3076 JUMPI PUSH2 0x3075 PUSH2 0x2A14 JUMP JUMPDEST JUMPDEST PUSH1 0x0 PUSH2 0x3084 DUP9 DUP3 DUP10 ADD PUSH2 0x2C5E JUMP JUMPDEST SWAP6 POP POP PUSH1 0x20 PUSH2 0x3095 DUP9 DUP3 DUP10 ADD PUSH2 0x2AD0 JUMP JUMPDEST SWAP5 POP POP PUSH1 0x40 PUSH2 0x30A6 DUP9 DUP3 DUP10 ADD PUSH2 0x2AD0 JUMP JUMPDEST SWAP4 POP POP PUSH1 0x60 PUSH2 0x30B7 DUP9 DUP3 DUP10 ADD PUSH2 0x2AD0 JUMP JUMPDEST SWAP3 POP POP PUSH1 0x80 PUSH2 0x30C8 DUP9 DUP3 DUP10 ADD PUSH2 0x2AD0 JUMP JUMPDEST SWAP2 POP POP SWAP3 SWAP6 POP SWAP3 SWAP6 SWAP1 SWAP4 POP JUMP JUMPDEST PUSH1 0x0 DUP1 REVERT JUMPDEST PUSH1 0x0 DUP1 REVERT JUMPDEST PUSH1 0x0 DUP1 REVERT JUMPDEST PUSH1 0x0 DUP1 DUP4 PUSH1 0x1F DUP5 ADD SLT PUSH2 0x30FA JUMPI PUSH2 0x30F9 PUSH2 0x30D5 JUMP JUMPDEST JUMPDEST DUP3 CALLDATALOAD SWAP1 POP PUSH8 0xFFFFFFFFFFFFFFFF DUP2 GT ISZERO PUSH2 0x3117 JUMPI PUSH2 0x3116 PUSH2 0x30DA JUMP JUMPDEST JUMPDEST PUSH1 0x20 DUP4 ADD SWAP2 POP DUP4 PUSH1 0x20 DUP3 MUL DUP4 ADD GT ISZERO PUSH2 0x3133 JUMPI PUSH2 0x3132 PUSH2 0x30DF JUMP JUMPDEST JUMPDEST SWAP3 POP SWAP3 SWAP1 POP JUMP JUMPDEST PUSH1 0x0 DUP1 DUP4 PUSH1 0x1F DUP5 ADD SLT PUSH2 0x3150 JUMPI PUSH2 0x314F PUSH2 0x30D5 JUMP JUMPDEST JUMPDEST DUP3 CALLDATALOAD SWAP1 POP PUSH8 0xFFFFFFFFFFFFFFFF DUP2 GT ISZERO PUSH2 0x316D JUMPI PUSH2 0x316C PUSH2 0x30DA JUMP JUMPDEST JUMPDEST PUSH1 0x20 DUP4 ADD SWAP2 POP DUP4 PUSH1 0x20 DUP3 MUL DUP4 ADD GT ISZERO PUSH2 0x3189 JUMPI PUSH2 0x3188 PUSH2 0x30DF JUMP JUMPDEST JUMPDEST SWAP3 POP SWAP3 SWAP1 POP JUMP JUMPDEST PUSH1 0x0 DUP1 DUP4 PUSH1 0x1F DUP5 ADD SLT PUSH2 0x31A6 JUMPI PUSH2 0x31A5 PUSH2 0x30D5 JUMP JUMPDEST JUMPDEST DUP3 CALLDATALOAD SWAP1 POP PUSH8 0xFFFFFFFFFFFFFFFF DUP2 GT ISZERO PUSH2 0x31C3 JUMPI PUSH2 0x31C2 PUSH2 0x30DA JUMP JUMPDEST JUMPDEST PUSH1 0x20 DUP4 ADD SWAP2 POP DUP4 PUSH1 0x20 DUP3 MUL DUP4 ADD GT ISZERO PUSH2 0x31DF JUMPI PUSH2 0x31DE PUSH2 0x30DF JUMP JUMPDEST JUMPDEST SWAP3 POP SWAP3 SWAP1 POP JUMP JUMPDEST PUSH1 0x0 DUP1 PUSH1 0x0 DUP1 PUSH1 0x0 DUP1 PUSH1 0x60 DUP8 DUP10 SUB SLT ISZERO PUSH2 0x3203 JUMPI PUSH2 0x3202 PUSH2 0x2A14 JUMP JUMPDEST JUMPDEST PUSH1 0x0 DUP8 ADD CALLDATALOAD PUSH8 0xFFFFFFFFFFFFFFFF DUP2 GT ISZERO PUSH2 0x3221 JUMPI PUSH2 0x3220 PUSH2 0x2A19 JUMP JUMPDEST JUMPDEST PUSH2 0x322D DUP10 DUP3 DUP11 ADD PUSH2 0x30E4 JUMP JUMPDEST SWAP7 POP SWAP7 POP POP PUSH1 0x20 DUP8 ADD CALLDATALOAD PUSH8 0xFFFFFFFFFFFFFFFF DUP2 GT ISZERO PUSH2 0x3250 JUMPI PUSH2 0x324F PUSH2 0x2A19 JUMP JUMPDEST JUMPDEST PUSH2 0x325C DUP10 DUP3 DUP11 ADD PUSH2 0x313A JUMP JUMPDEST SWAP5 POP SWAP5 POP POP PUSH1 0x40 DUP8 ADD CALLDATALOAD PUSH8 0xFFFFFFFFFFFFFFFF DUP2 GT ISZERO PUSH2 0x327F JUMPI PUSH2 0x327E PUSH2 0x2A19 JUMP JUMPDEST JUMPDEST PUSH2 0x328B DUP10 DUP3 DUP11 ADD PUSH2 0x3190 JUMP JUMPDEST SWAP3 POP SWAP3 POP POP SWAP3 SWAP6 POP SWAP3 SWAP6 POP SWAP3 SWAP6 JUMP JUMPDEST PUSH1 0x0 PUSH1 0x20 DUP3 ADD SWAP1 POP PUSH2 0x32AF PUSH1 0x0 DUP4 ADD DUP5 PUSH2 0x2DA9 JUMP JUMPDEST SWAP3 SWAP2 POP POP JUMP JUMPDEST PUSH1 0x0 DUP1 PUSH1 0x40 DUP4 DUP6 SUB SLT ISZERO PUSH2 0x32CC JUMPI PUSH2 0x32CB PUSH2 0x2A14 JUMP JUMPDEST JUMPDEST PUSH1 0x0 PUSH2 0x32DA DUP6 DUP3 DUP7 ADD PUSH2 0x2C5E JUMP JUMPDEST SWAP3 POP POP PUSH1 0x20 PUSH2 0x32EB DUP6 DUP3 DUP7 ADD PUSH2 0x2AD0 JUMP JUMPDEST SWAP2 POP POP SWAP3 POP SWAP3 SWAP1 POP JUMP JUMPDEST PUSH1 0xC0 DUP3 ADD PUSH1 0x0 DUP3 ADD MLOAD PUSH2 0x330B PUSH1 0x0 DUP6 ADD DUP3 PUSH2 0x2F51 JUMP JUMPDEST POP PUSH1 0x20 DUP3 ADD MLOAD PUSH2 0x331E PUSH1 0x20 DUP6 ADD DUP3 PUSH2 0x2F51 JUMP JUMPDEST POP PUSH1 0x40 DUP3 ADD MLOAD PUSH2 0x3331 PUSH1 0x40 DUP6 ADD DUP3 PUSH2 0x2F51 JUMP JUMPDEST POP PUSH1 0x60 DUP3 ADD MLOAD PUSH2 0x3344 PUSH1 0x60 DUP6 ADD DUP3 PUSH2 0x2F51 JUMP JUMPDEST POP PUSH1 0x80 DUP3 ADD MLOAD PUSH2 0x3357 PUSH1 0x80 DUP6 ADD DUP3 PUSH2 0x2F51 JUMP JUMPDEST POP PUSH1 0xA0 DUP3 ADD MLOAD PUSH2 0x336A PUSH1 0xA0 DUP6 ADD DUP3 PUSH2 0x2F51 JUMP JUMPDEST POP POP POP POP JUMP JUMPDEST PUSH1 0x0 PUSH1 0xC0 DUP3 ADD SWAP1 POP PUSH2 0x3385 PUSH1 0x0 DUP4 ADD DUP5 PUSH2 0x32F5 JUMP JUMPDEST SWAP3 SWAP2 POP POP JUMP JUMPDEST PUSH1 0x0 DUP1 PUSH1 0x0 DUP1 PUSH1 0x0 DUP1 PUSH1 0x0 DUP1 PUSH1 0x0 DUP1 PUSH1 0xA0 DUP12 DUP14 SUB SLT ISZERO PUSH2 0x33AE JUMPI PUSH2 0x33AD PUSH2 0x2A14 JUMP JUMPDEST JUMPDEST PUSH1 0x0 DUP12 ADD CALLDATALOAD PUSH8 0xFFFFFFFFFFFFFFFF DUP2 GT ISZERO PUSH2 0x33CC JUMPI PUSH2 0x33CB PUSH2 0x2A19 JUMP JUMPDEST JUMPDEST PUSH2 0x33D8 DUP14 DUP3 DUP15 ADD PUSH2 0x313A JUMP JUMPDEST SWAP11 POP SWAP11 POP POP PUSH1 0x20 DUP12 ADD CALLDATALOAD PUSH8 0xFFFFFFFFFFFFFFFF DUP2 GT ISZERO PUSH2 0x33FB JUMPI PUSH2 0x33FA PUSH2 0x2A19 JUMP JUMPDEST JUMPDEST PUSH2 0x3407 DUP14 DUP3 DUP15 ADD PUSH2 0x3190 JUMP JUMPDEST SWAP9 POP SWAP9 POP POP PUSH1 0x40 DUP12 ADD CALLDATALOAD PUSH8 0xFFFFFFFFFFFFFFFF DUP2 GT ISZERO PUSH2 0x342A JUMPI PUSH2 0x3429 PUSH2 0x2A19 JUMP JUMPDEST JUMPDEST PUSH2 0x3436 DUP14 DUP3 DUP15 ADD PUSH2 0x3190 JUMP JUMPDEST SWAP7 POP SWAP7 POP POP PUSH1 0x60 DUP12 ADD CALLDATALOAD PUSH8 0xFFFFFFFFFFFFFFFF DUP2 GT ISZERO PUSH2 0x3459 JUMPI PUSH2 0x3458 PUSH2 0x2A19 JUMP JUMPDEST JUMPDEST PUSH2 0x3465 DUP14 DUP3 DUP15 ADD PUSH2 0x3190 JUMP JUMPDEST SWAP5 POP SWAP5 POP POP PUSH1 0x80 DUP12 ADD CALLDATALOAD PUSH8 0xFFFFFFFFFFFFFFFF DUP2 GT ISZERO PUSH2 0x3488 JUMPI PUSH2 0x3487 PUSH2 0x2A19 JUMP JUMPDEST JUMPDEST PUSH2 0x3494 DUP14 DUP3 DUP15 ADD PUSH2 0x3190 JUMP JUMPDEST SWAP3 POP SWAP3 POP POP SWAP3 SWAP6 SWAP9 SWAP12 SWAP2 SWAP5 SWAP8 SWAP11 POP SWAP3 SWAP6 SWAP9 POP JUMP JUMPDEST PUSH1 0x0 DUP2 SWAP1 POP SWAP2 SWAP1 POP JUMP JUMPDEST PUSH1 0x0 PUSH2 0x34CD PUSH2 0x34C8 PUSH2 0x34C3 DUP5 PUSH2 0x2BF0 JUMP JUMPDEST PUSH2 0x34A8 JUMP JUMPDEST PUSH2 0x2BF0 JUMP JUMPDEST SWAP1 POP SWAP2 SWAP1 POP JUMP JUMPDEST PUSH1 0x0 PUSH2 0x34DF DUP3 PUSH2 0x34B2 JUMP JUMPDEST SWAP1 POP SWAP2 SWAP1 POP JUMP JUMPDEST PUSH1 0x0 PUSH2 0x34F1 DUP3 PUSH2 0x34D4 JUMP JUMPDEST SWAP1 POP SWAP2 SWAP1 POP JUMP JUMPDEST PUSH2 0x3501 DUP2 PUSH2 0x34E6 JUMP JUMPDEST DUP3 MSTORE POP POP JUMP JUMPDEST PUSH1 0x0 PUSH1 0x20 DUP3 ADD SWAP1 POP PUSH2 0x351C PUSH1 0x0 DUP4 ADD DUP5 PUSH2 0x34F8 JUMP JUMPDEST SWAP3 SWAP2 POP POP JUMP JUMPDEST PUSH1 0x0 DUP3 DUP3 MSTORE PUSH1 0x20 DUP3 ADD SWAP1 POP SWAP3 SWAP2 POP POP JUMP JUMPDEST PUSH32 0x56657374696E673A20426C6F636B205447452068617320706173736564000000 PUSH1 0x0 DUP3 ADD MSTORE POP JUMP JUMPDEST PUSH1 0x0 PUSH2 0x3569 PUSH1 0x1D DUP4 PUSH2 0x3522 JUMP JUMPDEST SWAP2 POP PUSH2 0x3574 DUP3 PUSH2 0x3533 JUMP JUMPDEST PUSH1 0x20 DUP3 ADD SWAP1 POP SWAP2 SWAP1 POP JUMP JUMPDEST PUSH1 0x0 PUSH1 0x20 DUP3 ADD SWAP1 POP DUP2 DUP2 SUB PUSH1 0x0 DUP4 ADD MSTORE PUSH2 0x3598 DUP2 PUSH2 0x355C JUMP JUMPDEST SWAP1 POP SWAP2 SWAP1 POP JUMP JUMPDEST PUSH32 0x4E487B7100000000000000000000000000000000000000000000000000000000 PUSH1 0x0 MSTORE PUSH1 0x32 PUSH1 0x4 MSTORE PUSH1 0x24 PUSH1 0x0 REVERT JUMPDEST PUSH32 0x4E487B7100000000000000000000000000000000000000000000000000000000 PUSH1 0x0 MSTORE PUSH1 0x11 PUSH1 0x4 MSTORE PUSH1 0x24 PUSH1 0x0 REVERT JUMPDEST PUSH1 0x0 PUSH2 0x3608 DUP3 PUSH2 0x2AAF JUMP JUMPDEST SWAP2 POP PUSH32 0xFFFFFFFFFFFFFFFFFFFFFFFFFFFFFFFFFFFFFFFFFFFFFFFFFFFFFFFFFFFFFFFF DUP3 EQ ISZERO PUSH2 0x363B JUMPI PUSH2 0x363A PUSH2 0x35CE JUMP JUMPDEST JUMPDEST PUSH1 0x1 DUP3 ADD SWAP1 POP SWAP2 SWAP1 POP JUMP JUMPDEST PUSH32 0x56657374696E673A20546F6F206D616E7920617267756D656E74730000000000 PUSH1 0x0 DUP3 ADD MSTORE POP JUMP JUMPDEST PUSH1 0x0 PUSH2 0x367C PUSH1 0x1B DUP4 PUSH2 0x3522 JUMP JUMPDEST SWAP2 POP PUSH2 0x3687 DUP3 PUSH2 0x3646 JUMP JUMPDEST PUSH1 0x20 DUP3 ADD SWAP1 POP SWAP2 SWAP1 POP JUMP JUMPDEST PUSH1 0x0 PUSH1 0x20 DUP3 ADD SWAP1 POP DUP2 DUP2 SUB PUSH1 0x0 DUP4 ADD MSTORE PUSH2 0x36AB DUP2 PUSH2 0x366F JUMP JUMPDEST SWAP1 POP SWAP2 SWAP1 POP JUMP JUMPDEST PUSH32 0x56657374696E673A204C656E677468206D69736D617463680000000000000000 PUSH1 0x0 DUP3 ADD MSTORE POP JUMP JUMPDEST PUSH1 0x0 PUSH2 0x36E8 PUSH1 0x18 DUP4 PUSH2 0x3522 JUMP JUMPDEST SWAP2 POP PUSH2 0x36F3 DUP3 PUSH2 0x36B2 JUMP JUMPDEST PUSH1 0x20 DUP3 ADD SWAP1 POP SWAP2 SWAP1 POP JUMP JUMPDEST PUSH1 0x0 PUSH1 0x20 DUP3 ADD SWAP1 POP DUP2 DUP2 SUB PUSH1 0x0 DUP4 ADD MSTORE PUSH2 0x3717 DUP2 PUSH2 0x36DB JUMP JUMPDEST SWAP1 POP SWAP2 SWAP1 POP JUMP JUMPDEST PUSH32 0x56657374696E673A20416D6F756E742065786365656473206D61782073757070 PUSH1 0x0 DUP3 ADD MSTORE PUSH32 0x6C79000000000000000000000000000000000000000000000000000000000000 PUSH1 0x20 DUP3 ADD MSTORE POP JUMP JUMPDEST PUSH1 0x0 PUSH2 0x377A PUSH1 0x22 DUP4 PUSH2 0x3522 JUMP JUMPDEST SWAP2 POP PUSH2 0x3785 DUP3 PUSH2 0x371E JUMP JUMPDEST PUSH1 0x40 DUP3 ADD SWAP1 POP SWAP2 SWAP1 POP JUMP JUMPDEST PUSH1 0x0 PUSH1 0x20 DUP3 ADD SWAP1 POP DUP2 DUP2 SUB PUSH1 0x0 DUP4 ADD MSTORE PUSH2 0x37A9 DUP2 PUSH2 0x376D JUMP JUMPDEST SWAP1 POP SWAP2 SWAP1 POP JUMP JUMPDEST PUSH32 0x56657374696E673A20426C6F636B2054474520616C7265616479207365740000 PUSH1 0x0 DUP3 ADD MSTORE POP JUMP JUMPDEST PUSH1 0x0 PUSH2 0x37E6 PUSH1 0x1E DUP4 PUSH2 0x3522 JUMP JUMPDEST SWAP2 POP PUSH2 0x37F1 DUP3 PUSH2 0x37B0 JUMP JUMPDEST PUSH1 0x20 DUP3 ADD SWAP1 POP SWAP2 SWAP1 POP JUMP JUMPDEST PUSH1 0x0 PUSH1 0x20 DUP3 ADD SWAP1 POP DUP2 DUP2 SUB PUSH1 0x0 DUP4 ADD MSTORE PUSH2 0x3815 DUP2 PUSH2 0x37D9 JUMP JUMPDEST SWAP1 POP SWAP2 SWAP1 POP JUMP JUMPDEST PUSH32 0x56657374696E673A2053686F756C642073657420626C6F636B20696E20667574 PUSH1 0x0 DUP3 ADD MSTORE PUSH32 0x7572650000000000000000000000000000000000000000000000000000000000 PUSH1 0x20 DUP3 ADD MSTORE POP JUMP JUMPDEST PUSH1 0x0 PUSH2 0x3878 PUSH1 0x23 DUP4 PUSH2 0x3522 JUMP JUMPDEST SWAP2 POP PUSH2 0x3883 DUP3 PUSH2 0x381C JUMP JUMPDEST PUSH1 0x40 DUP3 ADD SWAP1 POP SWAP2 SWAP1 POP JUMP JUMPDEST PUSH1 0x0 PUSH1 0x20 DUP3 ADD SWAP1 POP DUP2 DUP2 SUB PUSH1 0x0 DUP4 ADD MSTORE PUSH2 0x38A7 DUP2 PUSH2 0x386B JUMP JUMPDEST SWAP1 POP SWAP2 SWAP1 POP JUMP JUMPDEST PUSH1 0x0 PUSH2 0x38B9 DUP3 PUSH2 0x2AAF JUMP JUMPDEST SWAP2 POP PUSH2 0x38C4 DUP4 PUSH2 0x2AAF JUMP JUMPDEST SWAP3 POP DUP2 PUSH32 0xFFFFFFFFFFFFFFFFFFFFFFFFFFFFFFFFFFFFFFFFFFFFFFFFFFFFFFFFFFFFFFFF DIV DUP4 GT DUP3 ISZERO ISZERO AND ISZERO PUSH2 0x38FD JUMPI PUSH2 0x38FC PUSH2 0x35CE JUMP JUMPDEST JUMPDEST DUP3 DUP3 MUL SWAP1 POP SWAP3 SWAP2 POP POP JUMP JUMPDEST PUSH32 0x56657374696E673A20546869732076657374696E6720646F65736E2774206578 PUSH1 0x0 DUP3 ADD MSTORE PUSH32 0x6973740000000000000000000000000000000000000000000000000000000000 PUSH1 0x20 DUP3 ADD MSTORE POP JUMP JUMPDEST PUSH1 0x0 PUSH2 0x3964 PUSH1 0x23 DUP4 PUSH2 0x3522 JUMP JUMPDEST SWAP2 POP PUSH2 0x396F DUP3 PUSH2 0x3908 JUMP JUMPDEST PUSH1 0x40 DUP3 ADD SWAP1 POP SWAP2 SWAP1 POP JUMP JUMPDEST PUSH1 0x0 PUSH1 0x20 DUP3 ADD SWAP1 POP DUP2 DUP2 SUB PUSH1 0x0 DUP4 ADD MSTORE PUSH2 0x3993 DUP2 PUSH2 0x3957 JUMP JUMPDEST SWAP1 POP SWAP2 SWAP1 POP JUMP JUMPDEST PUSH32 0x4F776E61626C653A206E6577206F776E657220697320746865207A65726F2061 PUSH1 0x0 DUP3 ADD MSTORE PUSH32 0x6464726573730000000000000000000000000000000000000000000000000000 PUSH1 0x20 DUP3 ADD MSTORE POP JUMP JUMPDEST PUSH1 0x0 PUSH2 0x39F6 PUSH1 0x26 DUP4 PUSH2 0x3522 JUMP JUMPDEST SWAP2 POP PUSH2 0x3A01 DUP3 PUSH2 0x399A JUMP JUMPDEST PUSH1 0x40 DUP3 ADD SWAP1 POP SWAP2 SWAP1 POP JUMP JUMPDEST PUSH1 0x0 PUSH1 0x20 DUP3 ADD SWAP1 POP DUP2 DUP2 SUB PUSH1 0x0 DUP4 ADD MSTORE PUSH2 0x3A25 DUP2 PUSH2 0x39E9 JUMP JUMPDEST SWAP1 POP SWAP2 SWAP1 POP JUMP JUMPDEST PUSH1 0x0 PUSH2 0x3A37 DUP3 PUSH2 0x2AAF JUMP JUMPDEST SWAP2 POP PUSH2 0x3A42 DUP4 PUSH2 0x2AAF JUMP JUMPDEST SWAP3 POP DUP3 DUP3 LT ISZERO PUSH2 0x3A55 JUMPI PUSH2 0x3A54 PUSH2 0x35CE JUMP JUMPDEST JUMPDEST DUP3 DUP3 SUB SWAP1 POP SWAP3 SWAP2 POP POP JUMP JUMPDEST PUSH1 0x0 PUSH2 0x3A6B DUP3 PUSH2 0x2AAF JUMP JUMPDEST SWAP2 POP PUSH2 0x3A76 DUP4 PUSH2 0x2AAF JUMP JUMPDEST SWAP3 POP DUP3 PUSH32 0xFFFFFFFFFFFFFFFFFFFFFFFFFFFFFFFFFFFFFFFFFFFFFFFFFFFFFFFFFFFFFFFF SUB DUP3 GT ISZERO PUSH2 0x3AAB JUMPI PUSH2 0x3AAA PUSH2 0x35CE JUMP JUMPDEST JUMPDEST DUP3 DUP3 ADD SWAP1 POP SWAP3 SWAP2 POP POP JUMP JUMPDEST PUSH1 0x0 PUSH1 0x40 DUP3 ADD SWAP1 POP PUSH2 0x3ACB PUSH1 0x0 DUP4 ADD DUP6 PUSH2 0x2DA9 JUMP JUMPDEST PUSH2 0x3AD8 PUSH1 0x20 DUP4 ADD DUP5 PUSH2 0x2BC6 JUMP JUMPDEST SWAP4 SWAP3 POP POP POP JUMP JUMPDEST PUSH32 0x4F776E61626C653A2063616C6C6572206973206E6F7420746865206F776E6572 PUSH1 0x0 DUP3 ADD MSTORE POP JUMP JUMPDEST PUSH1 0x0 PUSH2 0x3B15 PUSH1 0x20 DUP4 PUSH2 0x3522 JUMP JUMPDEST SWAP2 POP PUSH2 0x3B20 DUP3 PUSH2 0x3ADF JUMP JUMPDEST PUSH1 0x20 DUP3 ADD SWAP1 POP SWAP2 SWAP1 POP JUMP JUMPDEST PUSH1 0x0 PUSH1 0x20 DUP3 ADD SWAP1 POP DUP2 DUP2 SUB PUSH1 0x0 DUP4 ADD MSTORE PUSH2 0x3B44 DUP2 PUSH2 0x3B08 JUMP JUMPDEST SWAP1 POP SWAP2 SWAP1 POP JUMP JUMPDEST PUSH32 0x56657374696E673A20416C726561647920696E76657374656400000000000000 PUSH1 0x0 DUP3 ADD MSTORE POP JUMP JUMPDEST PUSH1 0x0 PUSH2 0x3B81 PUSH1 0x19 DUP4 PUSH2 0x3522 JUMP JUMPDEST SWAP2 POP PUSH2 0x3B8C DUP3 PUSH2 0x3B4B JUMP JUMPDEST PUSH1 0x20 DUP3 ADD SWAP1 POP SWAP2 SWAP1 POP JUMP JUMPDEST PUSH1 0x0 PUSH1 0x20 DUP3 ADD SWAP1 POP DUP2 DUP2 SUB PUSH1 0x0 DUP4 ADD MSTORE PUSH2 0x3BB0 DUP2 PUSH2 0x3B74 JUMP JUMPDEST SWAP1 POP SWAP2 SWAP1 POP JUMP JUMPDEST PUSH32 0x56657374696E673A20496E7375666973616E74206C6F636B656420737570706C PUSH1 0x0 DUP3 ADD MSTORE PUSH32 0x7900000000000000000000000000000000000000000000000000000000000000 PUSH1 0x20 DUP3 ADD MSTORE POP JUMP JUMPDEST PUSH1 0x0 PUSH2 0x3C13 PUSH1 0x21 DUP4 PUSH2 0x3522 JUMP JUMPDEST SWAP2 POP PUSH2 0x3C1E DUP3 PUSH2 0x3BB7 JUMP JUMPDEST PUSH1 0x40 DUP3 ADD SWAP1 POP SWAP2 SWAP1 POP JUMP JUMPDEST PUSH1 0x0 PUSH1 0x20 DUP3 ADD SWAP1 POP DUP2 DUP2 SUB PUSH1 0x0 DUP4 ADD MSTORE PUSH2 0x3C42 DUP2 PUSH2 0x3C06 JUMP JUMPDEST SWAP1 POP SWAP2 SWAP1 POP JUMP JUMPDEST PUSH1 0x0 PUSH1 0xA0 DUP3 ADD SWAP1 POP PUSH2 0x3C5E PUSH1 0x0 DUP4 ADD DUP9 PUSH2 0x2E20 JUMP JUMPDEST PUSH2 0x3C6B PUSH1 0x20 DUP4 ADD DUP8 PUSH2 0x2BC6 JUMP JUMPDEST PUSH2 0x3C78 PUSH1 0x40 DUP4 ADD DUP7 PUSH2 0x2BC6 JUMP JUMPDEST PUSH2 0x3C85 PUSH1 0x60 DUP4 ADD DUP6 PUSH2 0x2BC6 JUMP JUMPDEST PUSH2 0x3C92 PUSH1 0x80 DUP4 ADD DUP5 PUSH2 0x2BC6 JUMP JUMPDEST SWAP7 SWAP6 POP POP POP POP POP POP JUMP JUMPDEST PUSH1 0x0 PUSH1 0x60 DUP3 ADD SWAP1 POP PUSH2 0x3CB1 PUSH1 0x0 DUP4 ADD DUP7 PUSH2 0x2DA9 JUMP JUMPDEST PUSH2 0x3CBE PUSH1 0x20 DUP4 ADD DUP6 PUSH2 0x2DA9 JUMP JUMPDEST PUSH2 0x3CCB PUSH1 0x40 DUP4 ADD DUP5 PUSH2 0x2BC6 JUMP JUMPDEST SWAP5 SWAP4 POP POP POP POP JUMP JUMPDEST PUSH32 0x4E487B7100000000000000000000000000000000000000000000000000000000 PUSH1 0x0 MSTORE PUSH1 0x12 PUSH1 0x4 MSTORE PUSH1 0x24 PUSH1 0x0 REVERT JUMPDEST PUSH1 0x0 PUSH2 0x3D0D DUP3 PUSH2 0x2AAF JUMP JUMPDEST SWAP2 POP PUSH2 0x3D18 DUP4 PUSH2 0x2AAF JUMP JUMPDEST SWAP3 POP DUP3 PUSH2 0x3D28 JUMPI PUSH2 0x3D27 PUSH2 0x3CD3 JUMP JUMPDEST JUMPDEST DUP3 DUP3 DIV SWAP1 POP SWAP3 SWAP2 POP POP JUMP JUMPDEST PUSH1 0x0 DUP2 ISZERO ISZERO SWAP1 POP SWAP2 SWAP1 POP JUMP JUMPDEST PUSH2 0x3D48 DUP2 PUSH2 0x3D33 JUMP JUMPDEST DUP2 EQ PUSH2 0x3D53 JUMPI PUSH1 0x0 DUP1 REVERT JUMPDEST POP JUMP JUMPDEST PUSH1 0x0 DUP2 MLOAD SWAP1 POP PUSH2 0x3D65 DUP2 PUSH2 0x3D3F JUMP JUMPDEST SWAP3 SWAP2 POP POP JUMP JUMPDEST PUSH1 0x0 PUSH1 0x20 DUP3 DUP5 SUB SLT ISZERO PUSH2 0x3D81 JUMPI PUSH2 0x3D80 PUSH2 0x2A14 JUMP JUMPDEST JUMPDEST PUSH1 0x0 PUSH2 0x3D8F DUP5 DUP3 DUP6 ADD PUSH2 0x3D56 JUMP JUMPDEST SWAP2 POP POP SWAP3 SWAP2 POP POP JUMP JUMPDEST PUSH32 0x5361666545524332303A204552433230206F7065726174696F6E20646964206E PUSH1 0x0 DUP3 ADD MSTORE PUSH32 0x6F74207375636365656400000000000000000000000000000000000000000000 PUSH1 0x20 DUP3 ADD MSTORE POP JUMP JUMPDEST PUSH1 0x0 PUSH2 0x3DF4 PUSH1 0x2A DUP4 PUSH2 0x3522 JUMP JUMPDEST SWAP2 POP PUSH2 0x3DFF DUP3 PUSH2 0x3D98 JUMP JUMPDEST PUSH1 0x40 DUP3 ADD SWAP1 POP SWAP2 SWAP1 POP JUMP JUMPDEST PUSH1 0x0 PUSH1 0x20 DUP3 ADD SWAP1 POP DUP2 DUP2 SUB PUSH1 0x0 DUP4 ADD MSTORE PUSH2 0x3E23 DUP2 PUSH2 0x3DE7 JUMP JUMPDEST SWAP1 POP SWAP2 SWAP1 POP JUMP JUMPDEST PUSH32 0x4E487B7100000000000000000000000000000000000000000000000000000000 PUSH1 0x0 MSTORE PUSH1 0x31 PUSH1 0x4 MSTORE PUSH1 0x24 PUSH1 0x0 REVERT JUMPDEST PUSH32 0x416464726573733A20696E73756666696369656E742062616C616E636520666F PUSH1 0x0 DUP3 ADD MSTORE PUSH32 0x722063616C6C0000000000000000000000000000000000000000000000000000 PUSH1 0x20 DUP3 ADD MSTORE POP JUMP JUMPDEST PUSH1 0x0 PUSH2 0x3EB5 PUSH1 0x26 DUP4 PUSH2 0x3522 JUMP JUMPDEST SWAP2 POP PUSH2 0x3EC0 DUP3 PUSH2 0x3E59 JUMP JUMPDEST PUSH1 0x40 DUP3 ADD SWAP1 POP SWAP2 SWAP1 POP JUMP JUMPDEST PUSH1 0x0 PUSH1 0x20 DUP3 ADD SWAP1 POP DUP2 DUP2 SUB PUSH1 0x0 DUP4 ADD MSTORE PUSH2 0x3EE4 DUP2 PUSH2 0x3EA8 JUMP JUMPDEST SWAP1 POP SWAP2 SWAP1 POP JUMP JUMPDEST PUSH1 0x0 DUP2 MLOAD SWAP1 POP SWAP2 SWAP1 POP JUMP JUMPDEST PUSH1 0x0 DUP2 SWAP1 POP SWAP3 SWAP2 POP POP JUMP JUMPDEST PUSH1 0x0 JUMPDEST DUP4 DUP2 LT ISZERO PUSH2 0x3F1F JUMPI DUP1 DUP3 ADD MLOAD DUP2 DUP5 ADD MSTORE PUSH1 0x20 DUP2 ADD SWAP1 POP PUSH2 0x3F04 JUMP JUMPDEST DUP4 DUP2 GT ISZERO PUSH2 0x3F2E JUMPI PUSH1 0x0 DUP5 DUP5 ADD MSTORE JUMPDEST POP POP POP POP JUMP JUMPDEST PUSH1 0x0 PUSH2 0x3F3F DUP3 PUSH2 0x3EEB JUMP JUMPDEST PUSH2 0x3F49 DUP2 DUP6 PUSH2 0x3EF6 JUMP JUMPDEST SWAP4 POP PUSH2 0x3F59 DUP2 DUP6 PUSH1 0x20 DUP7 ADD PUSH2 0x3F01 JUMP JUMPDEST DUP1 DUP5 ADD SWAP2 POP POP SWAP3 SWAP2 POP POP JUMP JUMPDEST PUSH1 0x0 PUSH2 0x3F71 DUP3 DUP5 PUSH2 0x3F34 JUMP JUMPDEST SWAP2 POP DUP2 SWAP1 POP SWAP3 SWAP2 POP POP JUMP JUMPDEST PUSH32 0x416464726573733A2063616C6C20746F206E6F6E2D636F6E7472616374000000 PUSH1 0x0 DUP3 ADD MSTORE POP JUMP JUMPDEST PUSH1 0x0 PUSH2 0x3FB2 PUSH1 0x1D DUP4 PUSH2 0x3522 JUMP JUMPDEST SWAP2 POP PUSH2 0x3FBD DUP3 PUSH2 0x3F7C JUMP JUMPDEST PUSH1 0x20 DUP3 ADD SWAP1 POP SWAP2 SWAP1 POP JUMP JUMPDEST PUSH1 0x0 PUSH1 0x20 DUP3 ADD SWAP1 POP DUP2 DUP2 SUB PUSH1 0x0 DUP4 ADD MSTORE PUSH2 0x3FE1 DUP2 PUSH2 0x3FA5 JUMP JUMPDEST SWAP1 POP SWAP2 SWAP1 POP JUMP JUMPDEST PUSH1 0x0 DUP2 MLOAD SWAP1 POP SWAP2 SWAP1 POP JUMP JUMPDEST PUSH1 0x0 PUSH2 0x3FFE DUP3 PUSH2 0x3FE8 JUMP JUMPDEST PUSH2 0x4008 DUP2 DUP6 PUSH2 0x3522 JUMP JUMPDEST SWAP4 POP PUSH2 0x4018 DUP2 DUP6 PUSH1 0x20 DUP7 ADD PUSH2 0x3F01 JUMP JUMPDEST PUSH2 0x4021 DUP2 PUSH2 0x2A23 JUMP JUMPDEST DUP5 ADD SWAP2 POP POP SWAP3 SWAP2 POP POP JUMP JUMPDEST PUSH1 0x0 PUSH1 0x20 DUP3 ADD SWAP1 POP DUP2 DUP2 SUB PUSH1 0x0 DUP4 ADD MSTORE PUSH2 0x4046 DUP2 DUP5 PUSH2 0x3FF3 JUMP JUMPDEST SWAP1 POP SWAP3 SWAP2 POP POP JUMP INVALID LOG2 PUSH5 0x6970667358 0x22 SLT KECCAK256 DUP4 PUSH4 0xC02F71D5 0xB8 EQ 0x5E 0xE0 PUSH4 0xE0DDB32D NOT 0xC1 0x27 EXTCODECOPY MULMOD EXTCODEHASH INVALID SELFDESTRUCT 0xB6 EXTCODECOPY PUSH9 0xFBE53A8E897C64736F PUSH13 0x634300080A0033000000000000 "},"methodIdentifiers":{"BLOCKS_PER_MONTH()":"c409084a","BLOCKS_TEST()":"625be80e","MAX_LENGTH()":"a6f9885c","PERCENTAGE_100()":"cbf5a55e","PERIOD_DURATION()":"6558954f","PRECISION()":"aaf5eb68","addVesting(address,uint8,uint256)":"7ba17f4e","addVestingBatch(address[],uint8[],uint256[])":"87b3306f","balanceOf(address)":"70a08231","balanceOfSale(address,uint8)":"3a560bad","blockTGE()":"5f43793c","cancelVesting(address,uint8)":"f1af3c3f","claim()":"4e71d92d","countOwnedVestings(address)":"57b89adb","emptyStage(uint8)":"774b8c38","getCurrentSupply((uint256,uint256,uint256,uint256,uint256,uint256,uint256))":"83ded106","getListVestings(uint256,uint256)":"81a63b18","getStageInfo(uint8)":"9d104770","getUnlocatedSupply((uint256,uint256,uint256,uint256,uint256,uint256,uint256))":"19af64ba","getVestingIndex(address,uint8)":"48bb6511","owner()":"8da5cb5b","refillStage(uint8,uint256)":"9a21e6d2","renounceOwnership()":"715018a6","setBlockTGE(uint256)":"a3cf7c2f","setStage(uint8,uint256,uint256,uint256,uint256)":"8499f883","setStageBatch(uint8[],uint256[],uint256[],uint256[],uint256[])":"bed47f15","stageInfo(uint8)":"63c0d0d4","token()":"fc0c546a","transferOwnership(address)":"f2fde38b","vestingInfo(uint256)":"66ffcf5f"}},"userdoc":{"kind":"user","methods":{},"version":1}}}}