{
  "abi": [
    {
      "inputs": [
        {
          "internalType": "address",
          "name": "tokenAddress",
          "type": "address"
        }
      ],
      "stateMutability": "nonpayable",
      "type": "constructor"
    },
    {
      "anonymous": false,
      "inputs": [
        {
          "indexed": true,
          "internalType": "address",
          "name": "previousOwner",
          "type": "address"
        },
        {
          "indexed": true,
          "internalType": "address",
          "name": "newOwner",
          "type": "address"
        }
      ],
      "name": "OwnershipTransferred",
      "type": "event"
    },
    {
      "anonymous": false,
      "inputs": [
        {
          "indexed": true,
          "internalType": "enum IVesting.Sale",
          "name": "sale",
          "type": "uint8"
        },
        {
          "indexed": false,
          "internalType": "uint256",
          "name": "amountEmptied",
          "type": "uint256"
        }
      ],
      "name": "StageEmptied",
      "type": "event"
    },
    {
      "anonymous": false,
      "inputs": [
        {
          "indexed": true,
          "internalType": "enum IVesting.Sale",
          "name": "sale",
          "type": "uint8"
        },
        {
          "indexed": false,
          "internalType": "uint256",
          "name": "amountRefilled",
          "type": "uint256"
        }
      ],
      "name": "StageRefilled",
      "type": "event"
    },
    {
      "anonymous": false,
      "inputs": [
        {
          "indexed": false,
          "internalType": "enum IVesting.Sale",
          "name": "sale",
          "type": "uint8"
        },
        {
          "indexed": false,
          "internalType": "uint256",
          "name": "maxSupply",
          "type": "uint256"
        },
        {
          "indexed": false,
          "internalType": "uint256",
          "name": "releaseTGE",
          "type": "uint256"
        },
        {
          "indexed": false,
          "internalType": "uint256",
          "name": "cliff",
          "type": "uint256"
        },
        {
          "indexed": false,
          "internalType": "uint256",
          "name": "period",
          "type": "uint256"
        }
      ],
      "name": "StageSet",
      "type": "event"
    },
    {
      "anonymous": false,
      "inputs": [
        {
          "indexed": true,
          "internalType": "uint256",
          "name": "vestingIndex",
          "type": "uint256"
        },
        {
          "indexed": true,
          "internalType": "address",
          "name": "wallet",
          "type": "address"
        },
        {
          "indexed": false,
          "internalType": "uint256",
          "name": "amountVested",
          "type": "uint256"
        }
      ],
      "name": "VestingAdded",
      "type": "event"
    },
    {
      "anonymous": false,
      "inputs": [
        {
          "indexed": true,
          "internalType": "uint256",
          "name": "vestingIndex",
          "type": "uint256"
        },
        {
          "indexed": true,
          "internalType": "address",
          "name": "wallet",
          "type": "address"
        },
        {
          "indexed": false,
          "internalType": "uint256",
          "name": "amountUnvested",
          "type": "uint256"
        }
      ],
      "name": "VestingCanceled",
      "type": "event"
    },
    {
      "anonymous": false,
      "inputs": [
        {
          "indexed": true,
          "internalType": "uint256",
          "name": "vestingIndex",
          "type": "uint256"
        },
        {
          "indexed": true,
          "internalType": "address",
          "name": "wallet",
          "type": "address"
        },
        {
          "indexed": false,
          "internalType": "uint256",
          "name": "amountClaimed",
          "type": "uint256"
        }
      ],
      "name": "VestingClaimed",
      "type": "event"
    },
    {
      "inputs": [],
      "name": "BLOCKS_PER_MONTH",
      "outputs": [
        {
          "internalType": "uint256",
          "name": "",
          "type": "uint256"
        }
      ],
      "stateMutability": "view",
      "type": "function"
    },
    {
      "inputs": [],
      "name": "BLOCKS_TEST",
      "outputs": [
        {
          "internalType": "uint256",
          "name": "",
          "type": "uint256"
        }
      ],
      "stateMutability": "view",
      "type": "function"
    },
    {
      "inputs": [],
      "name": "MAX_LENGTH",
      "outputs": [
        {
          "internalType": "uint256",
          "name": "",
          "type": "uint256"
        }
      ],
      "stateMutability": "view",
      "type": "function"
    },
    {
      "inputs": [],
      "name": "PERCENTAGE_100",
      "outputs": [
        {
          "internalType": "uint256",
          "name": "",
          "type": "uint256"
        }
      ],
      "stateMutability": "view",
      "type": "function"
    },
    {
      "inputs": [],
      "name": "PERIOD_DURATION",
      "outputs": [
        {
          "internalType": "uint256",
          "name": "",
          "type": "uint256"
        }
      ],
      "stateMutability": "view",
      "type": "function"
    },
    {
      "inputs": [],
      "name": "PRECISION",
      "outputs": [
        {
          "internalType": "uint256",
          "name": "",
          "type": "uint256"
        }
      ],
      "stateMutability": "view",
      "type": "function"
    },
    {
      "inputs": [
        {
          "internalType": "address",
          "name": "wallet",
          "type": "address"
        },
        {
          "internalType": "enum IVesting.Sale",
          "name": "sale",
          "type": "uint8"
        },
        {
          "internalType": "uint256",
          "name": "amount",
          "type": "uint256"
        }
      ],
      "name": "addVesting",
      "outputs": [],
      "stateMutability": "nonpayable",
      "type": "function"
    },
    {
      "inputs": [
        {
          "internalType": "address[]",
          "name": "wallets",
          "type": "address[]"
        },
        {
          "internalType": "enum IVesting.Sale[]",
          "name": "sales",
          "type": "uint8[]"
        },
        {
          "internalType": "uint256[]",
          "name": "amounts",
          "type": "uint256[]"
        }
      ],
      "name": "addVestingBatch",
      "outputs": [],
      "stateMutability": "nonpayable",
      "type": "function"
    },
    {
      "inputs": [
        {
          "internalType": "address",
          "name": "wallet",
          "type": "address"
        }
      ],
      "name": "balanceOf",
      "outputs": [
        {
          "internalType": "uint256",
          "name": "",
          "type": "uint256"
        }
      ],
      "stateMutability": "view",
      "type": "function"
    },
    {
      "inputs": [
        {
          "internalType": "address",
          "name": "wallet",
          "type": "address"
        },
        {
          "internalType": "enum IVesting.Sale",
          "name": "sale",
          "type": "uint8"
        }
      ],
      "name": "balanceOfSale",
      "outputs": [
        {
          "internalType": "uint256",
          "name": "",
          "type": "uint256"
        }
      ],
      "stateMutability": "view",
      "type": "function"
    },
    {
      "inputs": [],
      "name": "blockTGE",
      "outputs": [
        {
          "internalType": "uint256",
          "name": "",
          "type": "uint256"
        }
      ],
      "stateMutability": "view",
      "type": "function"
    },
    {
      "inputs": [
        {
          "internalType": "address",
          "name": "wallet",
          "type": "address"
        },
        {
          "internalType": "enum IVesting.Sale",
          "name": "sale",
          "type": "uint8"
        }
      ],
      "name": "cancelVesting",
      "outputs": [],
      "stateMutability": "nonpayable",
      "type": "function"
    },
    {
      "inputs": [],
      "name": "claim",
      "outputs": [],
      "stateMutability": "nonpayable",
      "type": "function"
    },
    {
      "inputs": [
        {
          "internalType": "address",
          "name": "wallet",
          "type": "address"
        }
      ],
      "name": "countOwnedVestings",
      "outputs": [
        {
          "internalType": "uint256",
          "name": "",
          "type": "uint256"
        }
      ],
      "stateMutability": "view",
      "type": "function"
    },
    {
      "inputs": [
        {
          "internalType": "enum IVesting.Sale",
          "name": "sale",
          "type": "uint8"
        }
      ],
      "name": "emptyStage",
      "outputs": [],
      "stateMutability": "nonpayable",
      "type": "function"
    },
    {
      "inputs": [
        {
          "components": [
            {
              "internalType": "uint256",
              "name": "maxSupply",
              "type": "uint256"
            },
            {
              "internalType": "uint256",
              "name": "lockedSupply",
              "type": "uint256"
            },
            {
              "internalType": "uint256",
              "name": "vestedSupply",
              "type": "uint256"
            },
            {
              "internalType": "uint256",
              "name": "claimedSupply",
              "type": "uint256"
            },
            {
              "internalType": "uint256",
              "name": "releaseTGE",
              "type": "uint256"
            },
            {
              "internalType": "uint256",
              "name": "cliff",
              "type": "uint256"
            },
            {
              "internalType": "uint256",
              "name": "period",
              "type": "uint256"
            }
          ],
          "internalType": "struct IVesting.StageInfo",
          "name": "stage",
          "type": "tuple"
        }
      ],
      "name": "getCurrentSupply",
      "outputs": [
        {
          "internalType": "uint256",
          "name": "",
          "type": "uint256"
        }
      ],
      "stateMutability": "pure",
      "type": "function"
    },
    {
      "inputs": [
        {
          "internalType": "uint256",
          "name": "offset",
          "type": "uint256"
        },
        {
          "internalType": "uint256",
          "name": "limit",
          "type": "uint256"
        }
      ],
      "name": "getListVestings",
      "outputs": [
        {
          "components": [
            {
              "internalType": "address",
              "name": "wallet",
              "type": "address"
            },
            {
              "internalType": "enum IVesting.Sale",
              "name": "sale",
              "type": "uint8"
            },
            {
              "internalType": "uint256",
              "name": "amount",
              "type": "uint256"
            },
            {
              "internalType": "uint256",
              "name": "paid",
              "type": "uint256"
            }
          ],
          "internalType": "struct IVesting.VestingInfo[]",
          "name": "vestingInfos",
          "type": "tuple[]"
        }
      ],
      "stateMutability": "view",
      "type": "function"
    },
    {
      "inputs": [
        {
          "internalType": "enum IVesting.Sale",
          "name": "sale",
          "type": "uint8"
        }
      ],
      "name": "getStageInfo",
      "outputs": [
        {
          "components": [
            {
              "internalType": "uint256",
              "name": "maxSupply",
              "type": "uint256"
            },
            {
              "internalType": "uint256",
              "name": "lockedSupply",
              "type": "uint256"
            },
            {
              "internalType": "uint256",
              "name": "currentSupply",
              "type": "uint256"
            },
            {
              "internalType": "uint256",
              "name": "vestedSupply",
              "type": "uint256"
            },
            {
              "internalType": "uint256",
              "name": "claimedSupply",
              "type": "uint256"
            },
            {
              "internalType": "uint256",
              "name": "unalocatedSupply",
              "type": "uint256"
            }
          ],
          "internalType": "struct IVesting.StagePublicInfo",
          "name": "stagePublicInfo",
          "type": "tuple"
        }
      ],
      "stateMutability": "view",
      "type": "function"
    },
    {
      "inputs": [
        {
          "components": [
            {
              "internalType": "uint256",
              "name": "maxSupply",
              "type": "uint256"
            },
            {
              "internalType": "uint256",
              "name": "lockedSupply",
              "type": "uint256"
            },
            {
              "internalType": "uint256",
              "name": "vestedSupply",
              "type": "uint256"
            },
            {
              "internalType": "uint256",
              "name": "claimedSupply",
              "type": "uint256"
            },
            {
              "internalType": "uint256",
              "name": "releaseTGE",
              "type": "uint256"
            },
            {
              "internalType": "uint256",
              "name": "cliff",
              "type": "uint256"
            },
            {
              "internalType": "uint256",
              "name": "period",
              "type": "uint256"
            }
          ],
          "internalType": "struct IVesting.StageInfo",
          "name": "stage",
          "type": "tuple"
        }
      ],
      "name": "getUnlocatedSupply",
      "outputs": [
        {
          "internalType": "uint256",
          "name": "",
          "type": "uint256"
        }
      ],
      "stateMutability": "pure",
      "type": "function"
    },
    {
      "inputs": [
        {
          "internalType": "address",
          "name": "wallet",
          "type": "address"
        },
        {
          "internalType": "enum IVesting.Sale",
          "name": "sale",
          "type": "uint8"
        }
      ],
      "name": "getVestingIndex",
      "outputs": [
        {
          "internalType": "uint256",
          "name": "",
          "type": "uint256"
        }
      ],
      "stateMutability": "view",
      "type": "function"
    },
    {
      "inputs": [],
      "name": "owner",
      "outputs": [
        {
          "internalType": "address",
          "name": "",
          "type": "address"
        }
      ],
      "stateMutability": "view",
      "type": "function"
    },
    {
      "inputs": [
        {
          "internalType": "enum IVesting.Sale",
          "name": "sale",
          "type": "uint8"
        },
        {
          "internalType": "uint256",
          "name": "amountToRefill",
          "type": "uint256"
        }
      ],
      "name": "refillStage",
      "outputs": [],
      "stateMutability": "nonpayable",
      "type": "function"
    },
    {
      "inputs": [],
      "name": "renounceOwnership",
      "outputs": [],
      "stateMutability": "nonpayable",
      "type": "function"
    },
    {
      "inputs": [
        {
          "internalType": "uint256",
          "name": "_blockTGE",
          "type": "uint256"
        }
      ],
      "name": "setBlockTGE",
      "outputs": [],
      "stateMutability": "nonpayable",
      "type": "function"
    },
    {
      "inputs": [
        {
          "internalType": "enum IVesting.Sale",
          "name": "sale",
          "type": "uint8"
        },
        {
          "internalType": "uint256",
          "name": "maxSupply",
          "type": "uint256"
        },
        {
          "internalType": "uint256",
          "name": "releaseTGE",
          "type": "uint256"
        },
        {
          "internalType": "uint256",
          "name": "cliff",
          "type": "uint256"
        },
        {
          "internalType": "uint256",
          "name": "period",
          "type": "uint256"
        }
      ],
      "name": "setStage",
      "outputs": [],
      "stateMutability": "nonpayable",
      "type": "function"
    },
    {
      "inputs": [
        {
          "internalType": "enum IVesting.Sale[]",
          "name": "sales",
          "type": "uint8[]"
        },
        {
          "internalType": "uint256[]",
          "name": "maxSupplies",
          "type": "uint256[]"
        },
        {
          "internalType": "uint256[]",
          "name": "releasesTGE",
          "type": "uint256[]"
        },
        {
          "internalType": "uint256[]",
          "name": "cliffs",
          "type": "uint256[]"
        },
        {
          "internalType": "uint256[]",
          "name": "periods",
          "type": "uint256[]"
        }
      ],
      "name": "setStageBatch",
      "outputs": [],
      "stateMutability": "nonpayable",
      "type": "function"
    },
    {
      "inputs": [
        {
          "internalType": "enum IVesting.Sale",
          "name": "",
          "type": "uint8"
        }
      ],
      "name": "stageInfo",
      "outputs": [
        {
          "internalType": "uint256",
          "name": "maxSupply",
          "type": "uint256"
        },
        {
          "internalType": "uint256",
          "name": "lockedSupply",
          "type": "uint256"
        },
        {
          "internalType": "uint256",
          "name": "vestedSupply",
          "type": "uint256"
        },
        {
          "internalType": "uint256",
          "name": "claimedSupply",
          "type": "uint256"
        },
        {
          "internalType": "uint256",
          "name": "releaseTGE",
          "type": "uint256"
        },
        {
          "internalType": "uint256",
          "name": "cliff",
          "type": "uint256"
        },
        {
          "internalType": "uint256",
          "name": "period",
          "type": "uint256"
        }
      ],
      "stateMutability": "view",
      "type": "function"
    },
    {
      "inputs": [],
      "name": "token",
      "outputs": [
        {
          "internalType": "contract IERC20",
          "name": "",
          "type": "address"
        }
      ],
      "stateMutability": "view",
      "type": "function"
    },
    {
      "inputs": [
        {
          "internalType": "address",
          "name": "newOwner",
          "type": "address"
        }
      ],
      "name": "transferOwnership",
      "outputs": [],
      "stateMutability": "nonpayable",
      "type": "function"
    },
    {
      "inputs": [
        {
          "internalType": "uint256",
          "name": "",
          "type": "uint256"
        }
      ],
      "name": "vestingInfo",
      "outputs": [
        {
          "internalType": "address",
          "name": "wallet",
          "type": "address"
        },
        {
          "internalType": "enum IVesting.Sale",
          "name": "sale",
          "type": "uint8"
        },
        {
          "internalType": "uint256",
          "name": "amount",
          "type": "uint256"
        },
        {
          "internalType": "uint256",
          "name": "paid",
          "type": "uint256"
        }
      ],
      "stateMutability": "view",
      "type": "function"
    }
  ],
  "bytecode": {
    "object": "0x60806040523480156200001157600080fd5b50604051620027a0380380620027a08339810160408190526200003491620000bc565b8062000040336200006c565b6001600481905580546001600160a01b0319166001600160a01b039290921691909117905550620000ee565b600080546001600160a01b038381166001600160a01b0319831681178455604051919092169283917f8be0079c531659141344cd1fd0a4f28419497f9722a3daafe3b4186f6b6457e09190a35050565b600060208284031215620000cf57600080fd5b81516001600160a01b0381168114620000e757600080fd5b9392505050565b6126a280620000fe6000396000f3fe608060405234801561001057600080fd5b50600436106101da5760003560e01c806383ded10611610104578063a6f9885c116100a2578063cbf5a55e11610071578063cbf5a55e146104b7578063f1af3c3f146104bf578063f2fde38b146104d2578063fc0c546a146104e557600080fd5b8063a6f9885c14610480578063aaf5eb6814610488578063bed47f151461049a578063c409084a146104ad57600080fd5b80638da5cb5b116100de5780638da5cb5b146103d65780639a21e6d2146103fb5780639d1047701461040e578063a3cf7c2f1461046d57600080fd5b806383ded1061461039d5780638499f883146103b057806387b3306f146103c357600080fd5b806363c0d0d41161017c578063715018a61161014b578063715018a61461034f578063774b8c38146103575780637ba17f4e1461036a57806381a63b181461037d57600080fd5b806363c0d0d4146102595780636558954f146102de57806366ffcf5f146102e857806370a082311461033c57600080fd5b80634e71d92d116101b85780634e71d92d1461022b57806357b89adb146102355780635f43793c14610248578063625be80e1461025157600080fd5b806319af64ba146101df5780633a560bad1461020557806348bb651114610218575b600080fd5b6101f26101ed366004612334565b6104f8565b6040519081526020015b60405180910390f35b6101f2610213366004612091565b61051b565b6101f2610226366004612091565b61059f565b6102336105f2565b005b6101f2610243366004612076565b610644565b6101f260025481565b6101f2600a81565b6102a96102673660046122ad565b60036020528060005260406000206000915090508060000154908060010154908060020154908060030154908060040154908060050154908060060154905087565b604080519788526020880196909652948601939093526060850191909152608084015260a083015260c082015260e0016101fc565b6101f262278d0081565b61032c6102f63660046123c6565b6005602052600090815260409020805460018201546002909201546001600160a01b03821692600160a01b90920460ff16919084565b6040516101fc949392919061243f565b6101f261034a366004612076565b610665565b61023361068e565b6102336103653660046122ad565b6106a2565b6102336103783660046120c4565b6107af565b61039061038b3660046123df565b610818565b6040516101fc919061246e565b6101f26103ab366004612334565b6109bc565b6102336103be3660046122f2565b6109d9565b6102336103d1366004612100565b6109f5565b6000546001600160a01b03165b6040516001600160a01b0390911681526020016101fc565b6102336104093660046122c8565b610b89565b61042161041c3660046122ad565b610d24565b6040516101fc9190600060c082019050825182526020830151602083015260408301516040830152606083015160608301526080830151608083015260a083015160a083015292915050565b61023361047b3660046123c6565b610e2e565b6101f2601e81565b6101f26a084595161401484a00000081565b6102336104a836600461219a565b610eef565b6101f262034bc081565b6101f261101f565b6102336104cd366004612091565b611038565b6102336104e0366004612076565b611224565b6001546103e3906001600160a01b031681565b60006105158260400151836020015161129a90919063ffffffff16565b92915050565b600061052783836112ad565b1580610534575060025443105b1561054157506000610515565b6001600160a01b03831660009081526007602052604081208184600281111561056c5761056c612614565b600281111561057d5761057d612614565b815260200190815260200160002054905061059781611320565b949350505050565b6001600160a01b0382166000908152600760205260408120818360028111156105ca576105ca612614565b60028111156105db576105db612614565b815260200190815260200160002054905092915050565b6000610621610602336002611517565b61061b610610336001611517565b61061b336000611517565b906116aa565b9050801561064157610641335b6001546001600160a01b031690836116b6565b50565b6001600160a01b038116600090815260066020526040812061051590611719565b600061051561067583600261051b565b61061b61068385600161051b565b61061b86600061051b565b610696611723565b6106a0600061177d565b565b6106aa611723565b6000600360008360028111156106c2576106c2612614565b60028111156106d3576106d3612614565b81526020019081526020016000209050600061073f826040518060e00160405290816000820154815260200160018201548152602001600282015481526020016003820154815260200160048201548152602001600582015481526020016006820154815250506104f8565b905080156107aa576001820154610756908261129a565b60018301556107643361062e565b82600281111561077657610776612614565b6040518281527fb819d129d0582a3f999e8fe877ffe22795ad2228c7e577d09c19d4a3c5c7cf289060200160405180910390a25b505050565b6107b7611723565b436002541161080d5760405162461bcd60e51b815260206004820152601d60248201527f56657374696e673a20426c6f636b20544745206861732070617373656400000060448201526064015b60405180910390fd5b6107aa8383836117cd565b3360009081526006602052604081206060919061083490611719565b90506000610856856108508461084a83896116aa565b90611a27565b90611a3d565b9050610862818661129a565b67ffffffffffffffff81111561087a5761087a612656565b6040519080825280602002602001820160405280156108d757816020015b6108c4604080516080810190915260008082526020820190815260200160008152602001600081525090565b8152602001906001900390816108985790505b509250845b818110156109b3573360009081526006602052604081206108fd9083611a4c565b9050600061090b838961129a565b60008381526005602090815260409182902082516080810190935280546001600160a01b0381168452939450919290830190600160a01b900460ff16600281111561095857610958612614565b600281111561096957610969612614565b81526020016001820154815260200160028201548152505086828151811061099357610993612640565b6020026020010181905250505080806109ab906125e3565b9150506108dc565b50505092915050565b60006105158260600151836020015161129a90919063ffffffff16565b6109e1611723565b6109ee8585858585611a58565b5050505050565b6109fd611723565b4360025411610a4e5760405162461bcd60e51b815260206004820152601d60248201527f56657374696e673a20426c6f636b2054474520686173207061737365640000006044820152606401610804565b601e851115610a9f5760405162461bcd60e51b815260206004820152601b60248201527f56657374696e673a20546f6f206d616e7920617267756d656e747300000000006044820152606401610804565b8483148015610aad57508281145b610af45760405162461bcd60e51b81526020600482015260186024820152770accae6e8d2dcce744098cadccee8d040dad2e6dac2e8c6d60431b6044820152606401610804565b60005b85811015610b8057610b6e878783818110610b1457610b14612640565b9050602002016020810190610b299190612076565b868684818110610b3b57610b3b612640565b9050602002016020810190610b5091906122ad565b858585818110610b6257610b62612640565b905060200201356117cd565b80610b78816125e3565b915050610af7565b50505050505050565b610b91611723565b60036000836002811115610ba757610ba7612614565b6002811115610bb857610bb8612614565b815260200190815260200160002060000154610c158260036000866002811115610be457610be4612614565b6002811115610bf557610bf5612614565b8152602001908152602001600020600101546116aa90919063ffffffff16565b1115610c6e5760405162461bcd60e51b815260206004820152602260248201527f56657374696e673a20416d6f756e742065786365656473206d617820737570706044820152616c7960f01b6064820152608401610804565b610c888160036000856002811115610be457610be4612614565b60036000846002811115610c9e57610c9e612614565b6002811115610caf57610caf612614565b8152602081019190915260400160002060010155610cdb336001546001600160a01b0316903084611b92565b816002811115610ced57610ced612614565b6040518281527f1ed1842de53a6797bcd103b15ef4c2cfe977cd44a413ae3ef35bff8c6d252f619060200160405180910390a25050565b610d5d6040518060c001604052806000815260200160008152602001600081526020016000815260200160008152602001600081525090565b600060036000846002811115610d7557610d75612614565b6002811115610d8657610d86612614565b81526020808201929092526040908101600020815160e081018352815480825260018301548286019081526002840154948301949094526003830154606083015260048301546080830152600583015460a083015260069092015460c08201529085529051918401919091529050610dfd816109bc565b6040808401919091528101516060808401919091528101516080830152610e23816104f8565b60a083015250919050565b610e36611723565b60025415610e8f576002548110610e8f5760405162461bcd60e51b815260206004820152601e60248201527f56657374696e673a20426c6f636b2054474520616c72656164792073657400006044820152606401610804565b438111610eea5760405162461bcd60e51b815260206004820152602360248201527f56657374696e673a2053686f756c642073657420626c6f636b20696e2066757460448201526275726560e81b6064820152608401610804565b600255565b610ef7611723565b8887148015610f0557508685145b8015610f1057508483145b8015610f1b57508281145b610f625760405162461bcd60e51b81526020600482015260186024820152770accae6e8d2dcce744098cadccee8d040dad2e6dac2e8c6d60431b6044820152606401610804565b60005b89811015611012576110008b8b83818110610f8257610f82612640565b9050602002016020810190610f9791906122ad565b8a8a84818110610fa957610fa9612640565b90506020020135898985818110610fc257610fc2612640565b90506020020135888886818110610fdb57610fdb612640565b90506020020135878787818110610ff457610ff4612640565b90506020020135611a58565b8061100a816125e3565b915050610f65565b5050505050505050505050565b6110356a084595161401484a0000006064612581565b81565b611040611723565b818161104c82826112ad565b6110a45760405162461bcd60e51b815260206004820152602360248201527f56657374696e673a20546869732076657374696e6720646f65736e27742065786044820152621a5cdd60ea1b6064820152608401610804565b6001600160a01b0384166000908152600760205260408120818560028111156110cf576110cf612614565b60028111156110e0576110e0612614565b815260200190815260200160002054905060006003600086600281111561110957611109612614565b600281111561111a5761111a612614565b8152602080820192909252604090810160009081208582526005909352206001810154600290910154919250906111619061115690839061129a565b60028401549061129a565b60028301556001600160a01b03871660009081526006602052604090206111889084611bd0565b506001600160a01b0387166000908152600760205260408120818860028111156111b4576111b4612614565b60028111156111c5576111c5612614565b815260200190815260200160002081905550866001600160a01b0316837f42ccba9814df52d01c2fd804f92a6ededbf830ad1bc8df0e2151be9c2631df238360405161121391815260200190565b60405180910390a350505050505050565b61122c611723565b6001600160a01b0381166112915760405162461bcd60e51b815260206004820152602660248201527f4f776e61626c653a206e6577206f776e657220697320746865207a65726f206160448201526564647265737360d01b6064820152608401610804565b6106418161177d565b60006112a682846125a0565b9392505050565b6001600160a01b03821660009081526007602052604081208190818460028111156112da576112da612614565b60028111156112eb576112eb612614565b815260208082019290925260409081016000908120546001600160a01b03881682526006909352209091506105979082611bdc565b600081815260056020908152604080832081516080810190925280546001600160a01b03811683528493830190600160a01b900460ff16600281111561136857611368612614565b600281111561137957611379612614565b8152602001600182015481526020016002820154815250509050600060036000836020015160028111156113af576113af612614565b60028111156113c0576113c0612614565b81526020019081526020016000206040518060e0016040529081600082015481526020016001820154815260200160028201548152602001600382015481526020016004820154815260200160058201548152602001600682015481525050905060006114576a084595161401484a000000606461143e9190612581565b6080840151604086015161145191611bf4565b90611c00565b60a0830151909150819060009061147c9061147390600a611bf4565b600254906116aa565b905060006114a261149b600a8760c00151611bf490919063ffffffff16565b83906116aa565b9050814311156114fb5760006114b88383611c0c565b905060006114d386896040015161129a90919063ffffffff16565b90506114f66114ef6114e5858761129a565b6114518486611bf4565b86906116aa565b945050505b606086015161150b90849061129a565b98975050505050505050565b600061152383836112ad565b1580611530575060025443105b1561153d57506000610515565b6001600160a01b03831660009081526007602052604081208184600281111561156857611568612614565b600281111561157957611579612614565b8152602001908152602001600020549050600061159582611320565b90508015610597576115e881600360008760028111156115b7576115b7612614565b60028111156115c8576115c8612614565b8152602001908152602001600020600301546116aa90919063ffffffff16565b600360008660028111156115fe576115fe612614565b600281111561160f5761160f612614565b81526020019081526020016000206003018190555061164d8160056000858152602001908152602001600020600201546116aa90919063ffffffff16565b60008381526005602090815260409182902060020192909255518281526001600160a01b0387169184917f14a81f9a556dbd4b3ae8c924aef3cc382cb6f3c4b91e88201a1be8e8cf359328910160405180910390a3949350505050565b60006112a68284612547565b6040516001600160a01b0383166024820152604481018290526107aa90849063a9059cbb60e01b906064015b60408051601f198184030181529190526020810180516001600160e01b03166001600160e01b031990931692909217909152611c30565b6000610515825490565b6000546001600160a01b031633146106a05760405162461bcd60e51b815260206004820181905260248201527f4f776e61626c653a2063616c6c6572206973206e6f7420746865206f776e65726044820152606401610804565b600080546001600160a01b038381166001600160a01b0319831681178455604051919092169283917f8be0079c531659141344cd1fd0a4f28419497f9722a3daafe3b4186f6b6457e09190a35050565b6117d783836112ad565b156118245760405162461bcd60e51b815260206004820152601960248201527f56657374696e673a20416c726561647920696e766573746564000000000000006044820152606401610804565b60006003600084600281111561183c5761183c612614565b600281111561184d5761184d612614565b8152602001908152602001600020905080600101546118798383600201546116aa90919063ffffffff16565b11156118d15760405162461bcd60e51b815260206004820152602160248201527f56657374696e673a20496e7375666973616e74206c6f636b656420737570706c6044820152607960f81b6064820152608401610804565b60028101546118e090836116aa565b6002828101919091556004805460009081526005602052604080822080546001600160a01b0319166001600160a01b038a1617905591548152208054859260ff60a01b1990911690600160a01b90849081111561193f5761193f612614565b021790555060048054600090815260056020908152604080832060010186905592546001600160a01b0388168352600690915291902061197e91611d02565b506004546001600160a01b0385166000908152600760205260408120908560028111156119ad576119ad612614565b60028111156119be576119be612614565b81526020810191909152604001600020556004546119dd9060016116aa565b60048190556040518381526001600160a01b03861691907fca26c44dfb310e29094c39c1c371f88ec57baa3398ea2a3abc3f9c825a4f72129060200160405180910390a350505050565b6000818310611a3657816112a6565b5090919050565b6000818311611a3657816112a6565b60006112a68383611d0e565b8360036000876002811115611a6f57611a6f612614565b6002811115611a8057611a80612614565b8152602001908152602001600020600001819055508260036000876002811115611aac57611aac612614565b6002811115611abd57611abd612614565b8152602001908152602001600020600401819055508160036000876002811115611ae957611ae9612614565b6002811115611afa57611afa612614565b8152602001908152602001600020600501819055508060036000876002811115611b2657611b26612614565b6002811115611b3757611b37612614565b8152602001908152602001600020600601819055507f7e9f14af6752ec6d3a32eb60acdc8e5897e088bad8c77b6faec09e0546ddd7df8585858585604051611b839594939291906124e4565b60405180910390a15050505050565b6040516001600160a01b0380851660248301528316604482015260648101829052611bca9085906323b872dd60e01b906084016116e2565b50505050565b60006112a68383611d38565b600081815260018301602052604081205415156112a6565b60006112a68284612581565b60006112a6828461255f565b6000814310611c2657611c1f828461129a565b9050610515565b611c1f438461129a565b6000611c85826040518060400160405280602081526020017f5361666545524332303a206c6f772d6c6576656c2063616c6c206661696c6564815250856001600160a01b0316611e2b9092919063ffffffff16565b8051909150156107aa5780806020019051810190611ca3919061228b565b6107aa5760405162461bcd60e51b815260206004820152602a60248201527f5361666545524332303a204552433230206f7065726174696f6e20646964206e6044820152691bdd081cdd58d8d9595960b21b6064820152608401610804565b60006112a68383611e3a565b6000826000018281548110611d2557611d25612640565b9060005260206000200154905092915050565b60008181526001830160205260408120548015611e21576000611d5c6001836125a0565b8554909150600090611d70906001906125a0565b9050818114611dd5576000866000018281548110611d9057611d90612640565b9060005260206000200154905080876000018481548110611db357611db3612640565b6000918252602080832090910192909255918252600188019052604090208390555b8554869080611de657611de661262a565b600190038181906000526020600020016000905590558560010160008681526020019081526020016000206000905560019350505050610515565b6000915050610515565b60606105978484600085611e89565b6000818152600183016020526040812054611e8157508154600181810184556000848152602080822090930184905584548482528286019093526040902091909155610515565b506000610515565b606082471015611eea5760405162461bcd60e51b815260206004820152602660248201527f416464726573733a20696e73756666696369656e742062616c616e636520666f6044820152651c8818d85b1b60d21b6064820152608401610804565b600080866001600160a01b03168587604051611f069190612423565b60006040518083038185875af1925050503d8060008114611f43576040519150601f19603f3d011682016040523d82523d6000602084013e611f48565b606091505b5091509150611f5987838387611f64565b979650505050505050565b60608315611fd0578251611fc9576001600160a01b0385163b611fc95760405162461bcd60e51b815260206004820152601d60248201527f416464726573733a2063616c6c20746f206e6f6e2d636f6e74726163740000006044820152606401610804565b5081610597565b6105978383815115611fe55781518083602001fd5b8060405162461bcd60e51b81526004016108049190612514565b80356001600160a01b038116811461201657600080fd5b919050565b60008083601f84011261202d57600080fd5b50813567ffffffffffffffff81111561204557600080fd5b6020830191508360208260051b850101111561206057600080fd5b9250929050565b80356003811061201657600080fd5b60006020828403121561208857600080fd5b6112a682611fff565b600080604083850312156120a457600080fd5b6120ad83611fff565b91506120bb60208401612067565b90509250929050565b6000806000606084860312156120d957600080fd5b6120e284611fff565b92506120f060208501612067565b9150604084013590509250925092565b6000806000806000806060878903121561211957600080fd5b863567ffffffffffffffff8082111561213157600080fd5b61213d8a838b0161201b565b9098509650602089013591508082111561215657600080fd5b6121628a838b0161201b565b9096509450604089013591508082111561217b57600080fd5b5061218889828a0161201b565b979a9699509497509295939492505050565b60008060008060008060008060008060a08b8d0312156121b957600080fd5b8a3567ffffffffffffffff808211156121d157600080fd5b6121dd8e838f0161201b565b909c509a5060208d01359150808211156121f657600080fd5b6122028e838f0161201b565b909a50985060408d013591508082111561221b57600080fd5b6122278e838f0161201b565b909850965060608d013591508082111561224057600080fd5b61224c8e838f0161201b565b909650945060808d013591508082111561226557600080fd5b506122728d828e0161201b565b915080935050809150509295989b9194979a5092959850565b60006020828403121561229d57600080fd5b815180151581146112a657600080fd5b6000602082840312156122bf57600080fd5b6112a682612067565b600080604083850312156122db57600080fd5b6122e483612067565b946020939093013593505050565b600080600080600060a0868803121561230a57600080fd5b61231386612067565b97602087013597506040870135966060810135965060800135945092505050565b600060e0828403121561234657600080fd5b60405160e0810181811067ffffffffffffffff8211171561237757634e487b7160e01b600052604160045260246000fd5b8060405250823581526020830135602082015260408301356040820152606083013560608201526080830135608082015260a083013560a082015260c083013560c08201528091505092915050565b6000602082840312156123d857600080fd5b5035919050565b600080604083850312156123f257600080fd5b50508035926020909101359150565b6003811061241f57634e487b7160e01b600052602160045260246000fd5b9052565b600082516124358184602087016125b7565b9190910192915050565b6001600160a01b03851681526080810161245c6020830186612401565b60408201939093526060015292915050565b602080825282518282018190526000919060409081850190868401855b828110156124d757815180516001600160a01b03168552868101516124b288870182612401565b508086015185870152606090810151908501526080909301929085019060010161248b565b5091979650505050505050565b60a081016124f28288612401565b8560208301528460408301528360608301528260808301529695505050505050565b60208152600082518060208401526125338160408501602087016125b7565b601f01601f19169190910160400192915050565b6000821982111561255a5761255a6125fe565b500190565b60008261257c57634e487b7160e01b600052601260045260246000fd5b500490565b600081600019048311821515161561259b5761259b6125fe565b500290565b6000828210156125b2576125b26125fe565b500390565b60005b838110156125d25781810151838201526020016125ba565b83811115611bca5750506000910152565b60006000198214156125f7576125f76125fe565b5060010190565b634e487b7160e01b600052601160045260246000fd5b634e487b7160e01b600052602160045260246000fd5b634e487b7160e01b600052603160045260246000fd5b634e487b7160e01b600052603260045260246000fd5b634e487b7160e01b600052604160045260246000fdfea2646970667358221220b708d66e7ba653480a34bc990830fa0404dff36ec6b945e1df755e1f491148b264736f6c63430008070033",
    "linkReferences": {}
  },
  "methodIdentifiers": {
    "BLOCKS_PER_MONTH()": "c409084a",
    "BLOCKS_TEST()": "625be80e",
    "MAX_LENGTH()": "a6f9885c",
    "PERCENTAGE_100()": "cbf5a55e",
    "PERIOD_DURATION()": "6558954f",
    "PRECISION()": "aaf5eb68",
    "addVesting(address,uint8,uint256)": "7ba17f4e",
    "addVestingBatch(address[],uint8[],uint256[])": "87b3306f",
    "balanceOf(address)": "70a08231",
    "balanceOfSale(address,uint8)": "3a560bad",
    "blockTGE()": "5f43793c",
    "cancelVesting(address,uint8)": "f1af3c3f",
    "claim()": "4e71d92d",
    "countOwnedVestings(address)": "57b89adb",
    "emptyStage(uint8)": "774b8c38",
    "getCurrentSupply((uint256,uint256,uint256,uint256,uint256,uint256,uint256))": "83ded106",
    "getListVestings(uint256,uint256)": "81a63b18",
    "getStageInfo(uint8)": "9d104770",
    "getUnlocatedSupply((uint256,uint256,uint256,uint256,uint256,uint256,uint256))": "19af64ba",
    "getVestingIndex(address,uint8)": "48bb6511",
    "owner()": "8da5cb5b",
    "refillStage(uint8,uint256)": "9a21e6d2",
    "renounceOwnership()": "715018a6",
    "setBlockTGE(uint256)": "a3cf7c2f",
    "setStage(uint8,uint256,uint256,uint256,uint256)": "8499f883",
    "setStageBatch(uint8[],uint256[],uint256[],uint256[],uint256[])": "bed47f15",
    "stageInfo(uint8)": "63c0d0d4",
    "token()": "fc0c546a",
    "transferOwnership(address)": "f2fde38b",
    "vestingInfo(uint256)": "66ffcf5f"
  },
  "id": 3
}