{
  "_format": "hh-sol-artifact-1",
  "contractName": "VestingMock",
  "sourceName": "contracts/mocks/VestingMock.sol",
  "abi": [
    {
      "inputs": [
        {
          "internalType": "address",
          "name": "tokenAddress",
          "type": "address"
        }
      ],
      "stateMutability": "nonpayable",
      "type": "constructor"
    },
    {
      "anonymous": false,
      "inputs": [
        {
          "indexed": true,
          "internalType": "address",
          "name": "previousOwner",
          "type": "address"
        },
        {
          "indexed": true,
          "internalType": "address",
          "name": "newOwner",
          "type": "address"
        }
      ],
      "name": "OwnershipTransferred",
      "type": "event"
    },
    {
      "anonymous": false,
      "inputs": [
        {
          "indexed": true,
          "internalType": "enum IVesting.Sale",
          "name": "sale",
          "type": "uint8"
        },
        {
          "indexed": false,
          "internalType": "uint256",
          "name": "amountEmptied",
          "type": "uint256"
        }
      ],
      "name": "StageEmptied",
      "type": "event"
    },
    {
      "anonymous": false,
      "inputs": [
        {
          "indexed": true,
          "internalType": "enum IVesting.Sale",
          "name": "sale",
          "type": "uint8"
        },
        {
          "indexed": false,
          "internalType": "uint256",
          "name": "amountRefilled",
          "type": "uint256"
        }
      ],
      "name": "StageRefilled",
      "type": "event"
    },
    {
      "anonymous": false,
      "inputs": [
        {
          "indexed": false,
          "internalType": "enum IVesting.Sale",
          "name": "sale",
          "type": "uint8"
        },
        {
          "indexed": false,
          "internalType": "uint256",
          "name": "maxSupply",
          "type": "uint256"
        },
        {
          "indexed": false,
          "internalType": "uint256",
          "name": "releaseTGE",
          "type": "uint256"
        },
        {
          "indexed": false,
          "internalType": "uint256",
          "name": "cliff",
          "type": "uint256"
        },
        {
          "indexed": false,
          "internalType": "uint256",
          "name": "period",
          "type": "uint256"
        }
      ],
      "name": "StageSet",
      "type": "event"
    },
    {
      "anonymous": false,
      "inputs": [
        {
          "indexed": true,
          "internalType": "uint256",
          "name": "vestingIndex",
          "type": "uint256"
        },
        {
          "indexed": true,
          "internalType": "address",
          "name": "wallet",
          "type": "address"
        },
        {
          "indexed": false,
          "internalType": "uint256",
          "name": "amountVested",
          "type": "uint256"
        }
      ],
      "name": "VestingAdded",
      "type": "event"
    },
    {
      "anonymous": false,
      "inputs": [
        {
          "indexed": true,
          "internalType": "uint256",
          "name": "vestingIndex",
          "type": "uint256"
        },
        {
          "indexed": true,
          "internalType": "address",
          "name": "wallet",
          "type": "address"
        },
        {
          "indexed": false,
          "internalType": "uint256",
          "name": "amountUnvested",
          "type": "uint256"
        }
      ],
      "name": "VestingCanceled",
      "type": "event"
    },
    {
      "anonymous": false,
      "inputs": [
        {
          "indexed": true,
          "internalType": "uint256",
          "name": "vestingIndex",
          "type": "uint256"
        },
        {
          "indexed": true,
          "internalType": "address",
          "name": "wallet",
          "type": "address"
        },
        {
          "indexed": false,
          "internalType": "uint256",
          "name": "amountClaimed",
          "type": "uint256"
        }
      ],
      "name": "VestingClaimed",
      "type": "event"
    },
    {
      "inputs": [],
      "name": "BLOCKS_PER_MONTH",
      "outputs": [
        {
          "internalType": "uint256",
          "name": "",
          "type": "uint256"
        }
      ],
      "stateMutability": "view",
      "type": "function"
    },
    {
      "inputs": [],
      "name": "BLOCKS_TEST",
      "outputs": [
        {
          "internalType": "uint256",
          "name": "",
          "type": "uint256"
        }
      ],
      "stateMutability": "view",
      "type": "function"
    },
    {
      "inputs": [],
      "name": "MAX_LENGTH",
      "outputs": [
        {
          "internalType": "uint256",
          "name": "",
          "type": "uint256"
        }
      ],
      "stateMutability": "view",
      "type": "function"
    },
    {
      "inputs": [],
      "name": "PERCENTAGE_100",
      "outputs": [
        {
          "internalType": "uint256",
          "name": "",
          "type": "uint256"
        }
      ],
      "stateMutability": "view",
      "type": "function"
    },
    {
      "inputs": [],
      "name": "PERIOD_DURATION",
      "outputs": [
        {
          "internalType": "uint256",
          "name": "",
          "type": "uint256"
        }
      ],
      "stateMutability": "view",
      "type": "function"
    },
    {
      "inputs": [],
      "name": "PRECISION",
      "outputs": [
        {
          "internalType": "uint256",
          "name": "",
          "type": "uint256"
        }
      ],
      "stateMutability": "view",
      "type": "function"
    },
    {
      "inputs": [
        {
          "internalType": "address",
          "name": "wallet",
          "type": "address"
        },
        {
          "internalType": "enum IVesting.Sale",
          "name": "sale",
          "type": "uint8"
        },
        {
          "internalType": "uint256",
          "name": "amount",
          "type": "uint256"
        }
      ],
      "name": "addVesting",
      "outputs": [],
      "stateMutability": "nonpayable",
      "type": "function"
    },
    {
      "inputs": [
        {
          "internalType": "address[]",
          "name": "wallets",
          "type": "address[]"
        },
        {
          "internalType": "enum IVesting.Sale[]",
          "name": "sales",
          "type": "uint8[]"
        },
        {
          "internalType": "uint256[]",
          "name": "amounts",
          "type": "uint256[]"
        }
      ],
      "name": "addVestingBatch",
      "outputs": [],
      "stateMutability": "nonpayable",
      "type": "function"
    },
    {
      "inputs": [
        {
          "internalType": "address",
          "name": "wallet",
          "type": "address"
        }
      ],
      "name": "balanceOf",
      "outputs": [
        {
          "internalType": "uint256",
          "name": "",
          "type": "uint256"
        }
      ],
      "stateMutability": "view",
      "type": "function"
    },
    {
      "inputs": [
        {
          "internalType": "address",
          "name": "wallet",
          "type": "address"
        },
        {
          "internalType": "enum IVesting.Sale",
          "name": "sale",
          "type": "uint8"
        }
      ],
      "name": "balanceOfSale",
      "outputs": [
        {
          "internalType": "uint256",
          "name": "",
          "type": "uint256"
        }
      ],
      "stateMutability": "view",
      "type": "function"
    },
    {
      "inputs": [],
      "name": "blockTGE",
      "outputs": [
        {
          "internalType": "uint256",
          "name": "",
          "type": "uint256"
        }
      ],
      "stateMutability": "view",
      "type": "function"
    },
    {
      "inputs": [
        {
          "internalType": "address",
          "name": "wallet",
          "type": "address"
        },
        {
          "internalType": "enum IVesting.Sale",
          "name": "sale",
          "type": "uint8"
        }
      ],
      "name": "cancelVesting",
      "outputs": [],
      "stateMutability": "nonpayable",
      "type": "function"
    },
    {
      "inputs": [],
      "name": "claim",
      "outputs": [],
      "stateMutability": "nonpayable",
      "type": "function"
    },
    {
      "inputs": [
        {
          "internalType": "address",
          "name": "wallet",
          "type": "address"
        }
      ],
      "name": "countOwnedVestings",
      "outputs": [
        {
          "internalType": "uint256",
          "name": "",
          "type": "uint256"
        }
      ],
      "stateMutability": "view",
      "type": "function"
    },
    {
      "inputs": [
        {
          "internalType": "enum IVesting.Sale",
          "name": "sale",
          "type": "uint8"
        }
      ],
      "name": "emptyStage",
      "outputs": [],
      "stateMutability": "nonpayable",
      "type": "function"
    },
    {
      "inputs": [
        {
          "components": [
            {
              "internalType": "uint256",
              "name": "maxSupply",
              "type": "uint256"
            },
            {
              "internalType": "uint256",
              "name": "lockedSupply",
              "type": "uint256"
            },
            {
              "internalType": "uint256",
              "name": "vestedSupply",
              "type": "uint256"
            },
            {
              "internalType": "uint256",
              "name": "claimedSupply",
              "type": "uint256"
            },
            {
              "internalType": "uint256",
              "name": "releaseTGE",
              "type": "uint256"
            },
            {
              "internalType": "uint256",
              "name": "cliff",
              "type": "uint256"
            },
            {
              "internalType": "uint256",
              "name": "period",
              "type": "uint256"
            }
          ],
          "internalType": "struct IVesting.StageInfo",
          "name": "stage",
          "type": "tuple"
        }
      ],
      "name": "getCurrentSupply",
      "outputs": [
        {
          "internalType": "uint256",
          "name": "",
          "type": "uint256"
        }
      ],
      "stateMutability": "pure",
      "type": "function"
    },
    {
      "inputs": [
        {
          "internalType": "uint256",
          "name": "offset",
          "type": "uint256"
        },
        {
          "internalType": "uint256",
          "name": "limit",
          "type": "uint256"
        }
      ],
      "name": "getListVestings",
      "outputs": [
        {
          "components": [
            {
              "internalType": "address",
              "name": "wallet",
              "type": "address"
            },
            {
              "internalType": "enum IVesting.Sale",
              "name": "sale",
              "type": "uint8"
            },
            {
              "internalType": "uint256",
              "name": "amount",
              "type": "uint256"
            },
            {
              "internalType": "uint256",
              "name": "paid",
              "type": "uint256"
            }
          ],
          "internalType": "struct IVesting.VestingInfo[]",
          "name": "vestingInfos",
          "type": "tuple[]"
        }
      ],
      "stateMutability": "view",
      "type": "function"
    },
    {
      "inputs": [
        {
          "internalType": "enum IVesting.Sale",
          "name": "sale",
          "type": "uint8"
        }
      ],
      "name": "getStageInfo",
      "outputs": [
        {
          "components": [
            {
              "internalType": "uint256",
              "name": "maxSupply",
              "type": "uint256"
            },
            {
              "internalType": "uint256",
              "name": "lockedSupply",
              "type": "uint256"
            },
            {
              "internalType": "uint256",
              "name": "currentSupply",
              "type": "uint256"
            },
            {
              "internalType": "uint256",
              "name": "vestedSupply",
              "type": "uint256"
            },
            {
              "internalType": "uint256",
              "name": "claimedSupply",
              "type": "uint256"
            },
            {
              "internalType": "uint256",
              "name": "unalocatedSupply",
              "type": "uint256"
            }
          ],
          "internalType": "struct IVesting.StagePublicInfo",
          "name": "stagePublicInfo",
          "type": "tuple"
        }
      ],
      "stateMutability": "view",
      "type": "function"
    },
    {
      "inputs": [
        {
          "components": [
            {
              "internalType": "uint256",
              "name": "maxSupply",
              "type": "uint256"
            },
            {
              "internalType": "uint256",
              "name": "lockedSupply",
              "type": "uint256"
            },
            {
              "internalType": "uint256",
              "name": "vestedSupply",
              "type": "uint256"
            },
            {
              "internalType": "uint256",
              "name": "claimedSupply",
              "type": "uint256"
            },
            {
              "internalType": "uint256",
              "name": "releaseTGE",
              "type": "uint256"
            },
            {
              "internalType": "uint256",
              "name": "cliff",
              "type": "uint256"
            },
            {
              "internalType": "uint256",
              "name": "period",
              "type": "uint256"
            }
          ],
          "internalType": "struct IVesting.StageInfo",
          "name": "stage",
          "type": "tuple"
        }
      ],
      "name": "getUnlocatedSupply",
      "outputs": [
        {
          "internalType": "uint256",
          "name": "",
          "type": "uint256"
        }
      ],
      "stateMutability": "pure",
      "type": "function"
    },
    {
      "inputs": [
        {
          "internalType": "address",
          "name": "wallet",
          "type": "address"
        },
        {
          "internalType": "enum IVesting.Sale",
          "name": "sale",
          "type": "uint8"
        }
      ],
      "name": "getVestingIndex",
      "outputs": [
        {
          "internalType": "uint256",
          "name": "",
          "type": "uint256"
        }
      ],
      "stateMutability": "view",
      "type": "function"
    },
    {
      "inputs": [],
      "name": "owner",
      "outputs": [
        {
          "internalType": "address",
          "name": "",
          "type": "address"
        }
      ],
      "stateMutability": "view",
      "type": "function"
    },
    {
      "inputs": [
        {
          "internalType": "enum IVesting.Sale",
          "name": "sale",
          "type": "uint8"
        },
        {
          "internalType": "uint256",
          "name": "amountToRefill",
          "type": "uint256"
        }
      ],
      "name": "refillStage",
      "outputs": [],
      "stateMutability": "nonpayable",
      "type": "function"
    },
    {
      "inputs": [],
      "name": "renounceOwnership",
      "outputs": [],
      "stateMutability": "nonpayable",
      "type": "function"
    },
    {
      "inputs": [
        {
          "internalType": "uint256",
          "name": "_blockTGE",
          "type": "uint256"
        }
      ],
      "name": "setBlockTGE",
      "outputs": [],
      "stateMutability": "nonpayable",
      "type": "function"
    },
    {
      "inputs": [
        {
          "internalType": "enum IVesting.Sale",
          "name": "sale",
          "type": "uint8"
        },
        {
          "internalType": "uint256",
          "name": "maxSupply",
          "type": "uint256"
        },
        {
          "internalType": "uint256",
          "name": "releaseTGE",
          "type": "uint256"
        },
        {
          "internalType": "uint256",
          "name": "cliff",
          "type": "uint256"
        },
        {
          "internalType": "uint256",
          "name": "period",
          "type": "uint256"
        }
      ],
      "name": "setStage",
      "outputs": [],
      "stateMutability": "nonpayable",
      "type": "function"
    },
    {
      "inputs": [
        {
          "internalType": "enum IVesting.Sale[]",
          "name": "sales",
          "type": "uint8[]"
        },
        {
          "internalType": "uint256[]",
          "name": "maxSupplies",
          "type": "uint256[]"
        },
        {
          "internalType": "uint256[]",
          "name": "releasesTGE",
          "type": "uint256[]"
        },
        {
          "internalType": "uint256[]",
          "name": "cliffs",
          "type": "uint256[]"
        },
        {
          "internalType": "uint256[]",
          "name": "periods",
          "type": "uint256[]"
        }
      ],
      "name": "setStageBatch",
      "outputs": [],
      "stateMutability": "nonpayable",
      "type": "function"
    },
    {
      "inputs": [
        {
          "internalType": "enum IVesting.Sale",
          "name": "",
          "type": "uint8"
        }
      ],
      "name": "stageInfo",
      "outputs": [
        {
          "internalType": "uint256",
          "name": "maxSupply",
          "type": "uint256"
        },
        {
          "internalType": "uint256",
          "name": "lockedSupply",
          "type": "uint256"
        },
        {
          "internalType": "uint256",
          "name": "vestedSupply",
          "type": "uint256"
        },
        {
          "internalType": "uint256",
          "name": "claimedSupply",
          "type": "uint256"
        },
        {
          "internalType": "uint256",
          "name": "releaseTGE",
          "type": "uint256"
        },
        {
          "internalType": "uint256",
          "name": "cliff",
          "type": "uint256"
        },
        {
          "internalType": "uint256",
          "name": "period",
          "type": "uint256"
        }
      ],
      "stateMutability": "view",
      "type": "function"
    },
    {
      "inputs": [],
      "name": "token",
      "outputs": [
        {
          "internalType": "contract IERC20",
          "name": "",
          "type": "address"
        }
      ],
      "stateMutability": "view",
      "type": "function"
    },
    {
      "inputs": [
        {
          "internalType": "address",
          "name": "newOwner",
          "type": "address"
        }
      ],
      "name": "transferOwnership",
      "outputs": [],
      "stateMutability": "nonpayable",
      "type": "function"
    },
    {
      "inputs": [
        {
          "internalType": "uint256",
          "name": "",
          "type": "uint256"
        }
      ],
      "name": "vestingInfo",
      "outputs": [
        {
          "internalType": "address",
          "name": "wallet",
          "type": "address"
        },
        {
          "internalType": "enum IVesting.Sale",
          "name": "sale",
          "type": "uint8"
        },
        {
          "internalType": "uint256",
          "name": "amount",
          "type": "uint256"
        },
        {
          "internalType": "uint256",
          "name": "paid",
          "type": "uint256"
        }
      ],
      "stateMutability": "view",
      "type": "function"
    }
  ],
  "bytecode": "0x60806040523480156200001157600080fd5b50604051620042a5380380620042a58339818101604052810190620000379190620001df565b80620000586200004c620000a960201b60201c565b620000b160201b60201c565b600160048190555080600160006101000a81548173ffffffffffffffffffffffffffffffffffffffff021916908373ffffffffffffffffffffffffffffffffffffffff160217905550505062000211565b600033905090565b60008060009054906101000a900473ffffffffffffffffffffffffffffffffffffffff169050816000806101000a81548173ffffffffffffffffffffffffffffffffffffffff021916908373ffffffffffffffffffffffffffffffffffffffff1602179055508173ffffffffffffffffffffffffffffffffffffffff168173ffffffffffffffffffffffffffffffffffffffff167f8be0079c531659141344cd1fd0a4f28419497f9722a3daafe3b4186f6b6457e060405160405180910390a35050565b600080fd5b600073ffffffffffffffffffffffffffffffffffffffff82169050919050565b6000620001a7826200017a565b9050919050565b620001b9816200019a565b8114620001c557600080fd5b50565b600081519050620001d981620001ae565b92915050565b600060208284031215620001f857620001f762000175565b5b60006200020884828501620001c8565b91505092915050565b61408480620002216000396000f3fe608060405234801561001057600080fd5b50600436106101da5760003560e01c806383ded10611610104578063a6f9885c116100a2578063cbf5a55e11610071578063cbf5a55e14610572578063f1af3c3f14610590578063f2fde38b146105ac578063fc0c546a146105c8576101da565b8063a6f9885c146104fc578063aaf5eb681461051a578063bed47f1514610538578063c409084a14610554576101da565b80638da5cb5b116100de5780638da5cb5b146104765780639a21e6d2146104945780639d104770146104b0578063a3cf7c2f146104e0576101da565b806383ded1061461040e5780638499f8831461043e57806387b3306f1461045a576101da565b806363c0d0d41161017c578063715018a61161014b578063715018a61461039c578063774b8c38146103a65780637ba17f4e146103c257806381a63b18146103de576101da565b806363c0d0d4146102e55780636558954f1461031b57806366ffcf5f1461033957806370a082311461036c576101da565b80634e71d92d116101b85780634e71d92d1461026f57806357b89adb146102795780635f43793c146102a9578063625be80e146102c7576101da565b806319af64ba146101df5780633a560bad1461020f57806348bb65111461023f575b600080fd5b6101f960048036038101906101f49190612b99565b6105e6565b6040516102069190612bd5565b60405180910390f35b61022960048036038101906102249190612c73565b61060a565b6040516102369190612bd5565b60405180910390f35b61025960048036038101906102549190612c73565b6106bd565b6040516102669190612bd5565b60405180910390f35b61027761073c565b005b610293600480360381019061028e9190612cb3565b6107f9565b6040516102a09190612bd5565b60405180910390f35b6102b1610849565b6040516102be9190612bd5565b60405180910390f35b6102cf61084f565b6040516102dc9190612bd5565b60405180910390f35b6102ff60048036038101906102fa9190612ce0565b610854565b6040516103129796959493929190612d0d565b60405180910390f35b610323610896565b6040516103309190612bd5565b60405180910390f35b610353600480360381019061034e9190612d7c565b61089d565b6040516103639493929190612e2f565b60405180910390f35b61038660048036038101906103819190612cb3565b6108fa565b6040516103939190612bd5565b60405180910390f35b6103a4610946565b005b6103c060048036038101906103bb9190612ce0565b61095a565b005b6103dc60048036038101906103d79190612e74565b610ac7565b005b6103f860048036038101906103f39190612ec7565b610b23565b6040516104059190613038565b60405180910390f35b61042860048036038101906104239190612b99565b610d9a565b6040516104359190612bd5565b60405180910390f35b6104586004803603810190610453919061305a565b610dbe565b005b610474600480360381019061046f91906131e6565b610dda565b005b61047e610f62565b60405161048b919061329a565b60405180910390f35b6104ae60048036038101906104a991906132b5565b610f8b565b005b6104ca60048036038101906104c59190612ce0565b61118b565b6040516104d79190613370565b60405180910390f35b6104fa60048036038101906104f59190612d7c565b611281565b005b610504611324565b6040516105119190612bd5565b60405180910390f35b610522611329565b60405161052f9190612bd5565b60405180910390f35b610552600480360381019061054d919061338b565b611338565b005b61055c611481565b6040516105699190612bd5565b60405180910390f35b61057a611488565b6040516105879190612bd5565b60405180910390f35b6105aa60048036038101906105a59190612c73565b6114a3565b005b6105c660048036038101906105c19190612cb3565b611730565b005b6105d06117b4565b6040516105dd9190613507565b60405180910390f35b6000610603826040015183602001516117da90919063ffffffff16565b9050919050565b600061061683836117f0565b1580610623575060025443105b1561063157600090506106b7565b6000600760008573ffffffffffffffffffffffffffffffffffffffff1673ffffffffffffffffffffffffffffffffffffffff168152602001908152602001600020600084600281111561068757610686612db8565b5b600281111561069957610698612db8565b5b81526020019081526020016000205490506106b3816118c4565b9150505b92915050565b6000600760008473ffffffffffffffffffffffffffffffffffffffff1673ffffffffffffffffffffffffffffffffffffffff168152602001908152602001600020600083600281111561071357610712612db8565b5b600281111561072557610724612db8565b5b815260200190815260200160002054905092915050565b600061079661075361074c611b6a565b6002611b72565b610788610768610761611b6a565b6001611b72565b61077a610773611b6a565b6000611b72565b611d5290919063ffffffff16565b611d5290919063ffffffff16565b905060008111156107f6576107f56107ac611b6a565b82600160009054906101000a900473ffffffffffffffffffffffffffffffffffffffff1673ffffffffffffffffffffffffffffffffffffffff16611d689092919063ffffffff16565b5b50565b6000610842600660008473ffffffffffffffffffffffffffffffffffffffff1673ffffffffffffffffffffffffffffffffffffffff168152602001908152602001600020611dee565b9050919050565b60025481565b600a81565b60036020528060005260406000206000915090508060000154908060010154908060020154908060030154908060040154908060050154908060060154905087565b62278d0081565b60056020528060005260406000206000915090508060000160009054906101000a900473ffffffffffffffffffffffffffffffffffffffff16908060000160149054906101000a900460ff16908060010154908060020154905084565b600061093f61090a83600261060a565b61093161091885600161060a565b61092386600061060a565b611d5290919063ffffffff16565b611d5290919063ffffffff16565b9050919050565b61094e611e03565b6109586000611e81565b565b610962611e03565b60006003600083600281111561097b5761097a612db8565b5b600281111561098d5761098c612db8565b5b8152602001908152602001600020905060006109f9826040518060e00160405290816000820154815260200160018201548152602001600282015481526020016003820154815260200160048201548152602001600582015481526020016006820154815250506105e6565b90506000811115610ac257610a1b8183600101546117da90919063ffffffff16565b8260010181905550610a77610a2e611b6a565b82600160009054906101000a900473ffffffffffffffffffffffffffffffffffffffff1673ffffffffffffffffffffffffffffffffffffffff16611d689092919063ffffffff16565b826002811115610a8a57610a89612db8565b5b7fb819d129d0582a3f999e8fe877ffe22795ad2228c7e577d09c19d4a3c5c7cf2882604051610ab99190612bd5565b60405180910390a25b505050565b610acf611e03565b4360025411610b13576040517f08c379a0000000000000000000000000000000000000000000000000000000008152600401610b0a9061357f565b60405180910390fd5b610b1e838383611f45565b505050565b60606000610b7560066000610b36611b6a565b73ffffffffffffffffffffffffffffffffffffffff1673ffffffffffffffffffffffffffffffffffffffff168152602001908152602001600020611dee565b90506000610bb085610ba284610b94888a611d5290919063ffffffff16565b61223c90919063ffffffff16565b61225590919063ffffffff16565b9050610bc585826117da90919063ffffffff16565b67ffffffffffffffff811115610bde57610bdd612a34565b5b604051908082528060200260200182016040528015610c1757816020015b610c04612984565b815260200190600190039081610bfc5790505b50925060008590505b81811015610d91576000610c828260066000610c3a611b6a565b73ffffffffffffffffffffffffffffffffffffffff1673ffffffffffffffffffffffffffffffffffffffff16815260200190815260200160002061226e90919063ffffffff16565b90506000610c9988846117da90919063ffffffff16565b9050600560008381526020019081526020016000206040518060800160405290816000820160009054906101000a900473ffffffffffffffffffffffffffffffffffffffff1673ffffffffffffffffffffffffffffffffffffffff1673ffffffffffffffffffffffffffffffffffffffff1681526020016000820160149054906101000a900460ff166002811115610d3457610d33612db8565b5b6002811115610d4657610d45612db8565b5b815260200160018201548152602001600282015481525050868281518110610d7157610d7061359f565b5b602002602001018190525050508080610d89906135fd565b915050610c20565b50505092915050565b6000610db7826060015183602001516117da90919063ffffffff16565b9050919050565b610dc6611e03565b610dd38585858585612288565b5050505050565b610de2611e03565b4360025411610e26576040517f08c379a0000000000000000000000000000000000000000000000000000000008152600401610e1d9061357f565b60405180910390fd5b601e868690501115610e6d576040517f08c379a0000000000000000000000000000000000000000000000000000000008152600401610e6490613692565b60405180910390fd5b8383905086869050148015610e8757508181905084849050145b610ec6576040517f08c379a0000000000000000000000000000000000000000000000000000000008152600401610ebd906136fe565b60405180910390fd5b60005b86869050811015610f5957610f46878783818110610eea57610ee961359f565b5b9050602002016020810190610eff9190612cb3565b868684818110610f1257610f1161359f565b5b9050602002016020810190610f279190612ce0565b858585818110610f3a57610f3961359f565b5b90506020020135611f45565b8080610f51906135fd565b915050610ec9565b50505050505050565b60008060009054906101000a900473ffffffffffffffffffffffffffffffffffffffff16905090565b610f93611e03565b60036000836002811115610faa57610fa9612db8565b5b6002811115610fbc57610fbb612db8565b5b81526020019081526020016000206000015461101b8260036000866002811115610fe957610fe8612db8565b5b6002811115610ffb57610ffa612db8565b5b815260200190815260200160002060010154611d5290919063ffffffff16565b111561105c576040517f08c379a000000000000000000000000000000000000000000000000000000000815260040161105390613790565b60405180910390fd5b6110a9816003600085600281111561107757611076612db8565b5b600281111561108957611088612db8565b5b815260200190815260200160002060010154611d5290919063ffffffff16565b600360008460028111156110c0576110bf612db8565b5b60028111156110d2576110d1612db8565b5b81526020019081526020016000206001018190555061113d6110f2611b6a565b3083600160009054906101000a900473ffffffffffffffffffffffffffffffffffffffff1673ffffffffffffffffffffffffffffffffffffffff166123ca909392919063ffffffff16565b8160028111156111505761114f612db8565b5b7f1ed1842de53a6797bcd103b15ef4c2cfe977cd44a413ae3ef35bff8c6d252f618260405161117f9190612bd5565b60405180910390a25050565b6111936129d4565b6000600360008460028111156111ac576111ab612db8565b5b60028111156111be576111bd612db8565b5b81526020019081526020016000206040518060e001604052908160008201548152602001600182015481526020016002820154815260200160038201548152602001600482015481526020016005820154815260200160068201548152505090508060000151826000018181525050806020015182602001818152505061124481610d9a565b82604001818152505080604001518260600181815250508060600151826080018181525050611272816105e6565b8260a001818152505050919050565b611289611e03565b6000600254146112d85760025481106112d7576040517f08c379a00000000000000000000000000000000000000000000000000000000081526004016112ce906137fc565b60405180910390fd5b5b43811161131a576040517f08c379a00000000000000000000000000000000000000000000000000000000081526004016113119061388e565b60405180910390fd5b8060028190555050565b601e81565b6a084595161401484a00000081565b611340611e03565b878790508a8a905014801561135a57508585905088889050145b801561136b57508383905086869050145b801561137c57508181905084849050145b6113bb576040517f08c379a00000000000000000000000000000000000000000000000000000000081526004016113b2906136fe565b60405180910390fd5b60005b8a8a9050811015611474576114618b8b838181106113df576113de61359f565b5b90506020020160208101906113f49190612ce0565b8a8a848181106114075761140661359f565b5b905060200201358989858181106114215761142061359f565b5b9050602002013588888681811061143b5761143a61359f565b5b905060200201358787878181106114555761145461359f565b5b90506020020135612288565b808061146c906135fd565b9150506113be565b5050505050505050505050565b62034bc081565b6a084595161401484a00000060646114a091906138ae565b81565b6114ab611e03565b81816114b782826117f0565b6114f6576040517f08c379a00000000000000000000000000000000000000000000000000000000081526004016114ed9061397a565b60405180910390fd5b6000600760008673ffffffffffffffffffffffffffffffffffffffff1673ffffffffffffffffffffffffffffffffffffffff168152602001908152602001600020600085600281111561154c5761154b612db8565b5b600281111561155e5761155d612db8565b5b815260200190815260200160002054905060006003600086600281111561158857611587612db8565b5b600281111561159a57611599612db8565b5b815260200190815260200160002090506000600560008481526020019081526020016000206001015490506116046115f16005600086815260200190815260200160002060020154836117da90919063ffffffff16565b83600201546117da90919063ffffffff16565b826002018190555061165d83600660008a73ffffffffffffffffffffffffffffffffffffffff1673ffffffffffffffffffffffffffffffffffffffff16815260200190815260200160002061245390919063ffffffff16565b506000600760008973ffffffffffffffffffffffffffffffffffffffff1673ffffffffffffffffffffffffffffffffffffffff16815260200190815260200160002060008860028111156116b4576116b3612db8565b5b60028111156116c6576116c5612db8565b5b8152602001908152602001600020819055508673ffffffffffffffffffffffffffffffffffffffff16837f42ccba9814df52d01c2fd804f92a6ededbf830ad1bc8df0e2151be9c2631df238360405161171f9190612bd5565b60405180910390a350505050505050565b611738611e03565b600073ffffffffffffffffffffffffffffffffffffffff168173ffffffffffffffffffffffffffffffffffffffff1614156117a8576040517f08c379a000000000000000000000000000000000000000000000000000000000815260040161179f90613a0c565b60405180910390fd5b6117b181611e81565b50565b600160009054906101000a900473ffffffffffffffffffffffffffffffffffffffff1681565b600081836117e89190613a2c565b905092915050565b600080600760008573ffffffffffffffffffffffffffffffffffffffff1673ffffffffffffffffffffffffffffffffffffffff168152602001908152602001600020600084600281111561184757611846612db8565b5b600281111561185957611858612db8565b5b81526020019081526020016000205490506118bb81600660008773ffffffffffffffffffffffffffffffffffffffff1673ffffffffffffffffffffffffffffffffffffffff16815260200190815260200160002061246d90919063ffffffff16565b91505092915050565b600080600560008481526020019081526020016000206040518060800160405290816000820160009054906101000a900473ffffffffffffffffffffffffffffffffffffffff1673ffffffffffffffffffffffffffffffffffffffff1673ffffffffffffffffffffffffffffffffffffffff1681526020016000820160149054906101000a900460ff1660028111156119605761195f612db8565b5b600281111561197257611971612db8565b5b8152602001600182015481526020016002820154815250509050600060036000836020015160028111156119a9576119a8612db8565b5b60028111156119bb576119ba612db8565b5b81526020019081526020016000206040518060e001604052908160008201548152602001600182015481526020016002820154815260200160038201548152602001600482015481526020016005820154815260200160068201548152505090506000611a626a084595161401484a0000006064611a3991906138ae565b611a548460800151866040015161248790919063ffffffff16565b61249d90919063ffffffff16565b905060008190506000611a97611a86600a8660a0015161248790919063ffffffff16565b600254611d5290919063ffffffff16565b90506000611ac5611ab6600a8760c0015161248790919063ffffffff16565b83611d5290919063ffffffff16565b905081431115611b46576000611adb83836124b3565b90506000611af68689604001516117da90919063ffffffff16565b9050611b41611b32611b1186866117da90919063ffffffff16565b611b24858561248790919063ffffffff16565b61249d90919063ffffffff16565b86611d5290919063ffffffff16565b945050505b611b5d8660600151846117da90919063ffffffff16565b9650505050505050919050565b600033905090565b6000611b7e83836117f0565b1580611b8b575060025443105b15611b995760009050611d4c565b6000600760008573ffffffffffffffffffffffffffffffffffffffff1673ffffffffffffffffffffffffffffffffffffffff1681526020019081526020016000206000846002811115611bef57611bee612db8565b5b6002811115611c0157611c00612db8565b5b81526020019081526020016000205490506000611c1d826118c4565b90506000811115611d4657611c758160036000876002811115611c4357611c42612db8565b5b6002811115611c5557611c54612db8565b5b815260200190815260200160002060030154611d5290919063ffffffff16565b60036000866002811115611c8c57611c8b612db8565b5b6002811115611c9e57611c9d612db8565b5b815260200190815260200160002060030181905550611cdc816005600085815260200190815260200160002060020154611d5290919063ffffffff16565b60056000848152602001908152602001600020600201819055508473ffffffffffffffffffffffffffffffffffffffff16827f14a81f9a556dbd4b3ae8c924aef3cc382cb6f3c4b91e88201a1be8e8cf35932883604051611d3d9190612bd5565b60405180910390a35b80925050505b92915050565b60008183611d609190613a60565b905092915050565b611de98363a9059cbb60e01b8484604051602401611d87929190613ab6565b604051602081830303815290604052907bffffffffffffffffffffffffffffffffffffffffffffffffffffffff19166020820180517bffffffffffffffffffffffffffffffffffffffffffffffffffffffff83818316178352505050506124f2565b505050565b6000611dfc826000016125b9565b9050919050565b611e0b611b6a565b73ffffffffffffffffffffffffffffffffffffffff16611e29610f62565b73ffffffffffffffffffffffffffffffffffffffff1614611e7f576040517f08c379a0000000000000000000000000000000000000000000000000000000008152600401611e7690613b2b565b60405180910390fd5b565b60008060009054906101000a900473ffffffffffffffffffffffffffffffffffffffff169050816000806101000a81548173ffffffffffffffffffffffffffffffffffffffff021916908373ffffffffffffffffffffffffffffffffffffffff1602179055508173ffffffffffffffffffffffffffffffffffffffff168173ffffffffffffffffffffffffffffffffffffffff167f8be0079c531659141344cd1fd0a4f28419497f9722a3daafe3b4186f6b6457e060405160405180910390a35050565b611f4f83836117f0565b15611f8f576040517f08c379a0000000000000000000000000000000000000000000000000000000008152600401611f8690613b97565b60405180910390fd5b600060036000846002811115611fa857611fa7612db8565b5b6002811115611fba57611fb9612db8565b5b815260200190815260200160002090508060010154611fe6838360020154611d5290919063ffffffff16565b1115612027576040517f08c379a000000000000000000000000000000000000000000000000000000000815260040161201e90613c29565b60405180910390fd5b61203e828260020154611d5290919063ffffffff16565b81600201819055508360056000600454815260200190815260200160002060000160006101000a81548173ffffffffffffffffffffffffffffffffffffffff021916908373ffffffffffffffffffffffffffffffffffffffff1602179055508260056000600454815260200190815260200160002060000160146101000a81548160ff021916908360028111156120d8576120d7612db8565b5b0217905550816005600060045481526020019081526020016000206001018190555061214d600454600660008773ffffffffffffffffffffffffffffffffffffffff1673ffffffffffffffffffffffffffffffffffffffff1681526020019081526020016000206125ca90919063ffffffff16565b50600454600760008673ffffffffffffffffffffffffffffffffffffffff1673ffffffffffffffffffffffffffffffffffffffff16815260200190815260200160002060008560028111156121a5576121a4612db8565b5b60028111156121b7576121b6612db8565b5b8152602001908152602001600020819055506121df6001600454611d5290919063ffffffff16565b6004819055508373ffffffffffffffffffffffffffffffffffffffff166004547fca26c44dfb310e29094c39c1c371f88ec57baa3398ea2a3abc3f9c825a4f72128460405161222e9190612bd5565b60405180910390a350505050565b600081831061224b578161224d565b825b905092915050565b60008183116122645781612266565b825b905092915050565b600061227d83600001836125e4565b60001c905092915050565b83600360008760028111156122a05761229f612db8565b5b60028111156122b2576122b1612db8565b5b81526020019081526020016000206000018190555082600360008760028111156122df576122de612db8565b5b60028111156122f1576122f0612db8565b5b815260200190815260200160002060040181905550816003600087600281111561231e5761231d612db8565b5b60028111156123305761232f612db8565b5b815260200190815260200160002060050181905550806003600087600281111561235d5761235c612db8565b5b600281111561236f5761236e612db8565b5b8152602001908152602001600020600601819055507f7e9f14af6752ec6d3a32eb60acdc8e5897e088bad8c77b6faec09e0546ddd7df85858585856040516123bb959493929190613c49565b60405180910390a15050505050565b61244d846323b872dd60e01b8585856040516024016123eb93929190613c9c565b604051602081830303815290604052907bffffffffffffffffffffffffffffffffffffffffffffffffffffffff19166020820180517bffffffffffffffffffffffffffffffffffffffffffffffffffffffff83818316178352505050506124f2565b50505050565b6000612465836000018360001b61260f565b905092915050565b600061247f836000018360001b612723565b905092915050565b6000818361249591906138ae565b905092915050565b600081836124ab9190613d02565b905092915050565b60008143106124d6576124cf83836117da90919063ffffffff16565b90506124ec565b6124e983436117da90919063ffffffff16565b90505b92915050565b6000612554826040518060400160405280602081526020017f5361666545524332303a206c6f772d6c6576656c2063616c6c206661696c65648152508573ffffffffffffffffffffffffffffffffffffffff166127469092919063ffffffff16565b90506000815111156125b457808060200190518101906125749190613d6b565b6125b3576040517f08c379a00000000000000000000000000000000000000000000000000000000081526004016125aa90613e0a565b60405180910390fd5b5b505050565b600081600001805490509050919050565b60006125dc836000018360001b61275e565b905092915050565b60008260000182815481106125fc576125fb61359f565b5b9060005260206000200154905092915050565b600080836001016000848152602001908152602001600020549050600081146127175760006001826126419190613a2c565b90506000600186600001805490506126599190613a2c565b90508181146126c857600086600001828154811061267a5761267961359f565b5b906000526020600020015490508087600001848154811061269e5761269d61359f565b5b90600052602060002001819055508387600101600083815260200190815260200160002081905550505b856000018054806126dc576126db613e2a565b5b60019003818190600052602060002001600090559055856001016000868152602001908152602001600020600090556001935050505061271d565b60009150505b92915050565b600080836001016000848152602001908152602001600020541415905092915050565b606061275584846000856127ce565b90509392505050565b600061276a8383612723565b6127c35782600001829080600181540180825580915050600190039060005260206000200160009091909190915055826000018054905083600101600084815260200190815260200160002081905550600190506127c8565b600090505b92915050565b606082471015612813576040517f08c379a000000000000000000000000000000000000000000000000000000000815260040161280a90613ecb565b60405180910390fd5b6000808673ffffffffffffffffffffffffffffffffffffffff16858760405161283c9190613f65565b60006040518083038185875af1925050503d8060008114612879576040519150601f19603f3d011682016040523d82523d6000602084013e61287e565b606091505b509150915061288f8783838761289b565b92505050949350505050565b606083156128fe576000835114156128f6576128b685612911565b6128f5576040517f08c379a00000000000000000000000000000000000000000000000000000000081526004016128ec90613fc8565b60405180910390fd5b5b829050612909565b6129088383612934565b5b949350505050565b6000808273ffffffffffffffffffffffffffffffffffffffff163b119050919050565b6000825111156129475781518083602001fd5b806040517f08c379a000000000000000000000000000000000000000000000000000000000815260040161297b919061402c565b60405180910390fd5b6040518060800160405280600073ffffffffffffffffffffffffffffffffffffffff168152602001600060028111156129c0576129bf612db8565b5b815260200160008152602001600081525090565b6040518060c001604052806000815260200160008152602001600081526020016000815260200160008152602001600081525090565b6000604051905090565b600080fd5b600080fd5b600080fd5b6000601f19601f8301169050919050565b7f4e487b7100000000000000000000000000000000000000000000000000000000600052604160045260246000fd5b612a6c82612a23565b810181811067ffffffffffffffff82111715612a8b57612a8a612a34565b5b80604052505050565b6000612a9e612a0a565b9050612aaa8282612a63565b919050565b6000819050919050565b612ac281612aaf565b8114612acd57600080fd5b50565b600081359050612adf81612ab9565b92915050565b600060e08284031215612afb57612afa612a1e565b5b612b0560e0612a94565b90506000612b1584828501612ad0565b6000830152506020612b2984828501612ad0565b6020830152506040612b3d84828501612ad0565b6040830152506060612b5184828501612ad0565b6060830152506080612b6584828501612ad0565b60808301525060a0612b7984828501612ad0565b60a08301525060c0612b8d84828501612ad0565b60c08301525092915050565b600060e08284031215612baf57612bae612a14565b5b6000612bbd84828501612ae5565b91505092915050565b612bcf81612aaf565b82525050565b6000602082019050612bea6000830184612bc6565b92915050565b600073ffffffffffffffffffffffffffffffffffffffff82169050919050565b6000612c1b82612bf0565b9050919050565b612c2b81612c10565b8114612c3657600080fd5b50565b600081359050612c4881612c22565b92915050565b60038110612c5b57600080fd5b50565b600081359050612c6d81612c4e565b92915050565b60008060408385031215612c8a57612c89612a14565b5b6000612c9885828601612c39565b9250506020612ca985828601612c5e565b9150509250929050565b600060208284031215612cc957612cc8612a14565b5b6000612cd784828501612c39565b91505092915050565b600060208284031215612cf657612cf5612a14565b5b6000612d0484828501612c5e565b91505092915050565b600060e082019050612d22600083018a612bc6565b612d2f6020830189612bc6565b612d3c6040830188612bc6565b612d496060830187612bc6565b612d566080830186612bc6565b612d6360a0830185612bc6565b612d7060c0830184612bc6565b98975050505050505050565b600060208284031215612d9257612d91612a14565b5b6000612da084828501612ad0565b91505092915050565b612db281612c10565b82525050565b7f4e487b7100000000000000000000000000000000000000000000000000000000600052602160045260246000fd5b60038110612df857612df7612db8565b5b50565b6000819050612e0982612de7565b919050565b6000612e1982612dfb565b9050919050565b612e2981612e0e565b82525050565b6000608082019050612e446000830187612da9565b612e516020830186612e20565b612e5e6040830185612bc6565b612e6b6060830184612bc6565b95945050505050565b600080600060608486031215612e8d57612e8c612a14565b5b6000612e9b86828701612c39565b9350506020612eac86828701612c5e565b9250506040612ebd86828701612ad0565b9150509250925092565b60008060408385031215612ede57612edd612a14565b5b6000612eec85828601612ad0565b9250506020612efd85828601612ad0565b9150509250929050565b600081519050919050565b600082825260208201905092915050565b6000819050602082019050919050565b612f3c81612c10565b82525050565b612f4b81612e0e565b82525050565b612f5a81612aaf565b82525050565b608082016000820151612f766000850182612f33565b506020820151612f896020850182612f42565b506040820151612f9c6040850182612f51565b506060820151612faf6060850182612f51565b50505050565b6000612fc18383612f60565b60808301905092915050565b6000602082019050919050565b6000612fe582612f07565b612fef8185612f12565b9350612ffa83612f23565b8060005b8381101561302b5781516130128882612fb5565b975061301d83612fcd565b925050600181019050612ffe565b5085935050505092915050565b600060208201905081810360008301526130528184612fda565b905092915050565b600080600080600060a0868803121561307657613075612a14565b5b600061308488828901612c5e565b955050602061309588828901612ad0565b94505060406130a688828901612ad0565b93505060606130b788828901612ad0565b92505060806130c888828901612ad0565b9150509295509295909350565b600080fd5b600080fd5b600080fd5b60008083601f8401126130fa576130f96130d5565b5b8235905067ffffffffffffffff811115613117576131166130da565b5b602083019150836020820283011115613133576131326130df565b5b9250929050565b60008083601f8401126131505761314f6130d5565b5b8235905067ffffffffffffffff81111561316d5761316c6130da565b5b602083019150836020820283011115613189576131886130df565b5b9250929050565b60008083601f8401126131a6576131a56130d5565b5b8235905067ffffffffffffffff8111156131c3576131c26130da565b5b6020830191508360208202830111156131df576131de6130df565b5b9250929050565b6000806000806000806060878903121561320357613202612a14565b5b600087013567ffffffffffffffff81111561322157613220612a19565b5b61322d89828a016130e4565b9650965050602087013567ffffffffffffffff8111156132505761324f612a19565b5b61325c89828a0161313a565b9450945050604087013567ffffffffffffffff81111561327f5761327e612a19565b5b61328b89828a01613190565b92509250509295509295509295565b60006020820190506132af6000830184612da9565b92915050565b600080604083850312156132cc576132cb612a14565b5b60006132da85828601612c5e565b92505060206132eb85828601612ad0565b9150509250929050565b60c08201600082015161330b6000850182612f51565b50602082015161331e6020850182612f51565b5060408201516133316040850182612f51565b5060608201516133446060850182612f51565b5060808201516133576080850182612f51565b5060a082015161336a60a0850182612f51565b50505050565b600060c08201905061338560008301846132f5565b92915050565b60008060008060008060008060008060a08b8d0312156133ae576133ad612a14565b5b60008b013567ffffffffffffffff8111156133cc576133cb612a19565b5b6133d88d828e0161313a565b9a509a505060208b013567ffffffffffffffff8111156133fb576133fa612a19565b5b6134078d828e01613190565b985098505060408b013567ffffffffffffffff81111561342a57613429612a19565b5b6134368d828e01613190565b965096505060608b013567ffffffffffffffff81111561345957613458612a19565b5b6134658d828e01613190565b945094505060808b013567ffffffffffffffff81111561348857613487612a19565b5b6134948d828e01613190565b92509250509295989b9194979a5092959850565b6000819050919050565b60006134cd6134c86134c384612bf0565b6134a8565b612bf0565b9050919050565b60006134df826134b2565b9050919050565b60006134f1826134d4565b9050919050565b613501816134e6565b82525050565b600060208201905061351c60008301846134f8565b92915050565b600082825260208201905092915050565b7f56657374696e673a20426c6f636b205447452068617320706173736564000000600082015250565b6000613569601d83613522565b915061357482613533565b602082019050919050565b600060208201905081810360008301526135988161355c565b9050919050565b7f4e487b7100000000000000000000000000000000000000000000000000000000600052603260045260246000fd5b7f4e487b7100000000000000000000000000000000000000000000000000000000600052601160045260246000fd5b600061360882612aaf565b91507fffffffffffffffffffffffffffffffffffffffffffffffffffffffffffffffff82141561363b5761363a6135ce565b5b600182019050919050565b7f56657374696e673a20546f6f206d616e7920617267756d656e74730000000000600082015250565b600061367c601b83613522565b915061368782613646565b602082019050919050565b600060208201905081810360008301526136ab8161366f565b9050919050565b7f56657374696e673a204c656e677468206d69736d617463680000000000000000600082015250565b60006136e8601883613522565b91506136f3826136b2565b602082019050919050565b60006020820190508181036000830152613717816136db565b9050919050565b7f56657374696e673a20416d6f756e742065786365656473206d6178207375707060008201527f6c79000000000000000000000000000000000000000000000000000000000000602082015250565b600061377a602283613522565b91506137858261371e565b604082019050919050565b600060208201905081810360008301526137a98161376d565b9050919050565b7f56657374696e673a20426c6f636b2054474520616c7265616479207365740000600082015250565b60006137e6601e83613522565b91506137f1826137b0565b602082019050919050565b60006020820190508181036000830152613815816137d9565b9050919050565b7f56657374696e673a2053686f756c642073657420626c6f636b20696e2066757460008201527f7572650000000000000000000000000000000000000000000000000000000000602082015250565b6000613878602383613522565b91506138838261381c565b604082019050919050565b600060208201905081810360008301526138a78161386b565b9050919050565b60006138b982612aaf565b91506138c483612aaf565b9250817fffffffffffffffffffffffffffffffffffffffffffffffffffffffffffffffff04831182151516156138fd576138fc6135ce565b5b828202905092915050565b7f56657374696e673a20546869732076657374696e6720646f65736e277420657860008201527f6973740000000000000000000000000000000000000000000000000000000000602082015250565b6000613964602383613522565b915061396f82613908565b604082019050919050565b6000602082019050818103600083015261399381613957565b9050919050565b7f4f776e61626c653a206e6577206f776e657220697320746865207a65726f206160008201527f6464726573730000000000000000000000000000000000000000000000000000602082015250565b60006139f6602683613522565b9150613a018261399a565b604082019050919050565b60006020820190508181036000830152613a25816139e9565b9050919050565b6000613a3782612aaf565b9150613a4283612aaf565b925082821015613a5557613a546135ce565b5b828203905092915050565b6000613a6b82612aaf565b9150613a7683612aaf565b9250827fffffffffffffffffffffffffffffffffffffffffffffffffffffffffffffffff03821115613aab57613aaa6135ce565b5b828201905092915050565b6000604082019050613acb6000830185612da9565b613ad86020830184612bc6565b9392505050565b7f4f776e61626c653a2063616c6c6572206973206e6f7420746865206f776e6572600082015250565b6000613b15602083613522565b9150613b2082613adf565b602082019050919050565b60006020820190508181036000830152613b4481613b08565b9050919050565b7f56657374696e673a20416c726561647920696e76657374656400000000000000600082015250565b6000613b81601983613522565b9150613b8c82613b4b565b602082019050919050565b60006020820190508181036000830152613bb081613b74565b9050919050565b7f56657374696e673a20496e7375666973616e74206c6f636b656420737570706c60008201527f7900000000000000000000000000000000000000000000000000000000000000602082015250565b6000613c13602183613522565b9150613c1e82613bb7565b604082019050919050565b60006020820190508181036000830152613c4281613c06565b9050919050565b600060a082019050613c5e6000830188612e20565b613c6b6020830187612bc6565b613c786040830186612bc6565b613c856060830185612bc6565b613c926080830184612bc6565b9695505050505050565b6000606082019050613cb16000830186612da9565b613cbe6020830185612da9565b613ccb6040830184612bc6565b949350505050565b7f4e487b7100000000000000000000000000000000000000000000000000000000600052601260045260246000fd5b6000613d0d82612aaf565b9150613d1883612aaf565b925082613d2857613d27613cd3565b5b828204905092915050565b60008115159050919050565b613d4881613d33565b8114613d5357600080fd5b50565b600081519050613d6581613d3f565b92915050565b600060208284031215613d8157613d80612a14565b5b6000613d8f84828501613d56565b91505092915050565b7f5361666545524332303a204552433230206f7065726174696f6e20646964206e60008201527f6f74207375636365656400000000000000000000000000000000000000000000602082015250565b6000613df4602a83613522565b9150613dff82613d98565b604082019050919050565b60006020820190508181036000830152613e2381613de7565b9050919050565b7f4e487b7100000000000000000000000000000000000000000000000000000000600052603160045260246000fd5b7f416464726573733a20696e73756666696369656e742062616c616e636520666f60008201527f722063616c6c0000000000000000000000000000000000000000000000000000602082015250565b6000613eb5602683613522565b9150613ec082613e59565b604082019050919050565b60006020820190508181036000830152613ee481613ea8565b9050919050565b600081519050919050565b600081905092915050565b60005b83811015613f1f578082015181840152602081019050613f04565b83811115613f2e576000848401525b50505050565b6000613f3f82613eeb565b613f498185613ef6565b9350613f59818560208601613f01565b80840191505092915050565b6000613f718284613f34565b915081905092915050565b7f416464726573733a2063616c6c20746f206e6f6e2d636f6e7472616374000000600082015250565b6000613fb2601d83613522565b9150613fbd82613f7c565b602082019050919050565b60006020820190508181036000830152613fe181613fa5565b9050919050565b600081519050919050565b6000613ffe82613fe8565b6140088185613522565b9350614018818560208601613f01565b61402181612a23565b840191505092915050565b600060208201905081810360008301526140468184613ff3565b90509291505056fea26469706673582212208363c02f71d5b8145ee063e0ddb32d19c1273c093ffeffb63c68fbe53a8e897c64736f6c634300080a0033",
  "linkReferences": {},
  "deployedLinkReferences": {}
}